{"contracts/MovieArticle.sol":{"MovieArticle":{"abi":[{"inputs":[{"internalType":"address","name":"_rewardToken","type":"address"}],"stateMutability":"nonpayable","type":"constructor"},{"inputs":[{"internalType":"address","name":"sender","type":"address"},{"internalType":"uint256","name":"tokenId","type":"uint256"},{"internalType":"address","name":"owner","type":"address"}],"name":"ERC721IncorrectOwner","type":"error"},{"inputs":[{"internalType":"address","name":"operator","type":"address"},{"internalType":"uint256","name":"tokenId","type":"uint256"}],"name":"ERC721InsufficientApproval","type":"error"},{"inputs":[{"internalType":"address","name":"approver","type":"address"}],"name":"ERC721InvalidApprover","type":"error"},{"inputs":[{"internalType":"address","name":"operator","type":"address"}],"name":"ERC721InvalidOperator","type":"error"},{"inputs":[{"internalType":"address","name":"owner","type":"address"}],"name":"ERC721InvalidOwner","type":"error"},{"inputs":[{"internalType":"address","name":"receiver","type":"address"}],"name":"ERC721InvalidReceiver","type":"error"},{"inputs":[{"internalType":"address","name":"sender","type":"address"}],"name":"ERC721InvalidSender","type":"error"},{"inputs":[{"internalType":"uint256","name":"tokenId","type":"uint256"}],"name":"ERC721NonexistentToken","type":"error"},{"inputs":[{"internalType":"address","name":"owner","type":"address"}],"name":"OwnableInvalidOwner","type":"error"},{"inputs":[{"internalType":"address","name":"account","type":"address"}],"name":"OwnableUnauthorizedAccount","type":"error"},{"inputs":[],"name":"ReentrancyGuardReentrantCall","type":"error"},{"anonymous":false,"inputs":[{"indexed":true,"internalType":"address","name":"owner","type":"address"},{"indexed":true,"internalType":"address","name":"approved","type":"address"},{"indexed":true,"internalType":"uint256","name":"tokenId","type":"uint256"}],"name":"Approval","type":"event"},{"anonymous":false,"inputs":[{"indexed":true,"internalType":"address","name":"owner","type":"address"},{"indexed":true,"internalType":"address","name":"operator","type":"address"},{"indexed":false,"internalType":"bool","name":"approved","type":"bool"}],"name":"ApprovalForAll","type":"event"},{"anonymous":false,"inputs":[{"indexed":true,"internalType":"uint256","name":"articleId","type":"uint256"},{"indexed":false,"internalType":"uint256","name":"totalRewards","type":"uint256"}],"name":"ArticleCompleted","type":"event"},{"anonymous":false,"inputs":[{"indexed":true,"internalType":"uint256","name":"articleId","type":"uint256"},{"indexed":true,"internalType":"address","name":"creator","type":"address"},{"indexed":false,"internalType":"string","name":"title","type":"string"}],"name":"ArticleCreated","type":"event"},{"anonymous":false,"inputs":[{"indexed":true,"internalType":"uint256","name":"contributionId","type":"uint256"},{"indexed":true,"internalType":"uint256","name":"articleId","type":"uint256"},{"indexed":true,"internalType":"address","name":"contributor","type":"address"}],"name":"ContributionAdded","type":"event"},{"anonymous":false,"inputs":[{"indexed":true,"internalType":"uint256","name":"contributionId","type":"uint256"},{"indexed":false,"internalType":"uint256","name":"reward","type":"uint256"}],"name":"ContributionApproved","type":"event"},{"anonymous":false,"inputs":[{"indexed":true,"internalType":"uint256","name":"contributionId","type":"uint256"},{"indexed":true,"internalType":"address","name":"liker","type":"address"}],"name":"ContributionLiked","type":"event"},{"anonymous":false,"inputs":[{"indexed":true,"internalType":"address","name":"previousOwner","type":"address"},{"indexed":true,"internalType":"address","name":"newOwner","type":"address"}],"name":"OwnershipTransferred","type":"event"},{"anonymous":false,"inputs":[{"indexed":true,"internalType":"uint256","name":"articleId","type":"uint256"},{"indexed":false,"internalType":"uint256","name":"totalAmount","type":"uint256"}],"name":"RewardsDistributed","type":"event"},{"anonymous":false,"inputs":[{"indexed":true,"internalType":"address","name":"from","type":"address"},{"indexed":true,"internalType":"address","name":"to","type":"address"},{"indexed":true,"internalType":"uint256","name":"tokenId","type":"uint256"}],"name":"Transfer","type":"event"},{"inputs":[{"internalType":"uint256","name":"_articleId","type":"uint256"},{"internalType":"string","name":"_content","type":"string"}],"name":"addContribution","outputs":[],"stateMutability":"nonpayable","type":"function"},{"inputs":[{"internalType":"address","name":"to","type":"address"},{"internalType":"uint256","name":"tokenId","type":"uint256"}],"name":"approve","outputs":[],"stateMutability":"nonpayable","type":"function"},{"inputs":[{"internalType":"uint256","name":"_contributionId","type":"uint256"},{"internalType":"uint256","name":"_reward","type":"uint256"}],"name":"approveContribution","outputs":[],"stateMutability":"nonpayable","type":"function"},{"inputs":[{"internalType":"uint256","name":"","type":"uint256"},{"internalType":"uint256","name":"","type":"uint256"}],"name":"articleContributions","outputs":[{"internalType":"uint256","name":"","type":"uint256"}],"stateMutability":"view","type":"function"},{"inputs":[{"internalType":"uint256","name":"","type":"uint256"}],"name":"articles","outputs":[{"internalType":"uint256","name":"id","type":"uint256"},{"internalType":"string","name":"title","type":"string"},{"internalType":"string","name":"movieTitle","type":"string"},{"internalType":"string","name":"genre","type":"string"},{"internalType":"address","name":"creator","type":"address"},{"internalType":"uint256","name":"createdAt","type":"uint256"},{"internalType":"uint256","name":"totalContributions","type":"uint256"},{"internalType":"uint256","name":"totalRewards","type":"uint256"},{"internalType":"bool","name":"isCompleted","type":"bool"},{"internalType":"uint256","name":"minContributionLength","type":"uint256"},{"internalType":"uint256","name":"maxContributors","type":"uint256"}],"stateMutability":"view","type":"function"},{"inputs":[{"internalType":"address","name":"owner","type":"address"}],"name":"balanceOf","outputs":[{"internalType":"uint256","name":"","type":"uint256"}],"stateMutability":"view","type":"function"},{"inputs":[{"internalType":"uint256","name":"_articleId","type":"uint256"}],"name":"completeArticle","outputs":[],"stateMutability":"nonpayable","type":"function"},{"inputs":[{"internalType":"uint256","name":"","type":"uint256"}],"name":"contributions","outputs":[{"internalType":"uint256","name":"id","type":"uint256"},{"internalType":"uint256","name":"articleId","type":"uint256"},{"internalType":"address","name":"contributor","type":"address"},{"internalType":"string","name":"content","type":"string"},{"internalType":"uint256","name":"timestamp","type":"uint256"},{"internalType":"uint256","name":"likes","type":"uint256"},{"internalType":"uint256","name":"rewards","type":"uint256"},{"internalType":"bool","name":"isApproved","type":"bool"}],"stateMutability":"view","type":"function"},{"inputs":[{"internalType":"string","name":"_title","type":"string"},{"internalType":"string","name":"_movieTitle","type":"string"},{"internalType":"string","name":"_genre","type":"string"},{"internalType":"uint256","name":"_minContributionLength","type":"uint256"},{"internalType":"uint256","name":"_maxContributors","type":"uint256"}],"name":"createArticle","outputs":[{"internalType":"uint256","name":"","type":"uint256"}],"stateMutability":"nonpayable","type":"function"},{"inputs":[{"internalType":"uint256","name":"tokenId","type":"uint256"}],"name":"getApproved","outputs":[{"internalType":"address","name":"","type":"address"}],"stateMutability":"view","type":"function"},{"inputs":[{"internalType":"uint256","name":"_articleId","type":"uint256"}],"name":"getArticleContributions","outputs":[{"internalType":"uint256[]","name":"","type":"uint256[]"}],"stateMutability":"view","type":"function"},{"inputs":[],"name":"getTotalArticles","outputs":[{"internalType":"uint256","name":"","type":"uint256"}],"stateMutability":"view","type":"function"},{"inputs":[],"name":"getTotalContributions","outputs":[{"internalType":"uint256","name":"","type":"uint256"}],"stateMutability":"view","type":"function"},{"inputs":[{"internalType":"address","name":"_user","type":"address"}],"name":"getUserContributions","outputs":[{"internalType":"uint256[]","name":"","type":"uint256[]"}],"stateMutability":"view","type":"function"},{"inputs":[{"internalType":"uint256","name":"","type":"uint256"},{"internalType":"address","name":"","type":"address"}],"name":"hasContributed","outputs":[{"internalType":"bool","name":"","type":"bool"}],"stateMutability":"view","type":"function"},{"inputs":[{"internalType":"uint256","name":"","type":"uint256"},{"internalType":"address","name":"","type":"address"}],"name":"hasLiked","outputs":[{"internalType":"bool","name":"","type":"bool"}],"stateMutability":"view","type":"function"},{"inputs":[{"internalType":"address","name":"owner","type":"address"},{"internalType":"address","name":"operator","type":"address"}],"name":"isApprovedForAll","outputs":[{"internalType":"bool","name":"","type":"bool"}],"stateMutability":"view","type":"function"},{"inputs":[{"internalType":"uint256","name":"_contributionId","type":"uint256"}],"name":"likeContribution","outputs":[],"stateMutability":"nonpayable","type":"function"},{"inputs":[],"name":"name","outputs":[{"internalType":"string","name":"","type":"string"}],"stateMutability":"view","type":"function"},{"inputs":[],"name":"owner","outputs":[{"internalType":"address","name":"","type":"address"}],"stateMutability":"view","type":"function"},{"inputs":[{"internalType":"uint256","name":"tokenId","type":"uint256"}],"name":"ownerOf","outputs":[{"internalType":"address","name":"","type":"address"}],"stateMutability":"view","type":"function"},{"inputs":[],"name":"renounceOwnership","outputs":[],"stateMutability":"nonpayable","type":"function"},{"inputs":[],"name":"rewardToken","outputs":[{"internalType":"contract IERC20","name":"","type":"address"}],"stateMutability":"view","type":"function"},{"inputs":[{"internalType":"address","name":"from","type":"address"},{"internalType":"address","name":"to","type":"address"},{"internalType":"uint256","name":"tokenId","type":"uint256"}],"name":"safeTransferFrom","outputs":[],"stateMutability":"nonpayable","type":"function"},{"inputs":[{"internalType":"address","name":"from","type":"address"},{"internalType":"address","name":"to","type":"address"},{"internalType":"uint256","name":"tokenId","type":"uint256"},{"internalType":"bytes","name":"data","type":"bytes"}],"name":"safeTransferFrom","outputs":[],"stateMutability":"nonpayable","type":"function"},{"inputs":[{"internalType":"address","name":"operator","type":"address"},{"internalType":"bool","name":"approved","type":"bool"}],"name":"setApprovalForAll","outputs":[],"stateMutability":"nonpayable","type":"function"},{"inputs":[{"internalType":"bytes4","name":"interfaceId","type":"bytes4"}],"name":"supportsInterface","outputs":[{"internalType":"bool","name":"","type":"bool"}],"stateMutability":"view","type":"function"},{"inputs":[],"name":"symbol","outputs":[{"internalType":"string","name":"","type":"string"}],"stateMutability":"view","type":"function"},{"inputs":[{"internalType":"uint256","name":"tokenId","type":"uint256"}],"name":"tokenURI","outputs":[{"internalType":"string","name":"","type":"string"}],"stateMutability":"view","type":"function"},{"inputs":[{"internalType":"address","name":"from","type":"address"},{"internalType":"address","name":"to","type":"address"},{"internalType":"uint256","name":"tokenId","type":"uint256"}],"name":"transferFrom","outputs":[],"stateMutability":"nonpayable","type":"function"},{"inputs":[{"internalType":"address","name":"newOwner","type":"address"}],"name":"transferOwnership","outputs":[],"stateMutability":"nonpayable","type":"function"},{"inputs":[{"internalType":"address","name":"","type":"address"},{"internalType":"uint256","name":"","type":"uint256"}],"name":"userContributions","outputs":[{"internalType":"uint256","name":"","type":"uint256"}],"stateMutability":"view","type":"function"},{"inputs":[{"internalType":"uint256","name":"_amount","type":"uint256"}],"name":"withdrawTokens","outputs":[],"stateMutability":"nonpayable","type":"function"}],"evm":{"bytecode":{"linkReferences":{},"object":"608034620003c957601f906001600160401b0390601f1990620027ff388190038581018416830185811184821017620003b357839282916040528339602092839181010312620003c957516001600160a01b03948582169491859003620003c9576200006a620003ce565b92600f84526e135bdd9a59505c9d1a58db19539195608a1b8185015262000090620003ce565b906005825264135053919560da1b81830152845195848711620003b3576000968754966001978881811c91168015620003a8575b85821014620003945790818784931162000341575b508490878311600114620002e0578a92620002d4575b5050600019600383901b1c191690871b1787555b8251948511620002c05785548681811c91168015620002b5575b83821014620002a15790818587969594931162000248575b5081938511600114620001e35750508592620001d7575b5050600019600383901b1c191690821b1781555b3315620001be5760065460018060a01b03199233848316176006557f8be0079c531659141344cd1fd0a4f28419497f9722a3daafe3b4186f6b6457e0604051963393169180a360075560105416176010556124109081620003ef8239f35b604051631e4fbdf760e01b815260048101839052602490fd5b0151905038806200014c565b869593929193168588528388209388905b8282106200022e575050841162000214575b505050811b01815562000160565b015160001960f88460031b161c1916905538808062000206565b8484015186558897909501949384019390810190620001f4565b9091929394508688528288208580880160051c82019285891062000297575b9188978a9297969594930160051c01915b8281106200028857505062000135565b8a815588975089910162000278565b9250819262000267565b634e487b7160e01b88526022600452602488fd5b90607f16906200011d565b634e487b7160e01b87526041600452602487fd5b015190503880620000ef565b90848a9416918b8052868c20928c5b888282106200032a575050841162000310575b505050811b01875562000103565b015160001960f88460031b161c1916905538808062000302565b8385015186558d97909501949384019301620002ef565b909150898052848a208780850160051c8201928786106200038a575b918b91869594930160051c01915b8281106200037b575050620000d9565b8c81558594508b91016200036b565b925081926200035d565b634e487b7160e01b8a52602260045260248afd5b90607f1690620000c4565b634e487b7160e01b600052604160045260246000fd5b600080fd5b60408051919082016001600160401b03811183821017620003b35760405256fe608080604052600436101561001357600080fd5b60003560e01c90816301ffc9a714611cae5750806306fdde0314611c0b578063081812fc14611bcd578063095ea7b314611ae65780630ebf1d3d14611ac85780631cee070014611a2a57806323b872dd14611a1357806330243834146119e2578063315a095d1461196857806342842e0e1461193a5780634fa650f1146114b15780636352211e146114815780636fd91da9146112c057806370a0823114611267578063715018a61461120a5780637331fa95146111b25780638a9a62a8146110545780638da5cb5b1461102b5780638fb7092c14610fde5780639178af6514610a9e57806395d89b41146109bf578063a22cb46514610911578063b5b96ae0146108c4578063b88d4fde14610856578063c87b56dd14610803578063d5df1e1d1461048e578063ddf556d014610470578063e36465a3146103f8578063e3e03dc01461037e578063e985e9c514610328578063edcfafe614610241578063f2fde38b146101b85763f7c618c11461018a57600080fd5b346101b35760003660031901126101b3576010546040516001600160a01b039091168152602090f35b600080fd5b346101b35760203660031901126101b3576101d1611d59565b6101d9611fc8565b6001600160a01b0390811690811561022857600654826001600160601b0360a01b821617600655167f8be0079c531659141344cd1fd0a4f28419497f9722a3daafe3b4186f6b6457e0600080a3005b604051631e4fbdf760e01b815260006004820152602490fd5b346101b35760203660031901126101b357600435600052600a6020526040600020805461027060018301611dfd565b9161027d60028201611dfd565b61028960038301611dfd565b9160018060a01b0360048201541692600582015460068301546007840154916102fb60ff600887015416946102ed600a6009890154980154986102df6040519d8e9d8e528d610160908160208201520190611d19565b8c810360408e015290611d19565b908a820360608c0152611d19565b96608089015260a088015260c087015260e086015215156101008501526101208401526101408301520390f35b346101b35760403660031901126101b357610341611d59565b610349611d6f565b9060018060a01b03809116600052600560205260406000209116600052602052602060ff604060002054166040519015158152f35b346101b3576020806003193601126101b357600435600052600c8152604060002090604051908181845491828152019360005281600020916000905b8282106103e1576103dd856103d181890382611ddb565b60405191829182611f8d565b0390f35b8354865294850194600193840193909101906103ba565b346101b3576020806003193601126101b3576001600160a01b0361041a611d59565b16600052600d8152604060002090604051908181845491828152019360005281600020916000905b828210610459576103dd856103d181890382611ddb565b835486529485019460019384019390910190610442565b346101b35760003660031901126101b3576020600954604051908152f35b346101b3576020806003193601126101b357600435906104ac611fc8565b6104ba6008548311156122f7565b81600052600a815260ff600860406000200154166107bf5781600052600a81526006604060002001541561077b576000828152600a825260409081902060088101805460ff191660011790556004015490516001600160a01b039182169161052182611dbf565b600082528215610762578460005260028452604060002054168483821515928361072f575b60008281526003885260408082208054600101905584825260028952812080546001600160a01b031916841790557fddf252ad1be2c89b69c2b068fc378daa952ba7f163c4a11628f55a4df523b3ef9080a461071657813b6105e0575b837fcecd5d5df52f22750a7b838a07823685059f55f29d937091bb81ff96a6612d8d8482600052600a8152600760406000200154604051908152a2005b604051838180610619630a85bd0160e11b9586835233600484015260006024840152896044840152608060648401526084830190611d19565b03816000875af1600091816106d6575b506106875750503d1561067f573d9161064183611f1c565b9261064f6040519485611ddb565b83523d60008285013e5b8251928361067a57604051633250574960e11b815260048101849052602490fd5b019050fd5b606091610659565b6001600160e01b031916036106be57507fcecd5d5df52f22750a7b838a07823685059f55f29d937091bb81ff96a6612d8d836105a3565b60249060405190633250574960e11b82526004820152fd5b9091508481813d831161070f575b6106ee8183611ddb565b810103126101b357516001600160e01b0319811681036101b3579086610629565b503d6106e4565b6040516339e3563760e11b815260006004820152602490fd5b60008381526004602052604080822080546001600160a01b03191690558282526003895290208054600019019055610546565b604051633250574960e11b815260006004820152602490fd5b6064906040519062461bcd60e51b82526004820152601c60248201527f41727469636c6520686173206e6f20636f6e747269627574696f6e73000000006044820152fd5b6064906040519062461bcd60e51b82526004820152601960248201527f41727469636c6520616c726561647920636f6d706c65746564000000000000006044820152fd5b346101b35760203660031901126101b35761081f60043561217d565b50600060405161082e81611dbf565b526103dd60405161083e81611dbf565b60008152604051918291602083526020830190611d19565b346101b35760803660031901126101b35761086f611d59565b610877611d6f565b906044356064359267ffffffffffffffff84116101b357366023850112156101b3576108b06108c2943690602481600401359101611f38565b926108bc838383611ff4565b336121b8565b005b346101b35760403660031901126101b3576108dd611d6f565b600435600052600e60205260406000209060018060a01b0316600052602052602060ff604060002054166040519015158152f35b346101b35760403660031901126101b35761092a611d59565b60243590811515908183036101b3576001600160a01b03169182156109a6576109789033600052600560205260406000208460005260205260406000209060ff801983541691151516179055565b6040519081527f17307eab39ab6107e8899845ad3d59bd9653f200f220920489ca2b5937696c3160203392a3005b604051630b61174360e31b815260048101849052602490fd5b346101b35760003660031901126101b357604051600060018054906109e382611d85565b80855291818116908115610a775750600114610a1e575b6103dd84610a0a81860382611ddb565b604051918291602083526020830190611d19565b600081815292507fb10e2d527612073b26eecdfd717e6a320cf44b4afac2b0732d9fcbe2b7fa0cf65b828410610a5f575050508101602001610a0a826109fa565b80546020858701810191909152909301928101610a47565b60ff191660208087019190915292151560051b85019092019250610a0a91508390506109fa565b346101b35760a03660031901126101b35760043567ffffffffffffffff81116101b357610acf903690600401611f6f565b60243567ffffffffffffffff81116101b357610aef903690600401611f6f565b60443567ffffffffffffffff81116101b357610b0f903690600401611f6f565b91610b1b6008546122e8565b918260085560405193610160850185811067ffffffffffffffff821117610e32576040528385526020850191838352604086015260608501523360808501524260a0850152600060c0850152600060e0850152600061010085015260643561012085015260843561014085015282600052600a602052604060002090845182555180519067ffffffffffffffff8211610e32578190610bbd6001850154611d85565b601f8111610f8b575b50602090601f8311600114610f1e57600092610f13575b50508160011b916000199060031b1c19161760018201555b604084015180519067ffffffffffffffff8211610e32578190610c1b6002850154611d85565b601f8111610ec0575b50602090601f8311600114610e5357600092610e48575b50508160011b916000199060031b1c19161760028201555b606084015193845167ffffffffffffffff8111610e3257610c776003840154611d85565b95601f8711610deb575b602096508690601f8311600114610d79579180600a949261014094600092610d6e575b50508160011b916000199060031b1c19161760038501555b6004840160018060a01b036080830151166001600160601b0360a01b82541617905560a0810151600585015560c0810151600685015560e08101516007850155610d1c6101008201511515600886019060ff801983541691151516179055565b61012081015160098501550151910155817fe539a333a3cfd582c41b5f4712067ec24868a7a493c0ab524d9fcfde5bb0d41060405185815280610d63339588830190611d19565b0390a3604051908152f35b015190508980610ca4565b90601f1983169160038601600052886000209260005b818110610dd4575092600192859261014096600a989610610dbb575b505050811b016003850155610cbc565b015160001960f88460031b161c19169055898080610dab565b92938a600181928786015181550195019301610d8f565b600384016000526020600020601f830160051c810160208410610e2b575b601f890160051c82018110610e1f575050610c81565b60008155600101610e09565b5080610e09565b634e487b7160e01b600052604160045260246000fd5b015190508680610c3b565b600285016000908152602081209350601f198516905b818110610ea85750908460019594939210610e8f575b505050811b016002820155610c53565b015160001960f88460031b161c19169055868080610e7f565b92936020600181928786015181550195019301610e69565b909150600284016000526020600020601f840160051c810160208510610f0c575b90849392915b601f830160051c82018110610efd575050610c24565b60008155859450600101610ee7565b5080610ee1565b015190508680610bdd565b600185016000908152602081209350601f198516905b818110610f735750908460019594939210610f5a575b505050811b016001820155610bf5565b015160001960f88460031b161c19169055868080610f4a565b92936020600181928786015181550195019301610f34565b909150600184016000526020600020601f840160051c810160208510610fd7575b90849392915b601f830160051c82018110610fc8575050610bc6565b60008155859450600101610fb2565b5080610fac565b346101b35760403660031901126101b357610ff7611d6f565b600435600052600f60205260406000209060018060a01b0316600052602052602060ff604060002054166040519015158152f35b346101b35760003660031901126101b3576006546040516001600160a01b039091168152602090f35b346101b3576020806003193601126101b35760043590611078600954831115612376565b81600052600f8152604060002033600052815260ff6040600020541661116e576000828152600b825260409020600201546001600160a01b031633146111205781600052600b815260056040600020016110d281546122e8565b905581600052600f815260406000209033600052526040600020600160ff1982541617905533907f160fb30f1ee635c3caa0e5d3a7884222081dcafa69308e0d695e2332515aec22600080a3005b6084906040519062461bcd60e51b82526004820152602160248201527f43616e6e6f74206c696b6520796f7572206f776e20636f6e747269627574696f6044820152603760f91b6064820152fd5b6064906040519062461bcd60e51b82526004820152601b60248201527f596f75206861766520616c7265616479206c696b6564207468697300000000006044820152fd5b346101b35760403660031901126101b3576111cb611d59565b6001600160a01b03166000908152600d60205260409020805460243591908210156101b3576020916111fc91611eee565b90546040519160031b1c8152f35b346101b35760003660031901126101b357611223611fc8565b600680546001600160a01b031981169091556000906001600160a01b03167f8be0079c531659141344cd1fd0a4f28419497f9722a3daafe3b4186f6b6457e08280a3005b346101b35760203660031901126101b3576001600160a01b03611288611d59565b1680156112a75760005260036020526020604060002054604051908152f35b6040516322718ad960e21b815260006004820152602490fd5b346101b3576112ce36611ed8565b6112d6611fc8565b6112e4600954831115612376565b816000526020600b815260ff6007604060002001541661143d5782600052600b815260016040600020600781018260ff198254161790558360068201550154600052600a81526007604060002001805490838201809211611427575581611371575b7fbfe577b36f6862b4729cc4b1ab7de20f7d8017e3b23552b685712e81741efe9591604051908152a2005b6010546000848152600b8352604080822060020154905163a9059cbb60e01b81526001600160a01b03918216600482015260248101869052949284928692604492849291165af192831561141b577fbfe577b36f6862b4729cc4b1ab7de20f7d8017e3b23552b685712e81741efe95936113ee575b509150611346565b61140d90833d8511611414575b6114058183611ddb565b8101906123c2565b50846113e6565b503d6113fb565b6040513d6000823e3d90fd5b634e487b7160e01b600052601160045260246000fd5b6064906040519062461bcd60e51b82526004820152601d60248201527f436f6e747269627574696f6e20616c726561647920617070726f7665640000006044820152fd5b346101b35760203660031901126101b357602061149f60043561217d565b6040516001600160a01b039091168152f35b346101b35760403660031901126101b357602467ffffffffffffffff81358181116101b3576114e4903690600401611f6f565b6114f460085460043511156122f7565b600435600052600a60205260ff600860406000200154166118ff57600435600052600e60205260406000203360005260205260ff604060002054166118a6578051600435600052600a6020526009604060002001541161186e57600435600052600a6020526040600020600a6006820154910154111561182a576115796009546122e8565b91826009556040519061010082018281108282111761181557604052838252602082019260043584526040830133815260608401918252426080850152600060a0850152600060c0850152600060e085015285600052600b60205260406000209484518655516001860155600285019060018060a01b039051166001600160601b0360a01b82541617905551948551918211611801575061161d6003840154611d85565b601f81116117ba575b506020601f821160011461174457918160e0926007946116969798600092611739575b50508160011b916000199060031b1c19161760038501555b6080810151600485015560a0810151600585015560c081015160068501550151151591019060ff801983541691151516179055565b600435600052600c6020526116af81604060002061233c565b33600052600d6020526116c681604060002061233c565b600435600052600e6020526040600020336000526020526040600020600160ff19825416179055600435600052600a602052600660406000200161170a81546122e8565b90553390600435907f390f5f279da0ce4afc2046a3c1440c27a0637ea7261a5636e5518a2258bed269600080a4005b015190508880611649565b601f198216956003850160005260206000209660005b8181106117a25750926116969697600795936001938360e09710611789575b505050811b016003850155611661565b015160001960f88460031b161c19169055888080611779565b8383015189556001909801976020938401930161175a565b600384016000526020600020601f830160051c8101602084106117fa575b601f830160051c820181106117ee575050611626565b600081556001016117d8565b50806117d8565b634e487b7160e01b60009081526041600452fd5b85634e487b7160e01b60005260416004526000fd5b60405162461bcd60e51b8152602060048201526018818501527f4d617820636f6e7472696275746f7273207265616368656400000000000000006044820152606490fd5b60405162461bcd60e51b8152602060048201526011818501527010dbdb9d195b9d081d1bdbc81cda1bdc9d607a1b6044820152606490fd5b60405162461bcd60e51b815260206004820152602c818501527f596f75206861766520616c726561647920636f6e747269627574656420746f2060448201526b746869732061727469636c6560a01b6064820152608490fd5b60405162461bcd60e51b81526020600482015260148185015273105c9d1a58db19481a5cc818dbdb5c1b195d195960621b6044820152606490fd5b346101b3576108c261194b36611ea3565b906040519261195984611dbf565b600084526108bc838383611ff4565b346101b35760203660031901126101b357611981611fc8565b60105460065460405163a9059cbb60e01b81526001600160a01b039182166004808301919091523560248201529160209183916044918391600091165af1801561141b576119cb57005b6108c29060203d8111611414576114058183611ddb565b346101b3576119f036611ed8565b90600052600c602052604060002080548210156101b3576020916111fc91611eee565b346101b3576108c2611a2436611ea3565b91611ff4565b346101b35760203660031901126101b357600435600052600b6020526040600020805460018201549160018060a01b03600282015416611a6c60038301611dfd565b91600481015492611aad60058301549160ff600760068601549501541694604051988998895260208901526040880152610100806060890152870190611d19565b93608086015260a085015260c0840152151560e08301520390f35b346101b35760003660031901126101b3576020600854604051908152f35b346101b35760403660031901126101b357611aff611d59565b602435611b0b8161217d565b33151580611bba575b80611b8d575b611b75576001600160a01b039283169282918491167f8c5be1e5ebec7d5bd14f71427d1e84f3dd0314c0f7b2291e5b200ac8c7c3b925600080a4600090815260046020526040902080546001600160a01b0319169091179055005b60405163a9fbf51f60e01b8152336004820152602490fd5b5060018060a01b038116600052600560205260406000203360005260205260ff6040600020541615611b1a565b506001600160a01b038116331415611b14565b346101b35760203660031901126101b357600435611bea8161217d565b506000526004602052602060018060a01b0360406000205416604051908152f35b346101b35760003660031901126101b35760405160008054611c2c81611d85565b80845290600190818116908115610a775750600114611c55576103dd84610a0a81860382611ddb565b600080805292507f290decd9548b62a8d60345a988386fc84ba6bc95484008f6362f93160ef3e5635b828410611c96575050508101602001610a0a826109fa565b80546020858701810191909152909301928101611c7e565b346101b35760203660031901126101b3576004359063ffffffff60e01b82168092036101b3576020916380ac58cd60e01b8114908115611d08575b8115611cf7575b5015158152f35b6301ffc9a760e01b14905083611cf0565b635b5e139f60e01b81149150611ce9565b919082519283825260005b848110611d45575050826000602080949584010152601f8019910116010190565b602081830181015184830182015201611d24565b600435906001600160a01b03821682036101b357565b602435906001600160a01b03821682036101b357565b90600182811c92168015611db5575b6020831014611d9f57565b634e487b7160e01b600052602260045260246000fd5b91607f1691611d94565b6020810190811067ffffffffffffffff821117610e3257604052565b90601f8019910116810190811067ffffffffffffffff821117610e3257604052565b9060405191826000825492611e1184611d85565b908184526001948581169081600014611e805750600114611e3d575b5050611e3b92500383611ddb565b565b9093915060005260209081600020936000915b818310611e68575050611e3b93508201013880611e2d565b85548884018501529485019487945091830191611e50565b915050611e3b94506020925060ff191682840152151560051b8201013880611e2d565b60609060031901126101b3576001600160a01b039060043582811681036101b3579160243590811681036101b3579060443590565b60409060031901126101b3576004359060243590565b8054821015611f065760005260206000200190600090565b634e487b7160e01b600052603260045260246000fd5b67ffffffffffffffff8111610e3257601f01601f191660200190565b929192611f4482611f1c565b91611f526040519384611ddb565b8294818452818301116101b3578281602093846000960137010152565b9080601f830112156101b357816020611f8a93359101611f38565b90565b6020908160408183019282815285518094520193019160005b828110611fb4575050505090565b835185529381019392810192600101611fa6565b6006546001600160a01b03163303611fdc57565b60405163118cdaa760e01b8152336004820152602490fd5b6001600160a01b039182169290918315610762576000928284528260209560028752604096848888205416968791331515806120e4575b509060027fddf252ad1be2c89b69c2b068fc378daa952ba7f163c4a11628f55a4df523b3ef92846120b1575b858352600381528b8320805460010190558683525289812080546001600160a01b0319168517905580a416928383036120905750505050565b6064945051926364283d7b60e01b8452600484015260248301526044820152fd5b600087815260046020526040902080546001600160a01b0319169055848352600381528b83208054600019019055612057565b9193945091508061213c575b156121005785929187913861202b565b87868861211d576024915190637e27328960e01b82526004820152fd5b905163177e802f60e01b81523360048201526024810191909152604490fd5b503387148015612161575b806120f057508582526004815233858984205416146120f0565b5086825260058152878220338352815260ff8883205416612147565b6000818152600260205260409020546001600160a01b03169081156121a0575090565b60249060405190637e27328960e01b82526004820152fd5b90939192833b6121ca575b5050505050565b604051630a85bd0160e11b8082526001600160a01b039384166004830152958316602482015260448101919091526080606482015294921692602092918590612217906084830190611d19565b039483816000978189895af18691816122a4575b50612286575050503d60001461227d573d61224581611f1c565b906122536040519283611ddb565b81528093823d92013e8251928361067a57604051633250574960e11b815260048101849052602490fd5b60609250610659565b919450915063ffffffff60e01b16036106be575038808080806121c3565b9091508481813d83116122e1575b6122bc8183611ddb565b810103126122dd57516001600160e01b0319811681036122dd57903861222b565b8680fd5b503d6122b2565b60001981146114275760010190565b156122fe57565b60405162461bcd60e51b8152602060048201526016602482015275105c9d1a58db1948191bd95cc81b9bdd08195e1a5cdd60521b6044820152606490fd5b805468010000000000000000811015610e325761235e91600182018155611eee565b819291549060031b91821b91600019901b1916179055565b1561237d57565b60405162461bcd60e51b815260206004820152601b60248201527f436f6e747269627574696f6e20646f6573206e6f7420657869737400000000006044820152606490fd5b908160209103126101b3575180151581036101b3579056fea2646970667358221220367f204ad4743e81b0ad8c9cb3a41bc6c46d69a0d878600be42090b105fd77f064736f6c63430008140033","opcodes":"PUSH1 0x80 CALLVALUE PUSH3 0x3C9 JUMPI PUSH1 0x1F SWAP1 PUSH1 0x1 PUSH1 0x1 PUSH1 0x40 SHL SUB SWAP1 PUSH1 0x1F NOT SWAP1 PUSH3 0x27FF CODESIZE DUP2 SWAP1 SUB DUP6 DUP2 ADD DUP5 AND DUP4 ADD DUP6 DUP2 GT DUP5 DUP3 LT OR PUSH3 0x3B3 JUMPI DUP4 SWAP3 DUP3 SWAP2 PUSH1 0x40 MSTORE DUP4 CODECOPY PUSH1 0x20 SWAP3 DUP4 SWAP2 DUP2 ADD SUB SLT PUSH3 0x3C9 JUMPI MLOAD PUSH1 0x1 PUSH1 0x1 PUSH1 0xA0 SHL SUB SWAP5 DUP6 DUP3 AND SWAP5 SWAP2 DUP6 SWAP1 SUB PUSH3 0x3C9 JUMPI PUSH3 0x6A PUSH3 0x3CE JUMP JUMPDEST SWAP3 PUSH1 0xF DUP5 MSTORE PUSH15 0x135BDD9A59505C9D1A58DB19539195 PUSH1 0x8A SHL DUP2 DUP6 ADD MSTORE PUSH3 0x90 PUSH3 0x3CE JUMP JUMPDEST SWAP1 PUSH1 0x5 DUP3 MSTORE PUSH5 0x1350539195 PUSH1 0xDA SHL DUP2 DUP4 ADD MSTORE DUP5 MLOAD SWAP6 DUP5 DUP8 GT PUSH3 0x3B3 JUMPI PUSH1 0x0 SWAP7 DUP8 SLOAD SWAP7 PUSH1 0x1 SWAP8 DUP9 DUP2 DUP2 SHR SWAP2 AND DUP1 ISZERO PUSH3 0x3A8 JUMPI JUMPDEST DUP6 DUP3 LT EQ PUSH3 0x394 JUMPI SWAP1 DUP2 DUP8 DUP5 SWAP4 GT PUSH3 0x341 JUMPI JUMPDEST POP DUP5 SWAP1 DUP8 DUP4 GT PUSH1 0x1 EQ PUSH3 0x2E0 JUMPI DUP11 SWAP3 PUSH3 0x2D4 JUMPI JUMPDEST POP POP PUSH1 0x0 NOT PUSH1 0x3 DUP4 SWAP1 SHL SHR NOT AND SWAP1 DUP8 SHL OR DUP8 SSTORE JUMPDEST DUP3 MLOAD SWAP5 DUP6 GT PUSH3 0x2C0 JUMPI DUP6 SLOAD DUP7 DUP2 DUP2 SHR SWAP2 AND DUP1 ISZERO PUSH3 0x2B5 JUMPI JUMPDEST DUP4 DUP3 LT EQ PUSH3 0x2A1 JUMPI SWAP1 DUP2 DUP6 DUP8 SWAP7 SWAP6 SWAP5 SWAP4 GT PUSH3 0x248 JUMPI JUMPDEST POP DUP2 SWAP4 DUP6 GT PUSH1 0x1 EQ PUSH3 0x1E3 JUMPI POP POP DUP6 SWAP3 PUSH3 0x1D7 JUMPI JUMPDEST POP POP PUSH1 0x0 NOT PUSH1 0x3 DUP4 SWAP1 SHL SHR NOT AND SWAP1 DUP3 SHL OR DUP2 SSTORE JUMPDEST CALLER ISZERO PUSH3 0x1BE JUMPI PUSH1 0x6 SLOAD PUSH1 0x1 DUP1 PUSH1 0xA0 SHL SUB NOT SWAP3 CALLER DUP5 DUP4 AND OR PUSH1 0x6 SSTORE PUSH32 0x8BE0079C531659141344CD1FD0A4F28419497F9722A3DAAFE3B4186F6B6457E0 PUSH1 0x40 MLOAD SWAP7 CALLER SWAP4 AND SWAP2 DUP1 LOG3 PUSH1 0x7 SSTORE PUSH1 0x10 SLOAD AND OR PUSH1 0x10 SSTORE PUSH2 0x2410 SWAP1 DUP2 PUSH3 0x3EF DUP3 CODECOPY RETURN JUMPDEST PUSH1 0x40 MLOAD PUSH4 0x1E4FBDF7 PUSH1 0xE0 SHL DUP2 MSTORE PUSH1 0x4 DUP2 ADD DUP4 SWAP1 MSTORE PUSH1 0x24 SWAP1 REVERT JUMPDEST ADD MLOAD SWAP1 POP CODESIZE DUP1 PUSH3 0x14C JUMP JUMPDEST DUP7 SWAP6 SWAP4 SWAP3 SWAP2 SWAP4 AND DUP6 DUP9 MSTORE DUP4 DUP9 KECCAK256 SWAP4 DUP9 SWAP1 JUMPDEST DUP3 DUP3 LT PUSH3 0x22E JUMPI POP POP DUP5 GT PUSH3 0x214 JUMPI JUMPDEST POP POP POP DUP2 SHL ADD DUP2 SSTORE PUSH3 0x160 JUMP JUMPDEST ADD MLOAD PUSH1 0x0 NOT PUSH1 0xF8 DUP5 PUSH1 0x3 SHL AND SHR NOT AND SWAP1 SSTORE CODESIZE DUP1 DUP1 PUSH3 0x206 JUMP JUMPDEST DUP5 DUP5 ADD MLOAD DUP7 SSTORE DUP9 SWAP8 SWAP1 SWAP6 ADD SWAP5 SWAP4 DUP5 ADD SWAP4 SWAP1 DUP2 ADD SWAP1 PUSH3 0x1F4 JUMP JUMPDEST SWAP1 SWAP2 SWAP3 SWAP4 SWAP5 POP DUP7 DUP9 MSTORE DUP3 DUP9 KECCAK256 DUP6 DUP1 DUP9 ADD PUSH1 0x5 SHR DUP3 ADD SWAP3 DUP6 DUP10 LT PUSH3 0x297 JUMPI JUMPDEST SWAP2 DUP9 SWAP8 DUP11 SWAP3 SWAP8 SWAP7 SWAP6 SWAP5 SWAP4 ADD PUSH1 0x5 SHR ADD SWAP2 JUMPDEST DUP3 DUP2 LT PUSH3 0x288 JUMPI POP POP PUSH3 0x135 JUMP JUMPDEST DUP11 DUP2 SSTORE DUP9 SWAP8 POP DUP10 SWAP2 ADD PUSH3 0x278 JUMP JUMPDEST SWAP3 POP DUP2 SWAP3 PUSH3 0x267 JUMP JUMPDEST PUSH4 0x4E487B71 PUSH1 0xE0 SHL DUP9 MSTORE PUSH1 0x22 PUSH1 0x4 MSTORE PUSH1 0x24 DUP9 REVERT JUMPDEST SWAP1 PUSH1 0x7F AND SWAP1 PUSH3 0x11D JUMP JUMPDEST PUSH4 0x4E487B71 PUSH1 0xE0 SHL DUP8 MSTORE PUSH1 0x41 PUSH1 0x4 MSTORE PUSH1 0x24 DUP8 REVERT JUMPDEST ADD MLOAD SWAP1 POP CODESIZE DUP1 PUSH3 0xEF JUMP JUMPDEST SWAP1 DUP5 DUP11 SWAP5 AND SWAP2 DUP12 DUP1 MSTORE DUP7 DUP13 KECCAK256 SWAP3 DUP13 JUMPDEST DUP9 DUP3 DUP3 LT PUSH3 0x32A JUMPI POP POP DUP5 GT PUSH3 0x310 JUMPI JUMPDEST POP POP POP DUP2 SHL ADD DUP8 SSTORE PUSH3 0x103 JUMP JUMPDEST ADD MLOAD PUSH1 0x0 NOT PUSH1 0xF8 DUP5 PUSH1 0x3 SHL AND SHR NOT AND SWAP1 SSTORE CODESIZE DUP1 DUP1 PUSH3 0x302 JUMP JUMPDEST DUP4 DUP6 ADD MLOAD DUP7 SSTORE DUP14 SWAP8 SWAP1 SWAP6 ADD SWAP5 SWAP4 DUP5 ADD SWAP4 ADD PUSH3 0x2EF JUMP JUMPDEST SWAP1 SWAP2 POP DUP10 DUP1 MSTORE DUP5 DUP11 KECCAK256 DUP8 DUP1 DUP6 ADD PUSH1 0x5 SHR DUP3 ADD SWAP3 DUP8 DUP7 LT PUSH3 0x38A JUMPI JUMPDEST SWAP2 DUP12 SWAP2 DUP7 SWAP6 SWAP5 SWAP4 ADD PUSH1 0x5 SHR ADD SWAP2 JUMPDEST DUP3 DUP2 LT PUSH3 0x37B JUMPI POP POP PUSH3 0xD9 JUMP JUMPDEST DUP13 DUP2 SSTORE DUP6 SWAP5 POP DUP12 SWAP2 ADD PUSH3 0x36B JUMP JUMPDEST SWAP3 POP DUP2 SWAP3 PUSH3 0x35D JUMP JUMPDEST PUSH4 0x4E487B71 PUSH1 0xE0 SHL DUP11 MSTORE PUSH1 0x22 PUSH1 0x4 MSTORE PUSH1 0x24 DUP11 REVERT JUMPDEST SWAP1 PUSH1 0x7F AND SWAP1 PUSH3 0xC4 JUMP JUMPDEST PUSH4 0x4E487B71 PUSH1 0xE0 SHL PUSH1 0x0 MSTORE PUSH1 0x41 PUSH1 0x4 MSTORE PUSH1 0x24 PUSH1 0x0 REVERT JUMPDEST PUSH1 0x0 DUP1 REVERT JUMPDEST PUSH1 0x40 DUP1 MLOAD SWAP2 SWAP1 DUP3 ADD PUSH1 0x1 PUSH1 0x1 PUSH1 0x40 SHL SUB DUP2 GT DUP4 DUP3 LT OR PUSH3 0x3B3 JUMPI PUSH1 0x40 MSTORE JUMP INVALID PUSH1 0x80 DUP1 PUSH1 0x40 MSTORE PUSH1 0x4 CALLDATASIZE LT ISZERO PUSH2 0x13 JUMPI PUSH1 0x0 DUP1 REVERT JUMPDEST PUSH1 0x0 CALLDATALOAD PUSH1 0xE0 SHR SWAP1 DUP2 PUSH4 0x1FFC9A7 EQ PUSH2 0x1CAE JUMPI POP DUP1 PUSH4 0x6FDDE03 EQ PUSH2 0x1C0B JUMPI DUP1 PUSH4 0x81812FC EQ PUSH2 0x1BCD JUMPI DUP1 PUSH4 0x95EA7B3 EQ PUSH2 0x1AE6 JUMPI DUP1 PUSH4 0xEBF1D3D EQ PUSH2 0x1AC8 JUMPI DUP1 PUSH4 0x1CEE0700 EQ PUSH2 0x1A2A JUMPI DUP1 PUSH4 0x23B872DD EQ PUSH2 0x1A13 JUMPI DUP1 PUSH4 0x30243834 EQ PUSH2 0x19E2 JUMPI DUP1 PUSH4 0x315A095D EQ PUSH2 0x1968 JUMPI DUP1 PUSH4 0x42842E0E EQ PUSH2 0x193A JUMPI DUP1 PUSH4 0x4FA650F1 EQ PUSH2 0x14B1 JUMPI DUP1 PUSH4 0x6352211E EQ PUSH2 0x1481 JUMPI DUP1 PUSH4 0x6FD91DA9 EQ PUSH2 0x12C0 JUMPI DUP1 PUSH4 0x70A08231 EQ PUSH2 0x1267 JUMPI DUP1 PUSH4 0x715018A6 EQ PUSH2 0x120A JUMPI DUP1 PUSH4 0x7331FA95 EQ PUSH2 0x11B2 JUMPI DUP1 PUSH4 0x8A9A62A8 EQ PUSH2 0x1054 JUMPI DUP1 PUSH4 0x8DA5CB5B EQ PUSH2 0x102B JUMPI DUP1 PUSH4 0x8FB7092C EQ PUSH2 0xFDE JUMPI DUP1 PUSH4 0x9178AF65 EQ PUSH2 0xA9E JUMPI DUP1 PUSH4 0x95D89B41 EQ PUSH2 0x9BF JUMPI DUP1 PUSH4 0xA22CB465 EQ PUSH2 0x911 JUMPI DUP1 PUSH4 0xB5B96AE0 EQ PUSH2 0x8C4 JUMPI DUP1 PUSH4 0xB88D4FDE EQ PUSH2 0x856 JUMPI DUP1 PUSH4 0xC87B56DD EQ PUSH2 0x803 JUMPI DUP1 PUSH4 0xD5DF1E1D EQ PUSH2 0x48E JUMPI DUP1 PUSH4 0xDDF556D0 EQ PUSH2 0x470 JUMPI DUP1 PUSH4 0xE36465A3 EQ PUSH2 0x3F8 JUMPI DUP1 PUSH4 0xE3E03DC0 EQ PUSH2 0x37E JUMPI DUP1 PUSH4 0xE985E9C5 EQ PUSH2 0x328 JUMPI DUP1 PUSH4 0xEDCFAFE6 EQ PUSH2 0x241 JUMPI DUP1 PUSH4 0xF2FDE38B EQ PUSH2 0x1B8 JUMPI PUSH4 0xF7C618C1 EQ PUSH2 0x18A JUMPI PUSH1 0x0 DUP1 REVERT JUMPDEST CALLVALUE PUSH2 0x1B3 JUMPI PUSH1 0x0 CALLDATASIZE PUSH1 0x3 NOT ADD SLT PUSH2 0x1B3 JUMPI PUSH1 0x10 SLOAD PUSH1 0x40 MLOAD PUSH1 0x1 PUSH1 0x1 PUSH1 0xA0 SHL SUB SWAP1 SWAP2 AND DUP2 MSTORE PUSH1 0x20 SWAP1 RETURN JUMPDEST PUSH1 0x0 DUP1 REVERT JUMPDEST CALLVALUE PUSH2 0x1B3 JUMPI PUSH1 0x20 CALLDATASIZE PUSH1 0x3 NOT ADD SLT PUSH2 0x1B3 JUMPI PUSH2 0x1D1 PUSH2 0x1D59 JUMP JUMPDEST PUSH2 0x1D9 PUSH2 0x1FC8 JUMP JUMPDEST PUSH1 0x1 PUSH1 0x1 PUSH1 0xA0 SHL SUB SWAP1 DUP2 AND SWAP1 DUP2 ISZERO PUSH2 0x228 JUMPI PUSH1 0x6 SLOAD DUP3 PUSH1 0x1 PUSH1 0x1 PUSH1 0x60 SHL SUB PUSH1 0xA0 SHL DUP3 AND OR PUSH1 0x6 SSTORE AND PUSH32 0x8BE0079C531659141344CD1FD0A4F28419497F9722A3DAAFE3B4186F6B6457E0 PUSH1 0x0 DUP1 LOG3 STOP JUMPDEST PUSH1 0x40 MLOAD PUSH4 0x1E4FBDF7 PUSH1 0xE0 SHL DUP2 MSTORE PUSH1 0x0 PUSH1 0x4 DUP3 ADD MSTORE PUSH1 0x24 SWAP1 REVERT JUMPDEST CALLVALUE PUSH2 0x1B3 JUMPI PUSH1 0x20 CALLDATASIZE PUSH1 0x3 NOT ADD SLT PUSH2 0x1B3 JUMPI PUSH1 0x4 CALLDATALOAD PUSH1 0x0 MSTORE PUSH1 0xA PUSH1 0x20 MSTORE PUSH1 0x40 PUSH1 0x0 KECCAK256 DUP1 SLOAD PUSH2 0x270 PUSH1 0x1 DUP4 ADD PUSH2 0x1DFD JUMP JUMPDEST SWAP2 PUSH2 0x27D PUSH1 0x2 DUP3 ADD PUSH2 0x1DFD JUMP JUMPDEST PUSH2 0x289 PUSH1 0x3 DUP4 ADD PUSH2 0x1DFD JUMP JUMPDEST SWAP2 PUSH1 0x1 DUP1 PUSH1 0xA0 SHL SUB PUSH1 0x4 DUP3 ADD SLOAD AND SWAP3 PUSH1 0x5 DUP3 ADD SLOAD PUSH1 0x6 DUP4 ADD SLOAD PUSH1 0x7 DUP5 ADD SLOAD SWAP2 PUSH2 0x2FB PUSH1 0xFF PUSH1 0x8 DUP8 ADD SLOAD AND SWAP5 PUSH2 0x2ED PUSH1 0xA PUSH1 0x9 DUP10 ADD SLOAD SWAP9 ADD SLOAD SWAP9 PUSH2 0x2DF PUSH1 0x40 MLOAD SWAP14 DUP15 SWAP14 DUP15 MSTORE DUP14 PUSH2 0x160 SWAP1 DUP2 PUSH1 0x20 DUP3 ADD MSTORE ADD SWAP1 PUSH2 0x1D19 JUMP JUMPDEST DUP13 DUP2 SUB PUSH1 0x40 DUP15 ADD MSTORE SWAP1 PUSH2 0x1D19 JUMP JUMPDEST SWAP1 DUP11 DUP3 SUB PUSH1 0x60 DUP13 ADD MSTORE PUSH2 0x1D19 JUMP JUMPDEST SWAP7 PUSH1 0x80 DUP10 ADD MSTORE PUSH1 0xA0 DUP9 ADD MSTORE PUSH1 0xC0 DUP8 ADD MSTORE PUSH1 0xE0 DUP7 ADD MSTORE ISZERO ISZERO PUSH2 0x100 DUP6 ADD MSTORE PUSH2 0x120 DUP5 ADD MSTORE PUSH2 0x140 DUP4 ADD MSTORE SUB SWAP1 RETURN JUMPDEST CALLVALUE PUSH2 0x1B3 JUMPI PUSH1 0x40 CALLDATASIZE PUSH1 0x3 NOT ADD SLT PUSH2 0x1B3 JUMPI PUSH2 0x341 PUSH2 0x1D59 JUMP JUMPDEST PUSH2 0x349 PUSH2 0x1D6F JUMP JUMPDEST SWAP1 PUSH1 0x1 DUP1 PUSH1 0xA0 SHL SUB DUP1 SWAP2 AND PUSH1 0x0 MSTORE PUSH1 0x5 PUSH1 0x20 MSTORE PUSH1 0x40 PUSH1 0x0 KECCAK256 SWAP2 AND PUSH1 0x0 MSTORE PUSH1 0x20 MSTORE PUSH1 0x20 PUSH1 0xFF PUSH1 0x40 PUSH1 0x0 KECCAK256 SLOAD AND PUSH1 0x40 MLOAD SWAP1 ISZERO ISZERO DUP2 MSTORE RETURN JUMPDEST CALLVALUE PUSH2 0x1B3 JUMPI PUSH1 0x20 DUP1 PUSH1 0x3 NOT CALLDATASIZE ADD SLT PUSH2 0x1B3 JUMPI PUSH1 0x4 CALLDATALOAD PUSH1 0x0 MSTORE PUSH1 0xC DUP2 MSTORE PUSH1 0x40 PUSH1 0x0 KECCAK256 SWAP1 PUSH1 0x40 MLOAD SWAP1 DUP2 DUP2 DUP5 SLOAD SWAP2 DUP3 DUP2 MSTORE ADD SWAP4 PUSH1 0x0 MSTORE DUP2 PUSH1 0x0 KECCAK256 SWAP2 PUSH1 0x0 SWAP1 JUMPDEST DUP3 DUP3 LT PUSH2 0x3E1 JUMPI PUSH2 0x3DD DUP6 PUSH2 0x3D1 DUP2 DUP10 SUB DUP3 PUSH2 0x1DDB JUMP JUMPDEST PUSH1 0x40 MLOAD SWAP2 DUP3 SWAP2 DUP3 PUSH2 0x1F8D JUMP JUMPDEST SUB SWAP1 RETURN JUMPDEST DUP4 SLOAD DUP7 MSTORE SWAP5 DUP6 ADD SWAP5 PUSH1 0x1 SWAP4 DUP5 ADD SWAP4 SWAP1 SWAP2 ADD SWAP1 PUSH2 0x3BA JUMP JUMPDEST CALLVALUE PUSH2 0x1B3 JUMPI PUSH1 0x20 DUP1 PUSH1 0x3 NOT CALLDATASIZE ADD SLT PUSH2 0x1B3 JUMPI PUSH1 0x1 PUSH1 0x1 PUSH1 0xA0 SHL SUB PUSH2 0x41A PUSH2 0x1D59 JUMP JUMPDEST AND PUSH1 0x0 MSTORE PUSH1 0xD DUP2 MSTORE PUSH1 0x40 PUSH1 0x0 KECCAK256 SWAP1 PUSH1 0x40 MLOAD SWAP1 DUP2 DUP2 DUP5 SLOAD SWAP2 DUP3 DUP2 MSTORE ADD SWAP4 PUSH1 0x0 MSTORE DUP2 PUSH1 0x0 KECCAK256 SWAP2 PUSH1 0x0 SWAP1 JUMPDEST DUP3 DUP3 LT PUSH2 0x459 JUMPI PUSH2 0x3DD DUP6 PUSH2 0x3D1 DUP2 DUP10 SUB DUP3 PUSH2 0x1DDB JUMP JUMPDEST DUP4 SLOAD DUP7 MSTORE SWAP5 DUP6 ADD SWAP5 PUSH1 0x1 SWAP4 DUP5 ADD SWAP4 SWAP1 SWAP2 ADD SWAP1 PUSH2 0x442 JUMP JUMPDEST CALLVALUE PUSH2 0x1B3 JUMPI PUSH1 0x0 CALLDATASIZE PUSH1 0x3 NOT ADD SLT PUSH2 0x1B3 JUMPI PUSH1 0x20 PUSH1 0x9 SLOAD PUSH1 0x40 MLOAD SWAP1 DUP2 MSTORE RETURN JUMPDEST CALLVALUE PUSH2 0x1B3 JUMPI PUSH1 0x20 DUP1 PUSH1 0x3 NOT CALLDATASIZE ADD SLT PUSH2 0x1B3 JUMPI PUSH1 0x4 CALLDATALOAD SWAP1 PUSH2 0x4AC PUSH2 0x1FC8 JUMP JUMPDEST PUSH2 0x4BA PUSH1 0x8 SLOAD DUP4 GT ISZERO PUSH2 0x22F7 JUMP JUMPDEST DUP2 PUSH1 0x0 MSTORE PUSH1 0xA DUP2 MSTORE PUSH1 0xFF PUSH1 0x8 PUSH1 0x40 PUSH1 0x0 KECCAK256 ADD SLOAD AND PUSH2 0x7BF JUMPI DUP2 PUSH1 0x0 MSTORE PUSH1 0xA DUP2 MSTORE PUSH1 0x6 PUSH1 0x40 PUSH1 0x0 KECCAK256 ADD SLOAD ISZERO PUSH2 0x77B JUMPI PUSH1 0x0 DUP3 DUP2 MSTORE PUSH1 0xA DUP3 MSTORE PUSH1 0x40 SWAP1 DUP2 SWAP1 KECCAK256 PUSH1 0x8 DUP2 ADD DUP1 SLOAD PUSH1 0xFF NOT AND PUSH1 0x1 OR SWAP1 SSTORE PUSH1 0x4 ADD SLOAD SWAP1 MLOAD PUSH1 0x1 PUSH1 0x1 PUSH1 0xA0 SHL SUB SWAP2 DUP3 AND SWAP2 PUSH2 0x521 DUP3 PUSH2 0x1DBF JUMP JUMPDEST PUSH1 0x0 DUP3 MSTORE DUP3 ISZERO PUSH2 0x762 JUMPI DUP5 PUSH1 0x0 MSTORE PUSH1 0x2 DUP5 MSTORE PUSH1 0x40 PUSH1 0x0 KECCAK256 SLOAD AND DUP5 DUP4 DUP3 ISZERO ISZERO SWAP3 DUP4 PUSH2 0x72F JUMPI JUMPDEST PUSH1 0x0 DUP3 DUP2 MSTORE PUSH1 0x3 DUP9 MSTORE PUSH1 0x40 DUP1 DUP3 KECCAK256 DUP1 SLOAD PUSH1 0x1 ADD SWAP1 SSTORE DUP5 DUP3 MSTORE PUSH1 0x2 DUP10 MSTORE DUP2 KECCAK256 DUP1 SLOAD PUSH1 0x1 PUSH1 0x1 PUSH1 0xA0 SHL SUB NOT AND DUP5 OR SWAP1 SSTORE PUSH32 0xDDF252AD1BE2C89B69C2B068FC378DAA952BA7F163C4A11628F55A4DF523B3EF SWAP1 DUP1 LOG4 PUSH2 0x716 JUMPI DUP2 EXTCODESIZE PUSH2 0x5E0 JUMPI JUMPDEST DUP4 PUSH32 0xCECD5D5DF52F22750A7B838A07823685059F55F29D937091BB81FF96A6612D8D DUP5 DUP3 PUSH1 0x0 MSTORE PUSH1 0xA DUP2 MSTORE PUSH1 0x7 PUSH1 0x40 PUSH1 0x0 KECCAK256 ADD SLOAD PUSH1 0x40 MLOAD SWAP1 DUP2 MSTORE LOG2 STOP JUMPDEST PUSH1 0x40 MLOAD DUP4 DUP2 DUP1 PUSH2 0x619 PUSH4 0xA85BD01 PUSH1 0xE1 SHL SWAP6 DUP7 DUP4 MSTORE CALLER PUSH1 0x4 DUP5 ADD MSTORE PUSH1 0x0 PUSH1 0x24 DUP5 ADD MSTORE DUP10 PUSH1 0x44 DUP5 ADD MSTORE PUSH1 0x80 PUSH1 0x64 DUP5 ADD MSTORE PUSH1 0x84 DUP4 ADD SWAP1 PUSH2 0x1D19 JUMP JUMPDEST SUB DUP2 PUSH1 0x0 DUP8 GAS CALL PUSH1 0x0 SWAP2 DUP2 PUSH2 0x6D6 JUMPI JUMPDEST POP PUSH2 0x687 JUMPI POP POP RETURNDATASIZE ISZERO PUSH2 0x67F JUMPI RETURNDATASIZE SWAP2 PUSH2 0x641 DUP4 PUSH2 0x1F1C JUMP JUMPDEST SWAP3 PUSH2 0x64F PUSH1 0x40 MLOAD SWAP5 DUP6 PUSH2 0x1DDB JUMP JUMPDEST DUP4 MSTORE RETURNDATASIZE PUSH1 0x0 DUP3 DUP6 ADD RETURNDATACOPY JUMPDEST DUP3 MLOAD SWAP3 DUP4 PUSH2 0x67A JUMPI PUSH1 0x40 MLOAD PUSH4 0x32505749 PUSH1 0xE1 SHL DUP2 MSTORE PUSH1 0x4 DUP2 ADD DUP5 SWAP1 MSTORE PUSH1 0x24 SWAP1 REVERT JUMPDEST ADD SWAP1 POP REVERT JUMPDEST PUSH1 0x60 SWAP2 PUSH2 0x659 JUMP JUMPDEST PUSH1 0x1 PUSH1 0x1 PUSH1 0xE0 SHL SUB NOT AND SUB PUSH2 0x6BE JUMPI POP PUSH32 0xCECD5D5DF52F22750A7B838A07823685059F55F29D937091BB81FF96A6612D8D DUP4 PUSH2 0x5A3 JUMP JUMPDEST PUSH1 0x24 SWAP1 PUSH1 0x40 MLOAD SWAP1 PUSH4 0x32505749 PUSH1 0xE1 SHL DUP3 MSTORE PUSH1 0x4 DUP3 ADD MSTORE REVERT JUMPDEST SWAP1 SWAP2 POP DUP5 DUP2 DUP2 RETURNDATASIZE DUP4 GT PUSH2 0x70F JUMPI JUMPDEST PUSH2 0x6EE DUP2 DUP4 PUSH2 0x1DDB JUMP JUMPDEST DUP2 ADD SUB SLT PUSH2 0x1B3 JUMPI MLOAD PUSH1 0x1 PUSH1 0x1 PUSH1 0xE0 SHL SUB NOT DUP2 AND DUP2 SUB PUSH2 0x1B3 JUMPI SWAP1 DUP7 PUSH2 0x629 JUMP JUMPDEST POP RETURNDATASIZE PUSH2 0x6E4 JUMP JUMPDEST PUSH1 0x40 MLOAD PUSH4 0x39E35637 PUSH1 0xE1 SHL DUP2 MSTORE PUSH1 0x0 PUSH1 0x4 DUP3 ADD MSTORE PUSH1 0x24 SWAP1 REVERT JUMPDEST PUSH1 0x0 DUP4 DUP2 MSTORE PUSH1 0x4 PUSH1 0x20 MSTORE PUSH1 0x40 DUP1 DUP3 KECCAK256 DUP1 SLOAD PUSH1 0x1 PUSH1 0x1 PUSH1 0xA0 SHL SUB NOT AND SWAP1 SSTORE DUP3 DUP3 MSTORE PUSH1 0x3 DUP10 MSTORE SWAP1 KECCAK256 DUP1 SLOAD PUSH1 0x0 NOT ADD SWAP1 SSTORE PUSH2 0x546 JUMP JUMPDEST PUSH1 0x40 MLOAD PUSH4 0x32505749 PUSH1 0xE1 SHL DUP2 MSTORE PUSH1 0x0 PUSH1 0x4 DUP3 ADD MSTORE PUSH1 0x24 SWAP1 REVERT JUMPDEST PUSH1 0x64 SWAP1 PUSH1 0x40 MLOAD SWAP1 PUSH3 0x461BCD PUSH1 0xE5 SHL DUP3 MSTORE PUSH1 0x4 DUP3 ADD MSTORE PUSH1 0x1C PUSH1 0x24 DUP3 ADD MSTORE PUSH32 0x41727469636C6520686173206E6F20636F6E747269627574696F6E7300000000 PUSH1 0x44 DUP3 ADD MSTORE REVERT JUMPDEST PUSH1 0x64 SWAP1 PUSH1 0x40 MLOAD SWAP1 PUSH3 0x461BCD PUSH1 0xE5 SHL DUP3 MSTORE PUSH1 0x4 DUP3 ADD MSTORE PUSH1 0x19 PUSH1 0x24 DUP3 ADD MSTORE PUSH32 0x41727469636C6520616C726561647920636F6D706C6574656400000000000000 PUSH1 0x44 DUP3 ADD MSTORE REVERT JUMPDEST CALLVALUE PUSH2 0x1B3 JUMPI PUSH1 0x20 CALLDATASIZE PUSH1 0x3 NOT ADD SLT PUSH2 0x1B3 JUMPI PUSH2 0x81F PUSH1 0x4 CALLDATALOAD PUSH2 0x217D JUMP JUMPDEST POP PUSH1 0x0 PUSH1 0x40 MLOAD PUSH2 0x82E DUP2 PUSH2 0x1DBF JUMP JUMPDEST MSTORE PUSH2 0x3DD PUSH1 0x40 MLOAD PUSH2 0x83E DUP2 PUSH2 0x1DBF JUMP JUMPDEST PUSH1 0x0 DUP2 MSTORE PUSH1 0x40 MLOAD SWAP2 DUP3 SWAP2 PUSH1 0x20 DUP4 MSTORE PUSH1 0x20 DUP4 ADD SWAP1 PUSH2 0x1D19 JUMP JUMPDEST CALLVALUE PUSH2 0x1B3 JUMPI PUSH1 0x80 CALLDATASIZE PUSH1 0x3 NOT ADD SLT PUSH2 0x1B3 JUMPI PUSH2 0x86F PUSH2 0x1D59 JUMP JUMPDEST PUSH2 0x877 PUSH2 0x1D6F JUMP JUMPDEST SWAP1 PUSH1 0x44 CALLDATALOAD PUSH1 0x64 CALLDATALOAD SWAP3 PUSH8 0xFFFFFFFFFFFFFFFF DUP5 GT PUSH2 0x1B3 JUMPI CALLDATASIZE PUSH1 0x23 DUP6 ADD SLT ISZERO PUSH2 0x1B3 JUMPI PUSH2 0x8B0 PUSH2 0x8C2 SWAP5 CALLDATASIZE SWAP1 PUSH1 0x24 DUP2 PUSH1 0x4 ADD CALLDATALOAD SWAP2 ADD PUSH2 0x1F38 JUMP JUMPDEST SWAP3 PUSH2 0x8BC DUP4 DUP4 DUP4 PUSH2 0x1FF4 JUMP JUMPDEST CALLER PUSH2 0x21B8 JUMP JUMPDEST STOP JUMPDEST CALLVALUE PUSH2 0x1B3 JUMPI PUSH1 0x40 CALLDATASIZE PUSH1 0x3 NOT ADD SLT PUSH2 0x1B3 JUMPI PUSH2 0x8DD PUSH2 0x1D6F JUMP JUMPDEST PUSH1 0x4 CALLDATALOAD PUSH1 0x0 MSTORE PUSH1 0xE PUSH1 0x20 MSTORE PUSH1 0x40 PUSH1 0x0 KECCAK256 SWAP1 PUSH1 0x1 DUP1 PUSH1 0xA0 SHL SUB AND PUSH1 0x0 MSTORE PUSH1 0x20 MSTORE PUSH1 0x20 PUSH1 0xFF PUSH1 0x40 PUSH1 0x0 KECCAK256 SLOAD AND PUSH1 0x40 MLOAD SWAP1 ISZERO ISZERO DUP2 MSTORE RETURN JUMPDEST CALLVALUE PUSH2 0x1B3 JUMPI PUSH1 0x40 CALLDATASIZE PUSH1 0x3 NOT ADD SLT PUSH2 0x1B3 JUMPI PUSH2 0x92A PUSH2 0x1D59 JUMP JUMPDEST PUSH1 0x24 CALLDATALOAD SWAP1 DUP2 ISZERO ISZERO SWAP1 DUP2 DUP4 SUB PUSH2 0x1B3 JUMPI PUSH1 0x1 PUSH1 0x1 PUSH1 0xA0 SHL SUB AND SWAP2 DUP3 ISZERO PUSH2 0x9A6 JUMPI PUSH2 0x978 SWAP1 CALLER PUSH1 0x0 MSTORE PUSH1 0x5 PUSH1 0x20 MSTORE PUSH1 0x40 PUSH1 0x0 KECCAK256 DUP5 PUSH1 0x0 MSTORE PUSH1 0x20 MSTORE PUSH1 0x40 PUSH1 0x0 KECCAK256 SWAP1 PUSH1 0xFF DUP1 NOT DUP4 SLOAD AND SWAP2 ISZERO ISZERO AND OR SWAP1 SSTORE JUMP JUMPDEST PUSH1 0x40 MLOAD SWAP1 DUP2 MSTORE PUSH32 0x17307EAB39AB6107E8899845AD3D59BD9653F200F220920489CA2B5937696C31 PUSH1 0x20 CALLER SWAP3 LOG3 STOP JUMPDEST PUSH1 0x40 MLOAD PUSH4 0xB611743 PUSH1 0xE3 SHL DUP2 MSTORE PUSH1 0x4 DUP2 ADD DUP5 SWAP1 MSTORE PUSH1 0x24 SWAP1 REVERT JUMPDEST CALLVALUE PUSH2 0x1B3 JUMPI PUSH1 0x0 CALLDATASIZE PUSH1 0x3 NOT ADD SLT PUSH2 0x1B3 JUMPI PUSH1 0x40 MLOAD PUSH1 0x0 PUSH1 0x1 DUP1 SLOAD SWAP1 PUSH2 0x9E3 DUP3 PUSH2 0x1D85 JUMP JUMPDEST DUP1 DUP6 MSTORE SWAP2 DUP2 DUP2 AND SWAP1 DUP2 ISZERO PUSH2 0xA77 JUMPI POP PUSH1 0x1 EQ PUSH2 0xA1E JUMPI JUMPDEST PUSH2 0x3DD DUP5 PUSH2 0xA0A DUP2 DUP7 SUB DUP3 PUSH2 0x1DDB JUMP JUMPDEST PUSH1 0x40 MLOAD SWAP2 DUP3 SWAP2 PUSH1 0x20 DUP4 MSTORE PUSH1 0x20 DUP4 ADD SWAP1 PUSH2 0x1D19 JUMP JUMPDEST PUSH1 0x0 DUP2 DUP2 MSTORE SWAP3 POP PUSH32 0xB10E2D527612073B26EECDFD717E6A320CF44B4AFAC2B0732D9FCBE2B7FA0CF6 JUMPDEST DUP3 DUP5 LT PUSH2 0xA5F JUMPI POP POP POP DUP2 ADD PUSH1 0x20 ADD PUSH2 0xA0A DUP3 PUSH2 0x9FA JUMP JUMPDEST DUP1 SLOAD PUSH1 0x20 DUP6 DUP8 ADD DUP2 ADD SWAP2 SWAP1 SWAP2 MSTORE SWAP1 SWAP4 ADD SWAP3 DUP2 ADD PUSH2 0xA47 JUMP JUMPDEST PUSH1 0xFF NOT AND PUSH1 0x20 DUP1 DUP8 ADD SWAP2 SWAP1 SWAP2 MSTORE SWAP3 ISZERO ISZERO PUSH1 0x5 SHL DUP6 ADD SWAP1 SWAP3 ADD SWAP3 POP PUSH2 0xA0A SWAP2 POP DUP4 SWAP1 POP PUSH2 0x9FA JUMP JUMPDEST CALLVALUE PUSH2 0x1B3 JUMPI PUSH1 0xA0 CALLDATASIZE PUSH1 0x3 NOT ADD SLT PUSH2 0x1B3 JUMPI PUSH1 0x4 CALLDATALOAD PUSH8 0xFFFFFFFFFFFFFFFF DUP2 GT PUSH2 0x1B3 JUMPI PUSH2 0xACF SWAP1 CALLDATASIZE SWAP1 PUSH1 0x4 ADD PUSH2 0x1F6F JUMP JUMPDEST PUSH1 0x24 CALLDATALOAD PUSH8 0xFFFFFFFFFFFFFFFF DUP2 GT PUSH2 0x1B3 JUMPI PUSH2 0xAEF SWAP1 CALLDATASIZE SWAP1 PUSH1 0x4 ADD PUSH2 0x1F6F JUMP JUMPDEST PUSH1 0x44 CALLDATALOAD PUSH8 0xFFFFFFFFFFFFFFFF DUP2 GT PUSH2 0x1B3 JUMPI PUSH2 0xB0F SWAP1 CALLDATASIZE SWAP1 PUSH1 0x4 ADD PUSH2 0x1F6F JUMP JUMPDEST SWAP2 PUSH2 0xB1B PUSH1 0x8 SLOAD PUSH2 0x22E8 JUMP JUMPDEST SWAP2 DUP3 PUSH1 0x8 SSTORE PUSH1 0x40 MLOAD SWAP4 PUSH2 0x160 DUP6 ADD DUP6 DUP2 LT PUSH8 0xFFFFFFFFFFFFFFFF DUP3 GT OR PUSH2 0xE32 JUMPI PUSH1 0x40 MSTORE DUP4 DUP6 MSTORE PUSH1 0x20 DUP6 ADD SWAP2 DUP4 DUP4 MSTORE PUSH1 0x40 DUP7 ADD MSTORE PUSH1 0x60 DUP6 ADD MSTORE CALLER PUSH1 0x80 DUP6 ADD MSTORE TIMESTAMP PUSH1 0xA0 DUP6 ADD MSTORE PUSH1 0x0 PUSH1 0xC0 DUP6 ADD MSTORE PUSH1 0x0 PUSH1 0xE0 DUP6 ADD MSTORE PUSH1 0x0 PUSH2 0x100 DUP6 ADD MSTORE PUSH1 0x64 CALLDATALOAD PUSH2 0x120 DUP6 ADD MSTORE PUSH1 0x84 CALLDATALOAD PUSH2 0x140 DUP6 ADD MSTORE DUP3 PUSH1 0x0 MSTORE PUSH1 0xA PUSH1 0x20 MSTORE PUSH1 0x40 PUSH1 0x0 KECCAK256 SWAP1 DUP5 MLOAD DUP3 SSTORE MLOAD DUP1 MLOAD SWAP1 PUSH8 0xFFFFFFFFFFFFFFFF DUP3 GT PUSH2 0xE32 JUMPI DUP2 SWAP1 PUSH2 0xBBD PUSH1 0x1 DUP6 ADD SLOAD PUSH2 0x1D85 JUMP JUMPDEST PUSH1 0x1F DUP2 GT PUSH2 0xF8B JUMPI JUMPDEST POP PUSH1 0x20 SWAP1 PUSH1 0x1F DUP4 GT PUSH1 0x1 EQ PUSH2 0xF1E JUMPI PUSH1 0x0 SWAP3 PUSH2 0xF13 JUMPI JUMPDEST POP POP DUP2 PUSH1 0x1 SHL SWAP2 PUSH1 0x0 NOT SWAP1 PUSH1 0x3 SHL SHR NOT AND OR PUSH1 0x1 DUP3 ADD SSTORE JUMPDEST PUSH1 0x40 DUP5 ADD MLOAD DUP1 MLOAD SWAP1 PUSH8 0xFFFFFFFFFFFFFFFF DUP3 GT PUSH2 0xE32 JUMPI DUP2 SWAP1 PUSH2 0xC1B PUSH1 0x2 DUP6 ADD SLOAD PUSH2 0x1D85 JUMP JUMPDEST PUSH1 0x1F DUP2 GT PUSH2 0xEC0 JUMPI JUMPDEST POP PUSH1 0x20 SWAP1 PUSH1 0x1F DUP4 GT PUSH1 0x1 EQ PUSH2 0xE53 JUMPI PUSH1 0x0 SWAP3 PUSH2 0xE48 JUMPI JUMPDEST POP POP DUP2 PUSH1 0x1 SHL SWAP2 PUSH1 0x0 NOT SWAP1 PUSH1 0x3 SHL SHR NOT AND OR PUSH1 0x2 DUP3 ADD SSTORE JUMPDEST PUSH1 0x60 DUP5 ADD MLOAD SWAP4 DUP5 MLOAD PUSH8 0xFFFFFFFFFFFFFFFF DUP2 GT PUSH2 0xE32 JUMPI PUSH2 0xC77 PUSH1 0x3 DUP5 ADD SLOAD PUSH2 0x1D85 JUMP JUMPDEST SWAP6 PUSH1 0x1F DUP8 GT PUSH2 0xDEB JUMPI JUMPDEST PUSH1 0x20 SWAP7 POP DUP7 SWAP1 PUSH1 0x1F DUP4 GT PUSH1 0x1 EQ PUSH2 0xD79 JUMPI SWAP2 DUP1 PUSH1 0xA SWAP5 SWAP3 PUSH2 0x140 SWAP5 PUSH1 0x0 SWAP3 PUSH2 0xD6E JUMPI JUMPDEST POP POP DUP2 PUSH1 0x1 SHL SWAP2 PUSH1 0x0 NOT SWAP1 PUSH1 0x3 SHL SHR NOT AND OR PUSH1 0x3 DUP6 ADD SSTORE JUMPDEST PUSH1 0x4 DUP5 ADD PUSH1 0x1 DUP1 PUSH1 0xA0 SHL SUB PUSH1 0x80 DUP4 ADD MLOAD AND PUSH1 0x1 PUSH1 0x1 PUSH1 0x60 SHL SUB PUSH1 0xA0 SHL DUP3 SLOAD AND OR SWAP1 SSTORE PUSH1 0xA0 DUP2 ADD MLOAD PUSH1 0x5 DUP6 ADD SSTORE PUSH1 0xC0 DUP2 ADD MLOAD PUSH1 0x6 DUP6 ADD SSTORE PUSH1 0xE0 DUP2 ADD MLOAD PUSH1 0x7 DUP6 ADD SSTORE PUSH2 0xD1C PUSH2 0x100 DUP3 ADD MLOAD ISZERO ISZERO PUSH1 0x8 DUP7 ADD SWAP1 PUSH1 0xFF DUP1 NOT DUP4 SLOAD AND SWAP2 ISZERO ISZERO AND OR SWAP1 SSTORE JUMP JUMPDEST PUSH2 0x120 DUP2 ADD MLOAD PUSH1 0x9 DUP6 ADD SSTORE ADD MLOAD SWAP2 ADD SSTORE DUP2 PUSH32 0xE539A333A3CFD582C41B5F4712067EC24868A7A493C0AB524D9FCFDE5BB0D410 PUSH1 0x40 MLOAD DUP6 DUP2 MSTORE DUP1 PUSH2 0xD63 CALLER SWAP6 DUP9 DUP4 ADD SWAP1 PUSH2 0x1D19 JUMP JUMPDEST SUB SWAP1 LOG3 PUSH1 0x40 MLOAD SWAP1 DUP2 MSTORE RETURN JUMPDEST ADD MLOAD SWAP1 POP DUP10 DUP1 PUSH2 0xCA4 JUMP JUMPDEST SWAP1 PUSH1 0x1F NOT DUP4 AND SWAP2 PUSH1 0x3 DUP7 ADD PUSH1 0x0 MSTORE DUP9 PUSH1 0x0 KECCAK256 SWAP3 PUSH1 0x0 JUMPDEST DUP2 DUP2 LT PUSH2 0xDD4 JUMPI POP SWAP3 PUSH1 0x1 SWAP3 DUP6 SWAP3 PUSH2 0x140 SWAP7 PUSH1 0xA SWAP9 SWAP7 LT PUSH2 0xDBB JUMPI JUMPDEST POP POP POP DUP2 SHL ADD PUSH1 0x3 DUP6 ADD SSTORE PUSH2 0xCBC JUMP JUMPDEST ADD MLOAD PUSH1 0x0 NOT PUSH1 0xF8 DUP5 PUSH1 0x3 SHL AND SHR NOT AND SWAP1 SSTORE DUP10 DUP1 DUP1 PUSH2 0xDAB JUMP JUMPDEST SWAP3 SWAP4 DUP11 PUSH1 0x1 DUP2 SWAP3 DUP8 DUP7 ADD MLOAD DUP2 SSTORE ADD SWAP6 ADD SWAP4 ADD PUSH2 0xD8F JUMP JUMPDEST PUSH1 0x3 DUP5 ADD PUSH1 0x0 MSTORE PUSH1 0x20 PUSH1 0x0 KECCAK256 PUSH1 0x1F DUP4 ADD PUSH1 0x5 SHR DUP2 ADD PUSH1 0x20 DUP5 LT PUSH2 0xE2B JUMPI JUMPDEST PUSH1 0x1F DUP10 ADD PUSH1 0x5 SHR DUP3 ADD DUP2 LT PUSH2 0xE1F JUMPI POP POP PUSH2 0xC81 JUMP JUMPDEST PUSH1 0x0 DUP2 SSTORE PUSH1 0x1 ADD PUSH2 0xE09 JUMP JUMPDEST POP DUP1 PUSH2 0xE09 JUMP JUMPDEST PUSH4 0x4E487B71 PUSH1 0xE0 SHL PUSH1 0x0 MSTORE PUSH1 0x41 PUSH1 0x4 MSTORE PUSH1 0x24 PUSH1 0x0 REVERT JUMPDEST ADD MLOAD SWAP1 POP DUP7 DUP1 PUSH2 0xC3B JUMP JUMPDEST PUSH1 0x2 DUP6 ADD PUSH1 0x0 SWAP1 DUP2 MSTORE PUSH1 0x20 DUP2 KECCAK256 SWAP4 POP PUSH1 0x1F NOT DUP6 AND SWAP1 JUMPDEST DUP2 DUP2 LT PUSH2 0xEA8 JUMPI POP SWAP1 DUP5 PUSH1 0x1 SWAP6 SWAP5 SWAP4 SWAP3 LT PUSH2 0xE8F JUMPI JUMPDEST POP POP POP DUP2 SHL ADD PUSH1 0x2 DUP3 ADD SSTORE PUSH2 0xC53 JUMP JUMPDEST ADD MLOAD PUSH1 0x0 NOT PUSH1 0xF8 DUP5 PUSH1 0x3 SHL AND SHR NOT AND SWAP1 SSTORE DUP7 DUP1 DUP1 PUSH2 0xE7F JUMP JUMPDEST SWAP3 SWAP4 PUSH1 0x20 PUSH1 0x1 DUP2 SWAP3 DUP8 DUP7 ADD MLOAD DUP2 SSTORE ADD SWAP6 ADD SWAP4 ADD PUSH2 0xE69 JUMP JUMPDEST SWAP1 SWAP2 POP PUSH1 0x2 DUP5 ADD PUSH1 0x0 MSTORE PUSH1 0x20 PUSH1 0x0 KECCAK256 PUSH1 0x1F DUP5 ADD PUSH1 0x5 SHR DUP2 ADD PUSH1 0x20 DUP6 LT PUSH2 0xF0C JUMPI JUMPDEST SWAP1 DUP5 SWAP4 SWAP3 SWAP2 JUMPDEST PUSH1 0x1F DUP4 ADD PUSH1 0x5 SHR DUP3 ADD DUP2 LT PUSH2 0xEFD JUMPI POP POP PUSH2 0xC24 JUMP JUMPDEST PUSH1 0x0 DUP2 SSTORE DUP6 SWAP5 POP PUSH1 0x1 ADD PUSH2 0xEE7 JUMP JUMPDEST POP DUP1 PUSH2 0xEE1 JUMP JUMPDEST ADD MLOAD SWAP1 POP DUP7 DUP1 PUSH2 0xBDD JUMP JUMPDEST PUSH1 0x1 DUP6 ADD PUSH1 0x0 SWAP1 DUP2 MSTORE PUSH1 0x20 DUP2 KECCAK256 SWAP4 POP PUSH1 0x1F NOT DUP6 AND SWAP1 JUMPDEST DUP2 DUP2 LT PUSH2 0xF73 JUMPI POP SWAP1 DUP5 PUSH1 0x1 SWAP6 SWAP5 SWAP4 SWAP3 LT PUSH2 0xF5A JUMPI JUMPDEST POP POP POP DUP2 SHL ADD PUSH1 0x1 DUP3 ADD SSTORE PUSH2 0xBF5 JUMP JUMPDEST ADD MLOAD PUSH1 0x0 NOT PUSH1 0xF8 DUP5 PUSH1 0x3 SHL AND SHR NOT AND SWAP1 SSTORE DUP7 DUP1 DUP1 PUSH2 0xF4A JUMP JUMPDEST SWAP3 SWAP4 PUSH1 0x20 PUSH1 0x1 DUP2 SWAP3 DUP8 DUP7 ADD MLOAD DUP2 SSTORE ADD SWAP6 ADD SWAP4 ADD PUSH2 0xF34 JUMP JUMPDEST SWAP1 SWAP2 POP PUSH1 0x1 DUP5 ADD PUSH1 0x0 MSTORE PUSH1 0x20 PUSH1 0x0 KECCAK256 PUSH1 0x1F DUP5 ADD PUSH1 0x5 SHR DUP2 ADD PUSH1 0x20 DUP6 LT PUSH2 0xFD7 JUMPI JUMPDEST SWAP1 DUP5 SWAP4 SWAP3 SWAP2 JUMPDEST PUSH1 0x1F DUP4 ADD PUSH1 0x5 SHR DUP3 ADD DUP2 LT PUSH2 0xFC8 JUMPI POP POP PUSH2 0xBC6 JUMP JUMPDEST PUSH1 0x0 DUP2 SSTORE DUP6 SWAP5 POP PUSH1 0x1 ADD PUSH2 0xFB2 JUMP JUMPDEST POP DUP1 PUSH2 0xFAC JUMP JUMPDEST CALLVALUE PUSH2 0x1B3 JUMPI PUSH1 0x40 CALLDATASIZE PUSH1 0x3 NOT ADD SLT PUSH2 0x1B3 JUMPI PUSH2 0xFF7 PUSH2 0x1D6F JUMP JUMPDEST PUSH1 0x4 CALLDATALOAD PUSH1 0x0 MSTORE PUSH1 0xF PUSH1 0x20 MSTORE PUSH1 0x40 PUSH1 0x0 KECCAK256 SWAP1 PUSH1 0x1 DUP1 PUSH1 0xA0 SHL SUB AND PUSH1 0x0 MSTORE PUSH1 0x20 MSTORE PUSH1 0x20 PUSH1 0xFF PUSH1 0x40 PUSH1 0x0 KECCAK256 SLOAD AND PUSH1 0x40 MLOAD SWAP1 ISZERO ISZERO DUP2 MSTORE RETURN JUMPDEST CALLVALUE PUSH2 0x1B3 JUMPI PUSH1 0x0 CALLDATASIZE PUSH1 0x3 NOT ADD SLT PUSH2 0x1B3 JUMPI PUSH1 0x6 SLOAD PUSH1 0x40 MLOAD PUSH1 0x1 PUSH1 0x1 PUSH1 0xA0 SHL SUB SWAP1 SWAP2 AND DUP2 MSTORE PUSH1 0x20 SWAP1 RETURN JUMPDEST CALLVALUE PUSH2 0x1B3 JUMPI PUSH1 0x20 DUP1 PUSH1 0x3 NOT CALLDATASIZE ADD SLT PUSH2 0x1B3 JUMPI PUSH1 0x4 CALLDATALOAD SWAP1 PUSH2 0x1078 PUSH1 0x9 SLOAD DUP4 GT ISZERO PUSH2 0x2376 JUMP JUMPDEST DUP2 PUSH1 0x0 MSTORE PUSH1 0xF DUP2 MSTORE PUSH1 0x40 PUSH1 0x0 KECCAK256 CALLER PUSH1 0x0 MSTORE DUP2 MSTORE PUSH1 0xFF PUSH1 0x40 PUSH1 0x0 KECCAK256 SLOAD AND PUSH2 0x116E JUMPI PUSH1 0x0 DUP3 DUP2 MSTORE PUSH1 0xB DUP3 MSTORE PUSH1 0x40 SWAP1 KECCAK256 PUSH1 0x2 ADD SLOAD PUSH1 0x1 PUSH1 0x1 PUSH1 0xA0 SHL SUB AND CALLER EQ PUSH2 0x1120 JUMPI DUP2 PUSH1 0x0 MSTORE PUSH1 0xB DUP2 MSTORE PUSH1 0x5 PUSH1 0x40 PUSH1 0x0 KECCAK256 ADD PUSH2 0x10D2 DUP2 SLOAD PUSH2 0x22E8 JUMP JUMPDEST SWAP1 SSTORE DUP2 PUSH1 0x0 MSTORE PUSH1 0xF DUP2 MSTORE PUSH1 0x40 PUSH1 0x0 KECCAK256 SWAP1 CALLER PUSH1 0x0 MSTORE MSTORE PUSH1 0x40 PUSH1 0x0 KECCAK256 PUSH1 0x1 PUSH1 0xFF NOT DUP3 SLOAD AND OR SWAP1 SSTORE CALLER SWAP1 PUSH32 0x160FB30F1EE635C3CAA0E5D3A7884222081DCAFA69308E0D695E2332515AEC22 PUSH1 0x0 DUP1 LOG3 STOP JUMPDEST PUSH1 0x84 SWAP1 PUSH1 0x40 MLOAD SWAP1 PUSH3 0x461BCD PUSH1 0xE5 SHL DUP3 MSTORE PUSH1 0x4 DUP3 ADD MSTORE PUSH1 0x21 PUSH1 0x24 DUP3 ADD MSTORE PUSH32 0x43616E6E6F74206C696B6520796F7572206F776E20636F6E747269627574696F PUSH1 0x44 DUP3 ADD MSTORE PUSH1 0x37 PUSH1 0xF9 SHL PUSH1 0x64 DUP3 ADD MSTORE REVERT JUMPDEST PUSH1 0x64 SWAP1 PUSH1 0x40 MLOAD SWAP1 PUSH3 0x461BCD PUSH1 0xE5 SHL DUP3 MSTORE PUSH1 0x4 DUP3 ADD MSTORE PUSH1 0x1B PUSH1 0x24 DUP3 ADD MSTORE PUSH32 0x596F75206861766520616C7265616479206C696B656420746869730000000000 PUSH1 0x44 DUP3 ADD MSTORE REVERT JUMPDEST CALLVALUE PUSH2 0x1B3 JUMPI PUSH1 0x40 CALLDATASIZE PUSH1 0x3 NOT ADD SLT PUSH2 0x1B3 JUMPI PUSH2 0x11CB PUSH2 0x1D59 JUMP JUMPDEST PUSH1 0x1 PUSH1 0x1 PUSH1 0xA0 SHL SUB AND PUSH1 0x0 SWAP1 DUP2 MSTORE PUSH1 0xD PUSH1 0x20 MSTORE PUSH1 0x40 SWAP1 KECCAK256 DUP1 SLOAD PUSH1 0x24 CALLDATALOAD SWAP2 SWAP1 DUP3 LT ISZERO PUSH2 0x1B3 JUMPI PUSH1 0x20 SWAP2 PUSH2 0x11FC SWAP2 PUSH2 0x1EEE JUMP JUMPDEST SWAP1 SLOAD PUSH1 0x40 MLOAD SWAP2 PUSH1 0x3 SHL SHR DUP2 MSTORE RETURN JUMPDEST CALLVALUE PUSH2 0x1B3 JUMPI PUSH1 0x0 CALLDATASIZE PUSH1 0x3 NOT ADD SLT PUSH2 0x1B3 JUMPI PUSH2 0x1223 PUSH2 0x1FC8 JUMP JUMPDEST PUSH1 0x6 DUP1 SLOAD PUSH1 0x1 PUSH1 0x1 PUSH1 0xA0 SHL SUB NOT DUP2 AND SWAP1 SWAP2 SSTORE PUSH1 0x0 SWAP1 PUSH1 0x1 PUSH1 0x1 PUSH1 0xA0 SHL SUB AND PUSH32 0x8BE0079C531659141344CD1FD0A4F28419497F9722A3DAAFE3B4186F6B6457E0 DUP3 DUP1 LOG3 STOP JUMPDEST CALLVALUE PUSH2 0x1B3 JUMPI PUSH1 0x20 CALLDATASIZE PUSH1 0x3 NOT ADD SLT PUSH2 0x1B3 JUMPI PUSH1 0x1 PUSH1 0x1 PUSH1 0xA0 SHL SUB PUSH2 0x1288 PUSH2 0x1D59 JUMP JUMPDEST AND DUP1 ISZERO PUSH2 0x12A7 JUMPI PUSH1 0x0 MSTORE PUSH1 0x3 PUSH1 0x20 MSTORE PUSH1 0x20 PUSH1 0x40 PUSH1 0x0 KECCAK256 SLOAD PUSH1 0x40 MLOAD SWAP1 DUP2 MSTORE RETURN JUMPDEST PUSH1 0x40 MLOAD PUSH4 0x22718AD9 PUSH1 0xE2 SHL DUP2 MSTORE PUSH1 0x0 PUSH1 0x4 DUP3 ADD MSTORE PUSH1 0x24 SWAP1 REVERT JUMPDEST CALLVALUE PUSH2 0x1B3 JUMPI PUSH2 0x12CE CALLDATASIZE PUSH2 0x1ED8 JUMP JUMPDEST PUSH2 0x12D6 PUSH2 0x1FC8 JUMP JUMPDEST PUSH2 0x12E4 PUSH1 0x9 SLOAD DUP4 GT ISZERO PUSH2 0x2376 JUMP JUMPDEST DUP2 PUSH1 0x0 MSTORE PUSH1 0x20 PUSH1 0xB DUP2 MSTORE PUSH1 0xFF PUSH1 0x7 PUSH1 0x40 PUSH1 0x0 KECCAK256 ADD SLOAD AND PUSH2 0x143D JUMPI DUP3 PUSH1 0x0 MSTORE PUSH1 0xB DUP2 MSTORE PUSH1 0x1 PUSH1 0x40 PUSH1 0x0 KECCAK256 PUSH1 0x7 DUP2 ADD DUP3 PUSH1 0xFF NOT DUP3 SLOAD AND OR SWAP1 SSTORE DUP4 PUSH1 0x6 DUP3 ADD SSTORE ADD SLOAD PUSH1 0x0 MSTORE PUSH1 0xA DUP2 MSTORE PUSH1 0x7 PUSH1 0x40 PUSH1 0x0 KECCAK256 ADD DUP1 SLOAD SWAP1 DUP4 DUP3 ADD DUP1 SWAP3 GT PUSH2 0x1427 JUMPI SSTORE DUP2 PUSH2 0x1371 JUMPI JUMPDEST PUSH32 0xBFE577B36F6862B4729CC4B1AB7DE20F7D8017E3B23552B685712E81741EFE95 SWAP2 PUSH1 0x40 MLOAD SWAP1 DUP2 MSTORE LOG2 STOP JUMPDEST PUSH1 0x10 SLOAD PUSH1 0x0 DUP5 DUP2 MSTORE PUSH1 0xB DUP4 MSTORE PUSH1 0x40 DUP1 DUP3 KECCAK256 PUSH1 0x2 ADD SLOAD SWAP1 MLOAD PUSH4 0xA9059CBB PUSH1 0xE0 SHL DUP2 MSTORE PUSH1 0x1 PUSH1 0x1 PUSH1 0xA0 SHL SUB SWAP2 DUP3 AND PUSH1 0x4 DUP3 ADD MSTORE PUSH1 0x24 DUP2 ADD DUP7 SWAP1 MSTORE SWAP5 SWAP3 DUP5 SWAP3 DUP7 SWAP3 PUSH1 0x44 SWAP3 DUP5 SWAP3 SWAP2 AND GAS CALL SWAP3 DUP4 ISZERO PUSH2 0x141B JUMPI PUSH32 0xBFE577B36F6862B4729CC4B1AB7DE20F7D8017E3B23552B685712E81741EFE95 SWAP4 PUSH2 0x13EE JUMPI JUMPDEST POP SWAP2 POP PUSH2 0x1346 JUMP JUMPDEST PUSH2 0x140D SWAP1 DUP4 RETURNDATASIZE DUP6 GT PUSH2 0x1414 JUMPI JUMPDEST PUSH2 0x1405 DUP2 DUP4 PUSH2 0x1DDB JUMP JUMPDEST DUP2 ADD SWAP1 PUSH2 0x23C2 JUMP JUMPDEST POP DUP5 PUSH2 0x13E6 JUMP JUMPDEST POP RETURNDATASIZE PUSH2 0x13FB JUMP JUMPDEST PUSH1 0x40 MLOAD RETURNDATASIZE PUSH1 0x0 DUP3 RETURNDATACOPY RETURNDATASIZE SWAP1 REVERT JUMPDEST PUSH4 0x4E487B71 PUSH1 0xE0 SHL PUSH1 0x0 MSTORE PUSH1 0x11 PUSH1 0x4 MSTORE PUSH1 0x24 PUSH1 0x0 REVERT JUMPDEST PUSH1 0x64 SWAP1 PUSH1 0x40 MLOAD SWAP1 PUSH3 0x461BCD PUSH1 0xE5 SHL DUP3 MSTORE PUSH1 0x4 DUP3 ADD MSTORE PUSH1 0x1D PUSH1 0x24 DUP3 ADD MSTORE PUSH32 0x436F6E747269627574696F6E20616C726561647920617070726F766564000000 PUSH1 0x44 DUP3 ADD MSTORE REVERT JUMPDEST CALLVALUE PUSH2 0x1B3 JUMPI PUSH1 0x20 CALLDATASIZE PUSH1 0x3 NOT ADD SLT PUSH2 0x1B3 JUMPI PUSH1 0x20 PUSH2 0x149F PUSH1 0x4 CALLDATALOAD PUSH2 0x217D JUMP JUMPDEST PUSH1 0x40 MLOAD PUSH1 0x1 PUSH1 0x1 PUSH1 0xA0 SHL SUB SWAP1 SWAP2 AND DUP2 MSTORE RETURN JUMPDEST CALLVALUE PUSH2 0x1B3 JUMPI PUSH1 0x40 CALLDATASIZE PUSH1 0x3 NOT ADD SLT PUSH2 0x1B3 JUMPI PUSH1 0x24 PUSH8 0xFFFFFFFFFFFFFFFF DUP2 CALLDATALOAD DUP2 DUP2 GT PUSH2 0x1B3 JUMPI PUSH2 0x14E4 SWAP1 CALLDATASIZE SWAP1 PUSH1 0x4 ADD PUSH2 0x1F6F JUMP JUMPDEST PUSH2 0x14F4 PUSH1 0x8 SLOAD PUSH1 0x4 CALLDATALOAD GT ISZERO PUSH2 0x22F7 JUMP JUMPDEST PUSH1 0x4 CALLDATALOAD PUSH1 0x0 MSTORE PUSH1 0xA PUSH1 0x20 MSTORE PUSH1 0xFF PUSH1 0x8 PUSH1 0x40 PUSH1 0x0 KECCAK256 ADD SLOAD AND PUSH2 0x18FF JUMPI PUSH1 0x4 CALLDATALOAD PUSH1 0x0 MSTORE PUSH1 0xE PUSH1 0x20 MSTORE PUSH1 0x40 PUSH1 0x0 KECCAK256 CALLER PUSH1 0x0 MSTORE PUSH1 0x20 MSTORE PUSH1 0xFF PUSH1 0x40 PUSH1 0x0 KECCAK256 SLOAD AND PUSH2 0x18A6 JUMPI DUP1 MLOAD PUSH1 0x4 CALLDATALOAD PUSH1 0x0 MSTORE PUSH1 0xA PUSH1 0x20 MSTORE PUSH1 0x9 PUSH1 0x40 PUSH1 0x0 KECCAK256 ADD SLOAD GT PUSH2 0x186E JUMPI PUSH1 0x4 CALLDATALOAD PUSH1 0x0 MSTORE PUSH1 0xA PUSH1 0x20 MSTORE PUSH1 0x40 PUSH1 0x0 KECCAK256 PUSH1 0xA PUSH1 0x6 DUP3 ADD SLOAD SWAP2 ADD SLOAD GT ISZERO PUSH2 0x182A JUMPI PUSH2 0x1579 PUSH1 0x9 SLOAD PUSH2 0x22E8 JUMP JUMPDEST SWAP2 DUP3 PUSH1 0x9 SSTORE PUSH1 0x40 MLOAD SWAP1 PUSH2 0x100 DUP3 ADD DUP3 DUP2 LT DUP3 DUP3 GT OR PUSH2 0x1815 JUMPI PUSH1 0x40 MSTORE DUP4 DUP3 MSTORE PUSH1 0x20 DUP3 ADD SWAP3 PUSH1 0x4 CALLDATALOAD DUP5 MSTORE PUSH1 0x40 DUP4 ADD CALLER DUP2 MSTORE PUSH1 0x60 DUP5 ADD SWAP2 DUP3 MSTORE TIMESTAMP PUSH1 0x80 DUP6 ADD MSTORE PUSH1 0x0 PUSH1 0xA0 DUP6 ADD MSTORE PUSH1 0x0 PUSH1 0xC0 DUP6 ADD MSTORE PUSH1 0x0 PUSH1 0xE0 DUP6 ADD MSTORE DUP6 PUSH1 0x0 MSTORE PUSH1 0xB PUSH1 0x20 MSTORE PUSH1 0x40 PUSH1 0x0 KECCAK256 SWAP5 DUP5 MLOAD DUP7 SSTORE MLOAD PUSH1 0x1 DUP7 ADD SSTORE PUSH1 0x2 DUP6 ADD SWAP1 PUSH1 0x1 DUP1 PUSH1 0xA0 SHL SUB SWAP1 MLOAD AND PUSH1 0x1 PUSH1 0x1 PUSH1 0x60 SHL SUB PUSH1 0xA0 SHL DUP3 SLOAD AND OR SWAP1 SSTORE MLOAD SWAP5 DUP6 MLOAD SWAP2 DUP3 GT PUSH2 0x1801 JUMPI POP PUSH2 0x161D PUSH1 0x3 DUP5 ADD SLOAD PUSH2 0x1D85 JUMP JUMPDEST PUSH1 0x1F DUP2 GT PUSH2 0x17BA JUMPI JUMPDEST POP PUSH1 0x20 PUSH1 0x1F DUP3 GT PUSH1 0x1 EQ PUSH2 0x1744 JUMPI SWAP2 DUP2 PUSH1 0xE0 SWAP3 PUSH1 0x7 SWAP5 PUSH2 0x1696 SWAP8 SWAP9 PUSH1 0x0 SWAP3 PUSH2 0x1739 JUMPI JUMPDEST POP POP DUP2 PUSH1 0x1 SHL SWAP2 PUSH1 0x0 NOT SWAP1 PUSH1 0x3 SHL SHR NOT AND OR PUSH1 0x3 DUP6 ADD SSTORE JUMPDEST PUSH1 0x80 DUP2 ADD MLOAD PUSH1 0x4 DUP6 ADD SSTORE PUSH1 0xA0 DUP2 ADD MLOAD PUSH1 0x5 DUP6 ADD SSTORE PUSH1 0xC0 DUP2 ADD MLOAD PUSH1 0x6 DUP6 ADD SSTORE ADD MLOAD ISZERO ISZERO SWAP2 ADD SWAP1 PUSH1 0xFF DUP1 NOT DUP4 SLOAD AND SWAP2 ISZERO ISZERO AND OR SWAP1 SSTORE JUMP JUMPDEST PUSH1 0x4 CALLDATALOAD PUSH1 0x0 MSTORE PUSH1 0xC PUSH1 0x20 MSTORE PUSH2 0x16AF DUP2 PUSH1 0x40 PUSH1 0x0 KECCAK256 PUSH2 0x233C JUMP JUMPDEST CALLER PUSH1 0x0 MSTORE PUSH1 0xD PUSH1 0x20 MSTORE PUSH2 0x16C6 DUP2 PUSH1 0x40 PUSH1 0x0 KECCAK256 PUSH2 0x233C JUMP JUMPDEST PUSH1 0x4 CALLDATALOAD PUSH1 0x0 MSTORE PUSH1 0xE PUSH1 0x20 MSTORE PUSH1 0x40 PUSH1 0x0 KECCAK256 CALLER PUSH1 0x0 MSTORE PUSH1 0x20 MSTORE PUSH1 0x40 PUSH1 0x0 KECCAK256 PUSH1 0x1 PUSH1 0xFF NOT DUP3 SLOAD AND OR SWAP1 SSTORE PUSH1 0x4 CALLDATALOAD PUSH1 0x0 MSTORE PUSH1 0xA PUSH1 0x20 MSTORE PUSH1 0x6 PUSH1 0x40 PUSH1 0x0 KECCAK256 ADD PUSH2 0x170A DUP2 SLOAD PUSH2 0x22E8 JUMP JUMPDEST SWAP1 SSTORE CALLER SWAP1 PUSH1 0x4 CALLDATALOAD SWAP1 PUSH32 0x390F5F279DA0CE4AFC2046A3C1440C27A0637EA7261A5636E5518A2258BED269 PUSH1 0x0 DUP1 LOG4 STOP JUMPDEST ADD MLOAD SWAP1 POP DUP9 DUP1 PUSH2 0x1649 JUMP JUMPDEST PUSH1 0x1F NOT DUP3 AND SWAP6 PUSH1 0x3 DUP6 ADD PUSH1 0x0 MSTORE PUSH1 0x20 PUSH1 0x0 KECCAK256 SWAP7 PUSH1 0x0 JUMPDEST DUP2 DUP2 LT PUSH2 0x17A2 JUMPI POP SWAP3 PUSH2 0x1696 SWAP7 SWAP8 PUSH1 0x7 SWAP6 SWAP4 PUSH1 0x1 SWAP4 DUP4 PUSH1 0xE0 SWAP8 LT PUSH2 0x1789 JUMPI JUMPDEST POP POP POP DUP2 SHL ADD PUSH1 0x3 DUP6 ADD SSTORE PUSH2 0x1661 JUMP JUMPDEST ADD MLOAD PUSH1 0x0 NOT PUSH1 0xF8 DUP5 PUSH1 0x3 SHL AND SHR NOT AND SWAP1 SSTORE DUP9 DUP1 DUP1 PUSH2 0x1779 JUMP JUMPDEST DUP4 DUP4 ADD MLOAD DUP10 SSTORE PUSH1 0x1 SWAP1 SWAP9 ADD SWAP8 PUSH1 0x20 SWAP4 DUP5 ADD SWAP4 ADD PUSH2 0x175A JUMP JUMPDEST PUSH1 0x3 DUP5 ADD PUSH1 0x0 MSTORE PUSH1 0x20 PUSH1 0x0 KECCAK256 PUSH1 0x1F DUP4 ADD PUSH1 0x5 SHR DUP2 ADD PUSH1 0x20 DUP5 LT PUSH2 0x17FA JUMPI JUMPDEST PUSH1 0x1F DUP4 ADD PUSH1 0x5 SHR DUP3 ADD DUP2 LT PUSH2 0x17EE JUMPI POP POP PUSH2 0x1626 JUMP JUMPDEST PUSH1 0x0 DUP2 SSTORE PUSH1 0x1 ADD PUSH2 0x17D8 JUMP JUMPDEST POP DUP1 PUSH2 0x17D8 JUMP JUMPDEST PUSH4 0x4E487B71 PUSH1 0xE0 SHL PUSH1 0x0 SWAP1 DUP2 MSTORE PUSH1 0x41 PUSH1 0x4 MSTORE REVERT JUMPDEST DUP6 PUSH4 0x4E487B71 PUSH1 0xE0 SHL PUSH1 0x0 MSTORE PUSH1 0x41 PUSH1 0x4 MSTORE PUSH1 0x0 REVERT JUMPDEST PUSH1 0x40 MLOAD PUSH3 0x461BCD PUSH1 0xE5 SHL DUP2 MSTORE PUSH1 0x20 PUSH1 0x4 DUP3 ADD MSTORE PUSH1 0x18 DUP2 DUP6 ADD MSTORE PUSH32 0x4D617820636F6E7472696275746F727320726561636865640000000000000000 PUSH1 0x44 DUP3 ADD MSTORE PUSH1 0x64 SWAP1 REVERT JUMPDEST PUSH1 0x40 MLOAD PUSH3 0x461BCD PUSH1 0xE5 SHL DUP2 MSTORE PUSH1 0x20 PUSH1 0x4 DUP3 ADD MSTORE PUSH1 0x11 DUP2 DUP6 ADD MSTORE PUSH17 0x10DBDB9D195B9D081D1BDBC81CDA1BDC9D PUSH1 0x7A SHL PUSH1 0x44 DUP3 ADD MSTORE PUSH1 0x64 SWAP1 REVERT JUMPDEST PUSH1 0x40 MLOAD PUSH3 0x461BCD PUSH1 0xE5 SHL DUP2 MSTORE PUSH1 0x20 PUSH1 0x4 DUP3 ADD MSTORE PUSH1 0x2C DUP2 DUP6 ADD MSTORE PUSH32 0x596F75206861766520616C726561647920636F6E747269627574656420746F20 PUSH1 0x44 DUP3 ADD MSTORE PUSH12 0x746869732061727469636C65 PUSH1 0xA0 SHL PUSH1 0x64 DUP3 ADD MSTORE PUSH1 0x84 SWAP1 REVERT JUMPDEST PUSH1 0x40 MLOAD PUSH3 0x461BCD PUSH1 0xE5 SHL DUP2 MSTORE PUSH1 0x20 PUSH1 0x4 DUP3 ADD MSTORE PUSH1 0x14 DUP2 DUP6 ADD MSTORE PUSH20 0x105C9D1A58DB19481A5CC818DBDB5C1B195D1959 PUSH1 0x62 SHL PUSH1 0x44 DUP3 ADD MSTORE PUSH1 0x64 SWAP1 REVERT JUMPDEST CALLVALUE PUSH2 0x1B3 JUMPI PUSH2 0x8C2 PUSH2 0x194B CALLDATASIZE PUSH2 0x1EA3 JUMP JUMPDEST SWAP1 PUSH1 0x40 MLOAD SWAP3 PUSH2 0x1959 DUP5 PUSH2 0x1DBF JUMP JUMPDEST PUSH1 0x0 DUP5 MSTORE PUSH2 0x8BC DUP4 DUP4 DUP4 PUSH2 0x1FF4 JUMP JUMPDEST CALLVALUE PUSH2 0x1B3 JUMPI PUSH1 0x20 CALLDATASIZE PUSH1 0x3 NOT ADD SLT PUSH2 0x1B3 JUMPI PUSH2 0x1981 PUSH2 0x1FC8 JUMP JUMPDEST PUSH1 0x10 SLOAD PUSH1 0x6 SLOAD PUSH1 0x40 MLOAD PUSH4 0xA9059CBB PUSH1 0xE0 SHL DUP2 MSTORE PUSH1 0x1 PUSH1 0x1 PUSH1 0xA0 SHL SUB SWAP2 DUP3 AND PUSH1 0x4 DUP1 DUP4 ADD SWAP2 SWAP1 SWAP2 MSTORE CALLDATALOAD PUSH1 0x24 DUP3 ADD MSTORE SWAP2 PUSH1 0x20 SWAP2 DUP4 SWAP2 PUSH1 0x44 SWAP2 DUP4 SWAP2 PUSH1 0x0 SWAP2 AND GAS CALL DUP1 ISZERO PUSH2 0x141B JUMPI PUSH2 0x19CB JUMPI STOP JUMPDEST PUSH2 0x8C2 SWAP1 PUSH1 0x20 RETURNDATASIZE DUP2 GT PUSH2 0x1414 JUMPI PUSH2 0x1405 DUP2 DUP4 PUSH2 0x1DDB JUMP JUMPDEST CALLVALUE PUSH2 0x1B3 JUMPI PUSH2 0x19F0 CALLDATASIZE PUSH2 0x1ED8 JUMP JUMPDEST SWAP1 PUSH1 0x0 MSTORE PUSH1 0xC PUSH1 0x20 MSTORE PUSH1 0x40 PUSH1 0x0 KECCAK256 DUP1 SLOAD DUP3 LT ISZERO PUSH2 0x1B3 JUMPI PUSH1 0x20 SWAP2 PUSH2 0x11FC SWAP2 PUSH2 0x1EEE JUMP JUMPDEST CALLVALUE PUSH2 0x1B3 JUMPI PUSH2 0x8C2 PUSH2 0x1A24 CALLDATASIZE PUSH2 0x1EA3 JUMP JUMPDEST SWAP2 PUSH2 0x1FF4 JUMP JUMPDEST CALLVALUE PUSH2 0x1B3 JUMPI PUSH1 0x20 CALLDATASIZE PUSH1 0x3 NOT ADD SLT PUSH2 0x1B3 JUMPI PUSH1 0x4 CALLDATALOAD PUSH1 0x0 MSTORE PUSH1 0xB PUSH1 0x20 MSTORE PUSH1 0x40 PUSH1 0x0 KECCAK256 DUP1 SLOAD PUSH1 0x1 DUP3 ADD SLOAD SWAP2 PUSH1 0x1 DUP1 PUSH1 0xA0 SHL SUB PUSH1 0x2 DUP3 ADD SLOAD AND PUSH2 0x1A6C PUSH1 0x3 DUP4 ADD PUSH2 0x1DFD JUMP JUMPDEST SWAP2 PUSH1 0x4 DUP2 ADD SLOAD SWAP3 PUSH2 0x1AAD PUSH1 0x5 DUP4 ADD SLOAD SWAP2 PUSH1 0xFF PUSH1 0x7 PUSH1 0x6 DUP7 ADD SLOAD SWAP6 ADD SLOAD AND SWAP5 PUSH1 0x40 MLOAD SWAP9 DUP10 SWAP9 DUP10 MSTORE PUSH1 0x20 DUP10 ADD MSTORE PUSH1 0x40 DUP9 ADD MSTORE PUSH2 0x100 DUP1 PUSH1 0x60 DUP10 ADD MSTORE DUP8 ADD SWAP1 PUSH2 0x1D19 JUMP JUMPDEST SWAP4 PUSH1 0x80 DUP7 ADD MSTORE PUSH1 0xA0 DUP6 ADD MSTORE PUSH1 0xC0 DUP5 ADD MSTORE ISZERO ISZERO PUSH1 0xE0 DUP4 ADD MSTORE SUB SWAP1 RETURN JUMPDEST CALLVALUE PUSH2 0x1B3 JUMPI PUSH1 0x0 CALLDATASIZE PUSH1 0x3 NOT ADD SLT PUSH2 0x1B3 JUMPI PUSH1 0x20 PUSH1 0x8 SLOAD PUSH1 0x40 MLOAD SWAP1 DUP2 MSTORE RETURN JUMPDEST CALLVALUE PUSH2 0x1B3 JUMPI PUSH1 0x40 CALLDATASIZE PUSH1 0x3 NOT ADD SLT PUSH2 0x1B3 JUMPI PUSH2 0x1AFF PUSH2 0x1D59 JUMP JUMPDEST PUSH1 0x24 CALLDATALOAD PUSH2 0x1B0B DUP2 PUSH2 0x217D JUMP JUMPDEST CALLER ISZERO ISZERO DUP1 PUSH2 0x1BBA JUMPI JUMPDEST DUP1 PUSH2 0x1B8D JUMPI JUMPDEST PUSH2 0x1B75 JUMPI PUSH1 0x1 PUSH1 0x1 PUSH1 0xA0 SHL SUB SWAP3 DUP4 AND SWAP3 DUP3 SWAP2 DUP5 SWAP2 AND PUSH32 0x8C5BE1E5EBEC7D5BD14F71427D1E84F3DD0314C0F7B2291E5B200AC8C7C3B925 PUSH1 0x0 DUP1 LOG4 PUSH1 0x0 SWAP1 DUP2 MSTORE PUSH1 0x4 PUSH1 0x20 MSTORE PUSH1 0x40 SWAP1 KECCAK256 DUP1 SLOAD PUSH1 0x1 PUSH1 0x1 PUSH1 0xA0 SHL SUB NOT AND SWAP1 SWAP2 OR SWAP1 SSTORE STOP JUMPDEST PUSH1 0x40 MLOAD PUSH4 0xA9FBF51F PUSH1 0xE0 SHL DUP2 MSTORE CALLER PUSH1 0x4 DUP3 ADD MSTORE PUSH1 0x24 SWAP1 REVERT JUMPDEST POP PUSH1 0x1 DUP1 PUSH1 0xA0 SHL SUB DUP2 AND PUSH1 0x0 MSTORE PUSH1 0x5 PUSH1 0x20 MSTORE PUSH1 0x40 PUSH1 0x0 KECCAK256 CALLER PUSH1 0x0 MSTORE PUSH1 0x20 MSTORE PUSH1 0xFF PUSH1 0x40 PUSH1 0x0 KECCAK256 SLOAD AND ISZERO PUSH2 0x1B1A JUMP JUMPDEST POP PUSH1 0x1 PUSH1 0x1 PUSH1 0xA0 SHL SUB DUP2 AND CALLER EQ ISZERO PUSH2 0x1B14 JUMP JUMPDEST CALLVALUE PUSH2 0x1B3 JUMPI PUSH1 0x20 CALLDATASIZE PUSH1 0x3 NOT ADD SLT PUSH2 0x1B3 JUMPI PUSH1 0x4 CALLDATALOAD PUSH2 0x1BEA DUP2 PUSH2 0x217D JUMP JUMPDEST POP PUSH1 0x0 MSTORE PUSH1 0x4 PUSH1 0x20 MSTORE PUSH1 0x20 PUSH1 0x1 DUP1 PUSH1 0xA0 SHL SUB PUSH1 0x40 PUSH1 0x0 KECCAK256 SLOAD AND PUSH1 0x40 MLOAD SWAP1 DUP2 MSTORE RETURN JUMPDEST CALLVALUE PUSH2 0x1B3 JUMPI PUSH1 0x0 CALLDATASIZE PUSH1 0x3 NOT ADD SLT PUSH2 0x1B3 JUMPI PUSH1 0x40 MLOAD PUSH1 0x0 DUP1 SLOAD PUSH2 0x1C2C DUP2 PUSH2 0x1D85 JUMP JUMPDEST DUP1 DUP5 MSTORE SWAP1 PUSH1 0x1 SWAP1 DUP2 DUP2 AND SWAP1 DUP2 ISZERO PUSH2 0xA77 JUMPI POP PUSH1 0x1 EQ PUSH2 0x1C55 JUMPI PUSH2 0x3DD DUP5 PUSH2 0xA0A DUP2 DUP7 SUB DUP3 PUSH2 0x1DDB JUMP JUMPDEST PUSH1 0x0 DUP1 DUP1 MSTORE SWAP3 POP PUSH32 0x290DECD9548B62A8D60345A988386FC84BA6BC95484008F6362F93160EF3E563 JUMPDEST DUP3 DUP5 LT PUSH2 0x1C96 JUMPI POP POP POP DUP2 ADD PUSH1 0x20 ADD PUSH2 0xA0A DUP3 PUSH2 0x9FA JUMP JUMPDEST DUP1 SLOAD PUSH1 0x20 DUP6 DUP8 ADD DUP2 ADD SWAP2 SWAP1 SWAP2 MSTORE SWAP1 SWAP4 ADD SWAP3 DUP2 ADD PUSH2 0x1C7E JUMP JUMPDEST CALLVALUE PUSH2 0x1B3 JUMPI PUSH1 0x20 CALLDATASIZE PUSH1 0x3 NOT ADD SLT PUSH2 0x1B3 JUMPI PUSH1 0x4 CALLDATALOAD SWAP1 PUSH4 0xFFFFFFFF PUSH1 0xE0 SHL DUP3 AND DUP1 SWAP3 SUB PUSH2 0x1B3 JUMPI PUSH1 0x20 SWAP2 PUSH4 0x80AC58CD PUSH1 0xE0 SHL DUP2 EQ SWAP1 DUP2 ISZERO PUSH2 0x1D08 JUMPI JUMPDEST DUP2 ISZERO PUSH2 0x1CF7 JUMPI JUMPDEST POP ISZERO ISZERO DUP2 MSTORE RETURN JUMPDEST PUSH4 0x1FFC9A7 PUSH1 0xE0 SHL EQ SWAP1 POP DUP4 PUSH2 0x1CF0 JUMP JUMPDEST PUSH4 0x5B5E139F PUSH1 0xE0 SHL DUP2 EQ SWAP2 POP PUSH2 0x1CE9 JUMP JUMPDEST SWAP2 SWAP1 DUP3 MLOAD SWAP3 DUP4 DUP3 MSTORE PUSH1 0x0 JUMPDEST DUP5 DUP2 LT PUSH2 0x1D45 JUMPI POP POP DUP3 PUSH1 0x0 PUSH1 0x20 DUP1 SWAP5 SWAP6 DUP5 ADD ADD MSTORE PUSH1 0x1F DUP1 NOT SWAP2 ADD AND ADD ADD SWAP1 JUMP JUMPDEST PUSH1 0x20 DUP2 DUP4 ADD DUP2 ADD MLOAD DUP5 DUP4 ADD DUP3 ADD MSTORE ADD PUSH2 0x1D24 JUMP JUMPDEST PUSH1 0x4 CALLDATALOAD SWAP1 PUSH1 0x1 PUSH1 0x1 PUSH1 0xA0 SHL SUB DUP3 AND DUP3 SUB PUSH2 0x1B3 JUMPI JUMP JUMPDEST PUSH1 0x24 CALLDATALOAD SWAP1 PUSH1 0x1 PUSH1 0x1 PUSH1 0xA0 SHL SUB DUP3 AND DUP3 SUB PUSH2 0x1B3 JUMPI JUMP JUMPDEST SWAP1 PUSH1 0x1 DUP3 DUP2 SHR SWAP3 AND DUP1 ISZERO PUSH2 0x1DB5 JUMPI JUMPDEST PUSH1 0x20 DUP4 LT EQ PUSH2 0x1D9F JUMPI JUMP JUMPDEST PUSH4 0x4E487B71 PUSH1 0xE0 SHL PUSH1 0x0 MSTORE PUSH1 0x22 PUSH1 0x4 MSTORE PUSH1 0x24 PUSH1 0x0 REVERT JUMPDEST SWAP2 PUSH1 0x7F AND SWAP2 PUSH2 0x1D94 JUMP JUMPDEST PUSH1 0x20 DUP2 ADD SWAP1 DUP2 LT PUSH8 0xFFFFFFFFFFFFFFFF DUP3 GT OR PUSH2 0xE32 JUMPI PUSH1 0x40 MSTORE JUMP JUMPDEST SWAP1 PUSH1 0x1F DUP1 NOT SWAP2 ADD AND DUP2 ADD SWAP1 DUP2 LT PUSH8 0xFFFFFFFFFFFFFFFF DUP3 GT OR PUSH2 0xE32 JUMPI PUSH1 0x40 MSTORE JUMP JUMPDEST SWAP1 PUSH1 0x40 MLOAD SWAP2 DUP3 PUSH1 0x0 DUP3 SLOAD SWAP3 PUSH2 0x1E11 DUP5 PUSH2 0x1D85 JUMP JUMPDEST SWAP1 DUP2 DUP5 MSTORE PUSH1 0x1 SWAP5 DUP6 DUP2 AND SWAP1 DUP2 PUSH1 0x0 EQ PUSH2 0x1E80 JUMPI POP PUSH1 0x1 EQ PUSH2 0x1E3D JUMPI JUMPDEST POP POP PUSH2 0x1E3B SWAP3 POP SUB DUP4 PUSH2 0x1DDB JUMP JUMPDEST JUMP JUMPDEST SWAP1 SWAP4 SWAP2 POP PUSH1 0x0 MSTORE PUSH1 0x20 SWAP1 DUP2 PUSH1 0x0 KECCAK256 SWAP4 PUSH1 0x0 SWAP2 JUMPDEST DUP2 DUP4 LT PUSH2 0x1E68 JUMPI POP POP PUSH2 0x1E3B SWAP4 POP DUP3 ADD ADD CODESIZE DUP1 PUSH2 0x1E2D JUMP JUMPDEST DUP6 SLOAD DUP9 DUP5 ADD DUP6 ADD MSTORE SWAP5 DUP6 ADD SWAP5 DUP8 SWAP5 POP SWAP2 DUP4 ADD SWAP2 PUSH2 0x1E50 JUMP JUMPDEST SWAP2 POP POP PUSH2 0x1E3B SWAP5 POP PUSH1 0x20 SWAP3 POP PUSH1 0xFF NOT AND DUP3 DUP5 ADD MSTORE ISZERO ISZERO PUSH1 0x5 SHL DUP3 ADD ADD CODESIZE DUP1 PUSH2 0x1E2D JUMP JUMPDEST PUSH1 0x60 SWAP1 PUSH1 0x3 NOT ADD SLT PUSH2 0x1B3 JUMPI PUSH1 0x1 PUSH1 0x1 PUSH1 0xA0 SHL SUB SWAP1 PUSH1 0x4 CALLDATALOAD DUP3 DUP2 AND DUP2 SUB PUSH2 0x1B3 JUMPI SWAP2 PUSH1 0x24 CALLDATALOAD SWAP1 DUP2 AND DUP2 SUB PUSH2 0x1B3 JUMPI SWAP1 PUSH1 0x44 CALLDATALOAD SWAP1 JUMP JUMPDEST PUSH1 0x40 SWAP1 PUSH1 0x3 NOT ADD SLT PUSH2 0x1B3 JUMPI PUSH1 0x4 CALLDATALOAD SWAP1 PUSH1 0x24 CALLDATALOAD SWAP1 JUMP JUMPDEST DUP1 SLOAD DUP3 LT ISZERO PUSH2 0x1F06 JUMPI PUSH1 0x0 MSTORE PUSH1 0x20 PUSH1 0x0 KECCAK256 ADD SWAP1 PUSH1 0x0 SWAP1 JUMP JUMPDEST PUSH4 0x4E487B71 PUSH1 0xE0 SHL PUSH1 0x0 MSTORE PUSH1 0x32 PUSH1 0x4 MSTORE PUSH1 0x24 PUSH1 0x0 REVERT JUMPDEST PUSH8 0xFFFFFFFFFFFFFFFF DUP2 GT PUSH2 0xE32 JUMPI PUSH1 0x1F ADD PUSH1 0x1F NOT AND PUSH1 0x20 ADD SWAP1 JUMP JUMPDEST SWAP3 SWAP2 SWAP3 PUSH2 0x1F44 DUP3 PUSH2 0x1F1C JUMP JUMPDEST SWAP2 PUSH2 0x1F52 PUSH1 0x40 MLOAD SWAP4 DUP5 PUSH2 0x1DDB JUMP JUMPDEST DUP3 SWAP5 DUP2 DUP5 MSTORE DUP2 DUP4 ADD GT PUSH2 0x1B3 JUMPI DUP3 DUP2 PUSH1 0x20 SWAP4 DUP5 PUSH1 0x0 SWAP7 ADD CALLDATACOPY ADD ADD MSTORE JUMP JUMPDEST SWAP1 DUP1 PUSH1 0x1F DUP4 ADD SLT ISZERO PUSH2 0x1B3 JUMPI DUP2 PUSH1 0x20 PUSH2 0x1F8A SWAP4 CALLDATALOAD SWAP2 ADD PUSH2 0x1F38 JUMP JUMPDEST SWAP1 JUMP JUMPDEST PUSH1 0x20 SWAP1 DUP2 PUSH1 0x40 DUP2 DUP4 ADD SWAP3 DUP3 DUP2 MSTORE DUP6 MLOAD DUP1 SWAP5 MSTORE ADD SWAP4 ADD SWAP2 PUSH1 0x0 JUMPDEST DUP3 DUP2 LT PUSH2 0x1FB4 JUMPI POP POP POP POP SWAP1 JUMP JUMPDEST DUP4 MLOAD DUP6 MSTORE SWAP4 DUP2 ADD SWAP4 SWAP3 DUP2 ADD SWAP3 PUSH1 0x1 ADD PUSH2 0x1FA6 JUMP JUMPDEST PUSH1 0x6 SLOAD PUSH1 0x1 PUSH1 0x1 PUSH1 0xA0 SHL SUB AND CALLER SUB PUSH2 0x1FDC JUMPI JUMP JUMPDEST PUSH1 0x40 MLOAD PUSH4 0x118CDAA7 PUSH1 0xE0 SHL DUP2 MSTORE CALLER PUSH1 0x4 DUP3 ADD MSTORE PUSH1 0x24 SWAP1 REVERT JUMPDEST PUSH1 0x1 PUSH1 0x1 PUSH1 0xA0 SHL SUB SWAP2 DUP3 AND SWAP3 SWAP1 SWAP2 DUP4 ISZERO PUSH2 0x762 JUMPI PUSH1 0x0 SWAP3 DUP3 DUP5 MSTORE DUP3 PUSH1 0x20 SWAP6 PUSH1 0x2 DUP8 MSTORE PUSH1 0x40 SWAP7 DUP5 DUP9 DUP9 KECCAK256 SLOAD AND SWAP7 DUP8 SWAP2 CALLER ISZERO ISZERO DUP1 PUSH2 0x20E4 JUMPI JUMPDEST POP SWAP1 PUSH1 0x2 PUSH32 0xDDF252AD1BE2C89B69C2B068FC378DAA952BA7F163C4A11628F55A4DF523B3EF SWAP3 DUP5 PUSH2 0x20B1 JUMPI JUMPDEST DUP6 DUP4 MSTORE PUSH1 0x3 DUP2 MSTORE DUP12 DUP4 KECCAK256 DUP1 SLOAD PUSH1 0x1 ADD SWAP1 SSTORE DUP7 DUP4 MSTORE MSTORE DUP10 DUP2 KECCAK256 DUP1 SLOAD PUSH1 0x1 PUSH1 0x1 PUSH1 0xA0 SHL SUB NOT AND DUP6 OR SWAP1 SSTORE DUP1 LOG4 AND SWAP3 DUP4 DUP4 SUB PUSH2 0x2090 JUMPI POP POP POP POP JUMP JUMPDEST PUSH1 0x64 SWAP5 POP MLOAD SWAP3 PUSH4 0x64283D7B PUSH1 0xE0 SHL DUP5 MSTORE PUSH1 0x4 DUP5 ADD MSTORE PUSH1 0x24 DUP4 ADD MSTORE PUSH1 0x44 DUP3 ADD MSTORE REVERT JUMPDEST PUSH1 0x0 DUP8 DUP2 MSTORE PUSH1 0x4 PUSH1 0x20 MSTORE PUSH1 0x40 SWAP1 KECCAK256 DUP1 SLOAD PUSH1 0x1 PUSH1 0x1 PUSH1 0xA0 SHL SUB NOT AND SWAP1 SSTORE DUP5 DUP4 MSTORE PUSH1 0x3 DUP2 MSTORE DUP12 DUP4 KECCAK256 DUP1 SLOAD PUSH1 0x0 NOT ADD SWAP1 SSTORE PUSH2 0x2057 JUMP JUMPDEST SWAP2 SWAP4 SWAP5 POP SWAP2 POP DUP1 PUSH2 0x213C JUMPI JUMPDEST ISZERO PUSH2 0x2100 JUMPI DUP6 SWAP3 SWAP2 DUP8 SWAP2 CODESIZE PUSH2 0x202B JUMP JUMPDEST DUP8 DUP7 DUP9 PUSH2 0x211D JUMPI PUSH1 0x24 SWAP2 MLOAD SWAP1 PUSH4 0x7E273289 PUSH1 0xE0 SHL DUP3 MSTORE PUSH1 0x4 DUP3 ADD MSTORE REVERT JUMPDEST SWAP1 MLOAD PUSH4 0x177E802F PUSH1 0xE0 SHL DUP2 MSTORE CALLER PUSH1 0x4 DUP3 ADD MSTORE PUSH1 0x24 DUP2 ADD SWAP2 SWAP1 SWAP2 MSTORE PUSH1 0x44 SWAP1 REVERT JUMPDEST POP CALLER DUP8 EQ DUP1 ISZERO PUSH2 0x2161 JUMPI JUMPDEST DUP1 PUSH2 0x20F0 JUMPI POP DUP6 DUP3 MSTORE PUSH1 0x4 DUP2 MSTORE CALLER DUP6 DUP10 DUP5 KECCAK256 SLOAD AND EQ PUSH2 0x20F0 JUMP JUMPDEST POP DUP7 DUP3 MSTORE PUSH1 0x5 DUP2 MSTORE DUP8 DUP3 KECCAK256 CALLER DUP4 MSTORE DUP2 MSTORE PUSH1 0xFF DUP9 DUP4 KECCAK256 SLOAD AND PUSH2 0x2147 JUMP JUMPDEST PUSH1 0x0 DUP2 DUP2 MSTORE PUSH1 0x2 PUSH1 0x20 MSTORE PUSH1 0x40 SWAP1 KECCAK256 SLOAD PUSH1 0x1 PUSH1 0x1 PUSH1 0xA0 SHL SUB AND SWAP1 DUP2 ISZERO PUSH2 0x21A0 JUMPI POP SWAP1 JUMP JUMPDEST PUSH1 0x24 SWAP1 PUSH1 0x40 MLOAD SWAP1 PUSH4 0x7E273289 PUSH1 0xE0 SHL DUP3 MSTORE PUSH1 0x4 DUP3 ADD MSTORE REVERT JUMPDEST SWAP1 SWAP4 SWAP2 SWAP3 DUP4 EXTCODESIZE PUSH2 0x21CA JUMPI JUMPDEST POP POP POP POP POP JUMP JUMPDEST PUSH1 0x40 MLOAD PUSH4 0xA85BD01 PUSH1 0xE1 SHL DUP1 DUP3 MSTORE PUSH1 0x1 PUSH1 0x1 PUSH1 0xA0 SHL SUB SWAP4 DUP5 AND PUSH1 0x4 DUP4 ADD MSTORE SWAP6 DUP4 AND PUSH1 0x24 DUP3 ADD MSTORE PUSH1 0x44 DUP2 ADD SWAP2 SWAP1 SWAP2 MSTORE PUSH1 0x80 PUSH1 0x64 DUP3 ADD MSTORE SWAP5 SWAP3 AND SWAP3 PUSH1 0x20 SWAP3 SWAP2 DUP6 SWAP1 PUSH2 0x2217 SWAP1 PUSH1 0x84 DUP4 ADD SWAP1 PUSH2 0x1D19 JUMP JUMPDEST SUB SWAP5 DUP4 DUP2 PUSH1 0x0 SWAP8 DUP2 DUP10 DUP10 GAS CALL DUP7 SWAP2 DUP2 PUSH2 0x22A4 JUMPI JUMPDEST POP PUSH2 0x2286 JUMPI POP POP POP RETURNDATASIZE PUSH1 0x0 EQ PUSH2 0x227D JUMPI RETURNDATASIZE PUSH2 0x2245 DUP2 PUSH2 0x1F1C JUMP JUMPDEST SWAP1 PUSH2 0x2253 PUSH1 0x40 MLOAD SWAP3 DUP4 PUSH2 0x1DDB JUMP JUMPDEST DUP2 MSTORE DUP1 SWAP4 DUP3 RETURNDATASIZE SWAP3 ADD RETURNDATACOPY DUP3 MLOAD SWAP3 DUP4 PUSH2 0x67A JUMPI PUSH1 0x40 MLOAD PUSH4 0x32505749 PUSH1 0xE1 SHL DUP2 MSTORE PUSH1 0x4 DUP2 ADD DUP5 SWAP1 MSTORE PUSH1 0x24 SWAP1 REVERT JUMPDEST PUSH1 0x60 SWAP3 POP PUSH2 0x659 JUMP JUMPDEST SWAP2 SWAP5 POP SWAP2 POP PUSH4 0xFFFFFFFF PUSH1 0xE0 SHL AND SUB PUSH2 0x6BE JUMPI POP CODESIZE DUP1 DUP1 DUP1 DUP1 PUSH2 0x21C3 JUMP JUMPDEST SWAP1 SWAP2 POP DUP5 DUP2 DUP2 RETURNDATASIZE DUP4 GT PUSH2 0x22E1 JUMPI JUMPDEST PUSH2 0x22BC DUP2 DUP4 PUSH2 0x1DDB JUMP JUMPDEST DUP2 ADD SUB SLT PUSH2 0x22DD JUMPI MLOAD PUSH1 0x1 PUSH1 0x1 PUSH1 0xE0 SHL SUB NOT DUP2 AND DUP2 SUB PUSH2 0x22DD JUMPI SWAP1 CODESIZE PUSH2 0x222B JUMP JUMPDEST DUP7 DUP1 REVERT JUMPDEST POP RETURNDATASIZE PUSH2 0x22B2 JUMP JUMPDEST PUSH1 0x0 NOT DUP2 EQ PUSH2 0x1427 JUMPI PUSH1 0x1 ADD SWAP1 JUMP JUMPDEST ISZERO PUSH2 0x22FE JUMPI JUMP JUMPDEST PUSH1 0x40 MLOAD PUSH3 0x461BCD PUSH1 0xE5 SHL DUP2 MSTORE PUSH1 0x20 PUSH1 0x4 DUP3 ADD MSTORE PUSH1 0x16 PUSH1 0x24 DUP3 ADD MSTORE PUSH22 0x105C9D1A58DB1948191BD95CC81B9BDD08195E1A5CDD PUSH1 0x52 SHL PUSH1 0x44 DUP3 ADD MSTORE PUSH1 0x64 SWAP1 REVERT JUMPDEST DUP1 SLOAD PUSH9 0x10000000000000000 DUP2 LT ISZERO PUSH2 0xE32 JUMPI PUSH2 0x235E SWAP2 PUSH1 0x1 DUP3 ADD DUP2 SSTORE PUSH2 0x1EEE JUMP JUMPDEST DUP2 SWAP3 SWAP2 SLOAD SWAP1 PUSH1 0x3 SHL SWAP2 DUP3 SHL SWAP2 PUSH1 0x0 NOT SWAP1 SHL NOT AND OR SWAP1 SSTORE JUMP JUMPDEST ISZERO PUSH2 0x237D JUMPI JUMP JUMPDEST PUSH1 0x40 MLOAD PUSH3 0x461BCD PUSH1 0xE5 SHL DUP2 MSTORE PUSH1 0x20 PUSH1 0x4 DUP3 ADD MSTORE PUSH1 0x1B PUSH1 0x24 DUP3 ADD MSTORE PUSH32 0x436F6E747269627574696F6E20646F6573206E6F742065786973740000000000 PUSH1 0x44 DUP3 ADD MSTORE PUSH1 0x64 SWAP1 REVERT JUMPDEST SWAP1 DUP2 PUSH1 0x20 SWAP2 SUB SLT PUSH2 0x1B3 JUMPI MLOAD DUP1 ISZERO ISZERO DUP2 SUB PUSH2 0x1B3 JUMPI SWAP1 JUMP INVALID LOG2 PUSH5 0x6970667358 0x22 SLT KECCAK256 CALLDATASIZE PUSH32 0x204AD4743E81B0AD8C9CB3A41BC6C46D69A0D878600BE42090B105FD77F06473 PUSH16 0x6C634300081400330000000000000000 "},"methodIdentifiers":{"addContribution(uint256,string)":"4fa650f1","approve(address,uint256)":"095ea7b3","approveContribution(uint256,uint256)":"6fd91da9","articleContributions(uint256,uint256)":"30243834","articles(uint256)":"edcfafe6","balanceOf(address)":"70a08231","completeArticle(uint256)":"d5df1e1d","contributions(uint256)":"1cee0700","createArticle(string,string,string,uint256,uint256)":"9178af65","getApproved(uint256)":"081812fc","getArticleContributions(uint256)":"e3e03dc0","getTotalArticles()":"0ebf1d3d","getTotalContributions()":"ddf556d0","getUserContributions(address)":"e36465a3","hasContributed(uint256,address)":"b5b96ae0","hasLiked(uint256,address)":"8fb7092c","isApprovedForAll(address,address)":"e985e9c5","likeContribution(uint256)":"8a9a62a8","name()":"06fdde03","owner()":"8da5cb5b","ownerOf(uint256)":"6352211e","renounceOwnership()":"715018a6","rewardToken()":"f7c618c1","safeTransferFrom(address,address,uint256)":"42842e0e","safeTransferFrom(address,address,uint256,bytes)":"b88d4fde","setApprovalForAll(address,bool)":"a22cb465","supportsInterface(bytes4)":"01ffc9a7","symbol()":"95d89b41","tokenURI(uint256)":"c87b56dd","transferFrom(address,address,uint256)":"23b872dd","transferOwnership(address)":"f2fde38b","userContributions(address,uint256)":"7331fa95","withdrawTokens(uint256)":"315a095d"}}}}}