{"contracts/ArticleNFT.sol":{"ArticleNFT":{"abi":[{"inputs":[{"internalType":"string","name":"name","type":"string"},{"internalType":"string","name":"symbol","type":"string"},{"internalType":"address","name":"_platformFeeRecipient","type":"address"}],"stateMutability":"nonpayable","type":"constructor"},{"inputs":[{"internalType":"uint256","name":"numerator","type":"uint256"},{"internalType":"uint256","name":"denominator","type":"uint256"}],"name":"ERC2981InvalidDefaultRoyalty","type":"error"},{"inputs":[{"internalType":"address","name":"receiver","type":"address"}],"name":"ERC2981InvalidDefaultRoyaltyReceiver","type":"error"},{"inputs":[{"internalType":"uint256","name":"tokenId","type":"uint256"},{"internalType":"uint256","name":"numerator","type":"uint256"},{"internalType":"uint256","name":"denominator","type":"uint256"}],"name":"ERC2981InvalidTokenRoyalty","type":"error"},{"inputs":[{"internalType":"uint256","name":"tokenId","type":"uint256"},{"internalType":"address","name":"receiver","type":"address"}],"name":"ERC2981InvalidTokenRoyaltyReceiver","type":"error"},{"inputs":[{"internalType":"address","name":"sender","type":"address"},{"internalType":"uint256","name":"tokenId","type":"uint256"},{"internalType":"address","name":"owner","type":"address"}],"name":"ERC721IncorrectOwner","type":"error"},{"inputs":[{"internalType":"address","name":"operator","type":"address"},{"internalType":"uint256","name":"tokenId","type":"uint256"}],"name":"ERC721InsufficientApproval","type":"error"},{"inputs":[{"internalType":"address","name":"approver","type":"address"}],"name":"ERC721InvalidApprover","type":"error"},{"inputs":[{"internalType":"address","name":"operator","type":"address"}],"name":"ERC721InvalidOperator","type":"error"},{"inputs":[{"internalType":"address","name":"owner","type":"address"}],"name":"ERC721InvalidOwner","type":"error"},{"inputs":[{"internalType":"address","name":"receiver","type":"address"}],"name":"ERC721InvalidReceiver","type":"error"},{"inputs":[{"internalType":"address","name":"sender","type":"address"}],"name":"ERC721InvalidSender","type":"error"},{"inputs":[{"internalType":"uint256","name":"tokenId","type":"uint256"}],"name":"ERC721NonexistentToken","type":"error"},{"inputs":[{"internalType":"address","name":"owner","type":"address"}],"name":"OwnableInvalidOwner","type":"error"},{"inputs":[{"internalType":"address","name":"account","type":"address"}],"name":"OwnableUnauthorizedAccount","type":"error"},{"inputs":[],"name":"ReentrancyGuardReentrantCall","type":"error"},{"inputs":[{"internalType":"uint256","name":"value","type":"uint256"},{"internalType":"uint256","name":"length","type":"uint256"}],"name":"StringsInsufficientHexLength","type":"error"},{"anonymous":false,"inputs":[{"indexed":true,"internalType":"address","name":"owner","type":"address"},{"indexed":true,"internalType":"address","name":"approved","type":"address"},{"indexed":true,"internalType":"uint256","name":"tokenId","type":"uint256"}],"name":"Approval","type":"event"},{"anonymous":false,"inputs":[{"indexed":true,"internalType":"address","name":"owner","type":"address"},{"indexed":true,"internalType":"address","name":"operator","type":"address"},{"indexed":false,"internalType":"bool","name":"approved","type":"bool"}],"name":"ApprovalForAll","type":"event"},{"anonymous":false,"inputs":[{"indexed":true,"internalType":"uint256","name":"tokenId","type":"uint256"},{"indexed":true,"internalType":"address","name":"author","type":"address"},{"indexed":false,"internalType":"string","name":"title","type":"string"},{"indexed":false,"internalType":"string","name":"ipfsHash","type":"string"}],"name":"ArticleMinted","type":"event"},{"anonymous":false,"inputs":[{"indexed":true,"internalType":"uint256","name":"tokenId","type":"uint256"},{"indexed":true,"internalType":"address","name":"seller","type":"address"},{"indexed":true,"internalType":"address","name":"buyer","type":"address"},{"indexed":false,"internalType":"uint256","name":"price","type":"uint256"}],"name":"ArticleSale","type":"event"},{"anonymous":false,"inputs":[{"indexed":true,"internalType":"uint256","name":"tokenId","type":"uint256"},{"indexed":false,"internalType":"string","name":"newTitle","type":"string"},{"indexed":false,"internalType":"enum ArticleNFT.ArticleStatus","name":"newStatus","type":"uint8"}],"name":"ArticleUpdated","type":"event"},{"anonymous":false,"inputs":[{"indexed":true,"internalType":"address","name":"previousOwner","type":"address"},{"indexed":true,"internalType":"address","name":"newOwner","type":"address"}],"name":"OwnershipTransferred","type":"event"},{"anonymous":false,"inputs":[{"indexed":true,"internalType":"uint256","name":"tokenId","type":"uint256"},{"indexed":false,"internalType":"uint256","name":"salePrice","type":"uint256"},{"indexed":false,"internalType":"uint256","name":"platformFee","type":"uint256"},{"indexed":false,"internalType":"uint256","name":"authorRoyalty","type":"uint256"}],"name":"RoyaltiesDistributed","type":"event"},{"anonymous":false,"inputs":[{"indexed":true,"internalType":"uint256","name":"tokenId","type":"uint256"},{"indexed":false,"internalType":"uint256","name":"views","type":"uint256"},{"indexed":false,"internalType":"uint256","name":"likes","type":"uint256"}],"name":"StatsUpdated","type":"event"},{"anonymous":false,"inputs":[{"indexed":true,"internalType":"address","name":"from","type":"address"},{"indexed":true,"internalType":"address","name":"to","type":"address"},{"indexed":true,"internalType":"uint256","name":"tokenId","type":"uint256"}],"name":"Transfer","type":"event"},{"inputs":[{"internalType":"address","name":"to","type":"address"},{"internalType":"uint256","name":"tokenId","type":"uint256"}],"name":"approve","outputs":[],"stateMutability":"nonpayable","type":"function"},{"inputs":[{"internalType":"uint256","name":"","type":"uint256"}],"name":"articles","outputs":[{"internalType":"uint256","name":"tokenId","type":"uint256"},{"internalType":"string","name":"title","type":"string"},{"internalType":"string","name":"ipfsHash","type":"string"},{"internalType":"address","name":"author","type":"address"},{"internalType":"uint256","name":"publishedAt","type":"uint256"},{"internalType":"uint256","name":"views","type":"uint256"},{"internalType":"uint256","name":"likes","type":"uint256"},{"internalType":"enum ArticleNFT.ArticleStatus","name":"status","type":"uint8"},{"internalType":"bool","name":"transferLocked","type":"bool"}],"stateMutability":"view","type":"function"},{"inputs":[{"internalType":"address","name":"","type":"address"},{"internalType":"uint256","name":"","type":"uint256"}],"name":"authorArticles","outputs":[{"internalType":"uint256","name":"","type":"uint256"}],"stateMutability":"view","type":"function"},{"inputs":[{"internalType":"address","name":"owner","type":"address"}],"name":"balanceOf","outputs":[{"internalType":"uint256","name":"","type":"uint256"}],"stateMutability":"view","type":"function"},{"inputs":[{"internalType":"uint256","name":"tokenId","type":"uint256"}],"name":"buyArticle","outputs":[],"stateMutability":"payable","type":"function"},{"inputs":[{"internalType":"uint256","name":"tokenId","type":"uint256"}],"name":"cancelSale","outputs":[],"stateMutability":"nonpayable","type":"function"},{"inputs":[],"name":"defaultRoyaltyPercent","outputs":[{"internalType":"uint96","name":"","type":"uint96"}],"stateMutability":"view","type":"function"},{"inputs":[{"internalType":"uint256[]","name":"tokenIds","type":"uint256[]"}],"name":"emergencyLockTransfers","outputs":[],"stateMutability":"nonpayable","type":"function"},{"inputs":[{"internalType":"uint256","name":"tokenId","type":"uint256"}],"name":"getApproved","outputs":[{"internalType":"address","name":"","type":"address"}],"stateMutability":"view","type":"function"},{"inputs":[{"internalType":"uint256","name":"tokenId","type":"uint256"}],"name":"getArticleInfo","outputs":[{"components":[{"internalType":"uint256","name":"tokenId","type":"uint256"},{"internalType":"string","name":"title","type":"string"},{"internalType":"string","name":"ipfsHash","type":"string"},{"internalType":"address","name":"author","type":"address"},{"internalType":"uint256","name":"publishedAt","type":"uint256"},{"internalType":"uint256","name":"views","type":"uint256"},{"internalType":"uint256","name":"likes","type":"uint256"},{"internalType":"enum ArticleNFT.ArticleStatus","name":"status","type":"uint8"},{"internalType":"bytes32[]","name":"categories","type":"bytes32[]"},{"internalType":"bool","name":"transferLocked","type":"bool"}],"internalType":"struct ArticleNFT.ArticleMeta","name":"","type":"tuple"}],"stateMutability":"view","type":"function"},{"inputs":[{"internalType":"address","name":"author","type":"address"}],"name":"getAuthorArticles","outputs":[{"internalType":"uint256[]","name":"","type":"uint256[]"}],"stateMutability":"view","type":"function"},{"inputs":[{"internalType":"string","name":"","type":"string"}],"name":"ipfsHashToToken","outputs":[{"internalType":"uint256","name":"","type":"uint256"}],"stateMutability":"view","type":"function"},{"inputs":[{"internalType":"address","name":"owner","type":"address"},{"internalType":"address","name":"operator","type":"address"}],"name":"isApprovedForAll","outputs":[{"internalType":"bool","name":"","type":"bool"}],"stateMutability":"view","type":"function"},{"inputs":[{"internalType":"uint256","name":"tokenId","type":"uint256"},{"internalType":"uint256","name":"price","type":"uint256"},{"internalType":"uint256","name":"deadline","type":"uint256"}],"name":"listForSale","outputs":[],"stateMutability":"nonpayable","type":"function"},{"inputs":[{"internalType":"address","name":"to","type":"address"},{"internalType":"string","name":"title","type":"string"},{"internalType":"string","name":"ipfsHash","type":"string"},{"internalType":"bytes32[]","name":"categories","type":"bytes32[]"}],"name":"mintArticleNFT","outputs":[{"internalType":"uint256","name":"","type":"uint256"}],"stateMutability":"payable","type":"function"},{"inputs":[{"internalType":"address[]","name":"recipients","type":"address[]"},{"internalType":"string[]","name":"titles","type":"string[]"},{"internalType":"string[]","name":"hashes","type":"string[]"},{"internalType":"bytes32[][]","name":"categoriesArray","type":"bytes32[][]"}],"name":"mintBatch","outputs":[],"stateMutability":"nonpayable","type":"function"},{"inputs":[],"name":"mintFee","outputs":[{"internalType":"uint256","name":"","type":"uint256"}],"stateMutability":"view","type":"function"},{"inputs":[],"name":"name","outputs":[{"internalType":"string","name":"","type":"string"}],"stateMutability":"view","type":"function"},{"inputs":[],"name":"owner","outputs":[{"internalType":"address","name":"","type":"address"}],"stateMutability":"view","type":"function"},{"inputs":[{"internalType":"uint256","name":"tokenId","type":"uint256"}],"name":"ownerOf","outputs":[{"internalType":"address","name":"","type":"address"}],"stateMutability":"view","type":"function"},{"inputs":[],"name":"platformFeePercent","outputs":[{"internalType":"uint256","name":"","type":"uint256"}],"stateMutability":"view","type":"function"},{"inputs":[],"name":"platformFeeRecipient","outputs":[{"internalType":"address","name":"","type":"address"}],"stateMutability":"view","type":"function"},{"inputs":[],"name":"publicMintEnabled","outputs":[{"internalType":"bool","name":"","type":"bool"}],"stateMutability":"view","type":"function"},{"inputs":[],"name":"renounceOwnership","outputs":[],"stateMutability":"nonpayable","type":"function"},{"inputs":[{"internalType":"uint256","name":"tokenId","type":"uint256"},{"internalType":"uint256","name":"salePrice","type":"uint256"}],"name":"royaltyInfo","outputs":[{"internalType":"address","name":"receiver","type":"address"},{"internalType":"uint256","name":"amount","type":"uint256"}],"stateMutability":"view","type":"function"},{"inputs":[{"internalType":"address","name":"from","type":"address"},{"internalType":"address","name":"to","type":"address"},{"internalType":"uint256","name":"tokenId","type":"uint256"}],"name":"safeTransferFrom","outputs":[],"stateMutability":"nonpayable","type":"function"},{"inputs":[{"internalType":"address","name":"from","type":"address"},{"internalType":"address","name":"to","type":"address"},{"internalType":"uint256","name":"tokenId","type":"uint256"},{"internalType":"bytes","name":"data","type":"bytes"}],"name":"safeTransferFrom","outputs":[],"stateMutability":"nonpayable","type":"function"},{"inputs":[{"internalType":"uint256","name":"","type":"uint256"}],"name":"saleInfo","outputs":[{"internalType":"uint256","name":"price","type":"uint256"},{"internalType":"bool","name":"isForSale","type":"bool"},{"internalType":"uint256","name":"deadline","type":"uint256"}],"stateMutability":"view","type":"function"},{"inputs":[{"internalType":"address","name":"operator","type":"address"},{"internalType":"bool","name":"approved","type":"bool"}],"name":"setApprovalForAll","outputs":[],"stateMutability":"nonpayable","type":"function"},{"inputs":[{"internalType":"uint256","name":"_mintFee","type":"uint256"}],"name":"setMintFee","outputs":[],"stateMutability":"nonpayable","type":"function"},{"inputs":[{"internalType":"uint256","name":"_feePercent","type":"uint256"}],"name":"setPlatformFeePercent","outputs":[],"stateMutability":"nonpayable","type":"function"},{"inputs":[{"internalType":"bool","name":"_enabled","type":"bool"}],"name":"setPublicMintEnabled","outputs":[],"stateMutability":"nonpayable","type":"function"},{"inputs":[{"internalType":"uint256","name":"tokenId","type":"uint256"},{"internalType":"bool","name":"locked","type":"bool"}],"name":"setTransferLock","outputs":[],"stateMutability":"nonpayable","type":"function"},{"inputs":[{"internalType":"bytes4","name":"interfaceId","type":"bytes4"}],"name":"supportsInterface","outputs":[{"internalType":"bool","name":"","type":"bool"}],"stateMutability":"view","type":"function"},{"inputs":[],"name":"symbol","outputs":[{"internalType":"string","name":"","type":"string"}],"stateMutability":"view","type":"function"},{"inputs":[{"internalType":"uint256","name":"tokenId","type":"uint256"}],"name":"tokenURI","outputs":[{"internalType":"string","name":"","type":"string"}],"stateMutability":"view","type":"function"},{"inputs":[],"name":"totalSupply","outputs":[{"internalType":"uint256","name":"","type":"uint256"}],"stateMutability":"view","type":"function"},{"inputs":[{"internalType":"address","name":"from","type":"address"},{"internalType":"address","name":"to","type":"address"},{"internalType":"uint256","name":"tokenId","type":"uint256"}],"name":"transferFrom","outputs":[],"stateMutability":"nonpayable","type":"function"},{"inputs":[{"internalType":"address","name":"newOwner","type":"address"}],"name":"transferOwnership","outputs":[],"stateMutability":"nonpayable","type":"function"},{"inputs":[{"internalType":"uint256","name":"tokenId","type":"uint256"},{"internalType":"string","name":"newTitle","type":"string"},{"internalType":"enum ArticleNFT.ArticleStatus","name":"newStatus","type":"uint8"}],"name":"updateArticle","outputs":[],"stateMutability":"nonpayable","type":"function"},{"inputs":[{"internalType":"uint256","name":"tokenId","type":"uint256"},{"internalType":"uint256","name":"newViews","type":"uint256"},{"internalType":"uint256","name":"newLikes","type":"uint256"}],"name":"updateArticleStats","outputs":[],"stateMutability":"nonpayable","type":"function"},{"inputs":[{"internalType":"uint256","name":"tokenId","type":"uint256"},{"internalType":"string","name":"ipfsHash","type":"string"}],"name":"verifyContent","outputs":[{"internalType":"bool","name":"","type":"bool"}],"stateMutability":"view","type":"function"},{"inputs":[],"name":"withdraw","outputs":[],"stateMutability":"nonpayable","type":"function"}],"evm":{"bytecode":{"linkReferences":{},"object":"604060808152346200044e5762003f42803803806200001e8162000453565b9283398101906060818303126200044e5780516001600160401b03908181116200044e57836200005091840162000479565b91602093848201518381116200044e5786916200006f91840162000479565b9101516001600160a01b0380821694909290918590036200044e57815190848211620001fd57600254916001938484811c9416801562000443575b8985101462000355578190601f94858111620003ec575b508990858311600114620003825760009262000376575b5050600019600383901b1c191690841b176002555b805190858211620001fd576003928354918583811c931680156200036b575b8a84101462000355578282859411620002fd575b508991831160011462000296576000926200028a575b505060001982841b1c191690831b1790555b3315620002725760088054336001600160a01b031982168117909255875193167f8be0079c531659141344cd1fd0a4f28419497f9722a3daafe3b4186f6b6457e0600080a38060095560fa600f55662386f26fc1000060115560ff196012541617601255821562000230575061017760a11b928284178060105560a01c9161271080841162000213575085519081870190811182821017620001fd57865283815201521760005551613a569081620004ec8239f35b634e487b7160e01b600052604160045260246000fd5b83604491885191636f483d0960e01b835260048301526024820152fd5b62461bcd60e51b815260048101849052601560248201527f496e76616c69642066656520726563697069656e7400000000000000000000006044820152606490fd5b8551631e4fbdf760e01b815260006004820152602490fd5b01519050388062000136565b90859350601f19831691856000528a6000209260005b8c828210620002e65750508411620002cd575b505050811b01905562000148565b015160001983861b60f8161c19169055388080620002bf565b8385015186558997909501949384019301620002ac565b9091925084600052896000208380860160051c8201928c87106200034b575b91869589929594930160051c01915b8281106200033b57505062000120565b600081558695508891016200032b565b925081926200031c565b634e487b7160e01b600052602260045260246000fd5b92607f16926200010c565b015190503880620000d8565b90869350601f1983169160026000528b6000209260005b8d828210620003d55750508411620003bb575b505050811b01600255620000ed565b015160001960f88460031b161c19169055388080620003ac565b8385015186558a9790950194938401930162000399565b9091506002600052896000208580850160051c8201928c861062000439575b918891869594930160051c01915b82811062000429575050620000c1565b6000815585945088910162000419565b925081926200040b565b93607f1693620000aa565b600080fd5b6040519190601f01601f191682016001600160401b03811183821017620001fd57604052565b919080601f840112156200044e5782516001600160401b038111620001fd57602090620004af601f8201601f1916830162000453565b928184528282870101116200044e5760005b818110620004d757508260009394955001015290565b8581018301518482018401528201620004c156fe6080604052600436101561001257600080fd5b60003560e01c806301ffc9a7146102c757806302eb4b88146102c257806306fdde03146102bd578063081812fc146102b8578063095ea7b3146102b35780630f4161aa146102ae578063101a3cc4146102a957806313966db5146102a457806318160ddd1461029f5780631cc4baa81461029a57806320d4ab5a1461029557806323b872dd146102905780632a55205a1461028b5780633ccfd60b14610286578063427440b81461028157806342842e0e1461027c5780634d30823f146102775780634e42f6ae14610272578063598d79bb1461026d5780636352211e146102685780636f4eb1a8146102635780636fd42f4a1461025e57806370a0823114610259578063715018a614610254578063818668d71461024f57806382a950db1461024a57806385aca317146102455780638c639a85146102405780638da5cb5b1461023b57806395d89b41146102365780639f8643b014610231578063a22cb4651461022c578063b88d4fde14610227578063bd94b00514610222578063c87b56dd1461021d578063cab230d214610218578063e5f4640614610213578063e985e9c51461020e578063eb13554f14610209578063edcfafe614610204578063eddd0d9c146101ff578063ee3c65d5146101fa5763f2fde38b146101f557600080fd5b6120cf565b611fce565b611fad565b611f0f565b611d91565b611d34565b611c92565b611c34565b6118ea565b61187b565b611816565b61175d565b6116d7565b611630565b611607565b6115e9565b6114b1565b61131d565b6112a9565b61124b565b6111f2565b6111af565b61103f565b61100f565b610f34565b610d9e565b610d18565b610cca565b610bcd565b610a2a565b6109a5565b61098e565b6108e0565b61075b565b61073d565b61071f565b6106c7565b610671565b610572565b6104f4565b61040f565b61036b565b6102e3565b6001600160e01b03198116036102de57565b600080fd5b346102de5760203660031901126102de576020600435610302816102cc565b63ffffffff60e01b166380ac58cd60e01b811490811561035a575b811561032f575b506040519015158152f35b63152a902d60e11b811491508115610349575b5038610324565b6301ffc9a760e01b14905038610342565b635b5e139f60e01b8114915061031d565b346102de5760203660031901126102de57600435600052600e60205260606040600020805490600260ff60018301541691015490604051928352151560208301526040820152f35b60005b8381106103c65750506000910152565b81810151838201526020016103b6565b906020916103ef815180928185528580860191016103b3565b601f01601f1916010190565b90602061040c9281815201906103d6565b90565b346102de576000806003193601126104f157604051908060025461043281611dba565b808552916001918083169081156104c7575060011461046c575b6104688561045c81870382610b23565b604051918291826103fb565b0390f35b9250600283527f405787fa12a823e0f2b7631cc41b3ba8828b3321ca811111fa75cd3aa3bb5ace5b8284106104af57505050810160200161045c8261046861044c565b80546020858701810191909152909301928101610494565b8695506104689693506020925061045c94915060ff191682840152151560051b820101929361044c565b80fd5b346102de5760203660031901126102de576004356105118161231b565b506000526006602052602060018060a01b0360406000205416604051908152f35b600435906001600160a01b03821682036102de57565b602435906001600160a01b03821682036102de57565b35906001600160a01b03821682036102de57565b346102de5760403660031901126102de5761058b610532565b602435906105988261231b565b3315158061065e575b80610630575b61061857610616926105f79181906001600160a01b0385811691167f8c5be1e5ebec7d5bd14f71427d1e84f3dd0314c0f7b2291e5b200ac8c7c3b925600080a46000526006602052604060002090565b80546001600160a01b0319166001600160a01b03909216919091179055565b005b60405163a9fbf51f60e01b8152336004820152602490fd5b506001600160a01b038116600090815260076020908152604080832033845290915290205460ff16156105a7565b506001600160a01b0381163314156105a1565b346102de5760003660031901126102de57602060ff601254166040519015158152f35b634e487b7160e01b600052603260045260246000fd5b80548210156106c25760005260206000200190600090565b610694565b346102de5760403660031901126102de576106e0610532565b6001600160a01b03166000908152600c60205260409020805460243591908210156102de57602091610711916106aa565b90546040519160031b1c8152f35b346102de5760003660031901126102de576020601154604051908152f35b346102de5760003660031901126102de576020600a54604051908152f35b60203660031901126102de576004356002600954146108bf576002600955600090808252600460205260018060a01b0361079c816040852054161515612e30565b6107b86107b383600052600e602052604060002090565b612fbc565b6107cd6107c86020830151151590565b612ff9565b6107dd6040820151421115613034565b6107ea815134101561306f565b610843836107f78161231b565b93841693610807853314156130b2565b61083061081e83600052600e602052604060002090565b60026000918281558260018201550155565b61083c81855184613243565b3390613102565b83815180341161088d575b5050516040519081523392907f094e509512ef6fc3047d708be2d3a024fcdd63e1b494c696a8213410ebba249890602090a461088a6001600955565b80f35b818061089a8193346130f5565b8181156108b6575b3390f1156108b157833861084e565b6123c7565b506108fc6108a2565b604051633ee5aeb560e01b8152600490fd5b6024359081151582036102de57565b346102de5760403660031901126102de5760043561088a6108ff6108d1565b6109088361231b565b6001600160a01b03939061091f9085163314612ed1565b61093a60009482865260046020526040862054161515612e30565b8352600b602052600960408420019060ff801983541691151516179055565b60609060031901126102de576001600160a01b039060043582811681036102de579160243590811681036102de579060443590565b346102de5761061661099f36610959565b91612184565b346102de5760403660031901126102de576004356000908152600160205260409020546001600160a01b038082169160a01c908215610a15575b506109f86001600160601b036127109216602435612530565b604080516001600160a01b03949094168452919004602083015290f35b600054908116925060a01c90506109f86109df565b346102de576000806003193601126104f157610a44612158565b478015610a7a576008548291829182918291610a70906001600160a01b03165b6001600160a01b031690565b82f1156108b15780f35b60405162461bcd60e51b81526020600482015260146024820152734e6f2066756e647320746f20776974686472617760601b6044820152606490fd5b634e487b7160e01b600052604160045260246000fd5b61014081019081106001600160401b03821117610ae857604052565b610ab6565b606081019081106001600160401b03821117610ae857604052565b602081019081106001600160401b03821117610ae857604052565b90601f801991011681019081106001600160401b03821117610ae857604052565b60405190610b5182610acc565b565b60405190610b5182610aed565b6001600160401b038111610ae857601f01601f191660200190565b929192610b8782610b60565b91610b956040519384610b23565b8294818452818301116102de578281602093846000960137010152565b9080601f830112156102de5781602061040c93359101610b7b565b346102de5760603660031901126102de576004356024356001600160401b0381116102de57610c00903690600401610bb2565b9060443560048110156102de577f25e180e002263eb2f31d0901ba16efa8fc931d9350555a3b8567e380c9ef1731906000938385526004602052610c8c82600760018060a01b03610c588160408b2054161515612e30565b878952600b602052610c7f60408a2091806003840154163314908115610cb3575b50612e73565b8451610ca1575b01612795565b610c9b60405192839283612eb0565b0390a280f35b610cae85600183016126c7565b610c86565b600854166001600160a01b03169050331438610c79565b346102de57610616610cdb36610959565b9060405192610ce984610b08565b60008452610cf8838383612184565b33612403565b60609060031901126102de57600435906024359060443590565b346102de577f10239bdd5c74b679554af458cf0f10870ab12e158e848cdac9ff21471bd161376040610d4936610cfe565b93919290610d55612158565b6000848152600460205282812054909590610d7a906001600160a01b03161515612e30565b848652600b602052806006848820846005820155015582519182526020820152a280f35b346102de5760003660031901126102de57602060105460a01c604051908152f35b6001600160401b038111610ae85760051b60200190565b9080601f830112156102de57813590610dee82610dbf565b92610dfc6040519485610b23565b828452602092838086019160051b830101928084116102de57848301915b848310610e2a5750505050505090565b82356001600160401b0381116102de578691610e4b84848094890101610bb2565b815201920191610e1a565b81601f820112156102de57803591610e6d83610dbf565b92610e7b6040519485610b23565b808452602092838086019260051b8201019283116102de578301905b828210610ea5575050505090565b81358152908301908301610e97565b9080601f830112156102de57813590610ecc82610dbf565b92610eda6040519485610b23565b828452602092838086019160051b830101928084116102de57848301915b848310610f085750505050505090565b82356001600160401b0381116102de578691610f2984848094890101610e56565b815201920191610ef8565b346102de5760803660031901126102de576001600160401b036004358181116102de57366023820112156102de578060040135610f7081610dbf565b91610f7e6040519384610b23565b81835260209160248385019160051b830101913683116102de57602401905b828210610ff85785856024358281116102de57610fbe903690600401610dd6565b6044358381116102de57610fd6903690600401610dd6565b906064359384116102de57610ff2610616943690600401610eb4565b92612d40565b8380916110048461055e565b815201910190610f9d565b346102de5760203660031901126102de57602061102d60043561231b565b6040516001600160a01b039091168152f35b60803660031901126102de57611053610532565b6001600160401b03906024358281116102de57611074903690600401610bb2565b916044358181116102de5761108d903690600401610bb2565b906064359081116102de576110a6903690600401610e56565b9083518015159081611166575b501561112a578051156110f057610468936110e0936110db6110d484611189565b5415612543565b61294e565b6040519081529081906020820190565b60405162461bcd60e51b815260206004820152601260248201527112541194c81a185cda081c995c5d5a5c995960721b6044820152606490fd5b60405162461bcd60e51b8152602060048201526014602482015273092dcecc2d8d2c840e8d2e8d8ca40d8cadccee8d60631b6044820152606490fd5b60c891501115386110b3565b90611185602092828151948592016103b3565b0190565b60206111a29181604051938285809451938492016103b3565b8101600d81520301902090565b346102de5760203660031901126102de576004356001600160401b0381116102de576111e96111e46020923690600401610bb2565b611189565b54604051908152f35b346102de5760203660031901126102de576001600160a01b03611213610532565b1680156112325760005260056020526020604060002054604051908152f35b6040516322718ad960e21b815260006004820152602490fd5b346102de576000806003193601126104f157611265612158565b600880546001600160a01b0319811690915581906001600160a01b03167f8be0079c531659141344cd1fd0a4f28419497f9722a3daafe3b4186f6b6457e08280a380f35b346102de5760203660031901126102de576004358015158091036102de576112cf612158565b60ff801960125416911617601255600080f35b6020908160408183019282815285518094520193019160005b828110611309575050505090565b8351855293810193928101926001016112fb565b346102de576020806003193601126102de576001600160a01b0361133f610532565b16600052600c8152604060002090604051908181845491828152019360005281600020916000905b82821061138a576104688561137e81890382610b23565b604051918291826112e2565b835486529485019460019384019390910190611367565b600411156113ab57565b634e487b7160e01b600052602160045260246000fd5b9060048210156113ab5752565b90815180825260208080930193019160005b8281106113ee575050505090565b8351855293810193928101926001016113e0565b61040c906020815282516020820152602083015161142e610140918260408501526101608401906103d6565b6114a761144d604087015192601f1993848783030160608801526103d6565b60608701516001600160a01b03166080860152608087015160a086015260a087015160c086015260c087015160e086015260e087015161149361010091828801906113c1565b8701516101209386830301848701526113ce565b9401511515910152565b346102de5760203660031901126102de5761046860043560406115df81516114d881610acc565b6115d76009846000808552606060208601526060828601528060608601528060808601528060a08601528060c08601528060e0860152610100976060898701528161012080970152808252600460205261153e60018060a01b0384842054161515612e30565b8152600b6020522061154e610b44565b968154885261155f60018301611e8a565b602089015261157060028301611e8a565b8789015260038201546001600160a01b0316606089015260048201546080890152600582015460a0890152600682015460c08901526115bf6115b6600784015460ff1690565b60e08a01612667565b6115cb6008830161314d565b90880152015460ff1690565b151590840152565b5191829182611402565b346102de5760003660031901126102de576020600f54604051908152f35b346102de5760003660031901126102de576008546040516001600160a01b039091168152602090f35b346102de576000806003193601126104f157604051908060035461165381611dba565b808552916001918083169081156104c7575060011461167c576104688561045c81870382610b23565b9250600383527fc2575a0e9e593c00f959f8c92f12db2869c3395a3b0502d05e2516446f71f85b5b8284106116bf57505050810160200161045c8261046861044c565b805460208587018101919091529093019281016116a4565b346102de576020806003193601126102de576004356001600160401b0381116102de57366023820112156102de5780600401359061171482610dbf565b916117226040519384610b23565b80835260248484019160051b830101913683116102de57602401905b82821061174e57610616846135ce565b8135815290840190840161173e565b346102de5760403660031901126102de57611776610532565b61177e6108d1565b6001600160a01b0382169182156117fd57816117bc6117cd9233600052600760205260406000209060018060a01b0316600052602052604060002090565b9060ff801983541691151516179055565b60405190151581527f17307eab39ab6107e8899845ad3d59bd9653f200f220920489ca2b5937696c3160203392a3005b604051630b61174360e31b815260048101849052602490fd5b346102de5760803660031901126102de5761182f610532565b611837610548565b90604435606435926001600160401b0384116102de57366023850112156102de5761186f610616943690602481600401359101610b7b565b92610cf8838383612184565b346102de5760203660031901126102de576004356118988161231b565b6001600160a01b0391906118af9083163314612ed1565b6118ca60009282845260046020526040842054161515612e30565b8152600e60205261088a6040822060026000918281558260018201550155565b346102de5760203660031901126102de57600435806000526004602052600160a01b6001900360406000205416151561192290612e30565b61193681600052600b602052604060002090565b61193f9061319c565b60208101519060408101519261195490613695565b606082015190919061196e906001600160a01b031661382f565b608082015161197c90613695565b9060a083015161198b90613695565b9260c0015161199990613695565b604051683d913730b6b2911d1160b91b6020820152968796919591602988016119c191611172565b61088b60f21b81526002017f226465736372697074696f6e223a224d6f76696557726974652041727469636c8152661948139195088b60ca1b60208201526027017f22696d616765223a2268747470733a2f2f676174657761792e70696e6174612e81526a636c6f75642f697066732f60a81b6020820152602b01611a4591611172565b61088b60f21b81526002017f2265787465726e616c5f75726c223a2268747470733a2f2f6d6f76696577726981527174652e78797a2f696e646976696475616c2f60701b6020820152603201611a9a91611172565b61088b60f21b81526002016d2261747472696275746573223a5b60901b8152600e017f7b2274726169745f74797065223a22417574686f72222c2276616c7565223a228152602001611aeb91611172565b62089f4b60ea1b81526003017f7b2274726169745f74797065223a225075626c6973686564222c2276616c7565815262111d1160e91b6020820152602301611b3291611172565b62089f4b60ea1b81526003017f7b2274726169745f74797065223a225669657773222c2276616c7565223a22008152601f01611b6d91611172565b62089f4b60ea1b81526003017f7b2274726169745f74797065223a224c696b6573222c2276616c7565223a22008152601f01611ba891611172565b61227d60f01b8152600201615d7d60f01b81526002010390601f19918281018252611bd39082610b23565b611bdc90613927565b6040517f646174613a6170706c69636174696f6e2f6a736f6e3b6261736536342c000000602082015291908290603d8201611c1691611172565b039081018252611c269082610b23565b6040516104688192826103fb565b346102de5760203660031901126102de57600435611c50612158565b6103e88111611c5e57600f55005b60405162461bcd60e51b815260206004820152600c60248201526b08ccaca40e8dede40d0d2ced60a31b6044820152606490fd5b346102de5760403660031901126102de576024356004356001600160401b0382116102de57611cc8610468923690600401610bb2565b90806000526004602052611cea60018060a01b03604060002054161515612e30565b600052600b602052611d0c611d13600260406000200160405192838092611df4565b0382610b23565b80516020918201208251928201929092206040519214825290918291820190565b346102de5760403660031901126102de57602060ff611d85611d54610532565b611d5c610548565b6001600160a01b0391821660009081526007865260408082209290931681526020919091522090565b54166040519015158152f35b346102de5760003660031901126102de576010546040516001600160a01b039091168152602090f35b90600182811c92168015611dea575b6020831014611dd457565b634e487b7160e01b600052602260045260246000fd5b91607f1691611dc9565b9060009291805491611e0583611dba565b918282526001938481169081600014611e675750600114611e27575b50505050565b90919394506000526020928360002092846000945b838610611e53575050505001019038808080611e21565b805485870183015294019385908201611e3c565b9294505050602093945060ff191683830152151560051b01019038808080611e21565b90610b51611e9e9260405193848092611df4565b0383610b23565b9793999895916101009793611ed1611edf92611f0898948c5260208c61012091829101528c01906103d6565b908a820360408c01526103d6565b6001600160a01b03909a166060890152608088015260a087015260c086015260e08501906113c1565b1515910152565b346102de5760203660031901126102de57600435600052600b6020526040600020805461046860405192611f5184611f4a8160018501611df4565b0385610b23565b60405190611f6682611e9e8160028501611df4565b60018060a01b036003820154166004820154600583015490600684015492611fa06009611f97600788015460ff1690565b96015460ff1690565b95604051998a998a611ea5565b346102de5760203660031901126102de57611fc6612158565b600435601155005b346102de57611fdc36610cfe565b612015611fe88461231b565b6001600160a01b0390611ffe9082163314612ed1565b846000526004602052604060002054161515612e30565b811561208a57610616926120859161202e428211612f0f565b61205e612059612055600961204d86600052600b602052604060002090565b015460ff1690565b1590565b612f4e565b612066610b53565b938452600160208501526040840152600052600e602052604060002090565b612f8c565b60405162461bcd60e51b815260206004820152601c60248201527f5072696365206d7573742062652067726561746572207468616e2030000000006044820152606490fd5b346102de5760203660031901126102de576120e8610532565b6120f0612158565b6001600160a01b0390811690811561213f57600854826001600160601b0360a01b821617600855167f8be0079c531659141344cd1fd0a4f28419497f9722a3daafe3b4186f6b6457e0600080a3005b604051631e4fbdf760e01b815260006004820152602490fd5b6008546001600160a01b0316330361216c57565b60405163118cdaa760e01b8152336004820152602490fd5b906001600160a01b038082169081156122cb5784612231926000948286526004602052836040872054166122ad575b828652600460205260408620547fddf252ad1be2c89b69c2b068fc378daa952ba7f163c4a11628f55a4df523b3ef906001600160a01b0316963361229d575b8588169687938461226f575b6001600160a01b0381166000908152600560205260409020600181540190556105f7876000526004602052604060002090565b80a483160361223f57505050565b6040516364283d7b60e01b81526001600160a01b0392831660048201526024810193909352166044820152606490fd5b612278876122f7565b6001600160a01b038a16600090815260056020526040902080546000190190556121fe565b6122a885338a6134f5565b6121f2565b600b6020526122c660ff60096040892001541615612f4e565b6121b3565b604051633250574960e11b815260006004820152602490fd5b604051906122f182610b08565b60008252565b61230b906000526006602052604060002090565b80546001600160a01b0319169055565b6000818152600460205260409020546001600160a01b031690811561233e575090565b60249060405190637e27328960e01b82526004820152fd5b908160209103126102de575161040c816102cc565b61040c939260809260018060a01b0316825260006020830152604082015281606082015201906103d6565b6001600160a01b03918216815291166020820152604081019190915260806060820181905261040c929101906103d6565b6040513d6000823e3d90fd5b3d156123fe573d906123e482610b60565b916123f26040519384610b23565b82523d6000602084013e565b606090565b92939193843b612415575b5050505050565b6020916124386040519485938493630a85bd0160e11b9889865260048601612396565b038160006001600160a01b0388165af1600091816124cd575b50612490578261245f6123d3565b805191908261248957604051633250574960e11b81526001600160a01b0383166004820152602490fd5b6020915001fd5b6001600160e01b031916036124aa5750388080808061240e565b604051633250574960e11b81526001600160a01b03919091166004820152602490fd5b6124ef91925060203d81116124f6575b6124e78183610b23565b810190612356565b9038612451565b503d6124dd565b634e487b7160e01b600052601160045260246000fd5b600281901b91906001600160fe1b0381160361252b57565b6124fd565b8181029291811591840414171561252b57565b1561254a57565b60405162461bcd60e51b815260206004820152601660248201527510dbdb9d195b9d08185b1c9958591e481b5a5b9d195960521b6044820152606490fd5b1561258f57565b60405162461bcd60e51b8152602060048201526011602482015270125b9d985b1a59081c9958da5c1a595b9d607a1b6044820152606490fd5b156125cf57565b60405162461bcd60e51b815260206004820152601760248201527f5075626c6963206d696e74696e672064697361626c65640000000000000000006044820152606490fd5b1561261b57565b60405162461bcd60e51b8152602060048201526015602482015274496e73756666696369656e74206d696e742066656560581b6044820152606490fd5b600019811461252b5760010190565b60048210156113ab5752565b90601f811161268157505050565b600091825260208220906020601f850160051c830194106126bd575b601f0160051c01915b8281106126b257505050565b8181556001016126a6565b909250829061269d565b91909182516001600160401b038111610ae8576126ee816126e88454611dba565b84612673565b602080601f831160011461272a57508192939460009261271f575b50508160011b916000199060031b1c1916179055565b015190503880612709565b90601f1983169561274085600052602060002090565b926000905b88821061277d57505083600195969710612764575b505050811b019055565b015160001960f88460031b161c1916905538808061275a565b80600185968294968601518155019501930190612745565b9060048110156113ab5760ff80198354169116179055565b8151916001600160401b038311610ae857600160401b8311610ae857815483835580841061280f575b506127eb602080920192600052602060002090565b9060005b8481106127fd575050505050565b835183820155928101926001016127ef565b6000838152846020822092830192015b82811061282d5750506127d6565b81815560010161281f565b60096128e1610120610b5194805185556128596020820151600187016126c7565b61286a6040820151600287016126c7565b60608101516003860180546001600160a01b0319166001600160a01b039092169190911790556080810151600486015560a0810151600586015560c081015160068601556128c860e08201516128bf816113a1565b60078701612795565b6128da610100820151600887016127ad565b0151151590565b91019060ff801983541691151516179055565b8054600160401b811015610ae857612911916001820181556106aa565b819291549060031b91821b91600019901b1916179055565b909161294061040c936040845260408401906103d6565b9160208184039101526103d6565b612a50936001600160a01b03821693909261296a851515612588565b60085461297f906001600160a01b0316610a64565b3303612ae3575b612999612994600a54612658565b600a55565b612a55600a548097856129ad838098612b0a565b6129c36129bc60105460a01c90565b8285612c52565b612a366129ce610b44565b84815260208101879052604081018890526001600160a01b03831660608201524260808201526000998a60a08301528a60c0830152612a1060e0830160019052565b61010082015289610120820152612a3185600052600b602052604060002090565b612838565b6001600160a01b03166000908152600c6020526040902090565b6128f4565b82612a5f83611189565b556011543411612aa3575b7f341868c5c6b3abe842179a7c693272930ba67af870b18099ed7b80df31f1d657929350612a9d60405192839283612929565b0390a390565b915091808080612ac0610a64610a6460105460018060a01b031690565b81903415612ad9575b3491f1156108b157818491612a6a565b6108fc9150612ac9565b612af7612af260125460ff1690565b6125c8565b612b05601154341015612614565b612986565b6040918251612b1881610b08565b600081526001600160a01b0383811691908215612c3a57612b3984866133fa565b16612c2257833b612b4b575050505050565b612b756000926020928798969751948580948193630a85bd0160e11b998a8452336004850161236b565b03925af160009181612c02575b50612bc257505050612b926123d3565b8051929083612bbb578151633250574960e11b81526001600160a01b0384166004820152602490fd5b6020849101fd5b9193916001600160e01b03191603612be0575050388080808061240e565b51633250574960e11b81526001600160a01b0391909116600482015260249150fd5b612c1b91925060203d81116124f6576124e78183610b23565b9038612b82565b84516339e3563760e11b815260006004820152602490fd5b8551633250574960e11b815260006004820152602490fd5b906127106001600160601b038416818111612d1b5750506001600160a01b03811615612cfb576040519160408301918383106001600160401b03841117610ae857610b5194612cb3612cc392612cd395604052869060018060a01b03169052565b6001600160601b03166020850152565b6000526001602052604060002090565b815160209092015160a01b6001600160a01b0319166001600160a01b03909216919091179055565b604051634b4f842960e11b81526004810183905260006024820152604490fd5b60405163dfd1fc1b60e01b815260048101949094526024840152604483015250606490fd5b9392919093612d4d612158565b805185518091149081612e11575b5080612e06575b15612dcf5760005b8151811015612dc75780612dbc612d94612d87612dc29486612e1c565b516001600160a01b031690565b612d9e838a612e1c565b51612da98488612e1c565b5190612db5858a612e1c565b519261294e565b50612658565b612d6a565b505050509050565b60405162461bcd60e51b815260206004820152600f60248201526e098cadccee8d040dad2e6dac2e8c6d608b1b6044820152606490fd5b508151835114612d62565b905082511438612d5b565b80518210156106c25760209160051b010190565b15612e3757565b60405162461bcd60e51b8152602060048201526014602482015273151bdad95b88191bd95cc81b9bdd08195e1a5cdd60621b6044820152606490fd5b15612e7a57565b60405162461bcd60e51b815260206004820152600e60248201526d139bdd08185d5d1a1bdc9a5e995960921b6044820152606490fd5b92916020612ec9610b51936040875260408701906103d6565b9401906113c1565b15612ed857565b60405162461bcd60e51b815260206004820152600f60248201526e2737ba103a37b5b2b71037bbb732b960891b6044820152606490fd5b15612f1657565b60405162461bcd60e51b815260206004820152601060248201526f496e76616c696420646561646c696e6560801b6044820152606490fd5b15612f5557565b60405162461bcd60e51b815260206004820152600f60248201526e151c985b9cd9995c881b1bd8dad959608a1b6044820152606490fd5b90604060029180518455612fb560208201511515600186019060ff801983541691151516179055565b0151910155565b90604051606081018181106001600160401b03821117610ae8576040526040600282948054845260ff600182015416151560208501520154910152565b1561300057565b60405162461bcd60e51b815260206004820152600c60248201526b4e6f7420666f722073616c6560a01b6044820152606490fd5b1561303b57565b60405162461bcd60e51b815260206004820152600c60248201526b14d85b1948195e1c1a5c995960a21b6044820152606490fd5b1561307657565b60405162461bcd60e51b8152602060048201526014602482015273125b9cdd59999a58da595b9d081c185e5b595b9d60621b6044820152606490fd5b156130b957565b60405162461bcd60e51b815260206004820152601460248201527321b0b73737ba10313abc9037bbb7103a37b5b2b760611b6044820152606490fd5b9190820391821161252b57565b906001600160a01b0390818116156122cb578361311e916133fa565b90808216908161314157604051637e27328960e01b815260048101869052602490fd5b83160361223f57505050565b9060405191828154918282526020928383019160005283600020936000905b82821061318257505050610b5192500383610b23565b85548452600195860195889550938101939091019061316c565b90610b5161323960096131ad610b44565b94805486526131be60018201611e8a565b60208701526131cf60028201611e8a565b604087015260038101546001600160a01b0316606087015260048101546080870152600581015460a0870152600681015460c087015261321f613216600783015460ff1690565b60e08801612667565b61322b6008820161314d565b610100870152015460ff1690565b1515610120840152565b9161326061325b84600052600b602052604060002090565b61319c565b91613278613270600f5483612530565b612710900490565b60609390930180516000949390613297906001600160a01b0316610a64565b6001600160a01b039091169081036133cb575b6132bd856132b886866130f5565b6130f5565b91848015801561338f575b50508580158015613350575b5050508115801561332a575b5050506133257f4e35aa6e33aa135ca4f8d8472f2ec43cbdaa410ce540b0d5522fa4edf8ff250193604051938493846040919493926060820195825260208201520152565b0390a2565b60008093819382938390613347575bf1156108b1573880806132e0565b506108fc613339565b91516000928392839283929061337090610a64906001600160a01b031681565b908390613386575bf1156108b1573885816132d4565b506108fc613378565b600080809381936133ad610a64610a6460105460018060a01b031690565b9083906133c2575bf1156108b15784386132c8565b506108fc6133b5565b93506133f46132706133ee6133e260105460a01c90565b6001600160601b031690565b84612530565b936132aa565b600082815260046020526040812054909291906001600160a01b039081166134d7575b828452600460205260408420547fddf252ad1be2c89b69c2b068fc378daa952ba7f163c4a11628f55a4df523b3ef906001600160a01b03169461348083871693846134a9575b85169485613485575b6105f7876000526004602052604060002090565b80a490565b6001600160a01b03811660009081526005602052604090206001815401905561346c565b6134b2876122f7565b6001600160a01b03881660009081526005602052604090208054600019019055613463565b600b6020526134f060ff60096040872001541615612f4e565b61341d565b6001600160a01b03908282168015159081613560575b50156135175750505050565b1661353557604051637e27328960e01b815260048101839052602490fd5b60405163177e802f60e01b81526001600160a01b039190911660048201526024810191909152604490fd5b82841680821492508215613598575b50811561357e575b503861350b565b905084600052600660205282604060002054161438613577565b909150600052600760205260ff6135c58560406000209060018060a01b0316600052602052604060002090565b5416903861356f565b6135d6612158565b60005b815181101561364457806135f06136159284612e1c565b51600052602060048152604060018060a01b0381600020541661361a575b5050612658565b6135d9565b600b6009926136298588612e1c565b516000525260002001600160ff19825416179055388061360e565b5050565b6040519061365582610aed565b602a82526040366020840137565b9061366d82610b60565b61367a6040519182610b23565b828152809261368b601f1991610b60565b0190602036910137565b806000917a184f03e93ff9f4daa797ed6e38ed64bf6a1f010000000000000000808210156137ca575b506d04ee2d6d415b85acef8100000000808310156137bb575b50662386f26fc10000808310156137ac575b506305f5e1008083101561379d575b506127108083101561378e575b50606482101561377e575b600a80921015613774575b60019081602161372c828701613663565b95860101905b61373e575b5050505090565b600019019083906f181899199a1a9b1b9c1cb0b131b232b360811b8282061a83530491821561376f57919082613732565b613737565b916001019161371b565b9190606460029104910191613710565b60049193920491019138613705565b600891939204910191386136f8565b601091939204910191386136e9565b602091939204910191386136d7565b6040935081049150386136be565b906002820180921161252b57565b906020820180921161252b57565b8051156106c25760200190565b8051600110156106c25760210190565b9081518110156106c2570160200190565b801561252b576000190190565b80613838613648565b916030613844846137f4565b53607861385084613801565b5360295b600181116138865750613865575090565b60405163e22e27eb60e01b8152600481019190915260146024820152604490fd5b90600f81169060108210156106c2576138c3916f181899199a1a9b1b9c1cb0b131b232b360811b901a6138b98487613811565b5360041c91613822565b613854565b604051906138d582610aed565b604082527f6768696a6b6c6d6e6f707172737475767778797a303132333435363738392b2f6040837f4142434445464748494a4b4c4d4e4f505152535455565758595a61626364656660208201520152565b805115613a17576139366138c8565b61395261394d61394684516137d8565b6003900490565b612513565b9161396461395f846137e6565b613663565b60009490602081015b83518710156139cf576004600391888601516001603f9080828460121c168b010151918a60ff9384848488600c1c1684010151168585600894868a60061c160101511691831b01821b01901b93168a010151160160e01b81520196019561396d565b92909493506003919550510680600114613a03576002146139f1575b50815290565b603d60f81b60001990910152386139eb565b50613d3d60f01b60011990910152386139eb565b5061040c6122e456fea2646970667358221220232fbe2d0c6d06317a32e21f70707065dbce74d704f67a9b7cfd3f54f2e58a6c64736f6c63430008140033","opcodes":"PUSH1 0x40 PUSH1 0x80 DUP2 MSTORE CALLVALUE PUSH3 0x44E JUMPI PUSH3 0x3F42 DUP1 CODESIZE SUB DUP1 PUSH3 0x1E DUP2 PUSH3 0x453 JUMP JUMPDEST SWAP3 DUP4 CODECOPY DUP2 ADD SWAP1 PUSH1 0x60 DUP2 DUP4 SUB SLT PUSH3 0x44E JUMPI DUP1 MLOAD PUSH1 0x1 PUSH1 0x1 PUSH1 0x40 SHL SUB SWAP1 DUP2 DUP2 GT PUSH3 0x44E JUMPI DUP4 PUSH3 0x50 SWAP2 DUP5 ADD PUSH3 0x479 JUMP JUMPDEST SWAP2 PUSH1 0x20 SWAP4 DUP5 DUP3 ADD MLOAD DUP4 DUP2 GT PUSH3 0x44E JUMPI DUP7 SWAP2 PUSH3 0x6F SWAP2 DUP5 ADD PUSH3 0x479 JUMP JUMPDEST SWAP2 ADD MLOAD PUSH1 0x1 PUSH1 0x1 PUSH1 0xA0 SHL SUB DUP1 DUP3 AND SWAP5 SWAP1 SWAP3 SWAP1 SWAP2 DUP6 SWAP1 SUB PUSH3 0x44E JUMPI DUP2 MLOAD SWAP1 DUP5 DUP3 GT PUSH3 0x1FD JUMPI PUSH1 0x2 SLOAD SWAP2 PUSH1 0x1 SWAP4 DUP5 DUP5 DUP2 SHR SWAP5 AND DUP1 ISZERO PUSH3 0x443 JUMPI JUMPDEST DUP10 DUP6 LT EQ PUSH3 0x355 JUMPI DUP2 SWAP1 PUSH1 0x1F SWAP5 DUP6 DUP2 GT PUSH3 0x3EC JUMPI JUMPDEST POP DUP10 SWAP1 DUP6 DUP4 GT PUSH1 0x1 EQ PUSH3 0x382 JUMPI PUSH1 0x0 SWAP3 PUSH3 0x376 JUMPI JUMPDEST POP POP PUSH1 0x0 NOT PUSH1 0x3 DUP4 SWAP1 SHL SHR NOT AND SWAP1 DUP5 SHL OR PUSH1 0x2 SSTORE JUMPDEST DUP1 MLOAD SWAP1 DUP6 DUP3 GT PUSH3 0x1FD JUMPI PUSH1 0x3 SWAP3 DUP4 SLOAD SWAP2 DUP6 DUP4 DUP2 SHR SWAP4 AND DUP1 ISZERO PUSH3 0x36B JUMPI JUMPDEST DUP11 DUP5 LT EQ PUSH3 0x355 JUMPI DUP3 DUP3 DUP6 SWAP5 GT PUSH3 0x2FD JUMPI JUMPDEST POP DUP10 SWAP2 DUP4 GT PUSH1 0x1 EQ PUSH3 0x296 JUMPI PUSH1 0x0 SWAP3 PUSH3 0x28A JUMPI JUMPDEST POP POP PUSH1 0x0 NOT DUP3 DUP5 SHL SHR NOT AND SWAP1 DUP4 SHL OR SWAP1 SSTORE JUMPDEST CALLER ISZERO PUSH3 0x272 JUMPI PUSH1 0x8 DUP1 SLOAD CALLER PUSH1 0x1 PUSH1 0x1 PUSH1 0xA0 SHL SUB NOT DUP3 AND DUP2 OR SWAP1 SWAP3 SSTORE DUP8 MLOAD SWAP4 AND PUSH32 0x8BE0079C531659141344CD1FD0A4F28419497F9722A3DAAFE3B4186F6B6457E0 PUSH1 0x0 DUP1 LOG3 DUP1 PUSH1 0x9 SSTORE PUSH1 0xFA PUSH1 0xF SSTORE PUSH7 0x2386F26FC10000 PUSH1 0x11 SSTORE PUSH1 0xFF NOT PUSH1 0x12 SLOAD AND OR PUSH1 0x12 SSTORE DUP3 ISZERO PUSH3 0x230 JUMPI POP PUSH2 0x177 PUSH1 0xA1 SHL SWAP3 DUP3 DUP5 OR DUP1 PUSH1 0x10 SSTORE PUSH1 0xA0 SHR SWAP2 PUSH2 0x2710 DUP1 DUP5 GT PUSH3 0x213 JUMPI POP DUP6 MLOAD SWAP1 DUP2 DUP8 ADD SWAP1 DUP2 GT DUP3 DUP3 LT OR PUSH3 0x1FD JUMPI DUP7 MSTORE DUP4 DUP2 MSTORE ADD MSTORE OR PUSH1 0x0 SSTORE MLOAD PUSH2 0x3A56 SWAP1 DUP2 PUSH3 0x4EC DUP3 CODECOPY RETURN JUMPDEST PUSH4 0x4E487B71 PUSH1 0xE0 SHL PUSH1 0x0 MSTORE PUSH1 0x41 PUSH1 0x4 MSTORE PUSH1 0x24 PUSH1 0x0 REVERT JUMPDEST DUP4 PUSH1 0x44 SWAP2 DUP9 MLOAD SWAP2 PUSH4 0x6F483D09 PUSH1 0xE0 SHL DUP4 MSTORE PUSH1 0x4 DUP4 ADD MSTORE PUSH1 0x24 DUP3 ADD MSTORE REVERT JUMPDEST PUSH3 0x461BCD PUSH1 0xE5 SHL DUP2 MSTORE PUSH1 0x4 DUP2 ADD DUP5 SWAP1 MSTORE PUSH1 0x15 PUSH1 0x24 DUP3 ADD MSTORE PUSH32 0x496E76616C69642066656520726563697069656E740000000000000000000000 PUSH1 0x44 DUP3 ADD MSTORE PUSH1 0x64 SWAP1 REVERT JUMPDEST DUP6 MLOAD PUSH4 0x1E4FBDF7 PUSH1 0xE0 SHL DUP2 MSTORE PUSH1 0x0 PUSH1 0x4 DUP3 ADD MSTORE PUSH1 0x24 SWAP1 REVERT JUMPDEST ADD MLOAD SWAP1 POP CODESIZE DUP1 PUSH3 0x136 JUMP JUMPDEST SWAP1 DUP6 SWAP4 POP PUSH1 0x1F NOT DUP4 AND SWAP2 DUP6 PUSH1 0x0 MSTORE DUP11 PUSH1 0x0 KECCAK256 SWAP3 PUSH1 0x0 JUMPDEST DUP13 DUP3 DUP3 LT PUSH3 0x2E6 JUMPI POP POP DUP5 GT PUSH3 0x2CD JUMPI JUMPDEST POP POP POP DUP2 SHL ADD SWAP1 SSTORE PUSH3 0x148 JUMP JUMPDEST ADD MLOAD PUSH1 0x0 NOT DUP4 DUP7 SHL PUSH1 0xF8 AND SHR NOT AND SWAP1 SSTORE CODESIZE DUP1 DUP1 PUSH3 0x2BF JUMP JUMPDEST DUP4 DUP6 ADD MLOAD DUP7 SSTORE DUP10 SWAP8 SWAP1 SWAP6 ADD SWAP5 SWAP4 DUP5 ADD SWAP4 ADD PUSH3 0x2AC JUMP JUMPDEST SWAP1 SWAP2 SWAP3 POP DUP5 PUSH1 0x0 MSTORE DUP10 PUSH1 0x0 KECCAK256 DUP4 DUP1 DUP7 ADD PUSH1 0x5 SHR DUP3 ADD SWAP3 DUP13 DUP8 LT PUSH3 0x34B JUMPI JUMPDEST SWAP2 DUP7 SWAP6 DUP10 SWAP3 SWAP6 SWAP5 SWAP4 ADD PUSH1 0x5 SHR ADD SWAP2 JUMPDEST DUP3 DUP2 LT PUSH3 0x33B JUMPI POP POP PUSH3 0x120 JUMP JUMPDEST PUSH1 0x0 DUP2 SSTORE DUP7 SWAP6 POP DUP9 SWAP2 ADD PUSH3 0x32B JUMP JUMPDEST SWAP3 POP DUP2 SWAP3 PUSH3 0x31C JUMP JUMPDEST PUSH4 0x4E487B71 PUSH1 0xE0 SHL PUSH1 0x0 MSTORE PUSH1 0x22 PUSH1 0x4 MSTORE PUSH1 0x24 PUSH1 0x0 REVERT JUMPDEST SWAP3 PUSH1 0x7F AND SWAP3 PUSH3 0x10C JUMP JUMPDEST ADD MLOAD SWAP1 POP CODESIZE DUP1 PUSH3 0xD8 JUMP JUMPDEST SWAP1 DUP7 SWAP4 POP PUSH1 0x1F NOT DUP4 AND SWAP2 PUSH1 0x2 PUSH1 0x0 MSTORE DUP12 PUSH1 0x0 KECCAK256 SWAP3 PUSH1 0x0 JUMPDEST DUP14 DUP3 DUP3 LT PUSH3 0x3D5 JUMPI POP POP DUP5 GT PUSH3 0x3BB JUMPI JUMPDEST POP POP POP DUP2 SHL ADD PUSH1 0x2 SSTORE PUSH3 0xED JUMP JUMPDEST ADD MLOAD PUSH1 0x0 NOT PUSH1 0xF8 DUP5 PUSH1 0x3 SHL AND SHR NOT AND SWAP1 SSTORE CODESIZE DUP1 DUP1 PUSH3 0x3AC JUMP JUMPDEST DUP4 DUP6 ADD MLOAD DUP7 SSTORE DUP11 SWAP8 SWAP1 SWAP6 ADD SWAP5 SWAP4 DUP5 ADD SWAP4 ADD PUSH3 0x399 JUMP JUMPDEST SWAP1 SWAP2 POP PUSH1 0x2 PUSH1 0x0 MSTORE DUP10 PUSH1 0x0 KECCAK256 DUP6 DUP1 DUP6 ADD PUSH1 0x5 SHR DUP3 ADD SWAP3 DUP13 DUP7 LT PUSH3 0x439 JUMPI JUMPDEST SWAP2 DUP9 SWAP2 DUP7 SWAP6 SWAP5 SWAP4 ADD PUSH1 0x5 SHR ADD SWAP2 JUMPDEST DUP3 DUP2 LT PUSH3 0x429 JUMPI POP POP PUSH3 0xC1 JUMP JUMPDEST PUSH1 0x0 DUP2 SSTORE DUP6 SWAP5 POP DUP9 SWAP2 ADD PUSH3 0x419 JUMP JUMPDEST SWAP3 POP DUP2 SWAP3 PUSH3 0x40B JUMP JUMPDEST SWAP4 PUSH1 0x7F AND SWAP4 PUSH3 0xAA JUMP JUMPDEST PUSH1 0x0 DUP1 REVERT JUMPDEST PUSH1 0x40 MLOAD SWAP2 SWAP1 PUSH1 0x1F ADD PUSH1 0x1F NOT AND DUP3 ADD PUSH1 0x1 PUSH1 0x1 PUSH1 0x40 SHL SUB DUP2 GT DUP4 DUP3 LT OR PUSH3 0x1FD JUMPI PUSH1 0x40 MSTORE JUMP JUMPDEST SWAP2 SWAP1 DUP1 PUSH1 0x1F DUP5 ADD SLT ISZERO PUSH3 0x44E JUMPI DUP3 MLOAD PUSH1 0x1 PUSH1 0x1 PUSH1 0x40 SHL SUB DUP2 GT PUSH3 0x1FD JUMPI PUSH1 0x20 SWAP1 PUSH3 0x4AF PUSH1 0x1F DUP3 ADD PUSH1 0x1F NOT AND DUP4 ADD PUSH3 0x453 JUMP JUMPDEST SWAP3 DUP2 DUP5 MSTORE DUP3 DUP3 DUP8 ADD ADD GT PUSH3 0x44E JUMPI PUSH1 0x0 JUMPDEST DUP2 DUP2 LT PUSH3 0x4D7 JUMPI POP DUP3 PUSH1 0x0 SWAP4 SWAP5 SWAP6 POP ADD ADD MSTORE SWAP1 JUMP JUMPDEST DUP6 DUP2 ADD DUP4 ADD MLOAD DUP5 DUP3 ADD DUP5 ADD MSTORE DUP3 ADD PUSH3 0x4C1 JUMP INVALID PUSH1 0x80 PUSH1 0x40 MSTORE PUSH1 0x4 CALLDATASIZE LT ISZERO PUSH2 0x12 JUMPI PUSH1 0x0 DUP1 REVERT JUMPDEST PUSH1 0x0 CALLDATALOAD PUSH1 0xE0 SHR DUP1 PUSH4 0x1FFC9A7 EQ PUSH2 0x2C7 JUMPI DUP1 PUSH4 0x2EB4B88 EQ PUSH2 0x2C2 JUMPI DUP1 PUSH4 0x6FDDE03 EQ PUSH2 0x2BD JUMPI DUP1 PUSH4 0x81812FC EQ PUSH2 0x2B8 JUMPI DUP1 PUSH4 0x95EA7B3 EQ PUSH2 0x2B3 JUMPI DUP1 PUSH4 0xF4161AA EQ PUSH2 0x2AE JUMPI DUP1 PUSH4 0x101A3CC4 EQ PUSH2 0x2A9 JUMPI DUP1 PUSH4 0x13966DB5 EQ PUSH2 0x2A4 JUMPI DUP1 PUSH4 0x18160DDD EQ PUSH2 0x29F JUMPI DUP1 PUSH4 0x1CC4BAA8 EQ PUSH2 0x29A JUMPI DUP1 PUSH4 0x20D4AB5A EQ PUSH2 0x295 JUMPI DUP1 PUSH4 0x23B872DD EQ PUSH2 0x290 JUMPI DUP1 PUSH4 0x2A55205A EQ PUSH2 0x28B JUMPI DUP1 PUSH4 0x3CCFD60B EQ PUSH2 0x286 JUMPI DUP1 PUSH4 0x427440B8 EQ PUSH2 0x281 JUMPI DUP1 PUSH4 0x42842E0E EQ PUSH2 0x27C JUMPI DUP1 PUSH4 0x4D30823F EQ PUSH2 0x277 JUMPI DUP1 PUSH4 0x4E42F6AE EQ PUSH2 0x272 JUMPI DUP1 PUSH4 0x598D79BB EQ PUSH2 0x26D JUMPI DUP1 PUSH4 0x6352211E EQ PUSH2 0x268 JUMPI DUP1 PUSH4 0x6F4EB1A8 EQ PUSH2 0x263 JUMPI DUP1 PUSH4 0x6FD42F4A EQ PUSH2 0x25E JUMPI DUP1 PUSH4 0x70A08231 EQ PUSH2 0x259 JUMPI DUP1 PUSH4 0x715018A6 EQ PUSH2 0x254 JUMPI DUP1 PUSH4 0x818668D7 EQ PUSH2 0x24F JUMPI DUP1 PUSH4 0x82A950DB EQ PUSH2 0x24A JUMPI DUP1 PUSH4 0x85ACA317 EQ PUSH2 0x245 JUMPI DUP1 PUSH4 0x8C639A85 EQ PUSH2 0x240 JUMPI DUP1 PUSH4 0x8DA5CB5B EQ PUSH2 0x23B JUMPI DUP1 PUSH4 0x95D89B41 EQ PUSH2 0x236 JUMPI DUP1 PUSH4 0x9F8643B0 EQ PUSH2 0x231 JUMPI DUP1 PUSH4 0xA22CB465 EQ PUSH2 0x22C JUMPI DUP1 PUSH4 0xB88D4FDE EQ PUSH2 0x227 JUMPI DUP1 PUSH4 0xBD94B005 EQ PUSH2 0x222 JUMPI DUP1 PUSH4 0xC87B56DD EQ PUSH2 0x21D JUMPI DUP1 PUSH4 0xCAB230D2 EQ PUSH2 0x218 JUMPI DUP1 PUSH4 0xE5F46406 EQ PUSH2 0x213 JUMPI DUP1 PUSH4 0xE985E9C5 EQ PUSH2 0x20E JUMPI DUP1 PUSH4 0xEB13554F EQ PUSH2 0x209 JUMPI DUP1 PUSH4 0xEDCFAFE6 EQ PUSH2 0x204 JUMPI DUP1 PUSH4 0xEDDD0D9C EQ PUSH2 0x1FF JUMPI DUP1 PUSH4 0xEE3C65D5 EQ PUSH2 0x1FA JUMPI PUSH4 0xF2FDE38B EQ PUSH2 0x1F5 JUMPI PUSH1 0x0 DUP1 REVERT JUMPDEST PUSH2 0x20CF JUMP JUMPDEST PUSH2 0x1FCE JUMP JUMPDEST PUSH2 0x1FAD JUMP JUMPDEST PUSH2 0x1F0F JUMP JUMPDEST PUSH2 0x1D91 JUMP JUMPDEST PUSH2 0x1D34 JUMP JUMPDEST PUSH2 0x1C92 JUMP JUMPDEST PUSH2 0x1C34 JUMP JUMPDEST PUSH2 0x18EA JUMP JUMPDEST PUSH2 0x187B JUMP JUMPDEST PUSH2 0x1816 JUMP JUMPDEST PUSH2 0x175D JUMP JUMPDEST PUSH2 0x16D7 JUMP JUMPDEST PUSH2 0x1630 JUMP JUMPDEST PUSH2 0x1607 JUMP JUMPDEST PUSH2 0x15E9 JUMP JUMPDEST PUSH2 0x14B1 JUMP JUMPDEST PUSH2 0x131D JUMP JUMPDEST PUSH2 0x12A9 JUMP JUMPDEST PUSH2 0x124B JUMP JUMPDEST PUSH2 0x11F2 JUMP JUMPDEST PUSH2 0x11AF JUMP JUMPDEST PUSH2 0x103F JUMP JUMPDEST PUSH2 0x100F JUMP JUMPDEST PUSH2 0xF34 JUMP JUMPDEST PUSH2 0xD9E JUMP JUMPDEST PUSH2 0xD18 JUMP JUMPDEST PUSH2 0xCCA JUMP JUMPDEST PUSH2 0xBCD JUMP JUMPDEST PUSH2 0xA2A JUMP JUMPDEST PUSH2 0x9A5 JUMP JUMPDEST PUSH2 0x98E JUMP JUMPDEST PUSH2 0x8E0 JUMP JUMPDEST PUSH2 0x75B JUMP JUMPDEST PUSH2 0x73D JUMP JUMPDEST PUSH2 0x71F JUMP JUMPDEST PUSH2 0x6C7 JUMP JUMPDEST PUSH2 0x671 JUMP JUMPDEST PUSH2 0x572 JUMP JUMPDEST PUSH2 0x4F4 JUMP JUMPDEST PUSH2 0x40F JUMP JUMPDEST PUSH2 0x36B JUMP JUMPDEST PUSH2 0x2E3 JUMP JUMPDEST PUSH1 0x1 PUSH1 0x1 PUSH1 0xE0 SHL SUB NOT DUP2 AND SUB PUSH2 0x2DE JUMPI JUMP JUMPDEST PUSH1 0x0 DUP1 REVERT JUMPDEST CALLVALUE PUSH2 0x2DE JUMPI PUSH1 0x20 CALLDATASIZE PUSH1 0x3 NOT ADD SLT PUSH2 0x2DE JUMPI PUSH1 0x20 PUSH1 0x4 CALLDATALOAD PUSH2 0x302 DUP2 PUSH2 0x2CC JUMP JUMPDEST PUSH4 0xFFFFFFFF PUSH1 0xE0 SHL AND PUSH4 0x80AC58CD PUSH1 0xE0 SHL DUP2 EQ SWAP1 DUP2 ISZERO PUSH2 0x35A JUMPI JUMPDEST DUP2 ISZERO PUSH2 0x32F JUMPI JUMPDEST POP PUSH1 0x40 MLOAD SWAP1 ISZERO ISZERO DUP2 MSTORE RETURN JUMPDEST PUSH4 0x152A902D PUSH1 0xE1 SHL DUP2 EQ SWAP2 POP DUP2 ISZERO PUSH2 0x349 JUMPI JUMPDEST POP CODESIZE PUSH2 0x324 JUMP JUMPDEST PUSH4 0x1FFC9A7 PUSH1 0xE0 SHL EQ SWAP1 POP CODESIZE PUSH2 0x342 JUMP JUMPDEST PUSH4 0x5B5E139F PUSH1 0xE0 SHL DUP2 EQ SWAP2 POP PUSH2 0x31D JUMP JUMPDEST CALLVALUE PUSH2 0x2DE JUMPI PUSH1 0x20 CALLDATASIZE PUSH1 0x3 NOT ADD SLT PUSH2 0x2DE JUMPI PUSH1 0x4 CALLDATALOAD PUSH1 0x0 MSTORE PUSH1 0xE PUSH1 0x20 MSTORE PUSH1 0x60 PUSH1 0x40 PUSH1 0x0 KECCAK256 DUP1 SLOAD SWAP1 PUSH1 0x2 PUSH1 0xFF PUSH1 0x1 DUP4 ADD SLOAD AND SWAP2 ADD SLOAD SWAP1 PUSH1 0x40 MLOAD SWAP3 DUP4 MSTORE ISZERO ISZERO PUSH1 0x20 DUP4 ADD MSTORE PUSH1 0x40 DUP3 ADD MSTORE RETURN JUMPDEST PUSH1 0x0 JUMPDEST DUP4 DUP2 LT PUSH2 0x3C6 JUMPI POP POP PUSH1 0x0 SWAP2 ADD MSTORE JUMP JUMPDEST DUP2 DUP2 ADD MLOAD DUP4 DUP3 ADD MSTORE PUSH1 0x20 ADD PUSH2 0x3B6 JUMP JUMPDEST SWAP1 PUSH1 0x20 SWAP2 PUSH2 0x3EF DUP2 MLOAD DUP1 SWAP3 DUP2 DUP6 MSTORE DUP6 DUP1 DUP7 ADD SWAP2 ADD PUSH2 0x3B3 JUMP JUMPDEST PUSH1 0x1F ADD PUSH1 0x1F NOT AND ADD ADD SWAP1 JUMP JUMPDEST SWAP1 PUSH1 0x20 PUSH2 0x40C SWAP3 DUP2 DUP2 MSTORE ADD SWAP1 PUSH2 0x3D6 JUMP JUMPDEST SWAP1 JUMP JUMPDEST CALLVALUE PUSH2 0x2DE JUMPI PUSH1 0x0 DUP1 PUSH1 0x3 NOT CALLDATASIZE ADD SLT PUSH2 0x4F1 JUMPI PUSH1 0x40 MLOAD SWAP1 DUP1 PUSH1 0x2 SLOAD PUSH2 0x432 DUP2 PUSH2 0x1DBA JUMP JUMPDEST DUP1 DUP6 MSTORE SWAP2 PUSH1 0x1 SWAP2 DUP1 DUP4 AND SWAP1 DUP2 ISZERO PUSH2 0x4C7 JUMPI POP PUSH1 0x1 EQ PUSH2 0x46C JUMPI JUMPDEST PUSH2 0x468 DUP6 PUSH2 0x45C DUP2 DUP8 SUB DUP3 PUSH2 0xB23 JUMP JUMPDEST PUSH1 0x40 MLOAD SWAP2 DUP3 SWAP2 DUP3 PUSH2 0x3FB JUMP JUMPDEST SUB SWAP1 RETURN JUMPDEST SWAP3 POP PUSH1 0x2 DUP4 MSTORE PUSH32 0x405787FA12A823E0F2B7631CC41B3BA8828B3321CA811111FA75CD3AA3BB5ACE JUMPDEST DUP3 DUP5 LT PUSH2 0x4AF JUMPI POP POP POP DUP2 ADD PUSH1 0x20 ADD PUSH2 0x45C DUP3 PUSH2 0x468 PUSH2 0x44C JUMP JUMPDEST DUP1 SLOAD PUSH1 0x20 DUP6 DUP8 ADD DUP2 ADD SWAP2 SWAP1 SWAP2 MSTORE SWAP1 SWAP4 ADD SWAP3 DUP2 ADD PUSH2 0x494 JUMP JUMPDEST DUP7 SWAP6 POP PUSH2 0x468 SWAP7 SWAP4 POP PUSH1 0x20 SWAP3 POP PUSH2 0x45C SWAP5 SWAP2 POP PUSH1 0xFF NOT AND DUP3 DUP5 ADD MSTORE ISZERO ISZERO PUSH1 0x5 SHL DUP3 ADD ADD SWAP3 SWAP4 PUSH2 0x44C JUMP JUMPDEST DUP1 REVERT JUMPDEST CALLVALUE PUSH2 0x2DE JUMPI PUSH1 0x20 CALLDATASIZE PUSH1 0x3 NOT ADD SLT PUSH2 0x2DE JUMPI PUSH1 0x4 CALLDATALOAD PUSH2 0x511 DUP2 PUSH2 0x231B JUMP JUMPDEST POP PUSH1 0x0 MSTORE PUSH1 0x6 PUSH1 0x20 MSTORE PUSH1 0x20 PUSH1 0x1 DUP1 PUSH1 0xA0 SHL SUB PUSH1 0x40 PUSH1 0x0 KECCAK256 SLOAD AND PUSH1 0x40 MLOAD SWAP1 DUP2 MSTORE RETURN JUMPDEST PUSH1 0x4 CALLDATALOAD SWAP1 PUSH1 0x1 PUSH1 0x1 PUSH1 0xA0 SHL SUB DUP3 AND DUP3 SUB PUSH2 0x2DE JUMPI JUMP JUMPDEST PUSH1 0x24 CALLDATALOAD SWAP1 PUSH1 0x1 PUSH1 0x1 PUSH1 0xA0 SHL SUB DUP3 AND DUP3 SUB PUSH2 0x2DE JUMPI JUMP JUMPDEST CALLDATALOAD SWAP1 PUSH1 0x1 PUSH1 0x1 PUSH1 0xA0 SHL SUB DUP3 AND DUP3 SUB PUSH2 0x2DE JUMPI JUMP JUMPDEST CALLVALUE PUSH2 0x2DE JUMPI PUSH1 0x40 CALLDATASIZE PUSH1 0x3 NOT ADD SLT PUSH2 0x2DE JUMPI PUSH2 0x58B PUSH2 0x532 JUMP JUMPDEST PUSH1 0x24 CALLDATALOAD SWAP1 PUSH2 0x598 DUP3 PUSH2 0x231B JUMP JUMPDEST CALLER ISZERO ISZERO DUP1 PUSH2 0x65E JUMPI JUMPDEST DUP1 PUSH2 0x630 JUMPI JUMPDEST PUSH2 0x618 JUMPI PUSH2 0x616 SWAP3 PUSH2 0x5F7 SWAP2 DUP2 SWAP1 PUSH1 0x1 PUSH1 0x1 PUSH1 0xA0 SHL SUB DUP6 DUP2 AND SWAP2 AND PUSH32 0x8C5BE1E5EBEC7D5BD14F71427D1E84F3DD0314C0F7B2291E5B200AC8C7C3B925 PUSH1 0x0 DUP1 LOG4 PUSH1 0x0 MSTORE PUSH1 0x6 PUSH1 0x20 MSTORE PUSH1 0x40 PUSH1 0x0 KECCAK256 SWAP1 JUMP JUMPDEST DUP1 SLOAD PUSH1 0x1 PUSH1 0x1 PUSH1 0xA0 SHL SUB NOT AND PUSH1 0x1 PUSH1 0x1 PUSH1 0xA0 SHL SUB SWAP1 SWAP3 AND SWAP2 SWAP1 SWAP2 OR SWAP1 SSTORE JUMP JUMPDEST STOP JUMPDEST PUSH1 0x40 MLOAD PUSH4 0xA9FBF51F PUSH1 0xE0 SHL DUP2 MSTORE CALLER PUSH1 0x4 DUP3 ADD MSTORE PUSH1 0x24 SWAP1 REVERT JUMPDEST POP PUSH1 0x1 PUSH1 0x1 PUSH1 0xA0 SHL SUB DUP2 AND PUSH1 0x0 SWAP1 DUP2 MSTORE PUSH1 0x7 PUSH1 0x20 SWAP1 DUP2 MSTORE PUSH1 0x40 DUP1 DUP4 KECCAK256 CALLER DUP5 MSTORE SWAP1 SWAP2 MSTORE SWAP1 KECCAK256 SLOAD PUSH1 0xFF AND ISZERO PUSH2 0x5A7 JUMP JUMPDEST POP PUSH1 0x1 PUSH1 0x1 PUSH1 0xA0 SHL SUB DUP2 AND CALLER EQ ISZERO PUSH2 0x5A1 JUMP JUMPDEST CALLVALUE PUSH2 0x2DE JUMPI PUSH1 0x0 CALLDATASIZE PUSH1 0x3 NOT ADD SLT PUSH2 0x2DE JUMPI PUSH1 0x20 PUSH1 0xFF PUSH1 0x12 SLOAD AND PUSH1 0x40 MLOAD SWAP1 ISZERO ISZERO DUP2 MSTORE RETURN JUMPDEST PUSH4 0x4E487B71 PUSH1 0xE0 SHL PUSH1 0x0 MSTORE PUSH1 0x32 PUSH1 0x4 MSTORE PUSH1 0x24 PUSH1 0x0 REVERT JUMPDEST DUP1 SLOAD DUP3 LT ISZERO PUSH2 0x6C2 JUMPI PUSH1 0x0 MSTORE PUSH1 0x20 PUSH1 0x0 KECCAK256 ADD SWAP1 PUSH1 0x0 SWAP1 JUMP JUMPDEST PUSH2 0x694 JUMP JUMPDEST CALLVALUE PUSH2 0x2DE JUMPI PUSH1 0x40 CALLDATASIZE PUSH1 0x3 NOT ADD SLT PUSH2 0x2DE JUMPI PUSH2 0x6E0 PUSH2 0x532 JUMP JUMPDEST PUSH1 0x1 PUSH1 0x1 PUSH1 0xA0 SHL SUB AND PUSH1 0x0 SWAP1 DUP2 MSTORE PUSH1 0xC PUSH1 0x20 MSTORE PUSH1 0x40 SWAP1 KECCAK256 DUP1 SLOAD PUSH1 0x24 CALLDATALOAD SWAP2 SWAP1 DUP3 LT ISZERO PUSH2 0x2DE JUMPI PUSH1 0x20 SWAP2 PUSH2 0x711 SWAP2 PUSH2 0x6AA JUMP JUMPDEST SWAP1 SLOAD PUSH1 0x40 MLOAD SWAP2 PUSH1 0x3 SHL SHR DUP2 MSTORE RETURN JUMPDEST CALLVALUE PUSH2 0x2DE JUMPI PUSH1 0x0 CALLDATASIZE PUSH1 0x3 NOT ADD SLT PUSH2 0x2DE JUMPI PUSH1 0x20 PUSH1 0x11 SLOAD PUSH1 0x40 MLOAD SWAP1 DUP2 MSTORE RETURN JUMPDEST CALLVALUE PUSH2 0x2DE JUMPI PUSH1 0x0 CALLDATASIZE PUSH1 0x3 NOT ADD SLT PUSH2 0x2DE JUMPI PUSH1 0x20 PUSH1 0xA SLOAD PUSH1 0x40 MLOAD SWAP1 DUP2 MSTORE RETURN JUMPDEST PUSH1 0x20 CALLDATASIZE PUSH1 0x3 NOT ADD SLT PUSH2 0x2DE JUMPI PUSH1 0x4 CALLDATALOAD PUSH1 0x2 PUSH1 0x9 SLOAD EQ PUSH2 0x8BF JUMPI PUSH1 0x2 PUSH1 0x9 SSTORE PUSH1 0x0 SWAP1 DUP1 DUP3 MSTORE PUSH1 0x4 PUSH1 0x20 MSTORE PUSH1 0x1 DUP1 PUSH1 0xA0 SHL SUB PUSH2 0x79C DUP2 PUSH1 0x40 DUP6 KECCAK256 SLOAD AND ISZERO ISZERO PUSH2 0x2E30 JUMP JUMPDEST PUSH2 0x7B8 PUSH2 0x7B3 DUP4 PUSH1 0x0 MSTORE PUSH1 0xE PUSH1 0x20 MSTORE PUSH1 0x40 PUSH1 0x0 KECCAK256 SWAP1 JUMP JUMPDEST PUSH2 0x2FBC JUMP JUMPDEST PUSH2 0x7CD PUSH2 0x7C8 PUSH1 0x20 DUP4 ADD MLOAD ISZERO ISZERO SWAP1 JUMP JUMPDEST PUSH2 0x2FF9 JUMP JUMPDEST PUSH2 0x7DD PUSH1 0x40 DUP3 ADD MLOAD TIMESTAMP GT ISZERO PUSH2 0x3034 JUMP JUMPDEST PUSH2 0x7EA DUP2 MLOAD CALLVALUE LT ISZERO PUSH2 0x306F JUMP JUMPDEST PUSH2 0x843 DUP4 PUSH2 0x7F7 DUP2 PUSH2 0x231B JUMP JUMPDEST SWAP4 DUP5 AND SWAP4 PUSH2 0x807 DUP6 CALLER EQ ISZERO PUSH2 0x30B2 JUMP JUMPDEST PUSH2 0x830 PUSH2 0x81E DUP4 PUSH1 0x0 MSTORE PUSH1 0xE PUSH1 0x20 MSTORE PUSH1 0x40 PUSH1 0x0 KECCAK256 SWAP1 JUMP JUMPDEST PUSH1 0x2 PUSH1 0x0 SWAP2 DUP3 DUP2 SSTORE DUP3 PUSH1 0x1 DUP3 ADD SSTORE ADD SSTORE JUMP JUMPDEST PUSH2 0x83C DUP2 DUP6 MLOAD DUP5 PUSH2 0x3243 JUMP JUMPDEST CALLER SWAP1 PUSH2 0x3102 JUMP JUMPDEST DUP4 DUP2 MLOAD DUP1 CALLVALUE GT PUSH2 0x88D JUMPI JUMPDEST POP POP MLOAD PUSH1 0x40 MLOAD SWAP1 DUP2 MSTORE CALLER SWAP3 SWAP1 PUSH32 0x94E509512EF6FC3047D708BE2D3A024FCDD63E1B494C696A8213410EBBA2498 SWAP1 PUSH1 0x20 SWAP1 LOG4 PUSH2 0x88A PUSH1 0x1 PUSH1 0x9 SSTORE JUMP JUMPDEST DUP1 RETURN JUMPDEST DUP2 DUP1 PUSH2 0x89A DUP2 SWAP4 CALLVALUE PUSH2 0x30F5 JUMP JUMPDEST DUP2 DUP2 ISZERO PUSH2 0x8B6 JUMPI JUMPDEST CALLER SWAP1 CALL ISZERO PUSH2 0x8B1 JUMPI DUP4 CODESIZE PUSH2 0x84E JUMP JUMPDEST PUSH2 0x23C7 JUMP JUMPDEST POP PUSH2 0x8FC PUSH2 0x8A2 JUMP JUMPDEST PUSH1 0x40 MLOAD PUSH4 0x3EE5AEB5 PUSH1 0xE0 SHL DUP2 MSTORE PUSH1 0x4 SWAP1 REVERT JUMPDEST PUSH1 0x24 CALLDATALOAD SWAP1 DUP2 ISZERO ISZERO DUP3 SUB PUSH2 0x2DE JUMPI JUMP JUMPDEST CALLVALUE PUSH2 0x2DE JUMPI PUSH1 0x40 CALLDATASIZE PUSH1 0x3 NOT ADD SLT PUSH2 0x2DE JUMPI PUSH1 0x4 CALLDATALOAD PUSH2 0x88A PUSH2 0x8FF PUSH2 0x8D1 JUMP JUMPDEST PUSH2 0x908 DUP4 PUSH2 0x231B JUMP JUMPDEST PUSH1 0x1 PUSH1 0x1 PUSH1 0xA0 SHL SUB SWAP4 SWAP1 PUSH2 0x91F SWAP1 DUP6 AND CALLER EQ PUSH2 0x2ED1 JUMP JUMPDEST PUSH2 0x93A PUSH1 0x0 SWAP5 DUP3 DUP7 MSTORE PUSH1 0x4 PUSH1 0x20 MSTORE PUSH1 0x40 DUP7 KECCAK256 SLOAD AND ISZERO ISZERO PUSH2 0x2E30 JUMP JUMPDEST DUP4 MSTORE PUSH1 0xB PUSH1 0x20 MSTORE PUSH1 0x9 PUSH1 0x40 DUP5 KECCAK256 ADD SWAP1 PUSH1 0xFF DUP1 NOT DUP4 SLOAD AND SWAP2 ISZERO ISZERO AND OR SWAP1 SSTORE JUMP JUMPDEST PUSH1 0x60 SWAP1 PUSH1 0x3 NOT ADD SLT PUSH2 0x2DE JUMPI PUSH1 0x1 PUSH1 0x1 PUSH1 0xA0 SHL SUB SWAP1 PUSH1 0x4 CALLDATALOAD DUP3 DUP2 AND DUP2 SUB PUSH2 0x2DE JUMPI SWAP2 PUSH1 0x24 CALLDATALOAD SWAP1 DUP2 AND DUP2 SUB PUSH2 0x2DE JUMPI SWAP1 PUSH1 0x44 CALLDATALOAD SWAP1 JUMP JUMPDEST CALLVALUE PUSH2 0x2DE JUMPI PUSH2 0x616 PUSH2 0x99F CALLDATASIZE PUSH2 0x959 JUMP JUMPDEST SWAP2 PUSH2 0x2184 JUMP JUMPDEST CALLVALUE PUSH2 0x2DE JUMPI PUSH1 0x40 CALLDATASIZE PUSH1 0x3 NOT ADD SLT PUSH2 0x2DE JUMPI PUSH1 0x4 CALLDATALOAD PUSH1 0x0 SWAP1 DUP2 MSTORE PUSH1 0x1 PUSH1 0x20 MSTORE PUSH1 0x40 SWAP1 KECCAK256 SLOAD PUSH1 0x1 PUSH1 0x1 PUSH1 0xA0 SHL SUB DUP1 DUP3 AND SWAP2 PUSH1 0xA0 SHR SWAP1 DUP3 ISZERO PUSH2 0xA15 JUMPI JUMPDEST POP PUSH2 0x9F8 PUSH1 0x1 PUSH1 0x1 PUSH1 0x60 SHL SUB PUSH2 0x2710 SWAP3 AND PUSH1 0x24 CALLDATALOAD PUSH2 0x2530 JUMP JUMPDEST PUSH1 0x40 DUP1 MLOAD PUSH1 0x1 PUSH1 0x1 PUSH1 0xA0 SHL SUB SWAP5 SWAP1 SWAP5 AND DUP5 MSTORE SWAP2 SWAP1 DIV PUSH1 0x20 DUP4 ADD MSTORE SWAP1 RETURN JUMPDEST PUSH1 0x0 SLOAD SWAP1 DUP2 AND SWAP3 POP PUSH1 0xA0 SHR SWAP1 POP PUSH2 0x9F8 PUSH2 0x9DF JUMP JUMPDEST CALLVALUE PUSH2 0x2DE JUMPI PUSH1 0x0 DUP1 PUSH1 0x3 NOT CALLDATASIZE ADD SLT PUSH2 0x4F1 JUMPI PUSH2 0xA44 PUSH2 0x2158 JUMP JUMPDEST SELFBALANCE DUP1 ISZERO PUSH2 0xA7A JUMPI PUSH1 0x8 SLOAD DUP3 SWAP2 DUP3 SWAP2 DUP3 SWAP2 DUP3 SWAP2 PUSH2 0xA70 SWAP1 PUSH1 0x1 PUSH1 0x1 PUSH1 0xA0 SHL SUB AND JUMPDEST PUSH1 0x1 PUSH1 0x1 PUSH1 0xA0 SHL SUB AND SWAP1 JUMP JUMPDEST DUP3 CALL ISZERO PUSH2 0x8B1 JUMPI DUP1 RETURN JUMPDEST PUSH1 0x40 MLOAD PUSH3 0x461BCD PUSH1 0xE5 SHL DUP2 MSTORE PUSH1 0x20 PUSH1 0x4 DUP3 ADD MSTORE PUSH1 0x14 PUSH1 0x24 DUP3 ADD MSTORE PUSH20 0x4E6F2066756E647320746F207769746864726177 PUSH1 0x60 SHL PUSH1 0x44 DUP3 ADD MSTORE PUSH1 0x64 SWAP1 REVERT JUMPDEST PUSH4 0x4E487B71 PUSH1 0xE0 SHL PUSH1 0x0 MSTORE PUSH1 0x41 PUSH1 0x4 MSTORE PUSH1 0x24 PUSH1 0x0 REVERT JUMPDEST PUSH2 0x140 DUP2 ADD SWAP1 DUP2 LT PUSH1 0x1 PUSH1 0x1 PUSH1 0x40 SHL SUB DUP3 GT OR PUSH2 0xAE8 JUMPI PUSH1 0x40 MSTORE JUMP JUMPDEST PUSH2 0xAB6 JUMP JUMPDEST PUSH1 0x60 DUP2 ADD SWAP1 DUP2 LT PUSH1 0x1 PUSH1 0x1 PUSH1 0x40 SHL SUB DUP3 GT OR PUSH2 0xAE8 JUMPI PUSH1 0x40 MSTORE JUMP JUMPDEST PUSH1 0x20 DUP2 ADD SWAP1 DUP2 LT PUSH1 0x1 PUSH1 0x1 PUSH1 0x40 SHL SUB DUP3 GT OR PUSH2 0xAE8 JUMPI PUSH1 0x40 MSTORE JUMP JUMPDEST SWAP1 PUSH1 0x1F DUP1 NOT SWAP2 ADD AND DUP2 ADD SWAP1 DUP2 LT PUSH1 0x1 PUSH1 0x1 PUSH1 0x40 SHL SUB DUP3 GT OR PUSH2 0xAE8 JUMPI PUSH1 0x40 MSTORE JUMP JUMPDEST PUSH1 0x40 MLOAD SWAP1 PUSH2 0xB51 DUP3 PUSH2 0xACC JUMP JUMPDEST JUMP JUMPDEST PUSH1 0x40 MLOAD SWAP1 PUSH2 0xB51 DUP3 PUSH2 0xAED JUMP JUMPDEST PUSH1 0x1 PUSH1 0x1 PUSH1 0x40 SHL SUB DUP2 GT PUSH2 0xAE8 JUMPI PUSH1 0x1F ADD PUSH1 0x1F NOT AND PUSH1 0x20 ADD SWAP1 JUMP JUMPDEST SWAP3 SWAP2 SWAP3 PUSH2 0xB87 DUP3 PUSH2 0xB60 JUMP JUMPDEST SWAP2 PUSH2 0xB95 PUSH1 0x40 MLOAD SWAP4 DUP5 PUSH2 0xB23 JUMP JUMPDEST DUP3 SWAP5 DUP2 DUP5 MSTORE DUP2 DUP4 ADD GT PUSH2 0x2DE JUMPI DUP3 DUP2 PUSH1 0x20 SWAP4 DUP5 PUSH1 0x0 SWAP7 ADD CALLDATACOPY ADD ADD MSTORE JUMP JUMPDEST SWAP1 DUP1 PUSH1 0x1F DUP4 ADD SLT ISZERO PUSH2 0x2DE JUMPI DUP2 PUSH1 0x20 PUSH2 0x40C SWAP4 CALLDATALOAD SWAP2 ADD PUSH2 0xB7B JUMP JUMPDEST CALLVALUE PUSH2 0x2DE JUMPI PUSH1 0x60 CALLDATASIZE PUSH1 0x3 NOT ADD SLT PUSH2 0x2DE JUMPI PUSH1 0x4 CALLDATALOAD PUSH1 0x24 CALLDATALOAD PUSH1 0x1 PUSH1 0x1 PUSH1 0x40 SHL SUB DUP2 GT PUSH2 0x2DE JUMPI PUSH2 0xC00 SWAP1 CALLDATASIZE SWAP1 PUSH1 0x4 ADD PUSH2 0xBB2 JUMP JUMPDEST SWAP1 PUSH1 0x44 CALLDATALOAD PUSH1 0x4 DUP2 LT ISZERO PUSH2 0x2DE JUMPI PUSH32 0x25E180E002263EB2F31D0901BA16EFA8FC931D9350555A3B8567E380C9EF1731 SWAP1 PUSH1 0x0 SWAP4 DUP4 DUP6 MSTORE PUSH1 0x4 PUSH1 0x20 MSTORE PUSH2 0xC8C DUP3 PUSH1 0x7 PUSH1 0x1 DUP1 PUSH1 0xA0 SHL SUB PUSH2 0xC58 DUP2 PUSH1 0x40 DUP12 KECCAK256 SLOAD AND ISZERO ISZERO PUSH2 0x2E30 JUMP JUMPDEST DUP8 DUP10 MSTORE PUSH1 0xB PUSH1 0x20 MSTORE PUSH2 0xC7F PUSH1 0x40 DUP11 KECCAK256 SWAP2 DUP1 PUSH1 0x3 DUP5 ADD SLOAD AND CALLER EQ SWAP1 DUP2 ISZERO PUSH2 0xCB3 JUMPI JUMPDEST POP PUSH2 0x2E73 JUMP JUMPDEST DUP5 MLOAD PUSH2 0xCA1 JUMPI JUMPDEST ADD PUSH2 0x2795 JUMP JUMPDEST PUSH2 0xC9B PUSH1 0x40 MLOAD SWAP3 DUP4 SWAP3 DUP4 PUSH2 0x2EB0 JUMP JUMPDEST SUB SWAP1 LOG2 DUP1 RETURN JUMPDEST PUSH2 0xCAE DUP6 PUSH1 0x1 DUP4 ADD PUSH2 0x26C7 JUMP JUMPDEST PUSH2 0xC86 JUMP JUMPDEST PUSH1 0x8 SLOAD AND PUSH1 0x1 PUSH1 0x1 PUSH1 0xA0 SHL SUB AND SWAP1 POP CALLER EQ CODESIZE PUSH2 0xC79 JUMP JUMPDEST CALLVALUE PUSH2 0x2DE JUMPI PUSH2 0x616 PUSH2 0xCDB CALLDATASIZE PUSH2 0x959 JUMP JUMPDEST SWAP1 PUSH1 0x40 MLOAD SWAP3 PUSH2 0xCE9 DUP5 PUSH2 0xB08 JUMP JUMPDEST PUSH1 0x0 DUP5 MSTORE PUSH2 0xCF8 DUP4 DUP4 DUP4 PUSH2 0x2184 JUMP JUMPDEST CALLER PUSH2 0x2403 JUMP JUMPDEST PUSH1 0x60 SWAP1 PUSH1 0x3 NOT ADD SLT PUSH2 0x2DE JUMPI PUSH1 0x4 CALLDATALOAD SWAP1 PUSH1 0x24 CALLDATALOAD SWAP1 PUSH1 0x44 CALLDATALOAD SWAP1 JUMP JUMPDEST CALLVALUE PUSH2 0x2DE JUMPI PUSH32 0x10239BDD5C74B679554AF458CF0F10870AB12E158E848CDAC9FF21471BD16137 PUSH1 0x40 PUSH2 0xD49 CALLDATASIZE PUSH2 0xCFE JUMP JUMPDEST SWAP4 SWAP2 SWAP3 SWAP1 PUSH2 0xD55 PUSH2 0x2158 JUMP JUMPDEST PUSH1 0x0 DUP5 DUP2 MSTORE PUSH1 0x4 PUSH1 0x20 MSTORE DUP3 DUP2 KECCAK256 SLOAD SWAP1 SWAP6 SWAP1 PUSH2 0xD7A SWAP1 PUSH1 0x1 PUSH1 0x1 PUSH1 0xA0 SHL SUB AND ISZERO ISZERO PUSH2 0x2E30 JUMP JUMPDEST DUP5 DUP7 MSTORE PUSH1 0xB PUSH1 0x20 MSTORE DUP1 PUSH1 0x6 DUP5 DUP9 KECCAK256 DUP5 PUSH1 0x5 DUP3 ADD SSTORE ADD SSTORE DUP3 MLOAD SWAP2 DUP3 MSTORE PUSH1 0x20 DUP3 ADD MSTORE LOG2 DUP1 RETURN JUMPDEST CALLVALUE PUSH2 0x2DE JUMPI PUSH1 0x0 CALLDATASIZE PUSH1 0x3 NOT ADD SLT PUSH2 0x2DE JUMPI PUSH1 0x20 PUSH1 0x10 SLOAD PUSH1 0xA0 SHR PUSH1 0x40 MLOAD SWAP1 DUP2 MSTORE RETURN JUMPDEST PUSH1 0x1 PUSH1 0x1 PUSH1 0x40 SHL SUB DUP2 GT PUSH2 0xAE8 JUMPI PUSH1 0x5 SHL PUSH1 0x20 ADD SWAP1 JUMP JUMPDEST SWAP1 DUP1 PUSH1 0x1F DUP4 ADD SLT ISZERO PUSH2 0x2DE JUMPI DUP2 CALLDATALOAD SWAP1 PUSH2 0xDEE DUP3 PUSH2 0xDBF JUMP JUMPDEST SWAP3 PUSH2 0xDFC PUSH1 0x40 MLOAD SWAP5 DUP6 PUSH2 0xB23 JUMP JUMPDEST DUP3 DUP5 MSTORE PUSH1 0x20 SWAP3 DUP4 DUP1 DUP7 ADD SWAP2 PUSH1 0x5 SHL DUP4 ADD ADD SWAP3 DUP1 DUP5 GT PUSH2 0x2DE JUMPI DUP5 DUP4 ADD SWAP2 JUMPDEST DUP5 DUP4 LT PUSH2 0xE2A JUMPI POP POP POP POP POP POP SWAP1 JUMP JUMPDEST DUP3 CALLDATALOAD PUSH1 0x1 PUSH1 0x1 PUSH1 0x40 SHL SUB DUP2 GT PUSH2 0x2DE JUMPI DUP7 SWAP2 PUSH2 0xE4B DUP5 DUP5 DUP1 SWAP5 DUP10 ADD ADD PUSH2 0xBB2 JUMP JUMPDEST DUP2 MSTORE ADD SWAP3 ADD SWAP2 PUSH2 0xE1A JUMP JUMPDEST DUP2 PUSH1 0x1F DUP3 ADD SLT ISZERO PUSH2 0x2DE JUMPI DUP1 CALLDATALOAD SWAP2 PUSH2 0xE6D DUP4 PUSH2 0xDBF JUMP JUMPDEST SWAP3 PUSH2 0xE7B PUSH1 0x40 MLOAD SWAP5 DUP6 PUSH2 0xB23 JUMP JUMPDEST DUP1 DUP5 MSTORE PUSH1 0x20 SWAP3 DUP4 DUP1 DUP7 ADD SWAP3 PUSH1 0x5 SHL DUP3 ADD ADD SWAP3 DUP4 GT PUSH2 0x2DE JUMPI DUP4 ADD SWAP1 JUMPDEST DUP3 DUP3 LT PUSH2 0xEA5 JUMPI POP POP POP POP SWAP1 JUMP JUMPDEST DUP2 CALLDATALOAD DUP2 MSTORE SWAP1 DUP4 ADD SWAP1 DUP4 ADD PUSH2 0xE97 JUMP JUMPDEST SWAP1 DUP1 PUSH1 0x1F DUP4 ADD SLT ISZERO PUSH2 0x2DE JUMPI DUP2 CALLDATALOAD SWAP1 PUSH2 0xECC DUP3 PUSH2 0xDBF JUMP JUMPDEST SWAP3 PUSH2 0xEDA PUSH1 0x40 MLOAD SWAP5 DUP6 PUSH2 0xB23 JUMP JUMPDEST DUP3 DUP5 MSTORE PUSH1 0x20 SWAP3 DUP4 DUP1 DUP7 ADD SWAP2 PUSH1 0x5 SHL DUP4 ADD ADD SWAP3 DUP1 DUP5 GT PUSH2 0x2DE JUMPI DUP5 DUP4 ADD SWAP2 JUMPDEST DUP5 DUP4 LT PUSH2 0xF08 JUMPI POP POP POP POP POP POP SWAP1 JUMP JUMPDEST DUP3 CALLDATALOAD PUSH1 0x1 PUSH1 0x1 PUSH1 0x40 SHL SUB DUP2 GT PUSH2 0x2DE JUMPI DUP7 SWAP2 PUSH2 0xF29 DUP5 DUP5 DUP1 SWAP5 DUP10 ADD ADD PUSH2 0xE56 JUMP JUMPDEST DUP2 MSTORE ADD SWAP3 ADD SWAP2 PUSH2 0xEF8 JUMP JUMPDEST CALLVALUE PUSH2 0x2DE JUMPI PUSH1 0x80 CALLDATASIZE PUSH1 0x3 NOT ADD SLT PUSH2 0x2DE JUMPI PUSH1 0x1 PUSH1 0x1 PUSH1 0x40 SHL SUB PUSH1 0x4 CALLDATALOAD DUP2 DUP2 GT PUSH2 0x2DE JUMPI CALLDATASIZE PUSH1 0x23 DUP3 ADD SLT ISZERO PUSH2 0x2DE JUMPI DUP1 PUSH1 0x4 ADD CALLDATALOAD PUSH2 0xF70 DUP2 PUSH2 0xDBF JUMP JUMPDEST SWAP2 PUSH2 0xF7E PUSH1 0x40 MLOAD SWAP4 DUP5 PUSH2 0xB23 JUMP JUMPDEST DUP2 DUP4 MSTORE PUSH1 0x20 SWAP2 PUSH1 0x24 DUP4 DUP6 ADD SWAP2 PUSH1 0x5 SHL DUP4 ADD ADD SWAP2 CALLDATASIZE DUP4 GT PUSH2 0x2DE JUMPI PUSH1 0x24 ADD SWAP1 JUMPDEST DUP3 DUP3 LT PUSH2 0xFF8 JUMPI DUP6 DUP6 PUSH1 0x24 CALLDATALOAD DUP3 DUP2 GT PUSH2 0x2DE JUMPI PUSH2 0xFBE SWAP1 CALLDATASIZE SWAP1 PUSH1 0x4 ADD PUSH2 0xDD6 JUMP JUMPDEST PUSH1 0x44 CALLDATALOAD DUP4 DUP2 GT PUSH2 0x2DE JUMPI PUSH2 0xFD6 SWAP1 CALLDATASIZE SWAP1 PUSH1 0x4 ADD PUSH2 0xDD6 JUMP JUMPDEST SWAP1 PUSH1 0x64 CALLDATALOAD SWAP4 DUP5 GT PUSH2 0x2DE JUMPI PUSH2 0xFF2 PUSH2 0x616 SWAP5 CALLDATASIZE SWAP1 PUSH1 0x4 ADD PUSH2 0xEB4 JUMP JUMPDEST SWAP3 PUSH2 0x2D40 JUMP JUMPDEST DUP4 DUP1 SWAP2 PUSH2 0x1004 DUP5 PUSH2 0x55E JUMP JUMPDEST DUP2 MSTORE ADD SWAP2 ADD SWAP1 PUSH2 0xF9D JUMP JUMPDEST CALLVALUE PUSH2 0x2DE JUMPI PUSH1 0x20 CALLDATASIZE PUSH1 0x3 NOT ADD SLT PUSH2 0x2DE JUMPI PUSH1 0x20 PUSH2 0x102D PUSH1 0x4 CALLDATALOAD PUSH2 0x231B JUMP JUMPDEST PUSH1 0x40 MLOAD PUSH1 0x1 PUSH1 0x1 PUSH1 0xA0 SHL SUB SWAP1 SWAP2 AND DUP2 MSTORE RETURN JUMPDEST PUSH1 0x80 CALLDATASIZE PUSH1 0x3 NOT ADD SLT PUSH2 0x2DE JUMPI PUSH2 0x1053 PUSH2 0x532 JUMP JUMPDEST PUSH1 0x1 PUSH1 0x1 PUSH1 0x40 SHL SUB SWAP1 PUSH1 0x24 CALLDATALOAD DUP3 DUP2 GT PUSH2 0x2DE JUMPI PUSH2 0x1074 SWAP1 CALLDATASIZE SWAP1 PUSH1 0x4 ADD PUSH2 0xBB2 JUMP JUMPDEST SWAP2 PUSH1 0x44 CALLDATALOAD DUP2 DUP2 GT PUSH2 0x2DE JUMPI PUSH2 0x108D SWAP1 CALLDATASIZE SWAP1 PUSH1 0x4 ADD PUSH2 0xBB2 JUMP JUMPDEST SWAP1 PUSH1 0x64 CALLDATALOAD SWAP1 DUP2 GT PUSH2 0x2DE JUMPI PUSH2 0x10A6 SWAP1 CALLDATASIZE SWAP1 PUSH1 0x4 ADD PUSH2 0xE56 JUMP JUMPDEST SWAP1 DUP4 MLOAD DUP1 ISZERO ISZERO SWAP1 DUP2 PUSH2 0x1166 JUMPI JUMPDEST POP ISZERO PUSH2 0x112A JUMPI DUP1 MLOAD ISZERO PUSH2 0x10F0 JUMPI PUSH2 0x468 SWAP4 PUSH2 0x10E0 SWAP4 PUSH2 0x10DB PUSH2 0x10D4 DUP5 PUSH2 0x1189 JUMP JUMPDEST SLOAD ISZERO PUSH2 0x2543 JUMP JUMPDEST PUSH2 0x294E JUMP JUMPDEST PUSH1 0x40 MLOAD SWAP1 DUP2 MSTORE SWAP1 DUP2 SWAP1 PUSH1 0x20 DUP3 ADD SWAP1 JUMP JUMPDEST PUSH1 0x40 MLOAD PUSH3 0x461BCD PUSH1 0xE5 SHL DUP2 MSTORE PUSH1 0x20 PUSH1 0x4 DUP3 ADD MSTORE PUSH1 0x12 PUSH1 0x24 DUP3 ADD MSTORE PUSH18 0x12541194C81A185CDA081C995C5D5A5C9959 PUSH1 0x72 SHL PUSH1 0x44 DUP3 ADD MSTORE PUSH1 0x64 SWAP1 REVERT JUMPDEST PUSH1 0x40 MLOAD PUSH3 0x461BCD PUSH1 0xE5 SHL DUP2 MSTORE PUSH1 0x20 PUSH1 0x4 DUP3 ADD MSTORE PUSH1 0x14 PUSH1 0x24 DUP3 ADD MSTORE PUSH20 0x92DCECC2D8D2C840E8D2E8D8CA40D8CADCCEE8D PUSH1 0x63 SHL PUSH1 0x44 DUP3 ADD MSTORE PUSH1 0x64 SWAP1 REVERT JUMPDEST PUSH1 0xC8 SWAP2 POP GT ISZERO CODESIZE PUSH2 0x10B3 JUMP JUMPDEST SWAP1 PUSH2 0x1185 PUSH1 0x20 SWAP3 DUP3 DUP2 MLOAD SWAP5 DUP6 SWAP3 ADD PUSH2 0x3B3 JUMP JUMPDEST ADD SWAP1 JUMP JUMPDEST PUSH1 0x20 PUSH2 0x11A2 SWAP2 DUP2 PUSH1 0x40 MLOAD SWAP4 DUP3 DUP6 DUP1 SWAP5 MLOAD SWAP4 DUP5 SWAP3 ADD PUSH2 0x3B3 JUMP JUMPDEST DUP2 ADD PUSH1 0xD DUP2 MSTORE SUB ADD SWAP1 KECCAK256 SWAP1 JUMP JUMPDEST CALLVALUE PUSH2 0x2DE JUMPI PUSH1 0x20 CALLDATASIZE PUSH1 0x3 NOT ADD SLT PUSH2 0x2DE JUMPI PUSH1 0x4 CALLDATALOAD PUSH1 0x1 PUSH1 0x1 PUSH1 0x40 SHL SUB DUP2 GT PUSH2 0x2DE JUMPI PUSH2 0x11E9 PUSH2 0x11E4 PUSH1 0x20 SWAP3 CALLDATASIZE SWAP1 PUSH1 0x4 ADD PUSH2 0xBB2 JUMP JUMPDEST PUSH2 0x1189 JUMP JUMPDEST SLOAD PUSH1 0x40 MLOAD SWAP1 DUP2 MSTORE RETURN JUMPDEST CALLVALUE PUSH2 0x2DE JUMPI PUSH1 0x20 CALLDATASIZE PUSH1 0x3 NOT ADD SLT PUSH2 0x2DE JUMPI PUSH1 0x1 PUSH1 0x1 PUSH1 0xA0 SHL SUB PUSH2 0x1213 PUSH2 0x532 JUMP JUMPDEST AND DUP1 ISZERO PUSH2 0x1232 JUMPI PUSH1 0x0 MSTORE PUSH1 0x5 PUSH1 0x20 MSTORE PUSH1 0x20 PUSH1 0x40 PUSH1 0x0 KECCAK256 SLOAD PUSH1 0x40 MLOAD SWAP1 DUP2 MSTORE RETURN JUMPDEST PUSH1 0x40 MLOAD PUSH4 0x22718AD9 PUSH1 0xE2 SHL DUP2 MSTORE PUSH1 0x0 PUSH1 0x4 DUP3 ADD MSTORE PUSH1 0x24 SWAP1 REVERT JUMPDEST CALLVALUE PUSH2 0x2DE JUMPI PUSH1 0x0 DUP1 PUSH1 0x3 NOT CALLDATASIZE ADD SLT PUSH2 0x4F1 JUMPI PUSH2 0x1265 PUSH2 0x2158 JUMP JUMPDEST PUSH1 0x8 DUP1 SLOAD PUSH1 0x1 PUSH1 0x1 PUSH1 0xA0 SHL SUB NOT DUP2 AND SWAP1 SWAP2 SSTORE DUP2 SWAP1 PUSH1 0x1 PUSH1 0x1 PUSH1 0xA0 SHL SUB AND PUSH32 0x8BE0079C531659141344CD1FD0A4F28419497F9722A3DAAFE3B4186F6B6457E0 DUP3 DUP1 LOG3 DUP1 RETURN JUMPDEST CALLVALUE PUSH2 0x2DE JUMPI PUSH1 0x20 CALLDATASIZE PUSH1 0x3 NOT ADD SLT PUSH2 0x2DE JUMPI PUSH1 0x4 CALLDATALOAD DUP1 ISZERO ISZERO DUP1 SWAP2 SUB PUSH2 0x2DE JUMPI PUSH2 0x12CF PUSH2 0x2158 JUMP JUMPDEST PUSH1 0xFF DUP1 NOT PUSH1 0x12 SLOAD AND SWAP2 AND OR PUSH1 0x12 SSTORE PUSH1 0x0 DUP1 RETURN JUMPDEST PUSH1 0x20 SWAP1 DUP2 PUSH1 0x40 DUP2 DUP4 ADD SWAP3 DUP3 DUP2 MSTORE DUP6 MLOAD DUP1 SWAP5 MSTORE ADD SWAP4 ADD SWAP2 PUSH1 0x0 JUMPDEST DUP3 DUP2 LT PUSH2 0x1309 JUMPI POP POP POP POP SWAP1 JUMP JUMPDEST DUP4 MLOAD DUP6 MSTORE SWAP4 DUP2 ADD SWAP4 SWAP3 DUP2 ADD SWAP3 PUSH1 0x1 ADD PUSH2 0x12FB JUMP JUMPDEST CALLVALUE PUSH2 0x2DE JUMPI PUSH1 0x20 DUP1 PUSH1 0x3 NOT CALLDATASIZE ADD SLT PUSH2 0x2DE JUMPI PUSH1 0x1 PUSH1 0x1 PUSH1 0xA0 SHL SUB PUSH2 0x133F PUSH2 0x532 JUMP JUMPDEST AND PUSH1 0x0 MSTORE PUSH1 0xC DUP2 MSTORE PUSH1 0x40 PUSH1 0x0 KECCAK256 SWAP1 PUSH1 0x40 MLOAD SWAP1 DUP2 DUP2 DUP5 SLOAD SWAP2 DUP3 DUP2 MSTORE ADD SWAP4 PUSH1 0x0 MSTORE DUP2 PUSH1 0x0 KECCAK256 SWAP2 PUSH1 0x0 SWAP1 JUMPDEST DUP3 DUP3 LT PUSH2 0x138A JUMPI PUSH2 0x468 DUP6 PUSH2 0x137E DUP2 DUP10 SUB DUP3 PUSH2 0xB23 JUMP JUMPDEST PUSH1 0x40 MLOAD SWAP2 DUP3 SWAP2 DUP3 PUSH2 0x12E2 JUMP JUMPDEST DUP4 SLOAD DUP7 MSTORE SWAP5 DUP6 ADD SWAP5 PUSH1 0x1 SWAP4 DUP5 ADD SWAP4 SWAP1 SWAP2 ADD SWAP1 PUSH2 0x1367 JUMP JUMPDEST PUSH1 0x4 GT ISZERO PUSH2 0x13AB JUMPI JUMP JUMPDEST PUSH4 0x4E487B71 PUSH1 0xE0 SHL PUSH1 0x0 MSTORE PUSH1 0x21 PUSH1 0x4 MSTORE PUSH1 0x24 PUSH1 0x0 REVERT JUMPDEST SWAP1 PUSH1 0x4 DUP3 LT ISZERO PUSH2 0x13AB JUMPI MSTORE JUMP JUMPDEST SWAP1 DUP2 MLOAD DUP1 DUP3 MSTORE PUSH1 0x20 DUP1 DUP1 SWAP4 ADD SWAP4 ADD SWAP2 PUSH1 0x0 JUMPDEST DUP3 DUP2 LT PUSH2 0x13EE JUMPI POP POP POP POP SWAP1 JUMP JUMPDEST DUP4 MLOAD DUP6 MSTORE SWAP4 DUP2 ADD SWAP4 SWAP3 DUP2 ADD SWAP3 PUSH1 0x1 ADD PUSH2 0x13E0 JUMP JUMPDEST PUSH2 0x40C SWAP1 PUSH1 0x20 DUP2 MSTORE DUP3 MLOAD PUSH1 0x20 DUP3 ADD MSTORE PUSH1 0x20 DUP4 ADD MLOAD PUSH2 0x142E PUSH2 0x140 SWAP2 DUP3 PUSH1 0x40 DUP6 ADD MSTORE PUSH2 0x160 DUP5 ADD SWAP1 PUSH2 0x3D6 JUMP JUMPDEST PUSH2 0x14A7 PUSH2 0x144D PUSH1 0x40 DUP8 ADD MLOAD SWAP3 PUSH1 0x1F NOT SWAP4 DUP5 DUP8 DUP4 SUB ADD PUSH1 0x60 DUP9 ADD MSTORE PUSH2 0x3D6 JUMP JUMPDEST PUSH1 0x60 DUP8 ADD MLOAD PUSH1 0x1 PUSH1 0x1 PUSH1 0xA0 SHL SUB AND PUSH1 0x80 DUP7 ADD MSTORE PUSH1 0x80 DUP8 ADD MLOAD PUSH1 0xA0 DUP7 ADD MSTORE PUSH1 0xA0 DUP8 ADD MLOAD PUSH1 0xC0 DUP7 ADD MSTORE PUSH1 0xC0 DUP8 ADD MLOAD PUSH1 0xE0 DUP7 ADD MSTORE PUSH1 0xE0 DUP8 ADD MLOAD PUSH2 0x1493 PUSH2 0x100 SWAP2 DUP3 DUP9 ADD SWAP1 PUSH2 0x13C1 JUMP JUMPDEST DUP8 ADD MLOAD PUSH2 0x120 SWAP4 DUP7 DUP4 SUB ADD DUP5 DUP8 ADD MSTORE PUSH2 0x13CE JUMP JUMPDEST SWAP5 ADD MLOAD ISZERO ISZERO SWAP2 ADD MSTORE JUMP JUMPDEST CALLVALUE PUSH2 0x2DE JUMPI PUSH1 0x20 CALLDATASIZE PUSH1 0x3 NOT ADD SLT PUSH2 0x2DE JUMPI PUSH2 0x468 PUSH1 0x4 CALLDATALOAD PUSH1 0x40 PUSH2 0x15DF DUP2 MLOAD PUSH2 0x14D8 DUP2 PUSH2 0xACC JUMP JUMPDEST PUSH2 0x15D7 PUSH1 0x9 DUP5 PUSH1 0x0 DUP1 DUP6 MSTORE PUSH1 0x60 PUSH1 0x20 DUP7 ADD MSTORE PUSH1 0x60 DUP3 DUP7 ADD MSTORE DUP1 PUSH1 0x60 DUP7 ADD MSTORE DUP1 PUSH1 0x80 DUP7 ADD MSTORE DUP1 PUSH1 0xA0 DUP7 ADD MSTORE DUP1 PUSH1 0xC0 DUP7 ADD MSTORE DUP1 PUSH1 0xE0 DUP7 ADD MSTORE PUSH2 0x100 SWAP8 PUSH1 0x60 DUP10 DUP8 ADD MSTORE DUP2 PUSH2 0x120 DUP1 SWAP8 ADD MSTORE DUP1 DUP3 MSTORE PUSH1 0x4 PUSH1 0x20 MSTORE PUSH2 0x153E PUSH1 0x1 DUP1 PUSH1 0xA0 SHL SUB DUP5 DUP5 KECCAK256 SLOAD AND ISZERO ISZERO PUSH2 0x2E30 JUMP JUMPDEST DUP2 MSTORE PUSH1 0xB PUSH1 0x20 MSTORE KECCAK256 PUSH2 0x154E PUSH2 0xB44 JUMP JUMPDEST SWAP7 DUP2 SLOAD DUP9 MSTORE PUSH2 0x155F PUSH1 0x1 DUP4 ADD PUSH2 0x1E8A JUMP JUMPDEST PUSH1 0x20 DUP10 ADD MSTORE PUSH2 0x1570 PUSH1 0x2 DUP4 ADD PUSH2 0x1E8A JUMP JUMPDEST DUP8 DUP10 ADD MSTORE PUSH1 0x3 DUP3 ADD SLOAD PUSH1 0x1 PUSH1 0x1 PUSH1 0xA0 SHL SUB AND PUSH1 0x60 DUP10 ADD MSTORE PUSH1 0x4 DUP3 ADD SLOAD PUSH1 0x80 DUP10 ADD MSTORE PUSH1 0x5 DUP3 ADD SLOAD PUSH1 0xA0 DUP10 ADD MSTORE PUSH1 0x6 DUP3 ADD SLOAD PUSH1 0xC0 DUP10 ADD MSTORE PUSH2 0x15BF PUSH2 0x15B6 PUSH1 0x7 DUP5 ADD SLOAD PUSH1 0xFF AND SWAP1 JUMP JUMPDEST PUSH1 0xE0 DUP11 ADD PUSH2 0x2667 JUMP JUMPDEST PUSH2 0x15CB PUSH1 0x8 DUP4 ADD PUSH2 0x314D JUMP JUMPDEST SWAP1 DUP9 ADD MSTORE ADD SLOAD PUSH1 0xFF AND SWAP1 JUMP JUMPDEST ISZERO ISZERO SWAP1 DUP5 ADD MSTORE JUMP JUMPDEST MLOAD SWAP2 DUP3 SWAP2 DUP3 PUSH2 0x1402 JUMP JUMPDEST CALLVALUE PUSH2 0x2DE JUMPI PUSH1 0x0 CALLDATASIZE PUSH1 0x3 NOT ADD SLT PUSH2 0x2DE JUMPI PUSH1 0x20 PUSH1 0xF SLOAD PUSH1 0x40 MLOAD SWAP1 DUP2 MSTORE RETURN JUMPDEST CALLVALUE PUSH2 0x2DE JUMPI PUSH1 0x0 CALLDATASIZE PUSH1 0x3 NOT ADD SLT PUSH2 0x2DE JUMPI PUSH1 0x8 SLOAD PUSH1 0x40 MLOAD PUSH1 0x1 PUSH1 0x1 PUSH1 0xA0 SHL SUB SWAP1 SWAP2 AND DUP2 MSTORE PUSH1 0x20 SWAP1 RETURN JUMPDEST CALLVALUE PUSH2 0x2DE JUMPI PUSH1 0x0 DUP1 PUSH1 0x3 NOT CALLDATASIZE ADD SLT PUSH2 0x4F1 JUMPI PUSH1 0x40 MLOAD SWAP1 DUP1 PUSH1 0x3 SLOAD PUSH2 0x1653 DUP2 PUSH2 0x1DBA JUMP JUMPDEST DUP1 DUP6 MSTORE SWAP2 PUSH1 0x1 SWAP2 DUP1 DUP4 AND SWAP1 DUP2 ISZERO PUSH2 0x4C7 JUMPI POP PUSH1 0x1 EQ PUSH2 0x167C JUMPI PUSH2 0x468 DUP6 PUSH2 0x45C DUP2 DUP8 SUB DUP3 PUSH2 0xB23 JUMP JUMPDEST SWAP3 POP PUSH1 0x3 DUP4 MSTORE PUSH32 0xC2575A0E9E593C00F959F8C92F12DB2869C3395A3B0502D05E2516446F71F85B JUMPDEST DUP3 DUP5 LT PUSH2 0x16BF JUMPI POP POP POP DUP2 ADD PUSH1 0x20 ADD PUSH2 0x45C DUP3 PUSH2 0x468 PUSH2 0x44C JUMP JUMPDEST DUP1 SLOAD PUSH1 0x20 DUP6 DUP8 ADD DUP2 ADD SWAP2 SWAP1 SWAP2 MSTORE SWAP1 SWAP4 ADD SWAP3 DUP2 ADD PUSH2 0x16A4 JUMP JUMPDEST CALLVALUE PUSH2 0x2DE JUMPI PUSH1 0x20 DUP1 PUSH1 0x3 NOT CALLDATASIZE ADD SLT PUSH2 0x2DE JUMPI PUSH1 0x4 CALLDATALOAD PUSH1 0x1 PUSH1 0x1 PUSH1 0x40 SHL SUB DUP2 GT PUSH2 0x2DE JUMPI CALLDATASIZE PUSH1 0x23 DUP3 ADD SLT ISZERO PUSH2 0x2DE JUMPI DUP1 PUSH1 0x4 ADD CALLDATALOAD SWAP1 PUSH2 0x1714 DUP3 PUSH2 0xDBF JUMP JUMPDEST SWAP2 PUSH2 0x1722 PUSH1 0x40 MLOAD SWAP4 DUP5 PUSH2 0xB23 JUMP JUMPDEST DUP1 DUP4 MSTORE PUSH1 0x24 DUP5 DUP5 ADD SWAP2 PUSH1 0x5 SHL DUP4 ADD ADD SWAP2 CALLDATASIZE DUP4 GT PUSH2 0x2DE JUMPI PUSH1 0x24 ADD SWAP1 JUMPDEST DUP3 DUP3 LT PUSH2 0x174E JUMPI PUSH2 0x616 DUP5 PUSH2 0x35CE JUMP JUMPDEST DUP2 CALLDATALOAD DUP2 MSTORE SWAP1 DUP5 ADD SWAP1 DUP5 ADD PUSH2 0x173E JUMP JUMPDEST CALLVALUE PUSH2 0x2DE JUMPI PUSH1 0x40 CALLDATASIZE PUSH1 0x3 NOT ADD SLT PUSH2 0x2DE JUMPI PUSH2 0x1776 PUSH2 0x532 JUMP JUMPDEST PUSH2 0x177E PUSH2 0x8D1 JUMP JUMPDEST PUSH1 0x1 PUSH1 0x1 PUSH1 0xA0 SHL SUB DUP3 AND SWAP2 DUP3 ISZERO PUSH2 0x17FD JUMPI DUP2 PUSH2 0x17BC PUSH2 0x17CD SWAP3 CALLER PUSH1 0x0 MSTORE PUSH1 0x7 PUSH1 0x20 MSTORE PUSH1 0x40 PUSH1 0x0 KECCAK256 SWAP1 PUSH1 0x1 DUP1 PUSH1 0xA0 SHL SUB AND PUSH1 0x0 MSTORE PUSH1 0x20 MSTORE PUSH1 0x40 PUSH1 0x0 KECCAK256 SWAP1 JUMP JUMPDEST SWAP1 PUSH1 0xFF DUP1 NOT DUP4 SLOAD AND SWAP2 ISZERO ISZERO AND OR SWAP1 SSTORE JUMP JUMPDEST PUSH1 0x40 MLOAD SWAP1 ISZERO ISZERO DUP2 MSTORE PUSH32 0x17307EAB39AB6107E8899845AD3D59BD9653F200F220920489CA2B5937696C31 PUSH1 0x20 CALLER SWAP3 LOG3 STOP JUMPDEST PUSH1 0x40 MLOAD PUSH4 0xB611743 PUSH1 0xE3 SHL DUP2 MSTORE PUSH1 0x4 DUP2 ADD DUP5 SWAP1 MSTORE PUSH1 0x24 SWAP1 REVERT JUMPDEST CALLVALUE PUSH2 0x2DE JUMPI PUSH1 0x80 CALLDATASIZE PUSH1 0x3 NOT ADD SLT PUSH2 0x2DE JUMPI PUSH2 0x182F PUSH2 0x532 JUMP JUMPDEST PUSH2 0x1837 PUSH2 0x548 JUMP JUMPDEST SWAP1 PUSH1 0x44 CALLDATALOAD PUSH1 0x64 CALLDATALOAD SWAP3 PUSH1 0x1 PUSH1 0x1 PUSH1 0x40 SHL SUB DUP5 GT PUSH2 0x2DE JUMPI CALLDATASIZE PUSH1 0x23 DUP6 ADD SLT ISZERO PUSH2 0x2DE JUMPI PUSH2 0x186F PUSH2 0x616 SWAP5 CALLDATASIZE SWAP1 PUSH1 0x24 DUP2 PUSH1 0x4 ADD CALLDATALOAD SWAP2 ADD PUSH2 0xB7B JUMP JUMPDEST SWAP3 PUSH2 0xCF8 DUP4 DUP4 DUP4 PUSH2 0x2184 JUMP JUMPDEST CALLVALUE PUSH2 0x2DE JUMPI PUSH1 0x20 CALLDATASIZE PUSH1 0x3 NOT ADD SLT PUSH2 0x2DE JUMPI PUSH1 0x4 CALLDATALOAD PUSH2 0x1898 DUP2 PUSH2 0x231B JUMP JUMPDEST PUSH1 0x1 PUSH1 0x1 PUSH1 0xA0 SHL SUB SWAP2 SWAP1 PUSH2 0x18AF SWAP1 DUP4 AND CALLER EQ PUSH2 0x2ED1 JUMP JUMPDEST PUSH2 0x18CA PUSH1 0x0 SWAP3 DUP3 DUP5 MSTORE PUSH1 0x4 PUSH1 0x20 MSTORE PUSH1 0x40 DUP5 KECCAK256 SLOAD AND ISZERO ISZERO PUSH2 0x2E30 JUMP JUMPDEST DUP2 MSTORE PUSH1 0xE PUSH1 0x20 MSTORE PUSH2 0x88A PUSH1 0x40 DUP3 KECCAK256 PUSH1 0x2 PUSH1 0x0 SWAP2 DUP3 DUP2 SSTORE DUP3 PUSH1 0x1 DUP3 ADD SSTORE ADD SSTORE JUMP JUMPDEST CALLVALUE PUSH2 0x2DE JUMPI PUSH1 0x20 CALLDATASIZE PUSH1 0x3 NOT ADD SLT PUSH2 0x2DE JUMPI PUSH1 0x4 CALLDATALOAD DUP1 PUSH1 0x0 MSTORE PUSH1 0x4 PUSH1 0x20 MSTORE PUSH1 0x1 PUSH1 0xA0 SHL PUSH1 0x1 SWAP1 SUB PUSH1 0x40 PUSH1 0x0 KECCAK256 SLOAD AND ISZERO ISZERO PUSH2 0x1922 SWAP1 PUSH2 0x2E30 JUMP JUMPDEST PUSH2 0x1936 DUP2 PUSH1 0x0 MSTORE PUSH1 0xB PUSH1 0x20 MSTORE PUSH1 0x40 PUSH1 0x0 KECCAK256 SWAP1 JUMP JUMPDEST PUSH2 0x193F SWAP1 PUSH2 0x319C JUMP JUMPDEST PUSH1 0x20 DUP2 ADD MLOAD SWAP1 PUSH1 0x40 DUP2 ADD MLOAD SWAP3 PUSH2 0x1954 SWAP1 PUSH2 0x3695 JUMP JUMPDEST PUSH1 0x60 DUP3 ADD MLOAD SWAP1 SWAP2 SWAP1 PUSH2 0x196E SWAP1 PUSH1 0x1 PUSH1 0x1 PUSH1 0xA0 SHL SUB AND PUSH2 0x382F JUMP JUMPDEST PUSH1 0x80 DUP3 ADD MLOAD PUSH2 0x197C SWAP1 PUSH2 0x3695 JUMP JUMPDEST SWAP1 PUSH1 0xA0 DUP4 ADD MLOAD PUSH2 0x198B SWAP1 PUSH2 0x3695 JUMP JUMPDEST SWAP3 PUSH1 0xC0 ADD MLOAD PUSH2 0x1999 SWAP1 PUSH2 0x3695 JUMP JUMPDEST PUSH1 0x40 MLOAD PUSH9 0x3D913730B6B2911D11 PUSH1 0xB9 SHL PUSH1 0x20 DUP3 ADD MSTORE SWAP7 DUP8 SWAP7 SWAP2 SWAP6 SWAP2 PUSH1 0x29 DUP9 ADD PUSH2 0x19C1 SWAP2 PUSH2 0x1172 JUMP JUMPDEST PUSH2 0x88B PUSH1 0xF2 SHL DUP2 MSTORE PUSH1 0x2 ADD PUSH32 0x226465736372697074696F6E223A224D6F76696557726974652041727469636C DUP2 MSTORE PUSH7 0x1948139195088B PUSH1 0xCA SHL PUSH1 0x20 DUP3 ADD MSTORE PUSH1 0x27 ADD PUSH32 0x22696D616765223A2268747470733A2F2F676174657761792E70696E6174612E DUP2 MSTORE PUSH11 0x636C6F75642F697066732F PUSH1 0xA8 SHL PUSH1 0x20 DUP3 ADD MSTORE PUSH1 0x2B ADD PUSH2 0x1A45 SWAP2 PUSH2 0x1172 JUMP JUMPDEST PUSH2 0x88B PUSH1 0xF2 SHL DUP2 MSTORE PUSH1 0x2 ADD PUSH32 0x2265787465726E616C5F75726C223A2268747470733A2F2F6D6F766965777269 DUP2 MSTORE PUSH18 0x74652E78797A2F696E646976696475616C2F PUSH1 0x70 SHL PUSH1 0x20 DUP3 ADD MSTORE PUSH1 0x32 ADD PUSH2 0x1A9A SWAP2 PUSH2 0x1172 JUMP JUMPDEST PUSH2 0x88B PUSH1 0xF2 SHL DUP2 MSTORE PUSH1 0x2 ADD PUSH14 0x2261747472696275746573223A5B PUSH1 0x90 SHL DUP2 MSTORE PUSH1 0xE ADD PUSH32 0x7B2274726169745F74797065223A22417574686F72222C2276616C7565223A22 DUP2 MSTORE PUSH1 0x20 ADD PUSH2 0x1AEB SWAP2 PUSH2 0x1172 JUMP JUMPDEST PUSH3 0x89F4B PUSH1 0xEA SHL DUP2 MSTORE PUSH1 0x3 ADD PUSH32 0x7B2274726169745F74797065223A225075626C6973686564222C2276616C7565 DUP2 MSTORE PUSH3 0x111D11 PUSH1 0xE9 SHL PUSH1 0x20 DUP3 ADD MSTORE PUSH1 0x23 ADD PUSH2 0x1B32 SWAP2 PUSH2 0x1172 JUMP JUMPDEST PUSH3 0x89F4B PUSH1 0xEA SHL DUP2 MSTORE PUSH1 0x3 ADD PUSH32 0x7B2274726169745F74797065223A225669657773222C2276616C7565223A2200 DUP2 MSTORE PUSH1 0x1F ADD PUSH2 0x1B6D SWAP2 PUSH2 0x1172 JUMP JUMPDEST PUSH3 0x89F4B PUSH1 0xEA SHL DUP2 MSTORE PUSH1 0x3 ADD PUSH32 0x7B2274726169745F74797065223A224C696B6573222C2276616C7565223A2200 DUP2 MSTORE PUSH1 0x1F ADD PUSH2 0x1BA8 SWAP2 PUSH2 0x1172 JUMP JUMPDEST PUSH2 0x227D PUSH1 0xF0 SHL DUP2 MSTORE PUSH1 0x2 ADD PUSH2 0x5D7D PUSH1 0xF0 SHL DUP2 MSTORE PUSH1 0x2 ADD SUB SWAP1 PUSH1 0x1F NOT SWAP2 DUP3 DUP2 ADD DUP3 MSTORE PUSH2 0x1BD3 SWAP1 DUP3 PUSH2 0xB23 JUMP JUMPDEST PUSH2 0x1BDC SWAP1 PUSH2 0x3927 JUMP JUMPDEST PUSH1 0x40 MLOAD PUSH32 0x646174613A6170706C69636174696F6E2F6A736F6E3B6261736536342C000000 PUSH1 0x20 DUP3 ADD MSTORE SWAP2 SWAP1 DUP3 SWAP1 PUSH1 0x3D DUP3 ADD PUSH2 0x1C16 SWAP2 PUSH2 0x1172 JUMP JUMPDEST SUB SWAP1 DUP2 ADD DUP3 MSTORE PUSH2 0x1C26 SWAP1 DUP3 PUSH2 0xB23 JUMP JUMPDEST PUSH1 0x40 MLOAD PUSH2 0x468 DUP2 SWAP3 DUP3 PUSH2 0x3FB JUMP JUMPDEST CALLVALUE PUSH2 0x2DE JUMPI PUSH1 0x20 CALLDATASIZE PUSH1 0x3 NOT ADD SLT PUSH2 0x2DE JUMPI PUSH1 0x4 CALLDATALOAD PUSH2 0x1C50 PUSH2 0x2158 JUMP JUMPDEST PUSH2 0x3E8 DUP2 GT PUSH2 0x1C5E JUMPI PUSH1 0xF SSTORE STOP JUMPDEST PUSH1 0x40 MLOAD PUSH3 0x461BCD PUSH1 0xE5 SHL DUP2 MSTORE PUSH1 0x20 PUSH1 0x4 DUP3 ADD MSTORE PUSH1 0xC PUSH1 0x24 DUP3 ADD MSTORE PUSH12 0x8CCACA40E8DEDE40D0D2CED PUSH1 0xA3 SHL PUSH1 0x44 DUP3 ADD MSTORE PUSH1 0x64 SWAP1 REVERT JUMPDEST CALLVALUE PUSH2 0x2DE JUMPI PUSH1 0x40 CALLDATASIZE PUSH1 0x3 NOT ADD SLT PUSH2 0x2DE JUMPI PUSH1 0x24 CALLDATALOAD PUSH1 0x4 CALLDATALOAD PUSH1 0x1 PUSH1 0x1 PUSH1 0x40 SHL SUB DUP3 GT PUSH2 0x2DE JUMPI PUSH2 0x1CC8 PUSH2 0x468 SWAP3 CALLDATASIZE SWAP1 PUSH1 0x4 ADD PUSH2 0xBB2 JUMP JUMPDEST SWAP1 DUP1 PUSH1 0x0 MSTORE PUSH1 0x4 PUSH1 0x20 MSTORE PUSH2 0x1CEA PUSH1 0x1 DUP1 PUSH1 0xA0 SHL SUB PUSH1 0x40 PUSH1 0x0 KECCAK256 SLOAD AND ISZERO ISZERO PUSH2 0x2E30 JUMP JUMPDEST PUSH1 0x0 MSTORE PUSH1 0xB PUSH1 0x20 MSTORE PUSH2 0x1D0C PUSH2 0x1D13 PUSH1 0x2 PUSH1 0x40 PUSH1 0x0 KECCAK256 ADD PUSH1 0x40 MLOAD SWAP3 DUP4 DUP1 SWAP3 PUSH2 0x1DF4 JUMP JUMPDEST SUB DUP3 PUSH2 0xB23 JUMP JUMPDEST DUP1 MLOAD PUSH1 0x20 SWAP2 DUP3 ADD KECCAK256 DUP3 MLOAD SWAP3 DUP3 ADD SWAP3 SWAP1 SWAP3 KECCAK256 PUSH1 0x40 MLOAD SWAP3 EQ DUP3 MSTORE SWAP1 SWAP2 DUP3 SWAP2 DUP3 ADD SWAP1 JUMP JUMPDEST CALLVALUE PUSH2 0x2DE JUMPI PUSH1 0x40 CALLDATASIZE PUSH1 0x3 NOT ADD SLT PUSH2 0x2DE JUMPI PUSH1 0x20 PUSH1 0xFF PUSH2 0x1D85 PUSH2 0x1D54 PUSH2 0x532 JUMP JUMPDEST PUSH2 0x1D5C PUSH2 0x548 JUMP JUMPDEST PUSH1 0x1 PUSH1 0x1 PUSH1 0xA0 SHL SUB SWAP2 DUP3 AND PUSH1 0x0 SWAP1 DUP2 MSTORE PUSH1 0x7 DUP7 MSTORE PUSH1 0x40 DUP1 DUP3 KECCAK256 SWAP3 SWAP1 SWAP4 AND DUP2 MSTORE PUSH1 0x20 SWAP2 SWAP1 SWAP2 MSTORE KECCAK256 SWAP1 JUMP JUMPDEST SLOAD AND PUSH1 0x40 MLOAD SWAP1 ISZERO ISZERO DUP2 MSTORE RETURN JUMPDEST CALLVALUE PUSH2 0x2DE JUMPI PUSH1 0x0 CALLDATASIZE PUSH1 0x3 NOT ADD SLT PUSH2 0x2DE JUMPI PUSH1 0x10 SLOAD PUSH1 0x40 MLOAD PUSH1 0x1 PUSH1 0x1 PUSH1 0xA0 SHL SUB SWAP1 SWAP2 AND DUP2 MSTORE PUSH1 0x20 SWAP1 RETURN JUMPDEST SWAP1 PUSH1 0x1 DUP3 DUP2 SHR SWAP3 AND DUP1 ISZERO PUSH2 0x1DEA JUMPI JUMPDEST PUSH1 0x20 DUP4 LT EQ PUSH2 0x1DD4 JUMPI JUMP JUMPDEST PUSH4 0x4E487B71 PUSH1 0xE0 SHL PUSH1 0x0 MSTORE PUSH1 0x22 PUSH1 0x4 MSTORE PUSH1 0x24 PUSH1 0x0 REVERT JUMPDEST SWAP2 PUSH1 0x7F AND SWAP2 PUSH2 0x1DC9 JUMP JUMPDEST SWAP1 PUSH1 0x0 SWAP3 SWAP2 DUP1 SLOAD SWAP2 PUSH2 0x1E05 DUP4 PUSH2 0x1DBA JUMP JUMPDEST SWAP2 DUP3 DUP3 MSTORE PUSH1 0x1 SWAP4 DUP5 DUP2 AND SWAP1 DUP2 PUSH1 0x0 EQ PUSH2 0x1E67 JUMPI POP PUSH1 0x1 EQ PUSH2 0x1E27 JUMPI JUMPDEST POP POP POP POP JUMP JUMPDEST SWAP1 SWAP2 SWAP4 SWAP5 POP PUSH1 0x0 MSTORE PUSH1 0x20 SWAP3 DUP4 PUSH1 0x0 KECCAK256 SWAP3 DUP5 PUSH1 0x0 SWAP5 JUMPDEST DUP4 DUP7 LT PUSH2 0x1E53 JUMPI POP POP POP POP ADD ADD SWAP1 CODESIZE DUP1 DUP1 DUP1 PUSH2 0x1E21 JUMP JUMPDEST DUP1 SLOAD DUP6 DUP8 ADD DUP4 ADD MSTORE SWAP5 ADD SWAP4 DUP6 SWAP1 DUP3 ADD PUSH2 0x1E3C JUMP JUMPDEST SWAP3 SWAP5 POP POP POP PUSH1 0x20 SWAP4 SWAP5 POP PUSH1 0xFF NOT AND DUP4 DUP4 ADD MSTORE ISZERO ISZERO PUSH1 0x5 SHL ADD ADD SWAP1 CODESIZE DUP1 DUP1 DUP1 PUSH2 0x1E21 JUMP JUMPDEST SWAP1 PUSH2 0xB51 PUSH2 0x1E9E SWAP3 PUSH1 0x40 MLOAD SWAP4 DUP5 DUP1 SWAP3 PUSH2 0x1DF4 JUMP JUMPDEST SUB DUP4 PUSH2 0xB23 JUMP JUMPDEST SWAP8 SWAP4 SWAP10 SWAP9 SWAP6 SWAP2 PUSH2 0x100 SWAP8 SWAP4 PUSH2 0x1ED1 PUSH2 0x1EDF SWAP3 PUSH2 0x1F08 SWAP9 SWAP5 DUP13 MSTORE PUSH1 0x20 DUP13 PUSH2 0x120 SWAP2 DUP3 SWAP2 ADD MSTORE DUP13 ADD SWAP1 PUSH2 0x3D6 JUMP JUMPDEST SWAP1 DUP11 DUP3 SUB PUSH1 0x40 DUP13 ADD MSTORE PUSH2 0x3D6 JUMP JUMPDEST PUSH1 0x1 PUSH1 0x1 PUSH1 0xA0 SHL SUB SWAP1 SWAP11 AND PUSH1 0x60 DUP10 ADD MSTORE PUSH1 0x80 DUP9 ADD MSTORE PUSH1 0xA0 DUP8 ADD MSTORE PUSH1 0xC0 DUP7 ADD MSTORE PUSH1 0xE0 DUP6 ADD SWAP1 PUSH2 0x13C1 JUMP JUMPDEST ISZERO ISZERO SWAP2 ADD MSTORE JUMP JUMPDEST CALLVALUE PUSH2 0x2DE JUMPI PUSH1 0x20 CALLDATASIZE PUSH1 0x3 NOT ADD SLT PUSH2 0x2DE JUMPI PUSH1 0x4 CALLDATALOAD PUSH1 0x0 MSTORE PUSH1 0xB PUSH1 0x20 MSTORE PUSH1 0x40 PUSH1 0x0 KECCAK256 DUP1 SLOAD PUSH2 0x468 PUSH1 0x40 MLOAD SWAP3 PUSH2 0x1F51 DUP5 PUSH2 0x1F4A DUP2 PUSH1 0x1 DUP6 ADD PUSH2 0x1DF4 JUMP JUMPDEST SUB DUP6 PUSH2 0xB23 JUMP JUMPDEST PUSH1 0x40 MLOAD SWAP1 PUSH2 0x1F66 DUP3 PUSH2 0x1E9E DUP2 PUSH1 0x2 DUP6 ADD PUSH2 0x1DF4 JUMP JUMPDEST PUSH1 0x1 DUP1 PUSH1 0xA0 SHL SUB PUSH1 0x3 DUP3 ADD SLOAD AND PUSH1 0x4 DUP3 ADD SLOAD PUSH1 0x5 DUP4 ADD SLOAD SWAP1 PUSH1 0x6 DUP5 ADD SLOAD SWAP3 PUSH2 0x1FA0 PUSH1 0x9 PUSH2 0x1F97 PUSH1 0x7 DUP9 ADD SLOAD PUSH1 0xFF AND SWAP1 JUMP JUMPDEST SWAP7 ADD SLOAD PUSH1 0xFF AND SWAP1 JUMP JUMPDEST SWAP6 PUSH1 0x40 MLOAD SWAP10 DUP11 SWAP10 DUP11 PUSH2 0x1EA5 JUMP JUMPDEST CALLVALUE PUSH2 0x2DE JUMPI PUSH1 0x20 CALLDATASIZE PUSH1 0x3 NOT ADD SLT PUSH2 0x2DE JUMPI PUSH2 0x1FC6 PUSH2 0x2158 JUMP JUMPDEST PUSH1 0x4 CALLDATALOAD PUSH1 0x11 SSTORE STOP JUMPDEST CALLVALUE PUSH2 0x2DE JUMPI PUSH2 0x1FDC CALLDATASIZE PUSH2 0xCFE JUMP JUMPDEST PUSH2 0x2015 PUSH2 0x1FE8 DUP5 PUSH2 0x231B JUMP JUMPDEST PUSH1 0x1 PUSH1 0x1 PUSH1 0xA0 SHL SUB SWAP1 PUSH2 0x1FFE SWAP1 DUP3 AND CALLER EQ PUSH2 0x2ED1 JUMP JUMPDEST DUP5 PUSH1 0x0 MSTORE PUSH1 0x4 PUSH1 0x20 MSTORE PUSH1 0x40 PUSH1 0x0 KECCAK256 SLOAD AND ISZERO ISZERO PUSH2 0x2E30 JUMP JUMPDEST DUP2 ISZERO PUSH2 0x208A JUMPI PUSH2 0x616 SWAP3 PUSH2 0x2085 SWAP2 PUSH2 0x202E TIMESTAMP DUP3 GT PUSH2 0x2F0F JUMP JUMPDEST PUSH2 0x205E PUSH2 0x2059 PUSH2 0x2055 PUSH1 0x9 PUSH2 0x204D DUP7 PUSH1 0x0 MSTORE PUSH1 0xB PUSH1 0x20 MSTORE PUSH1 0x40 PUSH1 0x0 KECCAK256 SWAP1 JUMP JUMPDEST ADD SLOAD PUSH1 0xFF AND SWAP1 JUMP JUMPDEST ISZERO SWAP1 JUMP JUMPDEST PUSH2 0x2F4E JUMP JUMPDEST PUSH2 0x2066 PUSH2 0xB53 JUMP JUMPDEST SWAP4 DUP5 MSTORE PUSH1 0x1 PUSH1 0x20 DUP6 ADD MSTORE PUSH1 0x40 DUP5 ADD MSTORE PUSH1 0x0 MSTORE PUSH1 0xE PUSH1 0x20 MSTORE PUSH1 0x40 PUSH1 0x0 KECCAK256 SWAP1 JUMP JUMPDEST PUSH2 0x2F8C JUMP JUMPDEST PUSH1 0x40 MLOAD PUSH3 0x461BCD PUSH1 0xE5 SHL DUP2 MSTORE PUSH1 0x20 PUSH1 0x4 DUP3 ADD MSTORE PUSH1 0x1C PUSH1 0x24 DUP3 ADD MSTORE PUSH32 0x5072696365206D7573742062652067726561746572207468616E203000000000 PUSH1 0x44 DUP3 ADD MSTORE PUSH1 0x64 SWAP1 REVERT JUMPDEST CALLVALUE PUSH2 0x2DE JUMPI PUSH1 0x20 CALLDATASIZE PUSH1 0x3 NOT ADD SLT PUSH2 0x2DE JUMPI PUSH2 0x20E8 PUSH2 0x532 JUMP JUMPDEST PUSH2 0x20F0 PUSH2 0x2158 JUMP JUMPDEST PUSH1 0x1 PUSH1 0x1 PUSH1 0xA0 SHL SUB SWAP1 DUP2 AND SWAP1 DUP2 ISZERO PUSH2 0x213F JUMPI PUSH1 0x8 SLOAD DUP3 PUSH1 0x1 PUSH1 0x1 PUSH1 0x60 SHL SUB PUSH1 0xA0 SHL DUP3 AND OR PUSH1 0x8 SSTORE AND PUSH32 0x8BE0079C531659141344CD1FD0A4F28419497F9722A3DAAFE3B4186F6B6457E0 PUSH1 0x0 DUP1 LOG3 STOP JUMPDEST PUSH1 0x40 MLOAD PUSH4 0x1E4FBDF7 PUSH1 0xE0 SHL DUP2 MSTORE PUSH1 0x0 PUSH1 0x4 DUP3 ADD MSTORE PUSH1 0x24 SWAP1 REVERT JUMPDEST PUSH1 0x8 SLOAD PUSH1 0x1 PUSH1 0x1 PUSH1 0xA0 SHL SUB AND CALLER SUB PUSH2 0x216C JUMPI JUMP JUMPDEST PUSH1 0x40 MLOAD PUSH4 0x118CDAA7 PUSH1 0xE0 SHL DUP2 MSTORE CALLER PUSH1 0x4 DUP3 ADD MSTORE PUSH1 0x24 SWAP1 REVERT JUMPDEST SWAP1 PUSH1 0x1 PUSH1 0x1 PUSH1 0xA0 SHL SUB DUP1 DUP3 AND SWAP1 DUP2 ISZERO PUSH2 0x22CB JUMPI DUP5 PUSH2 0x2231 SWAP3 PUSH1 0x0 SWAP5 DUP3 DUP7 MSTORE PUSH1 0x4 PUSH1 0x20 MSTORE DUP4 PUSH1 0x40 DUP8 KECCAK256 SLOAD AND PUSH2 0x22AD JUMPI JUMPDEST DUP3 DUP7 MSTORE PUSH1 0x4 PUSH1 0x20 MSTORE PUSH1 0x40 DUP7 KECCAK256 SLOAD PUSH32 0xDDF252AD1BE2C89B69C2B068FC378DAA952BA7F163C4A11628F55A4DF523B3EF SWAP1 PUSH1 0x1 PUSH1 0x1 PUSH1 0xA0 SHL SUB AND SWAP7 CALLER PUSH2 0x229D JUMPI JUMPDEST DUP6 DUP9 AND SWAP7 DUP8 SWAP4 DUP5 PUSH2 0x226F JUMPI JUMPDEST PUSH1 0x1 PUSH1 0x1 PUSH1 0xA0 SHL SUB DUP2 AND PUSH1 0x0 SWAP1 DUP2 MSTORE PUSH1 0x5 PUSH1 0x20 MSTORE PUSH1 0x40 SWAP1 KECCAK256 PUSH1 0x1 DUP2 SLOAD ADD SWAP1 SSTORE PUSH2 0x5F7 DUP8 PUSH1 0x0 MSTORE PUSH1 0x4 PUSH1 0x20 MSTORE PUSH1 0x40 PUSH1 0x0 KECCAK256 SWAP1 JUMP JUMPDEST DUP1 LOG4 DUP4 AND SUB PUSH2 0x223F JUMPI POP POP POP JUMP JUMPDEST PUSH1 0x40 MLOAD PUSH4 0x64283D7B PUSH1 0xE0 SHL DUP2 MSTORE PUSH1 0x1 PUSH1 0x1 PUSH1 0xA0 SHL SUB SWAP3 DUP4 AND PUSH1 0x4 DUP3 ADD MSTORE PUSH1 0x24 DUP2 ADD SWAP4 SWAP1 SWAP4 MSTORE AND PUSH1 0x44 DUP3 ADD MSTORE PUSH1 0x64 SWAP1 REVERT JUMPDEST PUSH2 0x2278 DUP8 PUSH2 0x22F7 JUMP JUMPDEST PUSH1 0x1 PUSH1 0x1 PUSH1 0xA0 SHL SUB DUP11 AND PUSH1 0x0 SWAP1 DUP2 MSTORE PUSH1 0x5 PUSH1 0x20 MSTORE PUSH1 0x40 SWAP1 KECCAK256 DUP1 SLOAD PUSH1 0x0 NOT ADD SWAP1 SSTORE PUSH2 0x21FE JUMP JUMPDEST PUSH2 0x22A8 DUP6 CALLER DUP11 PUSH2 0x34F5 JUMP JUMPDEST PUSH2 0x21F2 JUMP JUMPDEST PUSH1 0xB PUSH1 0x20 MSTORE PUSH2 0x22C6 PUSH1 0xFF PUSH1 0x9 PUSH1 0x40 DUP10 KECCAK256 ADD SLOAD AND ISZERO PUSH2 0x2F4E JUMP JUMPDEST PUSH2 0x21B3 JUMP JUMPDEST PUSH1 0x40 MLOAD PUSH4 0x32505749 PUSH1 0xE1 SHL DUP2 MSTORE PUSH1 0x0 PUSH1 0x4 DUP3 ADD MSTORE PUSH1 0x24 SWAP1 REVERT JUMPDEST PUSH1 0x40 MLOAD SWAP1 PUSH2 0x22F1 DUP3 PUSH2 0xB08 JUMP JUMPDEST PUSH1 0x0 DUP3 MSTORE JUMP JUMPDEST PUSH2 0x230B SWAP1 PUSH1 0x0 MSTORE PUSH1 0x6 PUSH1 0x20 MSTORE PUSH1 0x40 PUSH1 0x0 KECCAK256 SWAP1 JUMP JUMPDEST DUP1 SLOAD PUSH1 0x1 PUSH1 0x1 PUSH1 0xA0 SHL SUB NOT AND SWAP1 SSTORE JUMP JUMPDEST PUSH1 0x0 DUP2 DUP2 MSTORE PUSH1 0x4 PUSH1 0x20 MSTORE PUSH1 0x40 SWAP1 KECCAK256 SLOAD PUSH1 0x1 PUSH1 0x1 PUSH1 0xA0 SHL SUB AND SWAP1 DUP2 ISZERO PUSH2 0x233E JUMPI POP SWAP1 JUMP JUMPDEST PUSH1 0x24 SWAP1 PUSH1 0x40 MLOAD SWAP1 PUSH4 0x7E273289 PUSH1 0xE0 SHL DUP3 MSTORE PUSH1 0x4 DUP3 ADD MSTORE REVERT JUMPDEST SWAP1 DUP2 PUSH1 0x20 SWAP2 SUB SLT PUSH2 0x2DE JUMPI MLOAD PUSH2 0x40C DUP2 PUSH2 0x2CC JUMP JUMPDEST PUSH2 0x40C SWAP4 SWAP3 PUSH1 0x80 SWAP3 PUSH1 0x1 DUP1 PUSH1 0xA0 SHL SUB AND DUP3 MSTORE PUSH1 0x0 PUSH1 0x20 DUP4 ADD MSTORE PUSH1 0x40 DUP3 ADD MSTORE DUP2 PUSH1 0x60 DUP3 ADD MSTORE ADD SWAP1 PUSH2 0x3D6 JUMP JUMPDEST PUSH1 0x1 PUSH1 0x1 PUSH1 0xA0 SHL SUB SWAP2 DUP3 AND DUP2 MSTORE SWAP2 AND PUSH1 0x20 DUP3 ADD MSTORE PUSH1 0x40 DUP2 ADD SWAP2 SWAP1 SWAP2 MSTORE PUSH1 0x80 PUSH1 0x60 DUP3 ADD DUP2 SWAP1 MSTORE PUSH2 0x40C SWAP3 SWAP2 ADD SWAP1 PUSH2 0x3D6 JUMP JUMPDEST PUSH1 0x40 MLOAD RETURNDATASIZE PUSH1 0x0 DUP3 RETURNDATACOPY RETURNDATASIZE SWAP1 REVERT JUMPDEST RETURNDATASIZE ISZERO PUSH2 0x23FE JUMPI RETURNDATASIZE SWAP1 PUSH2 0x23E4 DUP3 PUSH2 0xB60 JUMP JUMPDEST SWAP2 PUSH2 0x23F2 PUSH1 0x40 MLOAD SWAP4 DUP5 PUSH2 0xB23 JUMP JUMPDEST DUP3 MSTORE RETURNDATASIZE PUSH1 0x0 PUSH1 0x20 DUP5 ADD RETURNDATACOPY JUMP JUMPDEST PUSH1 0x60 SWAP1 JUMP JUMPDEST SWAP3 SWAP4 SWAP2 SWAP4 DUP5 EXTCODESIZE PUSH2 0x2415 JUMPI JUMPDEST POP POP POP POP POP JUMP JUMPDEST PUSH1 0x20 SWAP2 PUSH2 0x2438 PUSH1 0x40 MLOAD SWAP5 DUP6 SWAP4 DUP5 SWAP4 PUSH4 0xA85BD01 PUSH1 0xE1 SHL SWAP9 DUP10 DUP7 MSTORE PUSH1 0x4 DUP7 ADD PUSH2 0x2396 JUMP JUMPDEST SUB DUP2 PUSH1 0x0 PUSH1 0x1 PUSH1 0x1 PUSH1 0xA0 SHL SUB DUP9 AND GAS CALL PUSH1 0x0 SWAP2 DUP2 PUSH2 0x24CD JUMPI JUMPDEST POP PUSH2 0x2490 JUMPI DUP3 PUSH2 0x245F PUSH2 0x23D3 JUMP JUMPDEST DUP1 MLOAD SWAP2 SWAP1 DUP3 PUSH2 0x2489 JUMPI PUSH1 0x40 MLOAD PUSH4 0x32505749 PUSH1 0xE1 SHL DUP2 MSTORE PUSH1 0x1 PUSH1 0x1 PUSH1 0xA0 SHL SUB DUP4 AND PUSH1 0x4 DUP3 ADD MSTORE PUSH1 0x24 SWAP1 REVERT JUMPDEST PUSH1 0x20 SWAP2 POP ADD REVERT JUMPDEST PUSH1 0x1 PUSH1 0x1 PUSH1 0xE0 SHL SUB NOT AND SUB PUSH2 0x24AA JUMPI POP CODESIZE DUP1 DUP1 DUP1 DUP1 PUSH2 0x240E JUMP JUMPDEST PUSH1 0x40 MLOAD PUSH4 0x32505749 PUSH1 0xE1 SHL DUP2 MSTORE PUSH1 0x1 PUSH1 0x1 PUSH1 0xA0 SHL SUB SWAP2 SWAP1 SWAP2 AND PUSH1 0x4 DUP3 ADD MSTORE PUSH1 0x24 SWAP1 REVERT JUMPDEST PUSH2 0x24EF SWAP2 SWAP3 POP PUSH1 0x20 RETURNDATASIZE DUP2 GT PUSH2 0x24F6 JUMPI JUMPDEST PUSH2 0x24E7 DUP2 DUP4 PUSH2 0xB23 JUMP JUMPDEST DUP2 ADD SWAP1 PUSH2 0x2356 JUMP JUMPDEST SWAP1 CODESIZE PUSH2 0x2451 JUMP JUMPDEST POP RETURNDATASIZE PUSH2 0x24DD JUMP JUMPDEST PUSH4 0x4E487B71 PUSH1 0xE0 SHL PUSH1 0x0 MSTORE PUSH1 0x11 PUSH1 0x4 MSTORE PUSH1 0x24 PUSH1 0x0 REVERT JUMPDEST PUSH1 0x2 DUP2 SWAP1 SHL SWAP2 SWAP1 PUSH1 0x1 PUSH1 0x1 PUSH1 0xFE SHL SUB DUP2 AND SUB PUSH2 0x252B JUMPI JUMP JUMPDEST PUSH2 0x24FD JUMP JUMPDEST DUP2 DUP2 MUL SWAP3 SWAP2 DUP2 ISZERO SWAP2 DUP5 DIV EQ OR ISZERO PUSH2 0x252B JUMPI JUMP JUMPDEST ISZERO PUSH2 0x254A JUMPI JUMP JUMPDEST PUSH1 0x40 MLOAD PUSH3 0x461BCD PUSH1 0xE5 SHL DUP2 MSTORE PUSH1 0x20 PUSH1 0x4 DUP3 ADD MSTORE PUSH1 0x16 PUSH1 0x24 DUP3 ADD MSTORE PUSH22 0x10DBDB9D195B9D08185B1C9958591E481B5A5B9D1959 PUSH1 0x52 SHL PUSH1 0x44 DUP3 ADD MSTORE PUSH1 0x64 SWAP1 REVERT JUMPDEST ISZERO PUSH2 0x258F JUMPI JUMP JUMPDEST PUSH1 0x40 MLOAD PUSH3 0x461BCD PUSH1 0xE5 SHL DUP2 MSTORE PUSH1 0x20 PUSH1 0x4 DUP3 ADD MSTORE PUSH1 0x11 PUSH1 0x24 DUP3 ADD MSTORE PUSH17 0x125B9D985B1A59081C9958DA5C1A595B9D PUSH1 0x7A SHL PUSH1 0x44 DUP3 ADD MSTORE PUSH1 0x64 SWAP1 REVERT JUMPDEST ISZERO PUSH2 0x25CF JUMPI JUMP JUMPDEST PUSH1 0x40 MLOAD PUSH3 0x461BCD PUSH1 0xE5 SHL DUP2 MSTORE PUSH1 0x20 PUSH1 0x4 DUP3 ADD MSTORE PUSH1 0x17 PUSH1 0x24 DUP3 ADD MSTORE PUSH32 0x5075626C6963206D696E74696E672064697361626C6564000000000000000000 PUSH1 0x44 DUP3 ADD MSTORE PUSH1 0x64 SWAP1 REVERT JUMPDEST ISZERO PUSH2 0x261B JUMPI JUMP JUMPDEST PUSH1 0x40 MLOAD PUSH3 0x461BCD PUSH1 0xE5 SHL DUP2 MSTORE PUSH1 0x20 PUSH1 0x4 DUP3 ADD MSTORE PUSH1 0x15 PUSH1 0x24 DUP3 ADD MSTORE PUSH21 0x496E73756666696369656E74206D696E7420666565 PUSH1 0x58 SHL PUSH1 0x44 DUP3 ADD MSTORE PUSH1 0x64 SWAP1 REVERT JUMPDEST PUSH1 0x0 NOT DUP2 EQ PUSH2 0x252B JUMPI PUSH1 0x1 ADD SWAP1 JUMP JUMPDEST PUSH1 0x4 DUP3 LT ISZERO PUSH2 0x13AB JUMPI MSTORE JUMP JUMPDEST SWAP1 PUSH1 0x1F DUP2 GT PUSH2 0x2681 JUMPI POP POP POP JUMP JUMPDEST PUSH1 0x0 SWAP2 DUP3 MSTORE PUSH1 0x20 DUP3 KECCAK256 SWAP1 PUSH1 0x20 PUSH1 0x1F DUP6 ADD PUSH1 0x5 SHR DUP4 ADD SWAP5 LT PUSH2 0x26BD JUMPI JUMPDEST PUSH1 0x1F ADD PUSH1 0x5 SHR ADD SWAP2 JUMPDEST DUP3 DUP2 LT PUSH2 0x26B2 JUMPI POP POP POP JUMP JUMPDEST DUP2 DUP2 SSTORE PUSH1 0x1 ADD PUSH2 0x26A6 JUMP JUMPDEST SWAP1 SWAP3 POP DUP3 SWAP1 PUSH2 0x269D JUMP JUMPDEST SWAP2 SWAP1 SWAP2 DUP3 MLOAD PUSH1 0x1 PUSH1 0x1 PUSH1 0x40 SHL SUB DUP2 GT PUSH2 0xAE8 JUMPI PUSH2 0x26EE DUP2 PUSH2 0x26E8 DUP5 SLOAD PUSH2 0x1DBA JUMP JUMPDEST DUP5 PUSH2 0x2673 JUMP JUMPDEST PUSH1 0x20 DUP1 PUSH1 0x1F DUP4 GT PUSH1 0x1 EQ PUSH2 0x272A JUMPI POP DUP2 SWAP3 SWAP4 SWAP5 PUSH1 0x0 SWAP3 PUSH2 0x271F JUMPI JUMPDEST POP POP DUP2 PUSH1 0x1 SHL SWAP2 PUSH1 0x0 NOT SWAP1 PUSH1 0x3 SHL SHR NOT AND OR SWAP1 SSTORE JUMP JUMPDEST ADD MLOAD SWAP1 POP CODESIZE DUP1 PUSH2 0x2709 JUMP JUMPDEST SWAP1 PUSH1 0x1F NOT DUP4 AND SWAP6 PUSH2 0x2740 DUP6 PUSH1 0x0 MSTORE PUSH1 0x20 PUSH1 0x0 KECCAK256 SWAP1 JUMP JUMPDEST SWAP3 PUSH1 0x0 SWAP1 JUMPDEST DUP9 DUP3 LT PUSH2 0x277D JUMPI POP POP DUP4 PUSH1 0x1 SWAP6 SWAP7 SWAP8 LT PUSH2 0x2764 JUMPI JUMPDEST POP POP POP DUP2 SHL ADD SWAP1 SSTORE JUMP JUMPDEST ADD MLOAD PUSH1 0x0 NOT PUSH1 0xF8 DUP5 PUSH1 0x3 SHL AND SHR NOT AND SWAP1 SSTORE CODESIZE DUP1 DUP1 PUSH2 0x275A JUMP JUMPDEST DUP1 PUSH1 0x1 DUP6 SWAP7 DUP3 SWAP5 SWAP7 DUP7 ADD MLOAD DUP2 SSTORE ADD SWAP6 ADD SWAP4 ADD SWAP1 PUSH2 0x2745 JUMP JUMPDEST SWAP1 PUSH1 0x4 DUP2 LT ISZERO PUSH2 0x13AB JUMPI PUSH1 0xFF DUP1 NOT DUP4 SLOAD AND SWAP2 AND OR SWAP1 SSTORE JUMP JUMPDEST DUP2 MLOAD SWAP2 PUSH1 0x1 PUSH1 0x1 PUSH1 0x40 SHL SUB DUP4 GT PUSH2 0xAE8 JUMPI PUSH1 0x1 PUSH1 0x40 SHL DUP4 GT PUSH2 0xAE8 JUMPI DUP2 SLOAD DUP4 DUP4 SSTORE DUP1 DUP5 LT PUSH2 0x280F JUMPI JUMPDEST POP PUSH2 0x27EB PUSH1 0x20 DUP1 SWAP3 ADD SWAP3 PUSH1 0x0 MSTORE PUSH1 0x20 PUSH1 0x0 KECCAK256 SWAP1 JUMP JUMPDEST SWAP1 PUSH1 0x0 JUMPDEST DUP5 DUP2 LT PUSH2 0x27FD JUMPI POP POP POP POP POP JUMP JUMPDEST DUP4 MLOAD DUP4 DUP3 ADD SSTORE SWAP3 DUP2 ADD SWAP3 PUSH1 0x1 ADD PUSH2 0x27EF JUMP JUMPDEST PUSH1 0x0 DUP4 DUP2 MSTORE DUP5 PUSH1 0x20 DUP3 KECCAK256 SWAP3 DUP4 ADD SWAP3 ADD JUMPDEST DUP3 DUP2 LT PUSH2 0x282D JUMPI POP POP PUSH2 0x27D6 JUMP JUMPDEST DUP2 DUP2 SSTORE PUSH1 0x1 ADD PUSH2 0x281F JUMP JUMPDEST PUSH1 0x9 PUSH2 0x28E1 PUSH2 0x120 PUSH2 0xB51 SWAP5 DUP1 MLOAD DUP6 SSTORE PUSH2 0x2859 PUSH1 0x20 DUP3 ADD MLOAD PUSH1 0x1 DUP8 ADD PUSH2 0x26C7 JUMP JUMPDEST PUSH2 0x286A PUSH1 0x40 DUP3 ADD MLOAD PUSH1 0x2 DUP8 ADD PUSH2 0x26C7 JUMP JUMPDEST PUSH1 0x60 DUP2 ADD MLOAD PUSH1 0x3 DUP7 ADD DUP1 SLOAD PUSH1 0x1 PUSH1 0x1 PUSH1 0xA0 SHL SUB NOT AND PUSH1 0x1 PUSH1 0x1 PUSH1 0xA0 SHL SUB SWAP1 SWAP3 AND SWAP2 SWAP1 SWAP2 OR SWAP1 SSTORE PUSH1 0x80 DUP2 ADD MLOAD PUSH1 0x4 DUP7 ADD SSTORE PUSH1 0xA0 DUP2 ADD MLOAD PUSH1 0x5 DUP7 ADD SSTORE PUSH1 0xC0 DUP2 ADD MLOAD PUSH1 0x6 DUP7 ADD SSTORE PUSH2 0x28C8 PUSH1 0xE0 DUP3 ADD MLOAD PUSH2 0x28BF DUP2 PUSH2 0x13A1 JUMP JUMPDEST PUSH1 0x7 DUP8 ADD PUSH2 0x2795 JUMP JUMPDEST PUSH2 0x28DA PUSH2 0x100 DUP3 ADD MLOAD PUSH1 0x8 DUP8 ADD PUSH2 0x27AD JUMP JUMPDEST ADD MLOAD ISZERO ISZERO SWAP1 JUMP JUMPDEST SWAP2 ADD SWAP1 PUSH1 0xFF DUP1 NOT DUP4 SLOAD AND SWAP2 ISZERO ISZERO AND OR SWAP1 SSTORE JUMP JUMPDEST DUP1 SLOAD PUSH1 0x1 PUSH1 0x40 SHL DUP2 LT ISZERO PUSH2 0xAE8 JUMPI PUSH2 0x2911 SWAP2 PUSH1 0x1 DUP3 ADD DUP2 SSTORE PUSH2 0x6AA JUMP JUMPDEST DUP2 SWAP3 SWAP2 SLOAD SWAP1 PUSH1 0x3 SHL SWAP2 DUP3 SHL SWAP2 PUSH1 0x0 NOT SWAP1 SHL NOT AND OR SWAP1 SSTORE JUMP JUMPDEST SWAP1 SWAP2 PUSH2 0x2940 PUSH2 0x40C SWAP4 PUSH1 0x40 DUP5 MSTORE PUSH1 0x40 DUP5 ADD SWAP1 PUSH2 0x3D6 JUMP JUMPDEST SWAP2 PUSH1 0x20 DUP2 DUP5 SUB SWAP2 ADD MSTORE PUSH2 0x3D6 JUMP JUMPDEST PUSH2 0x2A50 SWAP4 PUSH1 0x1 PUSH1 0x1 PUSH1 0xA0 SHL SUB DUP3 AND SWAP4 SWAP1 SWAP3 PUSH2 0x296A DUP6 ISZERO ISZERO PUSH2 0x2588 JUMP JUMPDEST PUSH1 0x8 SLOAD PUSH2 0x297F SWAP1 PUSH1 0x1 PUSH1 0x1 PUSH1 0xA0 SHL SUB AND PUSH2 0xA64 JUMP JUMPDEST CALLER SUB PUSH2 0x2AE3 JUMPI JUMPDEST PUSH2 0x2999 PUSH2 0x2994 PUSH1 0xA SLOAD PUSH2 0x2658 JUMP JUMPDEST PUSH1 0xA SSTORE JUMP JUMPDEST PUSH2 0x2A55 PUSH1 0xA SLOAD DUP1 SWAP8 DUP6 PUSH2 0x29AD DUP4 DUP1 SWAP9 PUSH2 0x2B0A JUMP JUMPDEST PUSH2 0x29C3 PUSH2 0x29BC PUSH1 0x10 SLOAD PUSH1 0xA0 SHR SWAP1 JUMP JUMPDEST DUP3 DUP6 PUSH2 0x2C52 JUMP JUMPDEST PUSH2 0x2A36 PUSH2 0x29CE PUSH2 0xB44 JUMP JUMPDEST DUP5 DUP2 MSTORE PUSH1 0x20 DUP2 ADD DUP8 SWAP1 MSTORE PUSH1 0x40 DUP2 ADD DUP9 SWAP1 MSTORE PUSH1 0x1 PUSH1 0x1 PUSH1 0xA0 SHL SUB DUP4 AND PUSH1 0x60 DUP3 ADD MSTORE TIMESTAMP PUSH1 0x80 DUP3 ADD MSTORE PUSH1 0x0 SWAP10 DUP11 PUSH1 0xA0 DUP4 ADD MSTORE DUP11 PUSH1 0xC0 DUP4 ADD MSTORE PUSH2 0x2A10 PUSH1 0xE0 DUP4 ADD PUSH1 0x1 SWAP1 MSTORE JUMP JUMPDEST PUSH2 0x100 DUP3 ADD MSTORE DUP10 PUSH2 0x120 DUP3 ADD MSTORE PUSH2 0x2A31 DUP6 PUSH1 0x0 MSTORE PUSH1 0xB PUSH1 0x20 MSTORE PUSH1 0x40 PUSH1 0x0 KECCAK256 SWAP1 JUMP JUMPDEST PUSH2 0x2838 JUMP JUMPDEST PUSH1 0x1 PUSH1 0x1 PUSH1 0xA0 SHL SUB AND PUSH1 0x0 SWAP1 DUP2 MSTORE PUSH1 0xC PUSH1 0x20 MSTORE PUSH1 0x40 SWAP1 KECCAK256 SWAP1 JUMP JUMPDEST PUSH2 0x28F4 JUMP JUMPDEST DUP3 PUSH2 0x2A5F DUP4 PUSH2 0x1189 JUMP JUMPDEST SSTORE PUSH1 0x11 SLOAD CALLVALUE GT PUSH2 0x2AA3 JUMPI JUMPDEST PUSH32 0x341868C5C6B3ABE842179A7C693272930BA67AF870B18099ED7B80DF31F1D657 SWAP3 SWAP4 POP PUSH2 0x2A9D PUSH1 0x40 MLOAD SWAP3 DUP4 SWAP3 DUP4 PUSH2 0x2929 JUMP JUMPDEST SUB SWAP1 LOG3 SWAP1 JUMP JUMPDEST SWAP2 POP SWAP2 DUP1 DUP1 DUP1 PUSH2 0x2AC0 PUSH2 0xA64 PUSH2 0xA64 PUSH1 0x10 SLOAD PUSH1 0x1 DUP1 PUSH1 0xA0 SHL SUB AND SWAP1 JUMP JUMPDEST DUP2 SWAP1 CALLVALUE ISZERO PUSH2 0x2AD9 JUMPI JUMPDEST CALLVALUE SWAP2 CALL ISZERO PUSH2 0x8B1 JUMPI DUP2 DUP5 SWAP2 PUSH2 0x2A6A JUMP JUMPDEST PUSH2 0x8FC SWAP2 POP PUSH2 0x2AC9 JUMP JUMPDEST PUSH2 0x2AF7 PUSH2 0x2AF2 PUSH1 0x12 SLOAD PUSH1 0xFF AND SWAP1 JUMP JUMPDEST PUSH2 0x25C8 JUMP JUMPDEST PUSH2 0x2B05 PUSH1 0x11 SLOAD CALLVALUE LT ISZERO PUSH2 0x2614 JUMP JUMPDEST PUSH2 0x2986 JUMP JUMPDEST PUSH1 0x40 SWAP2 DUP3 MLOAD PUSH2 0x2B18 DUP2 PUSH2 0xB08 JUMP JUMPDEST PUSH1 0x0 DUP2 MSTORE PUSH1 0x1 PUSH1 0x1 PUSH1 0xA0 SHL SUB DUP4 DUP2 AND SWAP2 SWAP1 DUP3 ISZERO PUSH2 0x2C3A JUMPI PUSH2 0x2B39 DUP5 DUP7 PUSH2 0x33FA JUMP JUMPDEST AND PUSH2 0x2C22 JUMPI DUP4 EXTCODESIZE PUSH2 0x2B4B JUMPI POP POP POP POP POP JUMP JUMPDEST PUSH2 0x2B75 PUSH1 0x0 SWAP3 PUSH1 0x20 SWAP3 DUP8 SWAP9 SWAP7 SWAP8 MLOAD SWAP5 DUP6 DUP1 SWAP5 DUP2 SWAP4 PUSH4 0xA85BD01 PUSH1 0xE1 SHL SWAP10 DUP11 DUP5 MSTORE CALLER PUSH1 0x4 DUP6 ADD PUSH2 0x236B JUMP JUMPDEST SUB SWAP3 GAS CALL PUSH1 0x0 SWAP2 DUP2 PUSH2 0x2C02 JUMPI JUMPDEST POP PUSH2 0x2BC2 JUMPI POP POP POP PUSH2 0x2B92 PUSH2 0x23D3 JUMP JUMPDEST DUP1 MLOAD SWAP3 SWAP1 DUP4 PUSH2 0x2BBB JUMPI DUP2 MLOAD PUSH4 0x32505749 PUSH1 0xE1 SHL DUP2 MSTORE PUSH1 0x1 PUSH1 0x1 PUSH1 0xA0 SHL SUB DUP5 AND PUSH1 0x4 DUP3 ADD MSTORE PUSH1 0x24 SWAP1 REVERT JUMPDEST PUSH1 0x20 DUP5 SWAP2 ADD REVERT JUMPDEST SWAP2 SWAP4 SWAP2 PUSH1 0x1 PUSH1 0x1 PUSH1 0xE0 SHL SUB NOT AND SUB PUSH2 0x2BE0 JUMPI POP POP CODESIZE DUP1 DUP1 DUP1 DUP1 PUSH2 0x240E JUMP JUMPDEST MLOAD PUSH4 0x32505749 PUSH1 0xE1 SHL DUP2 MSTORE PUSH1 0x1 PUSH1 0x1 PUSH1 0xA0 SHL SUB SWAP2 SWAP1 SWAP2 AND PUSH1 0x4 DUP3 ADD MSTORE PUSH1 0x24 SWAP2 POP REVERT JUMPDEST PUSH2 0x2C1B SWAP2 SWAP3 POP PUSH1 0x20 RETURNDATASIZE DUP2 GT PUSH2 0x24F6 JUMPI PUSH2 0x24E7 DUP2 DUP4 PUSH2 0xB23 JUMP JUMPDEST SWAP1 CODESIZE PUSH2 0x2B82 JUMP JUMPDEST DUP5 MLOAD PUSH4 0x39E35637 PUSH1 0xE1 SHL DUP2 MSTORE PUSH1 0x0 PUSH1 0x4 DUP3 ADD MSTORE PUSH1 0x24 SWAP1 REVERT JUMPDEST DUP6 MLOAD PUSH4 0x32505749 PUSH1 0xE1 SHL DUP2 MSTORE PUSH1 0x0 PUSH1 0x4 DUP3 ADD MSTORE PUSH1 0x24 SWAP1 REVERT JUMPDEST SWAP1 PUSH2 0x2710 PUSH1 0x1 PUSH1 0x1 PUSH1 0x60 SHL SUB DUP5 AND DUP2 DUP2 GT PUSH2 0x2D1B JUMPI POP POP PUSH1 0x1 PUSH1 0x1 PUSH1 0xA0 SHL SUB DUP2 AND ISZERO PUSH2 0x2CFB JUMPI PUSH1 0x40 MLOAD SWAP2 PUSH1 0x40 DUP4 ADD SWAP2 DUP4 DUP4 LT PUSH1 0x1 PUSH1 0x1 PUSH1 0x40 SHL SUB DUP5 GT OR PUSH2 0xAE8 JUMPI PUSH2 0xB51 SWAP5 PUSH2 0x2CB3 PUSH2 0x2CC3 SWAP3 PUSH2 0x2CD3 SWAP6 PUSH1 0x40 MSTORE DUP7 SWAP1 PUSH1 0x1 DUP1 PUSH1 0xA0 SHL SUB AND SWAP1 MSTORE JUMP JUMPDEST PUSH1 0x1 PUSH1 0x1 PUSH1 0x60 SHL SUB AND PUSH1 0x20 DUP6 ADD MSTORE JUMP JUMPDEST PUSH1 0x0 MSTORE PUSH1 0x1 PUSH1 0x20 MSTORE PUSH1 0x40 PUSH1 0x0 KECCAK256 SWAP1 JUMP JUMPDEST DUP2 MLOAD PUSH1 0x20 SWAP1 SWAP3 ADD MLOAD PUSH1 0xA0 SHL PUSH1 0x1 PUSH1 0x1 PUSH1 0xA0 SHL SUB NOT AND PUSH1 0x1 PUSH1 0x1 PUSH1 0xA0 SHL SUB SWAP1 SWAP3 AND SWAP2 SWAP1 SWAP2 OR SWAP1 SSTORE JUMP JUMPDEST PUSH1 0x40 MLOAD PUSH4 0x4B4F8429 PUSH1 0xE1 SHL DUP2 MSTORE PUSH1 0x4 DUP2 ADD DUP4 SWAP1 MSTORE PUSH1 0x0 PUSH1 0x24 DUP3 ADD MSTORE PUSH1 0x44 SWAP1 REVERT JUMPDEST PUSH1 0x40 MLOAD PUSH4 0xDFD1FC1B PUSH1 0xE0 SHL DUP2 MSTORE PUSH1 0x4 DUP2 ADD SWAP5 SWAP1 SWAP5 MSTORE PUSH1 0x24 DUP5 ADD MSTORE PUSH1 0x44 DUP4 ADD MSTORE POP PUSH1 0x64 SWAP1 REVERT JUMPDEST SWAP4 SWAP3 SWAP2 SWAP1 SWAP4 PUSH2 0x2D4D PUSH2 0x2158 JUMP JUMPDEST DUP1 MLOAD DUP6 MLOAD DUP1 SWAP2 EQ SWAP1 DUP2 PUSH2 0x2E11 JUMPI JUMPDEST POP DUP1 PUSH2 0x2E06 JUMPI JUMPDEST ISZERO PUSH2 0x2DCF JUMPI PUSH1 0x0 JUMPDEST DUP2 MLOAD DUP2 LT ISZERO PUSH2 0x2DC7 JUMPI DUP1 PUSH2 0x2DBC PUSH2 0x2D94 PUSH2 0x2D87 PUSH2 0x2DC2 SWAP5 DUP7 PUSH2 0x2E1C JUMP JUMPDEST MLOAD PUSH1 0x1 PUSH1 0x1 PUSH1 0xA0 SHL SUB AND SWAP1 JUMP JUMPDEST PUSH2 0x2D9E DUP4 DUP11 PUSH2 0x2E1C JUMP JUMPDEST MLOAD PUSH2 0x2DA9 DUP5 DUP9 PUSH2 0x2E1C JUMP JUMPDEST MLOAD SWAP1 PUSH2 0x2DB5 DUP6 DUP11 PUSH2 0x2E1C JUMP JUMPDEST MLOAD SWAP3 PUSH2 0x294E JUMP JUMPDEST POP PUSH2 0x2658 JUMP JUMPDEST PUSH2 0x2D6A JUMP JUMPDEST POP POP POP POP SWAP1 POP JUMP JUMPDEST PUSH1 0x40 MLOAD PUSH3 0x461BCD PUSH1 0xE5 SHL DUP2 MSTORE PUSH1 0x20 PUSH1 0x4 DUP3 ADD MSTORE PUSH1 0xF PUSH1 0x24 DUP3 ADD MSTORE PUSH15 0x98CADCCEE8D040DAD2E6DAC2E8C6D PUSH1 0x8B SHL PUSH1 0x44 DUP3 ADD MSTORE PUSH1 0x64 SWAP1 REVERT JUMPDEST POP DUP2 MLOAD DUP4 MLOAD EQ PUSH2 0x2D62 JUMP JUMPDEST SWAP1 POP DUP3 MLOAD EQ CODESIZE PUSH2 0x2D5B JUMP JUMPDEST DUP1 MLOAD DUP3 LT ISZERO PUSH2 0x6C2 JUMPI PUSH1 0x20 SWAP2 PUSH1 0x5 SHL ADD ADD SWAP1 JUMP JUMPDEST ISZERO PUSH2 0x2E37 JUMPI JUMP JUMPDEST PUSH1 0x40 MLOAD PUSH3 0x461BCD PUSH1 0xE5 SHL DUP2 MSTORE PUSH1 0x20 PUSH1 0x4 DUP3 ADD MSTORE PUSH1 0x14 PUSH1 0x24 DUP3 ADD MSTORE PUSH20 0x151BDAD95B88191BD95CC81B9BDD08195E1A5CDD PUSH1 0x62 SHL PUSH1 0x44 DUP3 ADD MSTORE PUSH1 0x64 SWAP1 REVERT JUMPDEST ISZERO PUSH2 0x2E7A JUMPI JUMP JUMPDEST PUSH1 0x40 MLOAD PUSH3 0x461BCD PUSH1 0xE5 SHL DUP2 MSTORE PUSH1 0x20 PUSH1 0x4 DUP3 ADD MSTORE PUSH1 0xE PUSH1 0x24 DUP3 ADD MSTORE PUSH14 0x139BDD08185D5D1A1BDC9A5E9959 PUSH1 0x92 SHL PUSH1 0x44 DUP3 ADD MSTORE PUSH1 0x64 SWAP1 REVERT JUMPDEST SWAP3 SWAP2 PUSH1 0x20 PUSH2 0x2EC9 PUSH2 0xB51 SWAP4 PUSH1 0x40 DUP8 MSTORE PUSH1 0x40 DUP8 ADD SWAP1 PUSH2 0x3D6 JUMP JUMPDEST SWAP5 ADD SWAP1 PUSH2 0x13C1 JUMP JUMPDEST ISZERO PUSH2 0x2ED8 JUMPI JUMP JUMPDEST PUSH1 0x40 MLOAD PUSH3 0x461BCD PUSH1 0xE5 SHL DUP2 MSTORE PUSH1 0x20 PUSH1 0x4 DUP3 ADD MSTORE PUSH1 0xF PUSH1 0x24 DUP3 ADD MSTORE PUSH15 0x2737BA103A37B5B2B71037BBB732B9 PUSH1 0x89 SHL PUSH1 0x44 DUP3 ADD MSTORE PUSH1 0x64 SWAP1 REVERT JUMPDEST ISZERO PUSH2 0x2F16 JUMPI JUMP JUMPDEST PUSH1 0x40 MLOAD PUSH3 0x461BCD PUSH1 0xE5 SHL DUP2 MSTORE PUSH1 0x20 PUSH1 0x4 DUP3 ADD MSTORE PUSH1 0x10 PUSH1 0x24 DUP3 ADD MSTORE PUSH16 0x496E76616C696420646561646C696E65 PUSH1 0x80 SHL PUSH1 0x44 DUP3 ADD MSTORE PUSH1 0x64 SWAP1 REVERT JUMPDEST ISZERO PUSH2 0x2F55 JUMPI JUMP JUMPDEST PUSH1 0x40 MLOAD PUSH3 0x461BCD PUSH1 0xE5 SHL DUP2 MSTORE PUSH1 0x20 PUSH1 0x4 DUP3 ADD MSTORE PUSH1 0xF PUSH1 0x24 DUP3 ADD MSTORE PUSH15 0x151C985B9CD9995C881B1BD8DAD959 PUSH1 0x8A SHL PUSH1 0x44 DUP3 ADD MSTORE PUSH1 0x64 SWAP1 REVERT JUMPDEST SWAP1 PUSH1 0x40 PUSH1 0x2 SWAP2 DUP1 MLOAD DUP5 SSTORE PUSH2 0x2FB5 PUSH1 0x20 DUP3 ADD MLOAD ISZERO ISZERO PUSH1 0x1 DUP7 ADD SWAP1 PUSH1 0xFF DUP1 NOT DUP4 SLOAD AND SWAP2 ISZERO ISZERO AND OR SWAP1 SSTORE JUMP JUMPDEST ADD MLOAD SWAP2 ADD SSTORE JUMP JUMPDEST SWAP1 PUSH1 0x40 MLOAD PUSH1 0x60 DUP2 ADD DUP2 DUP2 LT PUSH1 0x1 PUSH1 0x1 PUSH1 0x40 SHL SUB DUP3 GT OR PUSH2 0xAE8 JUMPI PUSH1 0x40 MSTORE PUSH1 0x40 PUSH1 0x2 DUP3 SWAP5 DUP1 SLOAD DUP5 MSTORE PUSH1 0xFF PUSH1 0x1 DUP3 ADD SLOAD AND ISZERO ISZERO PUSH1 0x20 DUP6 ADD MSTORE ADD SLOAD SWAP2 ADD MSTORE JUMP JUMPDEST ISZERO PUSH2 0x3000 JUMPI JUMP JUMPDEST PUSH1 0x40 MLOAD PUSH3 0x461BCD PUSH1 0xE5 SHL DUP2 MSTORE PUSH1 0x20 PUSH1 0x4 DUP3 ADD MSTORE PUSH1 0xC PUSH1 0x24 DUP3 ADD MSTORE PUSH12 0x4E6F7420666F722073616C65 PUSH1 0xA0 SHL PUSH1 0x44 DUP3 ADD MSTORE PUSH1 0x64 SWAP1 REVERT JUMPDEST ISZERO PUSH2 0x303B JUMPI JUMP JUMPDEST PUSH1 0x40 MLOAD PUSH3 0x461BCD PUSH1 0xE5 SHL DUP2 MSTORE PUSH1 0x20 PUSH1 0x4 DUP3 ADD MSTORE PUSH1 0xC PUSH1 0x24 DUP3 ADD MSTORE PUSH12 0x14D85B1948195E1C1A5C9959 PUSH1 0xA2 SHL PUSH1 0x44 DUP3 ADD MSTORE PUSH1 0x64 SWAP1 REVERT JUMPDEST ISZERO PUSH2 0x3076 JUMPI JUMP JUMPDEST PUSH1 0x40 MLOAD PUSH3 0x461BCD PUSH1 0xE5 SHL DUP2 MSTORE PUSH1 0x20 PUSH1 0x4 DUP3 ADD MSTORE PUSH1 0x14 PUSH1 0x24 DUP3 ADD MSTORE PUSH20 0x125B9CDD59999A58DA595B9D081C185E5B595B9D PUSH1 0x62 SHL PUSH1 0x44 DUP3 ADD MSTORE PUSH1 0x64 SWAP1 REVERT JUMPDEST ISZERO PUSH2 0x30B9 JUMPI JUMP JUMPDEST PUSH1 0x40 MLOAD PUSH3 0x461BCD PUSH1 0xE5 SHL DUP2 MSTORE PUSH1 0x20 PUSH1 0x4 DUP3 ADD MSTORE PUSH1 0x14 PUSH1 0x24 DUP3 ADD MSTORE PUSH20 0x21B0B73737BA10313ABC9037BBB7103A37B5B2B7 PUSH1 0x61 SHL PUSH1 0x44 DUP3 ADD MSTORE PUSH1 0x64 SWAP1 REVERT JUMPDEST SWAP2 SWAP1 DUP3 SUB SWAP2 DUP3 GT PUSH2 0x252B JUMPI JUMP JUMPDEST SWAP1 PUSH1 0x1 PUSH1 0x1 PUSH1 0xA0 SHL SUB SWAP1 DUP2 DUP2 AND ISZERO PUSH2 0x22CB JUMPI DUP4 PUSH2 0x311E SWAP2 PUSH2 0x33FA JUMP JUMPDEST SWAP1 DUP1 DUP3 AND SWAP1 DUP2 PUSH2 0x3141 JUMPI PUSH1 0x40 MLOAD PUSH4 0x7E273289 PUSH1 0xE0 SHL DUP2 MSTORE PUSH1 0x4 DUP2 ADD DUP7 SWAP1 MSTORE PUSH1 0x24 SWAP1 REVERT JUMPDEST DUP4 AND SUB PUSH2 0x223F JUMPI POP POP POP JUMP JUMPDEST SWAP1 PUSH1 0x40 MLOAD SWAP2 DUP3 DUP2 SLOAD SWAP2 DUP3 DUP3 MSTORE PUSH1 0x20 SWAP3 DUP4 DUP4 ADD SWAP2 PUSH1 0x0 MSTORE DUP4 PUSH1 0x0 KECCAK256 SWAP4 PUSH1 0x0 SWAP1 JUMPDEST DUP3 DUP3 LT PUSH2 0x3182 JUMPI POP POP POP PUSH2 0xB51 SWAP3 POP SUB DUP4 PUSH2 0xB23 JUMP JUMPDEST DUP6 SLOAD DUP5 MSTORE PUSH1 0x1 SWAP6 DUP7 ADD SWAP6 DUP9 SWAP6 POP SWAP4 DUP2 ADD SWAP4 SWAP1 SWAP2 ADD SWAP1 PUSH2 0x316C JUMP JUMPDEST SWAP1 PUSH2 0xB51 PUSH2 0x3239 PUSH1 0x9 PUSH2 0x31AD PUSH2 0xB44 JUMP JUMPDEST SWAP5 DUP1 SLOAD DUP7 MSTORE PUSH2 0x31BE PUSH1 0x1 DUP3 ADD PUSH2 0x1E8A JUMP JUMPDEST PUSH1 0x20 DUP8 ADD MSTORE PUSH2 0x31CF PUSH1 0x2 DUP3 ADD PUSH2 0x1E8A JUMP JUMPDEST PUSH1 0x40 DUP8 ADD MSTORE PUSH1 0x3 DUP2 ADD SLOAD PUSH1 0x1 PUSH1 0x1 PUSH1 0xA0 SHL SUB AND PUSH1 0x60 DUP8 ADD MSTORE PUSH1 0x4 DUP2 ADD SLOAD PUSH1 0x80 DUP8 ADD MSTORE PUSH1 0x5 DUP2 ADD SLOAD PUSH1 0xA0 DUP8 ADD MSTORE PUSH1 0x6 DUP2 ADD SLOAD PUSH1 0xC0 DUP8 ADD MSTORE PUSH2 0x321F PUSH2 0x3216 PUSH1 0x7 DUP4 ADD SLOAD PUSH1 0xFF AND SWAP1 JUMP JUMPDEST PUSH1 0xE0 DUP9 ADD PUSH2 0x2667 JUMP JUMPDEST PUSH2 0x322B PUSH1 0x8 DUP3 ADD PUSH2 0x314D JUMP JUMPDEST PUSH2 0x100 DUP8 ADD MSTORE ADD SLOAD PUSH1 0xFF AND SWAP1 JUMP JUMPDEST ISZERO ISZERO PUSH2 0x120 DUP5 ADD MSTORE JUMP JUMPDEST SWAP2 PUSH2 0x3260 PUSH2 0x325B DUP5 PUSH1 0x0 MSTORE PUSH1 0xB PUSH1 0x20 MSTORE PUSH1 0x40 PUSH1 0x0 KECCAK256 SWAP1 JUMP JUMPDEST PUSH2 0x319C JUMP JUMPDEST SWAP2 PUSH2 0x3278 PUSH2 0x3270 PUSH1 0xF SLOAD DUP4 PUSH2 0x2530 JUMP JUMPDEST PUSH2 0x2710 SWAP1 DIV SWAP1 JUMP JUMPDEST PUSH1 0x60 SWAP4 SWAP1 SWAP4 ADD DUP1 MLOAD PUSH1 0x0 SWAP5 SWAP4 SWAP1 PUSH2 0x3297 SWAP1 PUSH1 0x1 PUSH1 0x1 PUSH1 0xA0 SHL SUB AND PUSH2 0xA64 JUMP JUMPDEST PUSH1 0x1 PUSH1 0x1 PUSH1 0xA0 SHL SUB SWAP1 SWAP2 AND SWAP1 DUP2 SUB PUSH2 0x33CB JUMPI JUMPDEST PUSH2 0x32BD DUP6 PUSH2 0x32B8 DUP7 DUP7 PUSH2 0x30F5 JUMP JUMPDEST PUSH2 0x30F5 JUMP JUMPDEST SWAP2 DUP5 DUP1 ISZERO DUP1 ISZERO PUSH2 0x338F JUMPI JUMPDEST POP POP DUP6 DUP1 ISZERO DUP1 ISZERO PUSH2 0x3350 JUMPI JUMPDEST POP POP POP DUP2 ISZERO DUP1 ISZERO PUSH2 0x332A JUMPI JUMPDEST POP POP POP PUSH2 0x3325 PUSH32 0x4E35AA6E33AA135CA4F8D8472F2EC43CBDAA410CE540B0D5522FA4EDF8FF2501 SWAP4 PUSH1 0x40 MLOAD SWAP4 DUP5 SWAP4 DUP5 PUSH1 0x40 SWAP2 SWAP5 SWAP4 SWAP3 PUSH1 0x60 DUP3 ADD SWAP6 DUP3 MSTORE PUSH1 0x20 DUP3 ADD MSTORE ADD MSTORE JUMP JUMPDEST SUB SWAP1 LOG2 JUMP JUMPDEST PUSH1 0x0 DUP1 SWAP4 DUP2 SWAP4 DUP3 SWAP4 DUP4 SWAP1 PUSH2 0x3347 JUMPI JUMPDEST CALL ISZERO PUSH2 0x8B1 JUMPI CODESIZE DUP1 DUP1 PUSH2 0x32E0 JUMP JUMPDEST POP PUSH2 0x8FC PUSH2 0x3339 JUMP JUMPDEST SWAP2 MLOAD PUSH1 0x0 SWAP3 DUP4 SWAP3 DUP4 SWAP3 DUP4 SWAP3 SWAP1 PUSH2 0x3370 SWAP1 PUSH2 0xA64 SWAP1 PUSH1 0x1 PUSH1 0x1 PUSH1 0xA0 SHL SUB AND DUP2 JUMP JUMPDEST SWAP1 DUP4 SWAP1 PUSH2 0x3386 JUMPI JUMPDEST CALL ISZERO PUSH2 0x8B1 JUMPI CODESIZE DUP6 DUP2 PUSH2 0x32D4 JUMP JUMPDEST POP PUSH2 0x8FC PUSH2 0x3378 JUMP JUMPDEST PUSH1 0x0 DUP1 DUP1 SWAP4 DUP2 SWAP4 PUSH2 0x33AD PUSH2 0xA64 PUSH2 0xA64 PUSH1 0x10 SLOAD PUSH1 0x1 DUP1 PUSH1 0xA0 SHL SUB AND SWAP1 JUMP JUMPDEST SWAP1 DUP4 SWAP1 PUSH2 0x33C2 JUMPI JUMPDEST CALL ISZERO PUSH2 0x8B1 JUMPI DUP5 CODESIZE PUSH2 0x32C8 JUMP JUMPDEST POP PUSH2 0x8FC PUSH2 0x33B5 JUMP JUMPDEST SWAP4 POP PUSH2 0x33F4 PUSH2 0x3270 PUSH2 0x33EE PUSH2 0x33E2 PUSH1 0x10 SLOAD PUSH1 0xA0 SHR SWAP1 JUMP JUMPDEST PUSH1 0x1 PUSH1 0x1 PUSH1 0x60 SHL SUB AND SWAP1 JUMP JUMPDEST DUP5 PUSH2 0x2530 JUMP JUMPDEST SWAP4 PUSH2 0x32AA JUMP JUMPDEST PUSH1 0x0 DUP3 DUP2 MSTORE PUSH1 0x4 PUSH1 0x20 MSTORE PUSH1 0x40 DUP2 KECCAK256 SLOAD SWAP1 SWAP3 SWAP2 SWAP1 PUSH1 0x1 PUSH1 0x1 PUSH1 0xA0 SHL SUB SWAP1 DUP2 AND PUSH2 0x34D7 JUMPI JUMPDEST DUP3 DUP5 MSTORE PUSH1 0x4 PUSH1 0x20 MSTORE PUSH1 0x40 DUP5 KECCAK256 SLOAD PUSH32 0xDDF252AD1BE2C89B69C2B068FC378DAA952BA7F163C4A11628F55A4DF523B3EF SWAP1 PUSH1 0x1 PUSH1 0x1 PUSH1 0xA0 SHL SUB AND SWAP5 PUSH2 0x3480 DUP4 DUP8 AND SWAP4 DUP5 PUSH2 0x34A9 JUMPI JUMPDEST DUP6 AND SWAP5 DUP6 PUSH2 0x3485 JUMPI JUMPDEST PUSH2 0x5F7 DUP8 PUSH1 0x0 MSTORE PUSH1 0x4 PUSH1 0x20 MSTORE PUSH1 0x40 PUSH1 0x0 KECCAK256 SWAP1 JUMP JUMPDEST DUP1 LOG4 SWAP1 JUMP JUMPDEST PUSH1 0x1 PUSH1 0x1 PUSH1 0xA0 SHL SUB DUP2 AND PUSH1 0x0 SWAP1 DUP2 MSTORE PUSH1 0x5 PUSH1 0x20 MSTORE PUSH1 0x40 SWAP1 KECCAK256 PUSH1 0x1 DUP2 SLOAD ADD SWAP1 SSTORE PUSH2 0x346C JUMP JUMPDEST PUSH2 0x34B2 DUP8 PUSH2 0x22F7 JUMP JUMPDEST PUSH1 0x1 PUSH1 0x1 PUSH1 0xA0 SHL SUB DUP9 AND PUSH1 0x0 SWAP1 DUP2 MSTORE PUSH1 0x5 PUSH1 0x20 MSTORE PUSH1 0x40 SWAP1 KECCAK256 DUP1 SLOAD PUSH1 0x0 NOT ADD SWAP1 SSTORE PUSH2 0x3463 JUMP JUMPDEST PUSH1 0xB PUSH1 0x20 MSTORE PUSH2 0x34F0 PUSH1 0xFF PUSH1 0x9 PUSH1 0x40 DUP8 KECCAK256 ADD SLOAD AND ISZERO PUSH2 0x2F4E JUMP JUMPDEST PUSH2 0x341D JUMP JUMPDEST PUSH1 0x1 PUSH1 0x1 PUSH1 0xA0 SHL SUB SWAP1 DUP3 DUP3 AND DUP1 ISZERO ISZERO SWAP1 DUP2 PUSH2 0x3560 JUMPI JUMPDEST POP ISZERO PUSH2 0x3517 JUMPI POP POP POP POP JUMP JUMPDEST AND PUSH2 0x3535 JUMPI PUSH1 0x40 MLOAD PUSH4 0x7E273289 PUSH1 0xE0 SHL DUP2 MSTORE PUSH1 0x4 DUP2 ADD DUP4 SWAP1 MSTORE PUSH1 0x24 SWAP1 REVERT JUMPDEST PUSH1 0x40 MLOAD PUSH4 0x177E802F PUSH1 0xE0 SHL DUP2 MSTORE PUSH1 0x1 PUSH1 0x1 PUSH1 0xA0 SHL SUB SWAP2 SWAP1 SWAP2 AND PUSH1 0x4 DUP3 ADD MSTORE PUSH1 0x24 DUP2 ADD SWAP2 SWAP1 SWAP2 MSTORE PUSH1 0x44 SWAP1 REVERT JUMPDEST DUP3 DUP5 AND DUP1 DUP3 EQ SWAP3 POP DUP3 ISZERO PUSH2 0x3598 JUMPI JUMPDEST POP DUP2 ISZERO PUSH2 0x357E JUMPI JUMPDEST POP CODESIZE PUSH2 0x350B JUMP JUMPDEST SWAP1 POP DUP5 PUSH1 0x0 MSTORE PUSH1 0x6 PUSH1 0x20 MSTORE DUP3 PUSH1 0x40 PUSH1 0x0 KECCAK256 SLOAD AND EQ CODESIZE PUSH2 0x3577 JUMP JUMPDEST SWAP1 SWAP2 POP PUSH1 0x0 MSTORE PUSH1 0x7 PUSH1 0x20 MSTORE PUSH1 0xFF PUSH2 0x35C5 DUP6 PUSH1 0x40 PUSH1 0x0 KECCAK256 SWAP1 PUSH1 0x1 DUP1 PUSH1 0xA0 SHL SUB AND PUSH1 0x0 MSTORE PUSH1 0x20 MSTORE PUSH1 0x40 PUSH1 0x0 KECCAK256 SWAP1 JUMP JUMPDEST SLOAD AND SWAP1 CODESIZE PUSH2 0x356F JUMP JUMPDEST PUSH2 0x35D6 PUSH2 0x2158 JUMP JUMPDEST PUSH1 0x0 JUMPDEST DUP2 MLOAD DUP2 LT ISZERO PUSH2 0x3644 JUMPI DUP1 PUSH2 0x35F0 PUSH2 0x3615 SWAP3 DUP5 PUSH2 0x2E1C JUMP JUMPDEST MLOAD PUSH1 0x0 MSTORE PUSH1 0x20 PUSH1 0x4 DUP2 MSTORE PUSH1 0x40 PUSH1 0x1 DUP1 PUSH1 0xA0 SHL SUB DUP2 PUSH1 0x0 KECCAK256 SLOAD AND PUSH2 0x361A JUMPI JUMPDEST POP POP PUSH2 0x2658 JUMP JUMPDEST PUSH2 0x35D9 JUMP JUMPDEST PUSH1 0xB PUSH1 0x9 SWAP3 PUSH2 0x3629 DUP6 DUP9 PUSH2 0x2E1C JUMP JUMPDEST MLOAD PUSH1 0x0 MSTORE MSTORE PUSH1 0x0 KECCAK256 ADD PUSH1 0x1 PUSH1 0xFF NOT DUP3 SLOAD AND OR SWAP1 SSTORE CODESIZE DUP1 PUSH2 0x360E JUMP JUMPDEST POP POP JUMP JUMPDEST PUSH1 0x40 MLOAD SWAP1 PUSH2 0x3655 DUP3 PUSH2 0xAED JUMP JUMPDEST PUSH1 0x2A DUP3 MSTORE PUSH1 0x40 CALLDATASIZE PUSH1 0x20 DUP5 ADD CALLDATACOPY JUMP JUMPDEST SWAP1 PUSH2 0x366D DUP3 PUSH2 0xB60 JUMP JUMPDEST PUSH2 0x367A PUSH1 0x40 MLOAD SWAP2 DUP3 PUSH2 0xB23 JUMP JUMPDEST DUP3 DUP2 MSTORE DUP1 SWAP3 PUSH2 0x368B PUSH1 0x1F NOT SWAP2 PUSH2 0xB60 JUMP JUMPDEST ADD SWAP1 PUSH1 0x20 CALLDATASIZE SWAP2 ADD CALLDATACOPY JUMP JUMPDEST DUP1 PUSH1 0x0 SWAP2 PUSH27 0x184F03E93FF9F4DAA797ED6E38ED64BF6A1F010000000000000000 DUP1 DUP3 LT ISZERO PUSH2 0x37CA JUMPI JUMPDEST POP PUSH14 0x4EE2D6D415B85ACEF8100000000 DUP1 DUP4 LT ISZERO PUSH2 0x37BB JUMPI JUMPDEST POP PUSH7 0x2386F26FC10000 DUP1 DUP4 LT ISZERO PUSH2 0x37AC JUMPI JUMPDEST POP PUSH4 0x5F5E100 DUP1 DUP4 LT ISZERO PUSH2 0x379D JUMPI JUMPDEST POP PUSH2 0x2710 DUP1 DUP4 LT ISZERO PUSH2 0x378E JUMPI JUMPDEST POP PUSH1 0x64 DUP3 LT ISZERO PUSH2 0x377E JUMPI JUMPDEST PUSH1 0xA DUP1 SWAP3 LT ISZERO PUSH2 0x3774 JUMPI JUMPDEST PUSH1 0x1 SWAP1 DUP2 PUSH1 0x21 PUSH2 0x372C DUP3 DUP8 ADD PUSH2 0x3663 JUMP JUMPDEST SWAP6 DUP7 ADD ADD SWAP1 JUMPDEST PUSH2 0x373E JUMPI JUMPDEST POP POP POP POP SWAP1 JUMP JUMPDEST PUSH1 0x0 NOT ADD SWAP1 DUP4 SWAP1 PUSH16 0x181899199A1A9B1B9C1CB0B131B232B3 PUSH1 0x81 SHL DUP3 DUP3 MOD BYTE DUP4 MSTORE8 DIV SWAP2 DUP3 ISZERO PUSH2 0x376F JUMPI SWAP2 SWAP1 DUP3 PUSH2 0x3732 JUMP JUMPDEST PUSH2 0x3737 JUMP JUMPDEST SWAP2 PUSH1 0x1 ADD SWAP2 PUSH2 0x371B JUMP JUMPDEST SWAP2 SWAP1 PUSH1 0x64 PUSH1 0x2 SWAP2 DIV SWAP2 ADD SWAP2 PUSH2 0x3710 JUMP JUMPDEST PUSH1 0x4 SWAP2 SWAP4 SWAP3 DIV SWAP2 ADD SWAP2 CODESIZE PUSH2 0x3705 JUMP JUMPDEST PUSH1 0x8 SWAP2 SWAP4 SWAP3 DIV SWAP2 ADD SWAP2 CODESIZE PUSH2 0x36F8 JUMP JUMPDEST PUSH1 0x10 SWAP2 SWAP4 SWAP3 DIV SWAP2 ADD SWAP2 CODESIZE PUSH2 0x36E9 JUMP JUMPDEST PUSH1 0x20 SWAP2 SWAP4 SWAP3 DIV SWAP2 ADD SWAP2 CODESIZE PUSH2 0x36D7 JUMP JUMPDEST PUSH1 0x40 SWAP4 POP DUP2 DIV SWAP2 POP CODESIZE PUSH2 0x36BE JUMP JUMPDEST SWAP1 PUSH1 0x2 DUP3 ADD DUP1 SWAP3 GT PUSH2 0x252B JUMPI JUMP JUMPDEST SWAP1 PUSH1 0x20 DUP3 ADD DUP1 SWAP3 GT PUSH2 0x252B JUMPI JUMP JUMPDEST DUP1 MLOAD ISZERO PUSH2 0x6C2 JUMPI PUSH1 0x20 ADD SWAP1 JUMP JUMPDEST DUP1 MLOAD PUSH1 0x1 LT ISZERO PUSH2 0x6C2 JUMPI PUSH1 0x21 ADD SWAP1 JUMP JUMPDEST SWAP1 DUP2 MLOAD DUP2 LT ISZERO PUSH2 0x6C2 JUMPI ADD PUSH1 0x20 ADD SWAP1 JUMP JUMPDEST DUP1 ISZERO PUSH2 0x252B JUMPI PUSH1 0x0 NOT ADD SWAP1 JUMP JUMPDEST DUP1 PUSH2 0x3838 PUSH2 0x3648 JUMP JUMPDEST SWAP2 PUSH1 0x30 PUSH2 0x3844 DUP5 PUSH2 0x37F4 JUMP JUMPDEST MSTORE8 PUSH1 0x78 PUSH2 0x3850 DUP5 PUSH2 0x3801 JUMP JUMPDEST MSTORE8 PUSH1 0x29 JUMPDEST PUSH1 0x1 DUP2 GT PUSH2 0x3886 JUMPI POP PUSH2 0x3865 JUMPI POP SWAP1 JUMP JUMPDEST PUSH1 0x40 MLOAD PUSH4 0xE22E27EB PUSH1 0xE0 SHL DUP2 MSTORE PUSH1 0x4 DUP2 ADD SWAP2 SWAP1 SWAP2 MSTORE PUSH1 0x14 PUSH1 0x24 DUP3 ADD MSTORE PUSH1 0x44 SWAP1 REVERT JUMPDEST SWAP1 PUSH1 0xF DUP2 AND SWAP1 PUSH1 0x10 DUP3 LT ISZERO PUSH2 0x6C2 JUMPI PUSH2 0x38C3 SWAP2 PUSH16 0x181899199A1A9B1B9C1CB0B131B232B3 PUSH1 0x81 SHL SWAP1 BYTE PUSH2 0x38B9 DUP5 DUP8 PUSH2 0x3811 JUMP JUMPDEST MSTORE8 PUSH1 0x4 SHR SWAP2 PUSH2 0x3822 JUMP JUMPDEST PUSH2 0x3854 JUMP JUMPDEST PUSH1 0x40 MLOAD SWAP1 PUSH2 0x38D5 DUP3 PUSH2 0xAED JUMP JUMPDEST PUSH1 0x40 DUP3 MSTORE PUSH32 0x6768696A6B6C6D6E6F707172737475767778797A303132333435363738392B2F PUSH1 0x40 DUP4 PUSH32 0x4142434445464748494A4B4C4D4E4F505152535455565758595A616263646566 PUSH1 0x20 DUP3 ADD MSTORE ADD MSTORE JUMP JUMPDEST DUP1 MLOAD ISZERO PUSH2 0x3A17 JUMPI PUSH2 0x3936 PUSH2 0x38C8 JUMP JUMPDEST PUSH2 0x3952 PUSH2 0x394D PUSH2 0x3946 DUP5 MLOAD PUSH2 0x37D8 JUMP JUMPDEST PUSH1 0x3 SWAP1 DIV SWAP1 JUMP JUMPDEST PUSH2 0x2513 JUMP JUMPDEST SWAP2 PUSH2 0x3964 PUSH2 0x395F DUP5 PUSH2 0x37E6 JUMP JUMPDEST PUSH2 0x3663 JUMP JUMPDEST PUSH1 0x0 SWAP5 SWAP1 PUSH1 0x20 DUP2 ADD JUMPDEST DUP4 MLOAD DUP8 LT ISZERO PUSH2 0x39CF JUMPI PUSH1 0x4 PUSH1 0x3 SWAP2 DUP9 DUP7 ADD MLOAD PUSH1 0x1 PUSH1 0x3F SWAP1 DUP1 DUP3 DUP5 PUSH1 0x12 SHR AND DUP12 ADD ADD MLOAD SWAP2 DUP11 PUSH1 0xFF SWAP4 DUP5 DUP5 DUP5 DUP9 PUSH1 0xC SHR AND DUP5 ADD ADD MLOAD AND DUP6 DUP6 PUSH1 0x8 SWAP5 DUP7 DUP11 PUSH1 0x6 SHR AND ADD ADD MLOAD AND SWAP2 DUP4 SHL ADD DUP3 SHL ADD SWAP1 SHL SWAP4 AND DUP11 ADD ADD MLOAD AND ADD PUSH1 0xE0 SHL DUP2 MSTORE ADD SWAP7 ADD SWAP6 PUSH2 0x396D JUMP JUMPDEST SWAP3 SWAP1 SWAP5 SWAP4 POP PUSH1 0x3 SWAP2 SWAP6 POP MLOAD MOD DUP1 PUSH1 0x1 EQ PUSH2 0x3A03 JUMPI PUSH1 0x2 EQ PUSH2 0x39F1 JUMPI JUMPDEST POP DUP2 MSTORE SWAP1 JUMP JUMPDEST PUSH1 0x3D PUSH1 0xF8 SHL PUSH1 0x0 NOT SWAP1 SWAP2 ADD MSTORE CODESIZE PUSH2 0x39EB JUMP JUMPDEST POP PUSH2 0x3D3D PUSH1 0xF0 SHL PUSH1 0x1 NOT SWAP1 SWAP2 ADD MSTORE CODESIZE PUSH2 0x39EB JUMP JUMPDEST POP PUSH2 0x40C PUSH2 0x22E4 JUMP INVALID LOG2 PUSH5 0x6970667358 0x22 SLT KECCAK256 0x23 0x2F 0xBE 0x2D 0xC PUSH14 0x6317A32E21F70707065DBCE74D7 DIV 0xF6 PUSH27 0x9B7CFD3F54F2E58A6C64736F6C6343000814003300000000000000 "},"methodIdentifiers":{"approve(address,uint256)":"095ea7b3","articles(uint256)":"edcfafe6","authorArticles(address,uint256)":"101a3cc4","balanceOf(address)":"70a08231","buyArticle(uint256)":"1cc4baa8","cancelSale(uint256)":"bd94b005","defaultRoyaltyPercent()":"4e42f6ae","emergencyLockTransfers(uint256[])":"9f8643b0","getApproved(uint256)":"081812fc","getArticleInfo(uint256)":"85aca317","getAuthorArticles(address)":"82a950db","ipfsHashToToken(string)":"6fd42f4a","isApprovedForAll(address,address)":"e985e9c5","listForSale(uint256,uint256,uint256)":"ee3c65d5","mintArticleNFT(address,string,string,bytes32[])":"6f4eb1a8","mintBatch(address[],string[],string[],bytes32[][])":"598d79bb","mintFee()":"13966db5","name()":"06fdde03","owner()":"8da5cb5b","ownerOf(uint256)":"6352211e","platformFeePercent()":"8c639a85","platformFeeRecipient()":"eb13554f","publicMintEnabled()":"0f4161aa","renounceOwnership()":"715018a6","royaltyInfo(uint256,uint256)":"2a55205a","safeTransferFrom(address,address,uint256)":"42842e0e","safeTransferFrom(address,address,uint256,bytes)":"b88d4fde","saleInfo(uint256)":"02eb4b88","setApprovalForAll(address,bool)":"a22cb465","setMintFee(uint256)":"eddd0d9c","setPlatformFeePercent(uint256)":"cab230d2","setPublicMintEnabled(bool)":"818668d7","setTransferLock(uint256,bool)":"20d4ab5a","supportsInterface(bytes4)":"01ffc9a7","symbol()":"95d89b41","tokenURI(uint256)":"c87b56dd","totalSupply()":"18160ddd","transferFrom(address,address,uint256)":"23b872dd","transferOwnership(address)":"f2fde38b","updateArticle(uint256,string,uint8)":"427440b8","updateArticleStats(uint256,uint256,uint256)":"4d30823f","verifyContent(uint256,string)":"e5f46406","withdraw()":"3ccfd60b"}}}}}