{
  "_format": "hh-sol-artifact-1",
  "contractName": "MovieArticle",
  "sourceName": "contracts/MovieArticle.sol",
  "abi": [
    {
      "inputs": [
        {
          "internalType": "address",
          "name": "_rewardToken",
          "type": "address"
        }
      ],
      "stateMutability": "nonpayable",
      "type": "constructor"
    },
    {
      "inputs": [
        {
          "internalType": "address",
          "name": "sender",
          "type": "address"
        },
        {
          "internalType": "uint256",
          "name": "tokenId",
          "type": "uint256"
        },
        {
          "internalType": "address",
          "name": "owner",
          "type": "address"
        }
      ],
      "name": "ERC721IncorrectOwner",
      "type": "error"
    },
    {
      "inputs": [
        {
          "internalType": "address",
          "name": "operator",
          "type": "address"
        },
        {
          "internalType": "uint256",
          "name": "tokenId",
          "type": "uint256"
        }
      ],
      "name": "ERC721InsufficientApproval",
      "type": "error"
    },
    {
      "inputs": [
        {
          "internalType": "address",
          "name": "approver",
          "type": "address"
        }
      ],
      "name": "ERC721InvalidApprover",
      "type": "error"
    },
    {
      "inputs": [
        {
          "internalType": "address",
          "name": "operator",
          "type": "address"
        }
      ],
      "name": "ERC721InvalidOperator",
      "type": "error"
    },
    {
      "inputs": [
        {
          "internalType": "address",
          "name": "owner",
          "type": "address"
        }
      ],
      "name": "ERC721InvalidOwner",
      "type": "error"
    },
    {
      "inputs": [
        {
          "internalType": "address",
          "name": "receiver",
          "type": "address"
        }
      ],
      "name": "ERC721InvalidReceiver",
      "type": "error"
    },
    {
      "inputs": [
        {
          "internalType": "address",
          "name": "sender",
          "type": "address"
        }
      ],
      "name": "ERC721InvalidSender",
      "type": "error"
    },
    {
      "inputs": [
        {
          "internalType": "uint256",
          "name": "tokenId",
          "type": "uint256"
        }
      ],
      "name": "ERC721NonexistentToken",
      "type": "error"
    },
    {
      "inputs": [
        {
          "internalType": "address",
          "name": "owner",
          "type": "address"
        }
      ],
      "name": "OwnableInvalidOwner",
      "type": "error"
    },
    {
      "inputs": [
        {
          "internalType": "address",
          "name": "account",
          "type": "address"
        }
      ],
      "name": "OwnableUnauthorizedAccount",
      "type": "error"
    },
    {
      "inputs": [],
      "name": "ReentrancyGuardReentrantCall",
      "type": "error"
    },
    {
      "anonymous": false,
      "inputs": [
        {
          "indexed": true,
          "internalType": "address",
          "name": "owner",
          "type": "address"
        },
        {
          "indexed": true,
          "internalType": "address",
          "name": "approved",
          "type": "address"
        },
        {
          "indexed": true,
          "internalType": "uint256",
          "name": "tokenId",
          "type": "uint256"
        }
      ],
      "name": "Approval",
      "type": "event"
    },
    {
      "anonymous": false,
      "inputs": [
        {
          "indexed": true,
          "internalType": "address",
          "name": "owner",
          "type": "address"
        },
        {
          "indexed": true,
          "internalType": "address",
          "name": "operator",
          "type": "address"
        },
        {
          "indexed": false,
          "internalType": "bool",
          "name": "approved",
          "type": "bool"
        }
      ],
      "name": "ApprovalForAll",
      "type": "event"
    },
    {
      "anonymous": false,
      "inputs": [
        {
          "indexed": true,
          "internalType": "uint256",
          "name": "articleId",
          "type": "uint256"
        },
        {
          "indexed": false,
          "internalType": "uint256",
          "name": "totalRewards",
          "type": "uint256"
        }
      ],
      "name": "ArticleCompleted",
      "type": "event"
    },
    {
      "anonymous": false,
      "inputs": [
        {
          "indexed": true,
          "internalType": "uint256",
          "name": "articleId",
          "type": "uint256"
        },
        {
          "indexed": true,
          "internalType": "address",
          "name": "creator",
          "type": "address"
        },
        {
          "indexed": false,
          "internalType": "string",
          "name": "title",
          "type": "string"
        }
      ],
      "name": "ArticleCreated",
      "type": "event"
    },
    {
      "anonymous": false,
      "inputs": [
        {
          "indexed": true,
          "internalType": "uint256",
          "name": "contributionId",
          "type": "uint256"
        },
        {
          "indexed": true,
          "internalType": "uint256",
          "name": "articleId",
          "type": "uint256"
        },
        {
          "indexed": true,
          "internalType": "address",
          "name": "contributor",
          "type": "address"
        }
      ],
      "name": "ContributionAdded",
      "type": "event"
    },
    {
      "anonymous": false,
      "inputs": [
        {
          "indexed": true,
          "internalType": "uint256",
          "name": "contributionId",
          "type": "uint256"
        },
        {
          "indexed": false,
          "internalType": "uint256",
          "name": "reward",
          "type": "uint256"
        }
      ],
      "name": "ContributionApproved",
      "type": "event"
    },
    {
      "anonymous": false,
      "inputs": [
        {
          "indexed": true,
          "internalType": "uint256",
          "name": "contributionId",
          "type": "uint256"
        },
        {
          "indexed": true,
          "internalType": "address",
          "name": "liker",
          "type": "address"
        }
      ],
      "name": "ContributionLiked",
      "type": "event"
    },
    {
      "anonymous": false,
      "inputs": [
        {
          "indexed": true,
          "internalType": "address",
          "name": "previousOwner",
          "type": "address"
        },
        {
          "indexed": true,
          "internalType": "address",
          "name": "newOwner",
          "type": "address"
        }
      ],
      "name": "OwnershipTransferred",
      "type": "event"
    },
    {
      "anonymous": false,
      "inputs": [
        {
          "indexed": true,
          "internalType": "uint256",
          "name": "articleId",
          "type": "uint256"
        },
        {
          "indexed": false,
          "internalType": "uint256",
          "name": "totalAmount",
          "type": "uint256"
        }
      ],
      "name": "RewardsDistributed",
      "type": "event"
    },
    {
      "anonymous": false,
      "inputs": [
        {
          "indexed": true,
          "internalType": "address",
          "name": "from",
          "type": "address"
        },
        {
          "indexed": true,
          "internalType": "address",
          "name": "to",
          "type": "address"
        },
        {
          "indexed": true,
          "internalType": "uint256",
          "name": "tokenId",
          "type": "uint256"
        }
      ],
      "name": "Transfer",
      "type": "event"
    },
    {
      "inputs": [
        {
          "internalType": "uint256",
          "name": "_articleId",
          "type": "uint256"
        },
        {
          "internalType": "string",
          "name": "_content",
          "type": "string"
        }
      ],
      "name": "addContribution",
      "outputs": [],
      "stateMutability": "nonpayable",
      "type": "function"
    },
    {
      "inputs": [
        {
          "internalType": "address",
          "name": "to",
          "type": "address"
        },
        {
          "internalType": "uint256",
          "name": "tokenId",
          "type": "uint256"
        }
      ],
      "name": "approve",
      "outputs": [],
      "stateMutability": "nonpayable",
      "type": "function"
    },
    {
      "inputs": [
        {
          "internalType": "uint256",
          "name": "_contributionId",
          "type": "uint256"
        },
        {
          "internalType": "uint256",
          "name": "_reward",
          "type": "uint256"
        }
      ],
      "name": "approveContribution",
      "outputs": [],
      "stateMutability": "nonpayable",
      "type": "function"
    },
    {
      "inputs": [
        {
          "internalType": "uint256",
          "name": "",
          "type": "uint256"
        },
        {
          "internalType": "uint256",
          "name": "",
          "type": "uint256"
        }
      ],
      "name": "articleContributions",
      "outputs": [
        {
          "internalType": "uint256",
          "name": "",
          "type": "uint256"
        }
      ],
      "stateMutability": "view",
      "type": "function"
    },
    {
      "inputs": [
        {
          "internalType": "uint256",
          "name": "",
          "type": "uint256"
        }
      ],
      "name": "articles",
      "outputs": [
        {
          "internalType": "uint256",
          "name": "id",
          "type": "uint256"
        },
        {
          "internalType": "string",
          "name": "title",
          "type": "string"
        },
        {
          "internalType": "string",
          "name": "movieTitle",
          "type": "string"
        },
        {
          "internalType": "string",
          "name": "genre",
          "type": "string"
        },
        {
          "internalType": "address",
          "name": "creator",
          "type": "address"
        },
        {
          "internalType": "uint256",
          "name": "createdAt",
          "type": "uint256"
        },
        {
          "internalType": "uint256",
          "name": "totalContributions",
          "type": "uint256"
        },
        {
          "internalType": "uint256",
          "name": "totalRewards",
          "type": "uint256"
        },
        {
          "internalType": "bool",
          "name": "isCompleted",
          "type": "bool"
        },
        {
          "internalType": "uint256",
          "name": "minContributionLength",
          "type": "uint256"
        },
        {
          "internalType": "uint256",
          "name": "maxContributors",
          "type": "uint256"
        }
      ],
      "stateMutability": "view",
      "type": "function"
    },
    {
      "inputs": [
        {
          "internalType": "address",
          "name": "owner",
          "type": "address"
        }
      ],
      "name": "balanceOf",
      "outputs": [
        {
          "internalType": "uint256",
          "name": "",
          "type": "uint256"
        }
      ],
      "stateMutability": "view",
      "type": "function"
    },
    {
      "inputs": [
        {
          "internalType": "uint256",
          "name": "_articleId",
          "type": "uint256"
        }
      ],
      "name": "completeArticle",
      "outputs": [],
      "stateMutability": "nonpayable",
      "type": "function"
    },
    {
      "inputs": [
        {
          "internalType": "uint256",
          "name": "",
          "type": "uint256"
        }
      ],
      "name": "contributions",
      "outputs": [
        {
          "internalType": "uint256",
          "name": "id",
          "type": "uint256"
        },
        {
          "internalType": "uint256",
          "name": "articleId",
          "type": "uint256"
        },
        {
          "internalType": "address",
          "name": "contributor",
          "type": "address"
        },
        {
          "internalType": "string",
          "name": "content",
          "type": "string"
        },
        {
          "internalType": "uint256",
          "name": "timestamp",
          "type": "uint256"
        },
        {
          "internalType": "uint256",
          "name": "likes",
          "type": "uint256"
        },
        {
          "internalType": "uint256",
          "name": "rewards",
          "type": "uint256"
        },
        {
          "internalType": "bool",
          "name": "isApproved",
          "type": "bool"
        }
      ],
      "stateMutability": "view",
      "type": "function"
    },
    {
      "inputs": [
        {
          "internalType": "string",
          "name": "_title",
          "type": "string"
        },
        {
          "internalType": "string",
          "name": "_movieTitle",
          "type": "string"
        },
        {
          "internalType": "string",
          "name": "_genre",
          "type": "string"
        },
        {
          "internalType": "uint256",
          "name": "_minContributionLength",
          "type": "uint256"
        },
        {
          "internalType": "uint256",
          "name": "_maxContributors",
          "type": "uint256"
        }
      ],
      "name": "createArticle",
      "outputs": [
        {
          "internalType": "uint256",
          "name": "",
          "type": "uint256"
        }
      ],
      "stateMutability": "nonpayable",
      "type": "function"
    },
    {
      "inputs": [
        {
          "internalType": "uint256",
          "name": "tokenId",
          "type": "uint256"
        }
      ],
      "name": "getApproved",
      "outputs": [
        {
          "internalType": "address",
          "name": "",
          "type": "address"
        }
      ],
      "stateMutability": "view",
      "type": "function"
    },
    {
      "inputs": [
        {
          "internalType": "uint256",
          "name": "_articleId",
          "type": "uint256"
        }
      ],
      "name": "getArticleContributions",
      "outputs": [
        {
          "internalType": "uint256[]",
          "name": "",
          "type": "uint256[]"
        }
      ],
      "stateMutability": "view",
      "type": "function"
    },
    {
      "inputs": [],
      "name": "getTotalArticles",
      "outputs": [
        {
          "internalType": "uint256",
          "name": "",
          "type": "uint256"
        }
      ],
      "stateMutability": "view",
      "type": "function"
    },
    {
      "inputs": [],
      "name": "getTotalContributions",
      "outputs": [
        {
          "internalType": "uint256",
          "name": "",
          "type": "uint256"
        }
      ],
      "stateMutability": "view",
      "type": "function"
    },
    {
      "inputs": [
        {
          "internalType": "address",
          "name": "_user",
          "type": "address"
        }
      ],
      "name": "getUserContributions",
      "outputs": [
        {
          "internalType": "uint256[]",
          "name": "",
          "type": "uint256[]"
        }
      ],
      "stateMutability": "view",
      "type": "function"
    },
    {
      "inputs": [
        {
          "internalType": "uint256",
          "name": "",
          "type": "uint256"
        },
        {
          "internalType": "address",
          "name": "",
          "type": "address"
        }
      ],
      "name": "hasContributed",
      "outputs": [
        {
          "internalType": "bool",
          "name": "",
          "type": "bool"
        }
      ],
      "stateMutability": "view",
      "type": "function"
    },
    {
      "inputs": [
        {
          "internalType": "uint256",
          "name": "",
          "type": "uint256"
        },
        {
          "internalType": "address",
          "name": "",
          "type": "address"
        }
      ],
      "name": "hasLiked",
      "outputs": [
        {
          "internalType": "bool",
          "name": "",
          "type": "bool"
        }
      ],
      "stateMutability": "view",
      "type": "function"
    },
    {
      "inputs": [
        {
          "internalType": "address",
          "name": "owner",
          "type": "address"
        },
        {
          "internalType": "address",
          "name": "operator",
          "type": "address"
        }
      ],
      "name": "isApprovedForAll",
      "outputs": [
        {
          "internalType": "bool",
          "name": "",
          "type": "bool"
        }
      ],
      "stateMutability": "view",
      "type": "function"
    },
    {
      "inputs": [
        {
          "internalType": "uint256",
          "name": "_contributionId",
          "type": "uint256"
        }
      ],
      "name": "likeContribution",
      "outputs": [],
      "stateMutability": "nonpayable",
      "type": "function"
    },
    {
      "inputs": [],
      "name": "name",
      "outputs": [
        {
          "internalType": "string",
          "name": "",
          "type": "string"
        }
      ],
      "stateMutability": "view",
      "type": "function"
    },
    {
      "inputs": [],
      "name": "owner",
      "outputs": [
        {
          "internalType": "address",
          "name": "",
          "type": "address"
        }
      ],
      "stateMutability": "view",
      "type": "function"
    },
    {
      "inputs": [
        {
          "internalType": "uint256",
          "name": "tokenId",
          "type": "uint256"
        }
      ],
      "name": "ownerOf",
      "outputs": [
        {
          "internalType": "address",
          "name": "",
          "type": "address"
        }
      ],
      "stateMutability": "view",
      "type": "function"
    },
    {
      "inputs": [],
      "name": "renounceOwnership",
      "outputs": [],
      "stateMutability": "nonpayable",
      "type": "function"
    },
    {
      "inputs": [],
      "name": "rewardToken",
      "outputs": [
        {
          "internalType": "contract IERC20",
          "name": "",
          "type": "address"
        }
      ],
      "stateMutability": "view",
      "type": "function"
    },
    {
      "inputs": [
        {
          "internalType": "address",
          "name": "from",
          "type": "address"
        },
        {
          "internalType": "address",
          "name": "to",
          "type": "address"
        },
        {
          "internalType": "uint256",
          "name": "tokenId",
          "type": "uint256"
        }
      ],
      "name": "safeTransferFrom",
      "outputs": [],
      "stateMutability": "nonpayable",
      "type": "function"
    },
    {
      "inputs": [
        {
          "internalType": "address",
          "name": "from",
          "type": "address"
        },
        {
          "internalType": "address",
          "name": "to",
          "type": "address"
        },
        {
          "internalType": "uint256",
          "name": "tokenId",
          "type": "uint256"
        },
        {
          "internalType": "bytes",
          "name": "data",
          "type": "bytes"
        }
      ],
      "name": "safeTransferFrom",
      "outputs": [],
      "stateMutability": "nonpayable",
      "type": "function"
    },
    {
      "inputs": [
        {
          "internalType": "address",
          "name": "operator",
          "type": "address"
        },
        {
          "internalType": "bool",
          "name": "approved",
          "type": "bool"
        }
      ],
      "name": "setApprovalForAll",
      "outputs": [],
      "stateMutability": "nonpayable",
      "type": "function"
    },
    {
      "inputs": [
        {
          "internalType": "bytes4",
          "name": "interfaceId",
          "type": "bytes4"
        }
      ],
      "name": "supportsInterface",
      "outputs": [
        {
          "internalType": "bool",
          "name": "",
          "type": "bool"
        }
      ],
      "stateMutability": "view",
      "type": "function"
    },
    {
      "inputs": [],
      "name": "symbol",
      "outputs": [
        {
          "internalType": "string",
          "name": "",
          "type": "string"
        }
      ],
      "stateMutability": "view",
      "type": "function"
    },
    {
      "inputs": [
        {
          "internalType": "uint256",
          "name": "tokenId",
          "type": "uint256"
        }
      ],
      "name": "tokenURI",
      "outputs": [
        {
          "internalType": "string",
          "name": "",
          "type": "string"
        }
      ],
      "stateMutability": "view",
      "type": "function"
    },
    {
      "inputs": [
        {
          "internalType": "address",
          "name": "from",
          "type": "address"
        },
        {
          "internalType": "address",
          "name": "to",
          "type": "address"
        },
        {
          "internalType": "uint256",
          "name": "tokenId",
          "type": "uint256"
        }
      ],
      "name": "transferFrom",
      "outputs": [],
      "stateMutability": "nonpayable",
      "type": "function"
    },
    {
      "inputs": [
        {
          "internalType": "address",
          "name": "newOwner",
          "type": "address"
        }
      ],
      "name": "transferOwnership",
      "outputs": [],
      "stateMutability": "nonpayable",
      "type": "function"
    },
    {
      "inputs": [
        {
          "internalType": "address",
          "name": "",
          "type": "address"
        },
        {
          "internalType": "uint256",
          "name": "",
          "type": "uint256"
        }
      ],
      "name": "userContributions",
      "outputs": [
        {
          "internalType": "uint256",
          "name": "",
          "type": "uint256"
        }
      ],
      "stateMutability": "view",
      "type": "function"
    },
    {
      "inputs": [
        {
          "internalType": "uint256",
          "name": "_amount",
          "type": "uint256"
        }
      ],
      "name": "withdrawTokens",
      "outputs": [],
      "stateMutability": "nonpayable",
      "type": "function"
    }
  ],
  "bytecode": "0x608034620003c957601f906001600160401b0390601f1990620027ff388190038581018416830185811184821017620003b357839282916040528339602092839181010312620003c957516001600160a01b03948582169491859003620003c9576200006a620003ce565b92600f84526e135bdd9a59505c9d1a58db19539195608a1b8185015262000090620003ce565b906005825264135053919560da1b81830152845195848711620003b3576000968754966001978881811c91168015620003a8575b85821014620003945790818784931162000341575b508490878311600114620002e0578a92620002d4575b5050600019600383901b1c191690871b1787555b8251948511620002c05785548681811c91168015620002b5575b83821014620002a15790818587969594931162000248575b5081938511600114620001e35750508592620001d7575b5050600019600383901b1c191690821b1781555b3315620001be5760065460018060a01b03199233848316176006557f8be0079c531659141344cd1fd0a4f28419497f9722a3daafe3b4186f6b6457e0604051963393169180a360075560105416176010556124109081620003ef8239f35b604051631e4fbdf760e01b815260048101839052602490fd5b0151905038806200014c565b869593929193168588528388209388905b8282106200022e575050841162000214575b505050811b01815562000160565b015160001960f88460031b161c1916905538808062000206565b8484015186558897909501949384019390810190620001f4565b9091929394508688528288208580880160051c82019285891062000297575b9188978a9297969594930160051c01915b8281106200028857505062000135565b8a815588975089910162000278565b9250819262000267565b634e487b7160e01b88526022600452602488fd5b90607f16906200011d565b634e487b7160e01b87526041600452602487fd5b015190503880620000ef565b90848a9416918b8052868c20928c5b888282106200032a575050841162000310575b505050811b01875562000103565b015160001960f88460031b161c1916905538808062000302565b8385015186558d97909501949384019301620002ef565b909150898052848a208780850160051c8201928786106200038a575b918b91869594930160051c01915b8281106200037b575050620000d9565b8c81558594508b91016200036b565b925081926200035d565b634e487b7160e01b8a52602260045260248afd5b90607f1690620000c4565b634e487b7160e01b600052604160045260246000fd5b600080fd5b60408051919082016001600160401b03811183821017620003b35760405256fe608080604052600436101561001357600080fd5b60003560e01c90816301ffc9a714611cae5750806306fdde0314611c0b578063081812fc14611bcd578063095ea7b314611ae65780630ebf1d3d14611ac85780631cee070014611a2a57806323b872dd14611a1357806330243834146119e2578063315a095d1461196857806342842e0e1461193a5780634fa650f1146114b15780636352211e146114815780636fd91da9146112c057806370a0823114611267578063715018a61461120a5780637331fa95146111b25780638a9a62a8146110545780638da5cb5b1461102b5780638fb7092c14610fde5780639178af6514610a9e57806395d89b41146109bf578063a22cb46514610911578063b5b96ae0146108c4578063b88d4fde14610856578063c87b56dd14610803578063d5df1e1d1461048e578063ddf556d014610470578063e36465a3146103f8578063e3e03dc01461037e578063e985e9c514610328578063edcfafe614610241578063f2fde38b146101b85763f7c618c11461018a57600080fd5b346101b35760003660031901126101b3576010546040516001600160a01b039091168152602090f35b600080fd5b346101b35760203660031901126101b3576101d1611d59565b6101d9611fc8565b6001600160a01b0390811690811561022857600654826001600160601b0360a01b821617600655167f8be0079c531659141344cd1fd0a4f28419497f9722a3daafe3b4186f6b6457e0600080a3005b604051631e4fbdf760e01b815260006004820152602490fd5b346101b35760203660031901126101b357600435600052600a6020526040600020805461027060018301611dfd565b9161027d60028201611dfd565b61028960038301611dfd565b9160018060a01b0360048201541692600582015460068301546007840154916102fb60ff600887015416946102ed600a6009890154980154986102df6040519d8e9d8e528d610160908160208201520190611d19565b8c810360408e015290611d19565b908a820360608c0152611d19565b96608089015260a088015260c087015260e086015215156101008501526101208401526101408301520390f35b346101b35760403660031901126101b357610341611d59565b610349611d6f565b9060018060a01b03809116600052600560205260406000209116600052602052602060ff604060002054166040519015158152f35b346101b3576020806003193601126101b357600435600052600c8152604060002090604051908181845491828152019360005281600020916000905b8282106103e1576103dd856103d181890382611ddb565b60405191829182611f8d565b0390f35b8354865294850194600193840193909101906103ba565b346101b3576020806003193601126101b3576001600160a01b0361041a611d59565b16600052600d8152604060002090604051908181845491828152019360005281600020916000905b828210610459576103dd856103d181890382611ddb565b835486529485019460019384019390910190610442565b346101b35760003660031901126101b3576020600954604051908152f35b346101b3576020806003193601126101b357600435906104ac611fc8565b6104ba6008548311156122f7565b81600052600a815260ff600860406000200154166107bf5781600052600a81526006604060002001541561077b576000828152600a825260409081902060088101805460ff191660011790556004015490516001600160a01b039182169161052182611dbf565b600082528215610762578460005260028452604060002054168483821515928361072f575b60008281526003885260408082208054600101905584825260028952812080546001600160a01b031916841790557fddf252ad1be2c89b69c2b068fc378daa952ba7f163c4a11628f55a4df523b3ef9080a461071657813b6105e0575b837fcecd5d5df52f22750a7b838a07823685059f55f29d937091bb81ff96a6612d8d8482600052600a8152600760406000200154604051908152a2005b604051838180610619630a85bd0160e11b9586835233600484015260006024840152896044840152608060648401526084830190611d19565b03816000875af1600091816106d6575b506106875750503d1561067f573d9161064183611f1c565b9261064f6040519485611ddb565b83523d60008285013e5b8251928361067a57604051633250574960e11b815260048101849052602490fd5b019050fd5b606091610659565b6001600160e01b031916036106be57507fcecd5d5df52f22750a7b838a07823685059f55f29d937091bb81ff96a6612d8d836105a3565b60249060405190633250574960e11b82526004820152fd5b9091508481813d831161070f575b6106ee8183611ddb565b810103126101b357516001600160e01b0319811681036101b3579086610629565b503d6106e4565b6040516339e3563760e11b815260006004820152602490fd5b60008381526004602052604080822080546001600160a01b03191690558282526003895290208054600019019055610546565b604051633250574960e11b815260006004820152602490fd5b6064906040519062461bcd60e51b82526004820152601c60248201527f41727469636c6520686173206e6f20636f6e747269627574696f6e73000000006044820152fd5b6064906040519062461bcd60e51b82526004820152601960248201527f41727469636c6520616c726561647920636f6d706c65746564000000000000006044820152fd5b346101b35760203660031901126101b35761081f60043561217d565b50600060405161082e81611dbf565b526103dd60405161083e81611dbf565b60008152604051918291602083526020830190611d19565b346101b35760803660031901126101b35761086f611d59565b610877611d6f565b906044356064359267ffffffffffffffff84116101b357366023850112156101b3576108b06108c2943690602481600401359101611f38565b926108bc838383611ff4565b336121b8565b005b346101b35760403660031901126101b3576108dd611d6f565b600435600052600e60205260406000209060018060a01b0316600052602052602060ff604060002054166040519015158152f35b346101b35760403660031901126101b35761092a611d59565b60243590811515908183036101b3576001600160a01b03169182156109a6576109789033600052600560205260406000208460005260205260406000209060ff801983541691151516179055565b6040519081527f17307eab39ab6107e8899845ad3d59bd9653f200f220920489ca2b5937696c3160203392a3005b604051630b61174360e31b815260048101849052602490fd5b346101b35760003660031901126101b357604051600060018054906109e382611d85565b80855291818116908115610a775750600114610a1e575b6103dd84610a0a81860382611ddb565b604051918291602083526020830190611d19565b600081815292507fb10e2d527612073b26eecdfd717e6a320cf44b4afac2b0732d9fcbe2b7fa0cf65b828410610a5f575050508101602001610a0a826109fa565b80546020858701810191909152909301928101610a47565b60ff191660208087019190915292151560051b85019092019250610a0a91508390506109fa565b346101b35760a03660031901126101b35760043567ffffffffffffffff81116101b357610acf903690600401611f6f565b60243567ffffffffffffffff81116101b357610aef903690600401611f6f565b60443567ffffffffffffffff81116101b357610b0f903690600401611f6f565b91610b1b6008546122e8565b918260085560405193610160850185811067ffffffffffffffff821117610e32576040528385526020850191838352604086015260608501523360808501524260a0850152600060c0850152600060e0850152600061010085015260643561012085015260843561014085015282600052600a602052604060002090845182555180519067ffffffffffffffff8211610e32578190610bbd6001850154611d85565b601f8111610f8b575b50602090601f8311600114610f1e57600092610f13575b50508160011b916000199060031b1c19161760018201555b604084015180519067ffffffffffffffff8211610e32578190610c1b6002850154611d85565b601f8111610ec0575b50602090601f8311600114610e5357600092610e48575b50508160011b916000199060031b1c19161760028201555b606084015193845167ffffffffffffffff8111610e3257610c776003840154611d85565b95601f8711610deb575b602096508690601f8311600114610d79579180600a949261014094600092610d6e575b50508160011b916000199060031b1c19161760038501555b6004840160018060a01b036080830151166001600160601b0360a01b82541617905560a0810151600585015560c0810151600685015560e08101516007850155610d1c6101008201511515600886019060ff801983541691151516179055565b61012081015160098501550151910155817fe539a333a3cfd582c41b5f4712067ec24868a7a493c0ab524d9fcfde5bb0d41060405185815280610d63339588830190611d19565b0390a3604051908152f35b015190508980610ca4565b90601f1983169160038601600052886000209260005b818110610dd4575092600192859261014096600a989610610dbb575b505050811b016003850155610cbc565b015160001960f88460031b161c19169055898080610dab565b92938a600181928786015181550195019301610d8f565b600384016000526020600020601f830160051c810160208410610e2b575b601f890160051c82018110610e1f575050610c81565b60008155600101610e09565b5080610e09565b634e487b7160e01b600052604160045260246000fd5b015190508680610c3b565b600285016000908152602081209350601f198516905b818110610ea85750908460019594939210610e8f575b505050811b016002820155610c53565b015160001960f88460031b161c19169055868080610e7f565b92936020600181928786015181550195019301610e69565b909150600284016000526020600020601f840160051c810160208510610f0c575b90849392915b601f830160051c82018110610efd575050610c24565b60008155859450600101610ee7565b5080610ee1565b015190508680610bdd565b600185016000908152602081209350601f198516905b818110610f735750908460019594939210610f5a575b505050811b016001820155610bf5565b015160001960f88460031b161c19169055868080610f4a565b92936020600181928786015181550195019301610f34565b909150600184016000526020600020601f840160051c810160208510610fd7575b90849392915b601f830160051c82018110610fc8575050610bc6565b60008155859450600101610fb2565b5080610fac565b346101b35760403660031901126101b357610ff7611d6f565b600435600052600f60205260406000209060018060a01b0316600052602052602060ff604060002054166040519015158152f35b346101b35760003660031901126101b3576006546040516001600160a01b039091168152602090f35b346101b3576020806003193601126101b35760043590611078600954831115612376565b81600052600f8152604060002033600052815260ff6040600020541661116e576000828152600b825260409020600201546001600160a01b031633146111205781600052600b815260056040600020016110d281546122e8565b905581600052600f815260406000209033600052526040600020600160ff1982541617905533907f160fb30f1ee635c3caa0e5d3a7884222081dcafa69308e0d695e2332515aec22600080a3005b6084906040519062461bcd60e51b82526004820152602160248201527f43616e6e6f74206c696b6520796f7572206f776e20636f6e747269627574696f6044820152603760f91b6064820152fd5b6064906040519062461bcd60e51b82526004820152601b60248201527f596f75206861766520616c7265616479206c696b6564207468697300000000006044820152fd5b346101b35760403660031901126101b3576111cb611d59565b6001600160a01b03166000908152600d60205260409020805460243591908210156101b3576020916111fc91611eee565b90546040519160031b1c8152f35b346101b35760003660031901126101b357611223611fc8565b600680546001600160a01b031981169091556000906001600160a01b03167f8be0079c531659141344cd1fd0a4f28419497f9722a3daafe3b4186f6b6457e08280a3005b346101b35760203660031901126101b3576001600160a01b03611288611d59565b1680156112a75760005260036020526020604060002054604051908152f35b6040516322718ad960e21b815260006004820152602490fd5b346101b3576112ce36611ed8565b6112d6611fc8565b6112e4600954831115612376565b816000526020600b815260ff6007604060002001541661143d5782600052600b815260016040600020600781018260ff198254161790558360068201550154600052600a81526007604060002001805490838201809211611427575581611371575b7fbfe577b36f6862b4729cc4b1ab7de20f7d8017e3b23552b685712e81741efe9591604051908152a2005b6010546000848152600b8352604080822060020154905163a9059cbb60e01b81526001600160a01b03918216600482015260248101869052949284928692604492849291165af192831561141b577fbfe577b36f6862b4729cc4b1ab7de20f7d8017e3b23552b685712e81741efe95936113ee575b509150611346565b61140d90833d8511611414575b6114058183611ddb565b8101906123c2565b50846113e6565b503d6113fb565b6040513d6000823e3d90fd5b634e487b7160e01b600052601160045260246000fd5b6064906040519062461bcd60e51b82526004820152601d60248201527f436f6e747269627574696f6e20616c726561647920617070726f7665640000006044820152fd5b346101b35760203660031901126101b357602061149f60043561217d565b6040516001600160a01b039091168152f35b346101b35760403660031901126101b357602467ffffffffffffffff81358181116101b3576114e4903690600401611f6f565b6114f460085460043511156122f7565b600435600052600a60205260ff600860406000200154166118ff57600435600052600e60205260406000203360005260205260ff604060002054166118a6578051600435600052600a6020526009604060002001541161186e57600435600052600a6020526040600020600a6006820154910154111561182a576115796009546122e8565b91826009556040519061010082018281108282111761181557604052838252602082019260043584526040830133815260608401918252426080850152600060a0850152600060c0850152600060e085015285600052600b60205260406000209484518655516001860155600285019060018060a01b039051166001600160601b0360a01b82541617905551948551918211611801575061161d6003840154611d85565b601f81116117ba575b506020601f821160011461174457918160e0926007946116969798600092611739575b50508160011b916000199060031b1c19161760038501555b6080810151600485015560a0810151600585015560c081015160068501550151151591019060ff801983541691151516179055565b600435600052600c6020526116af81604060002061233c565b33600052600d6020526116c681604060002061233c565b600435600052600e6020526040600020336000526020526040600020600160ff19825416179055600435600052600a602052600660406000200161170a81546122e8565b90553390600435907f390f5f279da0ce4afc2046a3c1440c27a0637ea7261a5636e5518a2258bed269600080a4005b015190508880611649565b601f198216956003850160005260206000209660005b8181106117a25750926116969697600795936001938360e09710611789575b505050811b016003850155611661565b015160001960f88460031b161c19169055888080611779565b8383015189556001909801976020938401930161175a565b600384016000526020600020601f830160051c8101602084106117fa575b601f830160051c820181106117ee575050611626565b600081556001016117d8565b50806117d8565b634e487b7160e01b60009081526041600452fd5b85634e487b7160e01b60005260416004526000fd5b60405162461bcd60e51b8152602060048201526018818501527f4d617820636f6e7472696275746f7273207265616368656400000000000000006044820152606490fd5b60405162461bcd60e51b8152602060048201526011818501527010dbdb9d195b9d081d1bdbc81cda1bdc9d607a1b6044820152606490fd5b60405162461bcd60e51b815260206004820152602c818501527f596f75206861766520616c726561647920636f6e747269627574656420746f2060448201526b746869732061727469636c6560a01b6064820152608490fd5b60405162461bcd60e51b81526020600482015260148185015273105c9d1a58db19481a5cc818dbdb5c1b195d195960621b6044820152606490fd5b346101b3576108c261194b36611ea3565b906040519261195984611dbf565b600084526108bc838383611ff4565b346101b35760203660031901126101b357611981611fc8565b60105460065460405163a9059cbb60e01b81526001600160a01b039182166004808301919091523560248201529160209183916044918391600091165af1801561141b576119cb57005b6108c29060203d8111611414576114058183611ddb565b346101b3576119f036611ed8565b90600052600c602052604060002080548210156101b3576020916111fc91611eee565b346101b3576108c2611a2436611ea3565b91611ff4565b346101b35760203660031901126101b357600435600052600b6020526040600020805460018201549160018060a01b03600282015416611a6c60038301611dfd565b91600481015492611aad60058301549160ff600760068601549501541694604051988998895260208901526040880152610100806060890152870190611d19565b93608086015260a085015260c0840152151560e08301520390f35b346101b35760003660031901126101b3576020600854604051908152f35b346101b35760403660031901126101b357611aff611d59565b602435611b0b8161217d565b33151580611bba575b80611b8d575b611b75576001600160a01b039283169282918491167f8c5be1e5ebec7d5bd14f71427d1e84f3dd0314c0f7b2291e5b200ac8c7c3b925600080a4600090815260046020526040902080546001600160a01b0319169091179055005b60405163a9fbf51f60e01b8152336004820152602490fd5b5060018060a01b038116600052600560205260406000203360005260205260ff6040600020541615611b1a565b506001600160a01b038116331415611b14565b346101b35760203660031901126101b357600435611bea8161217d565b506000526004602052602060018060a01b0360406000205416604051908152f35b346101b35760003660031901126101b35760405160008054611c2c81611d85565b80845290600190818116908115610a775750600114611c55576103dd84610a0a81860382611ddb565b600080805292507f290decd9548b62a8d60345a988386fc84ba6bc95484008f6362f93160ef3e5635b828410611c96575050508101602001610a0a826109fa565b80546020858701810191909152909301928101611c7e565b346101b35760203660031901126101b3576004359063ffffffff60e01b82168092036101b3576020916380ac58cd60e01b8114908115611d08575b8115611cf7575b5015158152f35b6301ffc9a760e01b14905083611cf0565b635b5e139f60e01b81149150611ce9565b919082519283825260005b848110611d45575050826000602080949584010152601f8019910116010190565b602081830181015184830182015201611d24565b600435906001600160a01b03821682036101b357565b602435906001600160a01b03821682036101b357565b90600182811c92168015611db5575b6020831014611d9f57565b634e487b7160e01b600052602260045260246000fd5b91607f1691611d94565b6020810190811067ffffffffffffffff821117610e3257604052565b90601f8019910116810190811067ffffffffffffffff821117610e3257604052565b9060405191826000825492611e1184611d85565b908184526001948581169081600014611e805750600114611e3d575b5050611e3b92500383611ddb565b565b9093915060005260209081600020936000915b818310611e68575050611e3b93508201013880611e2d565b85548884018501529485019487945091830191611e50565b915050611e3b94506020925060ff191682840152151560051b8201013880611e2d565b60609060031901126101b3576001600160a01b039060043582811681036101b3579160243590811681036101b3579060443590565b60409060031901126101b3576004359060243590565b8054821015611f065760005260206000200190600090565b634e487b7160e01b600052603260045260246000fd5b67ffffffffffffffff8111610e3257601f01601f191660200190565b929192611f4482611f1c565b91611f526040519384611ddb565b8294818452818301116101b3578281602093846000960137010152565b9080601f830112156101b357816020611f8a93359101611f38565b90565b6020908160408183019282815285518094520193019160005b828110611fb4575050505090565b835185529381019392810192600101611fa6565b6006546001600160a01b03163303611fdc57565b60405163118cdaa760e01b8152336004820152602490fd5b6001600160a01b039182169290918315610762576000928284528260209560028752604096848888205416968791331515806120e4575b509060027fddf252ad1be2c89b69c2b068fc378daa952ba7f163c4a11628f55a4df523b3ef92846120b1575b858352600381528b8320805460010190558683525289812080546001600160a01b0319168517905580a416928383036120905750505050565b6064945051926364283d7b60e01b8452600484015260248301526044820152fd5b600087815260046020526040902080546001600160a01b0319169055848352600381528b83208054600019019055612057565b9193945091508061213c575b156121005785929187913861202b565b87868861211d576024915190637e27328960e01b82526004820152fd5b905163177e802f60e01b81523360048201526024810191909152604490fd5b503387148015612161575b806120f057508582526004815233858984205416146120f0565b5086825260058152878220338352815260ff8883205416612147565b6000818152600260205260409020546001600160a01b03169081156121a0575090565b60249060405190637e27328960e01b82526004820152fd5b90939192833b6121ca575b5050505050565b604051630a85bd0160e11b8082526001600160a01b039384166004830152958316602482015260448101919091526080606482015294921692602092918590612217906084830190611d19565b039483816000978189895af18691816122a4575b50612286575050503d60001461227d573d61224581611f1c565b906122536040519283611ddb565b81528093823d92013e8251928361067a57604051633250574960e11b815260048101849052602490fd5b60609250610659565b919450915063ffffffff60e01b16036106be575038808080806121c3565b9091508481813d83116122e1575b6122bc8183611ddb565b810103126122dd57516001600160e01b0319811681036122dd57903861222b565b8680fd5b503d6122b2565b60001981146114275760010190565b156122fe57565b60405162461bcd60e51b8152602060048201526016602482015275105c9d1a58db1948191bd95cc81b9bdd08195e1a5cdd60521b6044820152606490fd5b805468010000000000000000811015610e325761235e91600182018155611eee565b819291549060031b91821b91600019901b1916179055565b1561237d57565b60405162461bcd60e51b815260206004820152601b60248201527f436f6e747269627574696f6e20646f6573206e6f7420657869737400000000006044820152606490fd5b908160209103126101b3575180151581036101b3579056fea2646970667358221220367f204ad4743e81b0ad8c9cb3a41bc6c46d69a0d878600be42090b105fd77f064736f6c63430008140033",
  "linkReferences": {},
  "deployedLinkReferences": {}
}