{
  "_format": "hh-sol-artifact-1",
  "contractName": "MovieArticle",
  "sourceName": "contracts/MovieArticle.sol",
  "abi": [
    {
      "inputs": [
        {
          "internalType": "address",
          "name": "_rewardToken",
          "type": "address"
        }
      ],
      "stateMutability": "nonpayable",
      "type": "constructor"
    },
    {
      "inputs": [
        {
          "internalType": "address",
          "name": "sender",
          "type": "address"
        },
        {
          "internalType": "uint256",
          "name": "tokenId",
          "type": "uint256"
        },
        {
          "internalType": "address",
          "name": "owner",
          "type": "address"
        }
      ],
      "name": "ERC721IncorrectOwner",
      "type": "error"
    },
    {
      "inputs": [
        {
          "internalType": "address",
          "name": "operator",
          "type": "address"
        },
        {
          "internalType": "uint256",
          "name": "tokenId",
          "type": "uint256"
        }
      ],
      "name": "ERC721InsufficientApproval",
      "type": "error"
    },
    {
      "inputs": [
        {
          "internalType": "address",
          "name": "approver",
          "type": "address"
        }
      ],
      "name": "ERC721InvalidApprover",
      "type": "error"
    },
    {
      "inputs": [
        {
          "internalType": "address",
          "name": "operator",
          "type": "address"
        }
      ],
      "name": "ERC721InvalidOperator",
      "type": "error"
    },
    {
      "inputs": [
        {
          "internalType": "address",
          "name": "owner",
          "type": "address"
        }
      ],
      "name": "ERC721InvalidOwner",
      "type": "error"
    },
    {
      "inputs": [
        {
          "internalType": "address",
          "name": "receiver",
          "type": "address"
        }
      ],
      "name": "ERC721InvalidReceiver",
      "type": "error"
    },
    {
      "inputs": [
        {
          "internalType": "address",
          "name": "sender",
          "type": "address"
        }
      ],
      "name": "ERC721InvalidSender",
      "type": "error"
    },
    {
      "inputs": [
        {
          "internalType": "uint256",
          "name": "tokenId",
          "type": "uint256"
        }
      ],
      "name": "ERC721NonexistentToken",
      "type": "error"
    },
    {
      "inputs": [
        {
          "internalType": "address",
          "name": "owner",
          "type": "address"
        }
      ],
      "name": "OwnableInvalidOwner",
      "type": "error"
    },
    {
      "inputs": [
        {
          "internalType": "address",
          "name": "account",
          "type": "address"
        }
      ],
      "name": "OwnableUnauthorizedAccount",
      "type": "error"
    },
    {
      "inputs": [],
      "name": "ReentrancyGuardReentrantCall",
      "type": "error"
    },
    {
      "anonymous": false,
      "inputs": [
        {
          "indexed": true,
          "internalType": "address",
          "name": "owner",
          "type": "address"
        },
        {
          "indexed": true,
          "internalType": "address",
          "name": "approved",
          "type": "address"
        },
        {
          "indexed": true,
          "internalType": "uint256",
          "name": "tokenId",
          "type": "uint256"
        }
      ],
      "name": "Approval",
      "type": "event"
    },
    {
      "anonymous": false,
      "inputs": [
        {
          "indexed": true,
          "internalType": "address",
          "name": "owner",
          "type": "address"
        },
        {
          "indexed": true,
          "internalType": "address",
          "name": "operator",
          "type": "address"
        },
        {
          "indexed": false,
          "internalType": "bool",
          "name": "approved",
          "type": "bool"
        }
      ],
      "name": "ApprovalForAll",
      "type": "event"
    },
    {
      "anonymous": false,
      "inputs": [
        {
          "indexed": true,
          "internalType": "uint256",
          "name": "articleId",
          "type": "uint256"
        },
        {
          "indexed": false,
          "internalType": "uint256",
          "name": "totalRewards",
          "type": "uint256"
        }
      ],
      "name": "ArticleCompleted",
      "type": "event"
    },
    {
      "anonymous": false,
      "inputs": [
        {
          "indexed": true,
          "internalType": "uint256",
          "name": "articleId",
          "type": "uint256"
        },
        {
          "indexed": true,
          "internalType": "address",
          "name": "creator",
          "type": "address"
        },
        {
          "indexed": false,
          "internalType": "string",
          "name": "title",
          "type": "string"
        }
      ],
      "name": "ArticleCreated",
      "type": "event"
    },
    {
      "anonymous": false,
      "inputs": [
        {
          "indexed": true,
          "internalType": "uint256",
          "name": "contributionId",
          "type": "uint256"
        },
        {
          "indexed": true,
          "internalType": "uint256",
          "name": "articleId",
          "type": "uint256"
        },
        {
          "indexed": true,
          "internalType": "address",
          "name": "contributor",
          "type": "address"
        }
      ],
      "name": "ContributionAdded",
      "type": "event"
    },
    {
      "anonymous": false,
      "inputs": [
        {
          "indexed": true,
          "internalType": "uint256",
          "name": "contributionId",
          "type": "uint256"
        },
        {
          "indexed": false,
          "internalType": "uint256",
          "name": "reward",
          "type": "uint256"
        }
      ],
      "name": "ContributionApproved",
      "type": "event"
    },
    {
      "anonymous": false,
      "inputs": [
        {
          "indexed": true,
          "internalType": "uint256",
          "name": "contributionId",
          "type": "uint256"
        },
        {
          "indexed": true,
          "internalType": "address",
          "name": "liker",
          "type": "address"
        }
      ],
      "name": "ContributionLiked",
      "type": "event"
    },
    {
      "anonymous": false,
      "inputs": [
        {
          "indexed": true,
          "internalType": "address",
          "name": "previousOwner",
          "type": "address"
        },
        {
          "indexed": true,
          "internalType": "address",
          "name": "newOwner",
          "type": "address"
        }
      ],
      "name": "OwnershipTransferred",
      "type": "event"
    },
    {
      "anonymous": false,
      "inputs": [
        {
          "indexed": true,
          "internalType": "uint256",
          "name": "articleId",
          "type": "uint256"
        },
        {
          "indexed": false,
          "internalType": "uint256",
          "name": "totalAmount",
          "type": "uint256"
        }
      ],
      "name": "RewardsDistributed",
      "type": "event"
    },
    {
      "anonymous": false,
      "inputs": [
        {
          "indexed": true,
          "internalType": "address",
          "name": "from",
          "type": "address"
        },
        {
          "indexed": true,
          "internalType": "address",
          "name": "to",
          "type": "address"
        },
        {
          "indexed": true,
          "internalType": "uint256",
          "name": "tokenId",
          "type": "uint256"
        }
      ],
      "name": "Transfer",
      "type": "event"
    },
    {
      "inputs": [
        {
          "internalType": "uint256",
          "name": "_articleId",
          "type": "uint256"
        },
        {
          "internalType": "string",
          "name": "_content",
          "type": "string"
        }
      ],
      "name": "addContribution",
      "outputs": [],
      "stateMutability": "nonpayable",
      "type": "function"
    },
    {
      "inputs": [
        {
          "internalType": "address",
          "name": "to",
          "type": "address"
        },
        {
          "internalType": "uint256",
          "name": "tokenId",
          "type": "uint256"
        }
      ],
      "name": "approve",
      "outputs": [],
      "stateMutability": "nonpayable",
      "type": "function"
    },
    {
      "inputs": [
        {
          "internalType": "uint256",
          "name": "_contributionId",
          "type": "uint256"
        },
        {
          "internalType": "uint256",
          "name": "_reward",
          "type": "uint256"
        }
      ],
      "name": "approveContribution",
      "outputs": [],
      "stateMutability": "nonpayable",
      "type": "function"
    },
    {
      "inputs": [
        {
          "internalType": "uint256",
          "name": "",
          "type": "uint256"
        },
        {
          "internalType": "uint256",
          "name": "",
          "type": "uint256"
        }
      ],
      "name": "articleContributions",
      "outputs": [
        {
          "internalType": "uint256",
          "name": "",
          "type": "uint256"
        }
      ],
      "stateMutability": "view",
      "type": "function"
    },
    {
      "inputs": [
        {
          "internalType": "uint256",
          "name": "",
          "type": "uint256"
        }
      ],
      "name": "articles",
      "outputs": [
        {
          "internalType": "uint256",
          "name": "id",
          "type": "uint256"
        },
        {
          "internalType": "string",
          "name": "title",
          "type": "string"
        },
        {
          "internalType": "string",
          "name": "movieTitle",
          "type": "string"
        },
        {
          "internalType": "string",
          "name": "genre",
          "type": "string"
        },
        {
          "internalType": "address",
          "name": "creator",
          "type": "address"
        },
        {
          "internalType": "uint256",
          "name": "createdAt",
          "type": "uint256"
        },
        {
          "internalType": "uint256",
          "name": "totalContributions",
          "type": "uint256"
        },
        {
          "internalType": "uint256",
          "name": "totalRewards",
          "type": "uint256"
        },
        {
          "internalType": "bool",
          "name": "isCompleted",
          "type": "bool"
        },
        {
          "internalType": "uint256",
          "name": "minContributionLength",
          "type": "uint256"
        },
        {
          "internalType": "uint256",
          "name": "maxContributors",
          "type": "uint256"
        }
      ],
      "stateMutability": "view",
      "type": "function"
    },
    {
      "inputs": [
        {
          "internalType": "address",
          "name": "owner",
          "type": "address"
        }
      ],
      "name": "balanceOf",
      "outputs": [
        {
          "internalType": "uint256",
          "name": "",
          "type": "uint256"
        }
      ],
      "stateMutability": "view",
      "type": "function"
    },
    {
      "inputs": [
        {
          "internalType": "uint256",
          "name": "_articleId",
          "type": "uint256"
        }
      ],
      "name": "completeArticle",
      "outputs": [],
      "stateMutability": "nonpayable",
      "type": "function"
    },
    {
      "inputs": [
        {
          "internalType": "uint256",
          "name": "",
          "type": "uint256"
        }
      ],
      "name": "contributions",
      "outputs": [
        {
          "internalType": "uint256",
          "name": "id",
          "type": "uint256"
        },
        {
          "internalType": "uint256",
          "name": "articleId",
          "type": "uint256"
        },
        {
          "internalType": "address",
          "name": "contributor",
          "type": "address"
        },
        {
          "internalType": "string",
          "name": "content",
          "type": "string"
        },
        {
          "internalType": "uint256",
          "name": "timestamp",
          "type": "uint256"
        },
        {
          "internalType": "uint256",
          "name": "likes",
          "type": "uint256"
        },
        {
          "internalType": "uint256",
          "name": "rewards",
          "type": "uint256"
        },
        {
          "internalType": "bool",
          "name": "isApproved",
          "type": "bool"
        }
      ],
      "stateMutability": "view",
      "type": "function"
    },
    {
      "inputs": [
        {
          "internalType": "string",
          "name": "_title",
          "type": "string"
        },
        {
          "internalType": "string",
          "name": "_movieTitle",
          "type": "string"
        },
        {
          "internalType": "string",
          "name": "_genre",
          "type": "string"
        },
        {
          "internalType": "uint256",
          "name": "_minContributionLength",
          "type": "uint256"
        },
        {
          "internalType": "uint256",
          "name": "_maxContributors",
          "type": "uint256"
        }
      ],
      "name": "createArticle",
      "outputs": [
        {
          "internalType": "uint256",
          "name": "",
          "type": "uint256"
        }
      ],
      "stateMutability": "nonpayable",
      "type": "function"
    },
    {
      "inputs": [
        {
          "internalType": "uint256",
          "name": "tokenId",
          "type": "uint256"
        }
      ],
      "name": "getApproved",
      "outputs": [
        {
          "internalType": "address",
          "name": "",
          "type": "address"
        }
      ],
      "stateMutability": "view",
      "type": "function"
    },
    {
      "inputs": [
        {
          "internalType": "uint256",
          "name": "_articleId",
          "type": "uint256"
        }
      ],
      "name": "getArticleContributions",
      "outputs": [
        {
          "internalType": "uint256[]",
          "name": "",
          "type": "uint256[]"
        }
      ],
      "stateMutability": "view",
      "type": "function"
    },
    {
      "inputs": [],
      "name": "getTotalArticles",
      "outputs": [
        {
          "internalType": "uint256",
          "name": "",
          "type": "uint256"
        }
      ],
      "stateMutability": "view",
      "type": "function"
    },
    {
      "inputs": [],
      "name": "getTotalContributions",
      "outputs": [
        {
          "internalType": "uint256",
          "name": "",
          "type": "uint256"
        }
      ],
      "stateMutability": "view",
      "type": "function"
    },
    {
      "inputs": [
        {
          "internalType": "address",
          "name": "_user",
          "type": "address"
        }
      ],
      "name": "getUserContributions",
      "outputs": [
        {
          "internalType": "uint256[]",
          "name": "",
          "type": "uint256[]"
        }
      ],
      "stateMutability": "view",
      "type": "function"
    },
    {
      "inputs": [
        {
          "internalType": "uint256",
          "name": "",
          "type": "uint256"
        },
        {
          "internalType": "address",
          "name": "",
          "type": "address"
        }
      ],
      "name": "hasContributed",
      "outputs": [
        {
          "internalType": "bool",
          "name": "",
          "type": "bool"
        }
      ],
      "stateMutability": "view",
      "type": "function"
    },
    {
      "inputs": [
        {
          "internalType": "uint256",
          "name": "",
          "type": "uint256"
        },
        {
          "internalType": "address",
          "name": "",
          "type": "address"
        }
      ],
      "name": "hasLiked",
      "outputs": [
        {
          "internalType": "bool",
          "name": "",
          "type": "bool"
        }
      ],
      "stateMutability": "view",
      "type": "function"
    },
    {
      "inputs": [
        {
          "internalType": "address",
          "name": "owner",
          "type": "address"
        },
        {
          "internalType": "address",
          "name": "operator",
          "type": "address"
        }
      ],
      "name": "isApprovedForAll",
      "outputs": [
        {
          "internalType": "bool",
          "name": "",
          "type": "bool"
        }
      ],
      "stateMutability": "view",
      "type": "function"
    },
    {
      "inputs": [
        {
          "internalType": "uint256",
          "name": "_contributionId",
          "type": "uint256"
        }
      ],
      "name": "likeContribution",
      "outputs": [],
      "stateMutability": "nonpayable",
      "type": "function"
    },
    {
      "inputs": [],
      "name": "name",
      "outputs": [
        {
          "internalType": "string",
          "name": "",
          "type": "string"
        }
      ],
      "stateMutability": "view",
      "type": "function"
    },
    {
      "inputs": [],
      "name": "owner",
      "outputs": [
        {
          "internalType": "address",
          "name": "",
          "type": "address"
        }
      ],
      "stateMutability": "view",
      "type": "function"
    },
    {
      "inputs": [
        {
          "internalType": "uint256",
          "name": "tokenId",
          "type": "uint256"
        }
      ],
      "name": "ownerOf",
      "outputs": [
        {
          "internalType": "address",
          "name": "",
          "type": "address"
        }
      ],
      "stateMutability": "view",
      "type": "function"
    },
    {
      "inputs": [],
      "name": "renounceOwnership",
      "outputs": [],
      "stateMutability": "nonpayable",
      "type": "function"
    },
    {
      "inputs": [],
      "name": "rewardToken",
      "outputs": [
        {
          "internalType": "contract IERC20",
          "name": "",
          "type": "address"
        }
      ],
      "stateMutability": "view",
      "type": "function"
    },
    {
      "inputs": [
        {
          "internalType": "address",
          "name": "from",
          "type": "address"
        },
        {
          "internalType": "address",
          "name": "to",
          "type": "address"
        },
        {
          "internalType": "uint256",
          "name": "tokenId",
          "type": "uint256"
        }
      ],
      "name": "safeTransferFrom",
      "outputs": [],
      "stateMutability": "nonpayable",
      "type": "function"
    },
    {
      "inputs": [
        {
          "internalType": "address",
          "name": "from",
          "type": "address"
        },
        {
          "internalType": "address",
          "name": "to",
          "type": "address"
        },
        {
          "internalType": "uint256",
          "name": "tokenId",
          "type": "uint256"
        },
        {
          "internalType": "bytes",
          "name": "data",
          "type": "bytes"
        }
      ],
      "name": "safeTransferFrom",
      "outputs": [],
      "stateMutability": "nonpayable",
      "type": "function"
    },
    {
      "inputs": [
        {
          "internalType": "address",
          "name": "operator",
          "type": "address"
        },
        {
          "internalType": "bool",
          "name": "approved",
          "type": "bool"
        }
      ],
      "name": "setApprovalForAll",
      "outputs": [],
      "stateMutability": "nonpayable",
      "type": "function"
    },
    {
      "inputs": [
        {
          "internalType": "bytes4",
          "name": "interfaceId",
          "type": "bytes4"
        }
      ],
      "name": "supportsInterface",
      "outputs": [
        {
          "internalType": "bool",
          "name": "",
          "type": "bool"
        }
      ],
      "stateMutability": "view",
      "type": "function"
    },
    {
      "inputs": [],
      "name": "symbol",
      "outputs": [
        {
          "internalType": "string",
          "name": "",
          "type": "string"
        }
      ],
      "stateMutability": "view",
      "type": "function"
    },
    {
      "inputs": [
        {
          "internalType": "uint256",
          "name": "tokenId",
          "type": "uint256"
        }
      ],
      "name": "tokenURI",
      "outputs": [
        {
          "internalType": "string",
          "name": "",
          "type": "string"
        }
      ],
      "stateMutability": "view",
      "type": "function"
    },
    {
      "inputs": [
        {
          "internalType": "address",
          "name": "from",
          "type": "address"
        },
        {
          "internalType": "address",
          "name": "to",
          "type": "address"
        },
        {
          "internalType": "uint256",
          "name": "tokenId",
          "type": "uint256"
        }
      ],
      "name": "transferFrom",
      "outputs": [],
      "stateMutability": "nonpayable",
      "type": "function"
    },
    {
      "inputs": [
        {
          "internalType": "address",
          "name": "newOwner",
          "type": "address"
        }
      ],
      "name": "transferOwnership",
      "outputs": [],
      "stateMutability": "nonpayable",
      "type": "function"
    },
    {
      "inputs": [
        {
          "internalType": "address",
          "name": "",
          "type": "address"
        },
        {
          "internalType": "uint256",
          "name": "",
          "type": "uint256"
        }
      ],
      "name": "userContributions",
      "outputs": [
        {
          "internalType": "uint256",
          "name": "",
          "type": "uint256"
        }
      ],
      "stateMutability": "view",
      "type": "function"
    },
    {
      "inputs": [
        {
          "internalType": "uint256",
          "name": "_amount",
          "type": "uint256"
        }
      ],
      "name": "withdrawTokens",
      "outputs": [],
      "stateMutability": "nonpayable",
      "type": "function"
    }
  ],
  "bytecode": "0x60806040523480156200001157600080fd5b5060405162004ac138038062004ac18339818101604052810190620000379190620002d1565b336040518060400160405280600f81526020017f4d6f76696541727469636c654e465400000000000000000000000000000000008152506040518060400160405280600581526020017f4d414e46540000000000000000000000000000000000000000000000000000008152508160009081620000b591906200057d565b508060019081620000c791906200057d565b505050600073ffffffffffffffffffffffffffffffffffffffff168173ffffffffffffffffffffffffffffffffffffffff16036200013f5760006040517f1e4fbdf700000000000000000000000000000000000000000000000000000000815260040162000136919062000675565b60405180910390fd5b6200015081620001a160201b60201c565b50600160078190555080601060006101000a81548173ffffffffffffffffffffffffffffffffffffffff021916908373ffffffffffffffffffffffffffffffffffffffff1602179055505062000692565b6000600660009054906101000a900473ffffffffffffffffffffffffffffffffffffffff16905081600660006101000a81548173ffffffffffffffffffffffffffffffffffffffff021916908373ffffffffffffffffffffffffffffffffffffffff1602179055508173ffffffffffffffffffffffffffffffffffffffff168173ffffffffffffffffffffffffffffffffffffffff167f8be0079c531659141344cd1fd0a4f28419497f9722a3daafe3b4186f6b6457e060405160405180910390a35050565b600080fd5b600073ffffffffffffffffffffffffffffffffffffffff82169050919050565b600062000299826200026c565b9050919050565b620002ab816200028c565b8114620002b757600080fd5b50565b600081519050620002cb81620002a0565b92915050565b600060208284031215620002ea57620002e962000267565b5b6000620002fa84828501620002ba565b91505092915050565b600081519050919050565b7f4e487b7100000000000000000000000000000000000000000000000000000000600052604160045260246000fd5b7f4e487b7100000000000000000000000000000000000000000000000000000000600052602260045260246000fd5b600060028204905060018216806200038557607f821691505b6020821081036200039b576200039a6200033d565b5b50919050565b60008190508160005260206000209050919050565b60006020601f8301049050919050565b600082821b905092915050565b600060088302620004057fffffffffffffffffffffffffffffffffffffffffffffffffffffffffffffffff82620003c6565b620004118683620003c6565b95508019841693508086168417925050509392505050565b6000819050919050565b6000819050919050565b60006200045e62000458620004528462000429565b62000433565b62000429565b9050919050565b6000819050919050565b6200047a836200043d565b62000492620004898262000465565b848454620003d3565b825550505050565b600090565b620004a96200049a565b620004b68184846200046f565b505050565b5b81811015620004de57620004d26000826200049f565b600181019050620004bc565b5050565b601f8211156200052d57620004f781620003a1565b6200050284620003b6565b8101602085101562000512578190505b6200052a6200052185620003b6565b830182620004bb565b50505b505050565b600082821c905092915050565b6000620005526000198460080262000532565b1980831691505092915050565b60006200056d83836200053f565b9150826002028217905092915050565b620005888262000303565b67ffffffffffffffff811115620005a457620005a36200030e565b5b620005b082546200036c565b620005bd828285620004e2565b600060209050601f831160018114620005f55760008415620005e0578287015190505b620005ec85826200055f565b8655506200065c565b601f1984166200060586620003a1565b60005b828110156200062f5784890151825560018201915060208501945060208101905062000608565b868310156200064f57848901516200064b601f8916826200053f565b8355505b6001600288020188555050505b505050505050565b6200066f816200028c565b82525050565b60006020820190506200068c600083018462000664565b92915050565b61441f80620006a26000396000f3fe608060405234801561001057600080fd5b50600436106101fb5760003560e01c80638a9a62a81161011a578063c87b56dd116100ad578063e3e03dc01161007c578063e3e03dc0146105ff578063e985e9c51461062f578063edcfafe61461065f578063f2fde38b14610699578063f7c618c1146106b5576101fb565b8063c87b56dd14610565578063d5df1e1d14610595578063ddf556d0146105b1578063e36465a3146105cf576101fb565b806395d89b41116100e957806395d89b41146104df578063a22cb465146104fd578063b5b96ae014610519578063b88d4fde14610549576101fb565b80638a9a62a8146104455780638da5cb5b146104615780638fb7092c1461047f5780639178af65146104af576101fb565b8063315a095d116101925780636fd91da9116101615780636fd91da9146103bf57806370a08231146103db578063715018a61461040b5780637331fa9514610415576101fb565b8063315a095d1461033b57806342842e0e146103575780634fa650f1146103735780636352211e1461038f576101fb565b80630ebf1d3d116101ce5780630ebf1d3d1461029a5780631cee0700146102b857806323b872dd146102ef578063302438341461030b576101fb565b806301ffc9a71461020057806306fdde0314610230578063081812fc1461024e578063095ea7b31461027e575b600080fd5b61021a60048036038101906102159190612f2d565b6106d3565b6040516102279190612f75565b60405180910390f35b6102386107b5565b6040516102459190613020565b60405180910390f35b61026860048036038101906102639190613078565b610847565b60405161027591906130e6565b60405180910390f35b6102986004803603810190610293919061312d565b610863565b005b6102a2610879565b6040516102af919061317c565b60405180910390f35b6102d260048036038101906102cd9190613078565b610883565b6040516102e6989796959493929190613197565b60405180910390f35b6103096004803603810190610304919061321c565b610980565b005b6103256004803603810190610320919061326f565b610a82565b604051610332919061317c565b60405180910390f35b61035560048036038101906103509190613078565b610ab3565b005b610371600480360381019061036c919061321c565b610b66565b005b61038d600480360381019061038891906133e4565b610b86565b005b6103a960048036038101906103a49190613078565b61104d565b6040516103b691906130e6565b60405180910390f35b6103d960048036038101906103d4919061326f565b61105f565b005b6103f560048036038101906103f09190613440565b6112c0565b604051610402919061317c565b60405180910390f35b61041361137a565b005b61042f600480360381019061042a919061312d565b61138e565b60405161043c919061317c565b60405180910390f35b61045f600480360381019061045a9190613078565b6113bf565b005b610469611622565b60405161047691906130e6565b60405180910390f35b6104996004803603810190610494919061346d565b61164c565b6040516104a69190612f75565b60405180910390f35b6104c960048036038101906104c491906134ad565b61167b565b6040516104d6919061317c565b60405180910390f35b6104e761185d565b6040516104f49190613020565b60405180910390f35b610517600480360381019061051291906135a8565b6118ef565b005b610533600480360381019061052e919061346d565b611905565b6040516105409190612f75565b60405180910390f35b610563600480360381019061055e9190613689565b611934565b005b61057f600480360381019061057a9190613078565b611959565b60405161058c9190613020565b60405180910390f35b6105af60048036038101906105aa9190613078565b6119c2565b005b6105b9611b8c565b6040516105c6919061317c565b60405180910390f35b6105e960048036038101906105e49190613440565b611b96565b6040516105f691906137ca565b60405180910390f35b61061960048036038101906106149190613078565b611c2d565b60405161062691906137ca565b60405180910390f35b610649600480360381019061064491906137ec565b611c98565b6040516106569190612f75565b60405180910390f35b61067960048036038101906106749190613078565b611d2c565b6040516106909b9a9998979695949392919061382c565b60405180910390f35b6106b360048036038101906106ae9190613440565b611f4b565b005b6106bd611fd1565b6040516106ca919061394b565b60405180910390f35b60007f80ac58cd000000000000000000000000000000000000000000000000000000007bffffffffffffffffffffffffffffffffffffffffffffffffffffffff1916827bffffffffffffffffffffffffffffffffffffffffffffffffffffffff1916148061079e57507f5b5e139f000000000000000000000000000000000000000000000000000000007bffffffffffffffffffffffffffffffffffffffffffffffffffffffff1916827bffffffffffffffffffffffffffffffffffffffffffffffffffffffff1916145b806107ae57506107ad82611ff7565b5b9050919050565b6060600080546107c490613995565b80601f01602080910402602001604051908101604052809291908181526020018280546107f090613995565b801561083d5780601f106108125761010080835404028352916020019161083d565b820191906000526020600020905b81548152906001019060200180831161082057829003601f168201915b5050505050905090565b600061085282612061565b5061085c826120e9565b9050919050565b6108758282610870612126565b61212e565b5050565b6000600854905090565b600b6020528060005260406000206000915090508060000154908060010154908060020160009054906101000a900473ffffffffffffffffffffffffffffffffffffffff16908060030180546108d890613995565b80601f016020809104026020016040519081016040528092919081815260200182805461090490613995565b80156109515780601f1061092657610100808354040283529160200191610951565b820191906000526020600020905b81548152906001019060200180831161093457829003601f168201915b5050505050908060040154908060050154908060060154908060070160009054906101000a900460ff16905088565b600073ffffffffffffffffffffffffffffffffffffffff168273ffffffffffffffffffffffffffffffffffffffff16036109f25760006040517f64a0ae920000000000000000000000000000000000000000000000000000000081526004016109e991906130e6565b60405180910390fd5b6000610a068383610a01612126565b612140565b90508373ffffffffffffffffffffffffffffffffffffffff168173ffffffffffffffffffffffffffffffffffffffff1614610a7c578382826040517f64283d7b000000000000000000000000000000000000000000000000000000008152600401610a73939291906139c6565b60405180910390fd5b50505050565b600c6020528160005260406000208181548110610a9e57600080fd5b90600052602060002001600091509150505481565b610abb61235a565b601060009054906101000a900473ffffffffffffffffffffffffffffffffffffffff1673ffffffffffffffffffffffffffffffffffffffff1663a9059cbb610b01611622565b836040518363ffffffff1660e01b8152600401610b1f9291906139fd565b6020604051808303816000875af1158015610b3e573d6000803e3d6000fd5b505050506040513d601f19601f82011682018060405250810190610b629190613a3b565b5050565b610b8183838360405180602001604052806000815250611934565b505050565b600854821115610bcb576040517f08c379a0000000000000000000000000000000000000000000000000000000008152600401610bc290613ab4565b60405180910390fd5b600a600083815260200190815260200160002060080160009054906101000a900460ff1615610c2f576040517f08c379a0000000000000000000000000000000000000000000000000000000008152600401610c2690613b20565b60405180910390fd5b600e600083815260200190815260200160002060003373ffffffffffffffffffffffffffffffffffffffff1673ffffffffffffffffffffffffffffffffffffffff16815260200190815260200160002060009054906101000a900460ff1615610ccd576040517f08c379a0000000000000000000000000000000000000000000000000000000008152600401610cc490613bb2565b60405180910390fd5b600a60008381526020019081526020016000206009015481511015610d27576040517f08c379a0000000000000000000000000000000000000000000000000000000008152600401610d1e90613c1e565b60405180910390fd5b600a6000838152602001908152602001600020600a0154600a60008481526020019081526020016000206006015410610d95576040517f08c379a0000000000000000000000000000000000000000000000000000000008152600401610d8c90613c8a565b60405180910390fd5b60096000815480929190610da890613cd9565b9190505550600060095490506040518061010001604052808281526020018481526020013373ffffffffffffffffffffffffffffffffffffffff168152602001838152602001428152602001600081526020016000815260200160001515815250600b6000838152602001908152602001600020600082015181600001556020820151816001015560408201518160020160006101000a81548173ffffffffffffffffffffffffffffffffffffffff021916908373ffffffffffffffffffffffffffffffffffffffff1602179055506060820151816003019081610e8c9190613ec3565b506080820151816004015560a0820151816005015560c0820151816006015560e08201518160070160006101000a81548160ff021916908315150217905550905050600c6000848152602001908152602001600020819080600181540180825580915050600190039060005260206000200160009091909190915055600d60003373ffffffffffffffffffffffffffffffffffffffff1673ffffffffffffffffffffffffffffffffffffffff1681526020019081526020016000208190806001815401808255809150506001900390600052602060002001600090919091909150556001600e600085815260200190815260200160002060003373ffffffffffffffffffffffffffffffffffffffff1673ffffffffffffffffffffffffffffffffffffffff16815260200190815260200160002060006101000a81548160ff021916908315150217905550600a60008481526020019081526020016000206006016000815480929190610ffe90613cd9565b91905055503373ffffffffffffffffffffffffffffffffffffffff1683827f390f5f279da0ce4afc2046a3c1440c27a0637ea7261a5636e5518a2258bed26960405160405180910390a4505050565b600061105882612061565b9050919050565b61106761235a565b6009548211156110ac576040517f08c379a00000000000000000000000000000000000000000000000000000000081526004016110a390613fe1565b60405180910390fd5b600b600083815260200190815260200160002060070160009054906101000a900460ff1615611110576040517f08c379a00000000000000000000000000000000000000000000000000000000081526004016111079061404d565b60405180910390fd5b6001600b600084815260200190815260200160002060070160006101000a81548160ff02191690831515021790555080600b6000848152602001908152602001600020600601819055506000600b600084815260200190815260200160002060010154905081600a6000838152602001908152602001600020600701600082825461119b919061406d565b92505081905550600082111561128357601060009054906101000a900473ffffffffffffffffffffffffffffffffffffffff1673ffffffffffffffffffffffffffffffffffffffff1663a9059cbb600b600086815260200190815260200160002060020160009054906101000a900473ffffffffffffffffffffffffffffffffffffffff16846040518363ffffffff1660e01b815260040161123e9291906139fd565b6020604051808303816000875af115801561125d573d6000803e3d6000fd5b505050506040513d601f19601f820116820180604052508101906112819190613a3b565b505b827fbfe577b36f6862b4729cc4b1ab7de20f7d8017e3b23552b685712e81741efe95836040516112b3919061317c565b60405180910390a2505050565b60008073ffffffffffffffffffffffffffffffffffffffff168273ffffffffffffffffffffffffffffffffffffffff16036113335760006040517f89c62b6400000000000000000000000000000000000000000000000000000000815260040161132a91906130e6565b60405180910390fd5b600360008373ffffffffffffffffffffffffffffffffffffffff1673ffffffffffffffffffffffffffffffffffffffff168152602001908152602001600020549050919050565b61138261235a565b61138c60006123e1565b565b600d60205281600052604060002081815481106113aa57600080fd5b90600052602060002001600091509150505481565b600954811115611404576040517f08c379a00000000000000000000000000000000000000000000000000000000081526004016113fb90613fe1565b60405180910390fd5b600f600082815260200190815260200160002060003373ffffffffffffffffffffffffffffffffffffffff1673ffffffffffffffffffffffffffffffffffffffff16815260200190815260200160002060009054906101000a900460ff16156114a2576040517f08c379a0000000000000000000000000000000000000000000000000000000008152600401611499906140ed565b60405180910390fd5b3373ffffffffffffffffffffffffffffffffffffffff16600b600083815260200190815260200160002060020160009054906101000a900473ffffffffffffffffffffffffffffffffffffffff1673ffffffffffffffffffffffffffffffffffffffff1603611546576040517f08c379a000000000000000000000000000000000000000000000000000000000815260040161153d9061417f565b60405180910390fd5b600b6000828152602001908152602001600020600501600081548092919061156d90613cd9565b91905055506001600f600083815260200190815260200160002060003373ffffffffffffffffffffffffffffffffffffffff1673ffffffffffffffffffffffffffffffffffffffff16815260200190815260200160002060006101000a81548160ff0219169083151502179055503373ffffffffffffffffffffffffffffffffffffffff16817f160fb30f1ee635c3caa0e5d3a7884222081dcafa69308e0d695e2332515aec2260405160405180910390a350565b6000600660009054906101000a900473ffffffffffffffffffffffffffffffffffffffff16905090565b600f6020528160005260406000206020528060005260406000206000915091509054906101000a900460ff1681565b60006008600081548092919061169090613cd9565b9190505550600060085490506040518061016001604052808281526020018881526020018781526020018681526020013373ffffffffffffffffffffffffffffffffffffffff168152602001428152602001600081526020016000815260200160001515815260200185815260200184815250600a60008381526020019081526020016000206000820151816000015560208201518160010190816117359190613ec3565b50604082015181600201908161174b9190613ec3565b5060608201518160030190816117619190613ec3565b5060808201518160040160006101000a81548173ffffffffffffffffffffffffffffffffffffffff021916908373ffffffffffffffffffffffffffffffffffffffff16021790555060a0820151816005015560c0820151816006015560e082015181600701556101008201518160080160006101000a81548160ff021916908315150217905550610120820151816009015561014082015181600a01559050503373ffffffffffffffffffffffffffffffffffffffff16817fe539a333a3cfd582c41b5f4712067ec24868a7a493c0ab524d9fcfde5bb0d410896040516118489190613020565b60405180910390a38091505095945050505050565b60606001805461186c90613995565b80601f016020809104026020016040519081016040528092919081815260200182805461189890613995565b80156118e55780601f106118ba576101008083540402835291602001916118e5565b820191906000526020600020905b8154815290600101906020018083116118c857829003601f168201915b5050505050905090565b6119016118fa612126565b83836124a7565b5050565b600e6020528160005260406000206020528060005260406000206000915091509054906101000a900460ff1681565b61193f848484610980565b61195361194a612126565b85858585612616565b50505050565b606061196482612061565b50600061196f6127c7565b9050600081511161198f57604051806020016040528060008152506119ba565b80611999846127de565b6040516020016119aa9291906141db565b6040516020818303038152906040525b915050919050565b6119ca61235a565b600854811115611a0f576040517f08c379a0000000000000000000000000000000000000000000000000000000008152600401611a0690613ab4565b60405180910390fd5b600a600082815260200190815260200160002060080160009054906101000a900460ff1615611a73576040517f08c379a0000000000000000000000000000000000000000000000000000000008152600401611a6a9061424b565b60405180910390fd5b6000600a60008381526020019081526020016000206006015411611acc576040517f08c379a0000000000000000000000000000000000000000000000000000000008152600401611ac3906142b7565b60405180910390fd5b6001600a600083815260200190815260200160002060080160006101000a81548160ff021916908315150217905550611b3b600a600083815260200190815260200160002060040160009054906101000a900473ffffffffffffffffffffffffffffffffffffffff16826128ac565b807fcecd5d5df52f22750a7b838a07823685059f55f29d937091bb81ff96a6612d8d600a600084815260200190815260200160002060070154604051611b81919061317c565b60405180910390a250565b6000600954905090565b6060600d60008373ffffffffffffffffffffffffffffffffffffffff1673ffffffffffffffffffffffffffffffffffffffff168152602001908152602001600020805480602002602001604051908101604052809291908181526020018280548015611c2157602002820191906000526020600020905b815481526020019060010190808311611c0d575b50505050509050919050565b6060600c6000838152602001908152602001600020805480602002602001604051908101604052809291908181526020018280548015611c8c57602002820191906000526020600020905b815481526020019060010190808311611c78575b50505050509050919050565b6000600560008473ffffffffffffffffffffffffffffffffffffffff1673ffffffffffffffffffffffffffffffffffffffff16815260200190815260200160002060008373ffffffffffffffffffffffffffffffffffffffff1673ffffffffffffffffffffffffffffffffffffffff16815260200190815260200160002060009054906101000a900460ff16905092915050565b600a602052806000526040600020600091509050806000015490806001018054611d5590613995565b80601f0160208091040260200160405190810160405280929190818152602001828054611d8190613995565b8015611dce5780601f10611da357610100808354040283529160200191611dce565b820191906000526020600020905b815481529060010190602001808311611db157829003601f168201915b505050505090806002018054611de390613995565b80601f0160208091040260200160405190810160405280929190818152602001828054611e0f90613995565b8015611e5c5780601f10611e3157610100808354040283529160200191611e5c565b820191906000526020600020905b815481529060010190602001808311611e3f57829003601f168201915b505050505090806003018054611e7190613995565b80601f0160208091040260200160405190810160405280929190818152602001828054611e9d90613995565b8015611eea5780601f10611ebf57610100808354040283529160200191611eea565b820191906000526020600020905b815481529060010190602001808311611ecd57829003601f168201915b5050505050908060040160009054906101000a900473ffffffffffffffffffffffffffffffffffffffff16908060050154908060060154908060070154908060080160009054906101000a900460ff169080600901549080600a015490508b565b611f5361235a565b600073ffffffffffffffffffffffffffffffffffffffff168173ffffffffffffffffffffffffffffffffffffffff1603611fc55760006040517f1e4fbdf7000000000000000000000000000000000000000000000000000000008152600401611fbc91906130e6565b60405180910390fd5b611fce816123e1565b50565b601060009054906101000a900473ffffffffffffffffffffffffffffffffffffffff1681565b60007f01ffc9a7000000000000000000000000000000000000000000000000000000007bffffffffffffffffffffffffffffffffffffffffffffffffffffffff1916827bffffffffffffffffffffffffffffffffffffffffffffffffffffffff1916149050919050565b60008061206d836128ca565b9050600073ffffffffffffffffffffffffffffffffffffffff168173ffffffffffffffffffffffffffffffffffffffff16036120e057826040517f7e2732890000000000000000000000000000000000000000000000000000000081526004016120d7919061317c565b60405180910390fd5b80915050919050565b60006004600083815260200190815260200160002060009054906101000a900473ffffffffffffffffffffffffffffffffffffffff169050919050565b600033905090565b61213b8383836001612907565b505050565b60008061214c846128ca565b9050600073ffffffffffffffffffffffffffffffffffffffff168373ffffffffffffffffffffffffffffffffffffffff161461218e5761218d818486612acc565b5b600073ffffffffffffffffffffffffffffffffffffffff168173ffffffffffffffffffffffffffffffffffffffff161461221f576121d0600085600080612907565b6001600360008373ffffffffffffffffffffffffffffffffffffffff1673ffffffffffffffffffffffffffffffffffffffff168152602001908152602001600020600082825403925050819055505b600073ffffffffffffffffffffffffffffffffffffffff168573ffffffffffffffffffffffffffffffffffffffff16146122a2576001600360008773ffffffffffffffffffffffffffffffffffffffff1673ffffffffffffffffffffffffffffffffffffffff168152602001908152602001600020600082825401925050819055505b846002600086815260200190815260200160002060006101000a81548173ffffffffffffffffffffffffffffffffffffffff021916908373ffffffffffffffffffffffffffffffffffffffff160217905550838573ffffffffffffffffffffffffffffffffffffffff168273ffffffffffffffffffffffffffffffffffffffff167fddf252ad1be2c89b69c2b068fc378daa952ba7f163c4a11628f55a4df523b3ef60405160405180910390a4809150509392505050565b612362612126565b73ffffffffffffffffffffffffffffffffffffffff16612380611622565b73ffffffffffffffffffffffffffffffffffffffff16146123df576123a3612126565b6040517f118cdaa70000000000000000000000000000000000000000000000000000000081526004016123d691906130e6565b60405180910390fd5b565b6000600660009054906101000a900473ffffffffffffffffffffffffffffffffffffffff16905081600660006101000a81548173ffffffffffffffffffffffffffffffffffffffff021916908373ffffffffffffffffffffffffffffffffffffffff1602179055508173ffffffffffffffffffffffffffffffffffffffff168173ffffffffffffffffffffffffffffffffffffffff167f8be0079c531659141344cd1fd0a4f28419497f9722a3daafe3b4186f6b6457e060405160405180910390a35050565b600073ffffffffffffffffffffffffffffffffffffffff168273ffffffffffffffffffffffffffffffffffffffff160361251857816040517f5b08ba1800000000000000000000000000000000000000000000000000000000815260040161250f91906130e6565b60405180910390fd5b80600560008573ffffffffffffffffffffffffffffffffffffffff1673ffffffffffffffffffffffffffffffffffffffff16815260200190815260200160002060008473ffffffffffffffffffffffffffffffffffffffff1673ffffffffffffffffffffffffffffffffffffffff16815260200190815260200160002060006101000a81548160ff0219169083151502179055508173ffffffffffffffffffffffffffffffffffffffff168373ffffffffffffffffffffffffffffffffffffffff167f17307eab39ab6107e8899845ad3d59bd9653f200f220920489ca2b5937696c31836040516126099190612f75565b60405180910390a3505050565b60008373ffffffffffffffffffffffffffffffffffffffff163b11156127c0578273ffffffffffffffffffffffffffffffffffffffff1663150b7a02868685856040518563ffffffff1660e01b8152600401612675949392919061432c565b6020604051808303816000875af19250505080156126b157506040513d601f19601f820116820180604052508101906126ae919061438d565b60015b612735573d80600081146126e1576040519150601f19603f3d011682016040523d82523d6000602084013e6126e6565b606091505b50600081510361272d57836040517f64a0ae9200000000000000000000000000000000000000000000000000000000815260040161272491906130e6565b60405180910390fd5b805181602001fd5b63150b7a0260e01b7bffffffffffffffffffffffffffffffffffffffffffffffffffffffff1916817bffffffffffffffffffffffffffffffffffffffffffffffffffffffff1916146127be57836040517f64a0ae920000000000000000000000000000000000000000000000000000000081526004016127b591906130e6565b60405180910390fd5b505b5050505050565b606060405180602001604052806000815250905090565b6060600060016127ed84612b90565b01905060008167ffffffffffffffff81111561280c5761280b6132b9565b5b6040519080825280601f01601f19166020018201604052801561283e5781602001600182028036833780820191505090505b509050600082602001820190505b6001156128a1578080600190039150507f3031323334353637383961626364656600000000000000000000000000000000600a86061a8153600a8581612895576128946143ba565b5b0494506000850361284c575b819350505050919050565b6128c6828260405180602001604052806000815250612ce3565b5050565b60006002600083815260200190815260200160002060009054906101000a900473ffffffffffffffffffffffffffffffffffffffff169050919050565b80806129405750600073ffffffffffffffffffffffffffffffffffffffff168273ffffffffffffffffffffffffffffffffffffffff1614155b15612a7457600061295084612061565b9050600073ffffffffffffffffffffffffffffffffffffffff168373ffffffffffffffffffffffffffffffffffffffff16141580156129bb57508273ffffffffffffffffffffffffffffffffffffffff168173ffffffffffffffffffffffffffffffffffffffff1614155b80156129ce57506129cc8184611c98565b155b15612a1057826040517fa9fbf51f000000000000000000000000000000000000000000000000000000008152600401612a0791906130e6565b60405180910390fd5b8115612a7257838573ffffffffffffffffffffffffffffffffffffffff168273ffffffffffffffffffffffffffffffffffffffff167f8c5be1e5ebec7d5bd14f71427d1e84f3dd0314c0f7b2291e5b200ac8c7c3b92560405160405180910390a45b505b836004600085815260200190815260200160002060006101000a81548173ffffffffffffffffffffffffffffffffffffffff021916908373ffffffffffffffffffffffffffffffffffffffff16021790555050505050565b612ad7838383612d07565b612b8b57600073ffffffffffffffffffffffffffffffffffffffff168373ffffffffffffffffffffffffffffffffffffffff1603612b4c57806040517f7e273289000000000000000000000000000000000000000000000000000000008152600401612b43919061317c565b60405180910390fd5b81816040517f177e802f000000000000000000000000000000000000000000000000000000008152600401612b829291906139fd565b60405180910390fd5b505050565b600080600090507a184f03e93ff9f4daa797ed6e38ed64bf6a1f0100000000000000008310612bee577a184f03e93ff9f4daa797ed6e38ed64bf6a1f0100000000000000008381612be457612be36143ba565b5b0492506040810190505b6d04ee2d6d415b85acef81000000008310612c2b576d04ee2d6d415b85acef81000000008381612c2157612c206143ba565b5b0492506020810190505b662386f26fc100008310612c5a57662386f26fc100008381612c5057612c4f6143ba565b5b0492506010810190505b6305f5e1008310612c83576305f5e1008381612c7957612c786143ba565b5b0492506008810190505b6127108310612ca8576127108381612c9e57612c9d6143ba565b5b0492506004810190505b60648310612ccb5760648381612cc157612cc06143ba565b5b0492506002810190505b600a8310612cda576001810190505b80915050919050565b612ced8383612dc8565b612d02612cf8612126565b6000858585612616565b505050565b60008073ffffffffffffffffffffffffffffffffffffffff168373ffffffffffffffffffffffffffffffffffffffff1614158015612dbf57508273ffffffffffffffffffffffffffffffffffffffff168473ffffffffffffffffffffffffffffffffffffffff161480612d805750612d7f8484611c98565b5b80612dbe57508273ffffffffffffffffffffffffffffffffffffffff16612da6836120e9565b73ffffffffffffffffffffffffffffffffffffffff16145b5b90509392505050565b600073ffffffffffffffffffffffffffffffffffffffff168273ffffffffffffffffffffffffffffffffffffffff1603612e3a5760006040517f64a0ae92000000000000000000000000000000000000000000000000000000008152600401612e3191906130e6565b60405180910390fd5b6000612e4883836000612140565b9050600073ffffffffffffffffffffffffffffffffffffffff168173ffffffffffffffffffffffffffffffffffffffff1614612ebc5760006040517f73c6ac6e000000000000000000000000000000000000000000000000000000008152600401612eb391906130e6565b60405180910390fd5b505050565b6000604051905090565b600080fd5b600080fd5b60007fffffffff0000000000000000000000000000000000000000000000000000000082169050919050565b612f0a81612ed5565b8114612f1557600080fd5b50565b600081359050612f2781612f01565b92915050565b600060208284031215612f4357612f42612ecb565b5b6000612f5184828501612f18565b91505092915050565b60008115159050919050565b612f6f81612f5a565b82525050565b6000602082019050612f8a6000830184612f66565b92915050565b600081519050919050565b600082825260208201905092915050565b60005b83811015612fca578082015181840152602081019050612faf565b60008484015250505050565b6000601f19601f8301169050919050565b6000612ff282612f90565b612ffc8185612f9b565b935061300c818560208601612fac565b61301581612fd6565b840191505092915050565b6000602082019050818103600083015261303a8184612fe7565b905092915050565b6000819050919050565b61305581613042565b811461306057600080fd5b50565b6000813590506130728161304c565b92915050565b60006020828403121561308e5761308d612ecb565b5b600061309c84828501613063565b91505092915050565b600073ffffffffffffffffffffffffffffffffffffffff82169050919050565b60006130d0826130a5565b9050919050565b6130e0816130c5565b82525050565b60006020820190506130fb60008301846130d7565b92915050565b61310a816130c5565b811461311557600080fd5b50565b60008135905061312781613101565b92915050565b6000806040838503121561314457613143612ecb565b5b600061315285828601613118565b925050602061316385828601613063565b9150509250929050565b61317681613042565b82525050565b6000602082019050613191600083018461316d565b92915050565b6000610100820190506131ad600083018b61316d565b6131ba602083018a61316d565b6131c760408301896130d7565b81810360608301526131d98188612fe7565b90506131e8608083018761316d565b6131f560a083018661316d565b61320260c083018561316d565b61320f60e0830184612f66565b9998505050505050505050565b60008060006060848603121561323557613234612ecb565b5b600061324386828701613118565b935050602061325486828701613118565b925050604061326586828701613063565b9150509250925092565b6000806040838503121561328657613285612ecb565b5b600061329485828601613063565b92505060206132a585828601613063565b9150509250929050565b600080fd5b600080fd5b7f4e487b7100000000000000000000000000000000000000000000000000000000600052604160045260246000fd5b6132f182612fd6565b810181811067ffffffffffffffff821117156133105761330f6132b9565b5b80604052505050565b6000613323612ec1565b905061332f82826132e8565b919050565b600067ffffffffffffffff82111561334f5761334e6132b9565b5b61335882612fd6565b9050602081019050919050565b82818337600083830152505050565b600061338761338284613334565b613319565b9050828152602081018484840111156133a3576133a26132b4565b5b6133ae848285613365565b509392505050565b600082601f8301126133cb576133ca6132af565b5b81356133db848260208601613374565b91505092915050565b600080604083850312156133fb576133fa612ecb565b5b600061340985828601613063565b925050602083013567ffffffffffffffff81111561342a57613429612ed0565b5b613436858286016133b6565b9150509250929050565b60006020828403121561345657613455612ecb565b5b600061346484828501613118565b91505092915050565b6000806040838503121561348457613483612ecb565b5b600061349285828601613063565b92505060206134a385828601613118565b9150509250929050565b600080600080600060a086880312156134c9576134c8612ecb565b5b600086013567ffffffffffffffff8111156134e7576134e6612ed0565b5b6134f3888289016133b6565b955050602086013567ffffffffffffffff81111561351457613513612ed0565b5b613520888289016133b6565b945050604086013567ffffffffffffffff81111561354157613540612ed0565b5b61354d888289016133b6565b935050606061355e88828901613063565b925050608061356f88828901613063565b9150509295509295909350565b61358581612f5a565b811461359057600080fd5b50565b6000813590506135a28161357c565b92915050565b600080604083850312156135bf576135be612ecb565b5b60006135cd85828601613118565b92505060206135de85828601613593565b9150509250929050565b600067ffffffffffffffff821115613603576136026132b9565b5b61360c82612fd6565b9050602081019050919050565b600061362c613627846135e8565b613319565b905082815260208101848484011115613648576136476132b4565b5b613653848285613365565b509392505050565b600082601f8301126136705761366f6132af565b5b8135613680848260208601613619565b91505092915050565b600080600080608085870312156136a3576136a2612ecb565b5b60006136b187828801613118565b94505060206136c287828801613118565b93505060406136d387828801613063565b925050606085013567ffffffffffffffff8111156136f4576136f3612ed0565b5b6137008782880161365b565b91505092959194509250565b600081519050919050565b600082825260208201905092915050565b6000819050602082019050919050565b61374181613042565b82525050565b60006137538383613738565b60208301905092915050565b6000602082019050919050565b60006137778261370c565b6137818185613717565b935061378c83613728565b8060005b838110156137bd5781516137a48882613747565b97506137af8361375f565b925050600181019050613790565b5085935050505092915050565b600060208201905081810360008301526137e4818461376c565b905092915050565b6000806040838503121561380357613802612ecb565b5b600061381185828601613118565b925050602061382285828601613118565b9150509250929050565b600061016082019050613842600083018e61316d565b8181036020830152613854818d612fe7565b90508181036040830152613868818c612fe7565b9050818103606083015261387c818b612fe7565b905061388b608083018a6130d7565b61389860a083018961316d565b6138a560c083018861316d565b6138b260e083018761316d565b6138c0610100830186612f66565b6138ce61012083018561316d565b6138dc61014083018461316d565b9c9b505050505050505050505050565b6000819050919050565b600061391161390c613907846130a5565b6138ec565b6130a5565b9050919050565b6000613923826138f6565b9050919050565b600061393582613918565b9050919050565b6139458161392a565b82525050565b6000602082019050613960600083018461393c565b92915050565b7f4e487b7100000000000000000000000000000000000000000000000000000000600052602260045260246000fd5b600060028204905060018216806139ad57607f821691505b6020821081036139c0576139bf613966565b5b50919050565b60006060820190506139db60008301866130d7565b6139e8602083018561316d565b6139f560408301846130d7565b949350505050565b6000604082019050613a1260008301856130d7565b613a1f602083018461316d565b9392505050565b600081519050613a358161357c565b92915050565b600060208284031215613a5157613a50612ecb565b5b6000613a5f84828501613a26565b91505092915050565b7f41727469636c6520646f6573206e6f7420657869737400000000000000000000600082015250565b6000613a9e601683612f9b565b9150613aa982613a68565b602082019050919050565b60006020820190508181036000830152613acd81613a91565b9050919050565b7f41727469636c6520697320636f6d706c65746564000000000000000000000000600082015250565b6000613b0a601483612f9b565b9150613b1582613ad4565b602082019050919050565b60006020820190508181036000830152613b3981613afd565b9050919050565b7f596f75206861766520616c726561647920636f6e747269627574656420746f2060008201527f746869732061727469636c650000000000000000000000000000000000000000602082015250565b6000613b9c602c83612f9b565b9150613ba782613b40565b604082019050919050565b60006020820190508181036000830152613bcb81613b8f565b9050919050565b7f436f6e74656e7420746f6f2073686f7274000000000000000000000000000000600082015250565b6000613c08601183612f9b565b9150613c1382613bd2565b602082019050919050565b60006020820190508181036000830152613c3781613bfb565b9050919050565b7f4d617820636f6e7472696275746f727320726561636865640000000000000000600082015250565b6000613c74601883612f9b565b9150613c7f82613c3e565b602082019050919050565b60006020820190508181036000830152613ca381613c67565b9050919050565b7f4e487b7100000000000000000000000000000000000000000000000000000000600052601160045260246000fd5b6000613ce482613042565b91507fffffffffffffffffffffffffffffffffffffffffffffffffffffffffffffffff8203613d1657613d15613caa565b5b600182019050919050565b60008190508160005260206000209050919050565b60006020601f8301049050919050565b600082821b905092915050565b600060088302613d837fffffffffffffffffffffffffffffffffffffffffffffffffffffffffffffffff82613d46565b613d8d8683613d46565b95508019841693508086168417925050509392505050565b6000613dc0613dbb613db684613042565b6138ec565b613042565b9050919050565b6000819050919050565b613dda83613da5565b613dee613de682613dc7565b848454613d53565b825550505050565b600090565b613e03613df6565b613e0e818484613dd1565b505050565b5b81811015613e3257613e27600082613dfb565b600181019050613e14565b5050565b601f821115613e7757613e4881613d21565b613e5184613d36565b81016020851015613e60578190505b613e74613e6c85613d36565b830182613e13565b50505b505050565b600082821c905092915050565b6000613e9a60001984600802613e7c565b1980831691505092915050565b6000613eb38383613e89565b9150826002028217905092915050565b613ecc82612f90565b67ffffffffffffffff811115613ee557613ee46132b9565b5b613eef8254613995565b613efa828285613e36565b600060209050601f831160018114613f2d5760008415613f1b578287015190505b613f258582613ea7565b865550613f8d565b601f198416613f3b86613d21565b60005b82811015613f6357848901518255600182019150602085019450602081019050613f3e565b86831015613f805784890151613f7c601f891682613e89565b8355505b6001600288020188555050505b505050505050565b7f436f6e747269627574696f6e20646f6573206e6f742065786973740000000000600082015250565b6000613fcb601b83612f9b565b9150613fd682613f95565b602082019050919050565b60006020820190508181036000830152613ffa81613fbe565b9050919050565b7f436f6e747269627574696f6e20616c726561647920617070726f766564000000600082015250565b6000614037601d83612f9b565b915061404282614001565b602082019050919050565b600060208201905081810360008301526140668161402a565b9050919050565b600061407882613042565b915061408383613042565b925082820190508082111561409b5761409a613caa565b5b92915050565b7f596f75206861766520616c7265616479206c696b656420746869730000000000600082015250565b60006140d7601b83612f9b565b91506140e2826140a1565b602082019050919050565b60006020820190508181036000830152614106816140ca565b9050919050565b7f43616e6e6f74206c696b6520796f7572206f776e20636f6e747269627574696f60008201527f6e00000000000000000000000000000000000000000000000000000000000000602082015250565b6000614169602183612f9b565b91506141748261410d565b604082019050919050565b600060208201905081810360008301526141988161415c565b9050919050565b600081905092915050565b60006141b582612f90565b6141bf818561419f565b93506141cf818560208601612fac565b80840191505092915050565b60006141e782856141aa565b91506141f382846141aa565b91508190509392505050565b7f41727469636c6520616c726561647920636f6d706c6574656400000000000000600082015250565b6000614235601983612f9b565b9150614240826141ff565b602082019050919050565b6000602082019050818103600083015261426481614228565b9050919050565b7f41727469636c6520686173206e6f20636f6e747269627574696f6e7300000000600082015250565b60006142a1601c83612f9b565b91506142ac8261426b565b602082019050919050565b600060208201905081810360008301526142d081614294565b9050919050565b600081519050919050565b600082825260208201905092915050565b60006142fe826142d7565b61430881856142e2565b9350614318818560208601612fac565b61432181612fd6565b840191505092915050565b600060808201905061434160008301876130d7565b61434e60208301866130d7565b61435b604083018561316d565b818103606083015261436d81846142f3565b905095945050505050565b60008151905061438781612f01565b92915050565b6000602082840312156143a3576143a2612ecb565b5b60006143b184828501614378565b91505092915050565b7f4e487b7100000000000000000000000000000000000000000000000000000000600052601260045260246000fdfea2646970667358221220309c484f94dbd360e285b604062771fb5f568b342a4e511362b83fe341c7e5b764736f6c63430008140033",
  "linkReferences": {},
  "deployedLinkReferences": {}
}