{
  "_format": "hh-sol-artifact-1",
  "contractName": "ArticleNFT",
  "sourceName": "contracts/ArticleNFT.sol",
  "abi": [
    {
      "inputs": [
        {
          "internalType": "string",
          "name": "name",
          "type": "string"
        },
        {
          "internalType": "string",
          "name": "symbol",
          "type": "string"
        },
        {
          "internalType": "address",
          "name": "_platformFeeRecipient",
          "type": "address"
        }
      ],
      "stateMutability": "nonpayable",
      "type": "constructor"
    },
    {
      "inputs": [
        {
          "internalType": "uint256",
          "name": "numerator",
          "type": "uint256"
        },
        {
          "internalType": "uint256",
          "name": "denominator",
          "type": "uint256"
        }
      ],
      "name": "ERC2981InvalidDefaultRoyalty",
      "type": "error"
    },
    {
      "inputs": [
        {
          "internalType": "address",
          "name": "receiver",
          "type": "address"
        }
      ],
      "name": "ERC2981InvalidDefaultRoyaltyReceiver",
      "type": "error"
    },
    {
      "inputs": [
        {
          "internalType": "uint256",
          "name": "tokenId",
          "type": "uint256"
        },
        {
          "internalType": "uint256",
          "name": "numerator",
          "type": "uint256"
        },
        {
          "internalType": "uint256",
          "name": "denominator",
          "type": "uint256"
        }
      ],
      "name": "ERC2981InvalidTokenRoyalty",
      "type": "error"
    },
    {
      "inputs": [
        {
          "internalType": "uint256",
          "name": "tokenId",
          "type": "uint256"
        },
        {
          "internalType": "address",
          "name": "receiver",
          "type": "address"
        }
      ],
      "name": "ERC2981InvalidTokenRoyaltyReceiver",
      "type": "error"
    },
    {
      "inputs": [
        {
          "internalType": "address",
          "name": "sender",
          "type": "address"
        },
        {
          "internalType": "uint256",
          "name": "tokenId",
          "type": "uint256"
        },
        {
          "internalType": "address",
          "name": "owner",
          "type": "address"
        }
      ],
      "name": "ERC721IncorrectOwner",
      "type": "error"
    },
    {
      "inputs": [
        {
          "internalType": "address",
          "name": "operator",
          "type": "address"
        },
        {
          "internalType": "uint256",
          "name": "tokenId",
          "type": "uint256"
        }
      ],
      "name": "ERC721InsufficientApproval",
      "type": "error"
    },
    {
      "inputs": [
        {
          "internalType": "address",
          "name": "approver",
          "type": "address"
        }
      ],
      "name": "ERC721InvalidApprover",
      "type": "error"
    },
    {
      "inputs": [
        {
          "internalType": "address",
          "name": "operator",
          "type": "address"
        }
      ],
      "name": "ERC721InvalidOperator",
      "type": "error"
    },
    {
      "inputs": [
        {
          "internalType": "address",
          "name": "owner",
          "type": "address"
        }
      ],
      "name": "ERC721InvalidOwner",
      "type": "error"
    },
    {
      "inputs": [
        {
          "internalType": "address",
          "name": "receiver",
          "type": "address"
        }
      ],
      "name": "ERC721InvalidReceiver",
      "type": "error"
    },
    {
      "inputs": [
        {
          "internalType": "address",
          "name": "sender",
          "type": "address"
        }
      ],
      "name": "ERC721InvalidSender",
      "type": "error"
    },
    {
      "inputs": [
        {
          "internalType": "uint256",
          "name": "tokenId",
          "type": "uint256"
        }
      ],
      "name": "ERC721NonexistentToken",
      "type": "error"
    },
    {
      "inputs": [
        {
          "internalType": "address",
          "name": "owner",
          "type": "address"
        }
      ],
      "name": "OwnableInvalidOwner",
      "type": "error"
    },
    {
      "inputs": [
        {
          "internalType": "address",
          "name": "account",
          "type": "address"
        }
      ],
      "name": "OwnableUnauthorizedAccount",
      "type": "error"
    },
    {
      "inputs": [],
      "name": "ReentrancyGuardReentrantCall",
      "type": "error"
    },
    {
      "inputs": [
        {
          "internalType": "uint256",
          "name": "value",
          "type": "uint256"
        },
        {
          "internalType": "uint256",
          "name": "length",
          "type": "uint256"
        }
      ],
      "name": "StringsInsufficientHexLength",
      "type": "error"
    },
    {
      "anonymous": false,
      "inputs": [
        {
          "indexed": true,
          "internalType": "address",
          "name": "owner",
          "type": "address"
        },
        {
          "indexed": true,
          "internalType": "address",
          "name": "approved",
          "type": "address"
        },
        {
          "indexed": true,
          "internalType": "uint256",
          "name": "tokenId",
          "type": "uint256"
        }
      ],
      "name": "Approval",
      "type": "event"
    },
    {
      "anonymous": false,
      "inputs": [
        {
          "indexed": true,
          "internalType": "address",
          "name": "owner",
          "type": "address"
        },
        {
          "indexed": true,
          "internalType": "address",
          "name": "operator",
          "type": "address"
        },
        {
          "indexed": false,
          "internalType": "bool",
          "name": "approved",
          "type": "bool"
        }
      ],
      "name": "ApprovalForAll",
      "type": "event"
    },
    {
      "anonymous": false,
      "inputs": [
        {
          "indexed": true,
          "internalType": "uint256",
          "name": "tokenId",
          "type": "uint256"
        },
        {
          "indexed": true,
          "internalType": "address",
          "name": "author",
          "type": "address"
        },
        {
          "indexed": false,
          "internalType": "string",
          "name": "title",
          "type": "string"
        },
        {
          "indexed": false,
          "internalType": "string",
          "name": "ipfsHash",
          "type": "string"
        }
      ],
      "name": "ArticleMinted",
      "type": "event"
    },
    {
      "anonymous": false,
      "inputs": [
        {
          "indexed": true,
          "internalType": "uint256",
          "name": "tokenId",
          "type": "uint256"
        },
        {
          "indexed": true,
          "internalType": "address",
          "name": "seller",
          "type": "address"
        },
        {
          "indexed": true,
          "internalType": "address",
          "name": "buyer",
          "type": "address"
        },
        {
          "indexed": false,
          "internalType": "uint256",
          "name": "price",
          "type": "uint256"
        }
      ],
      "name": "ArticleSale",
      "type": "event"
    },
    {
      "anonymous": false,
      "inputs": [
        {
          "indexed": true,
          "internalType": "uint256",
          "name": "tokenId",
          "type": "uint256"
        },
        {
          "indexed": false,
          "internalType": "string",
          "name": "newTitle",
          "type": "string"
        },
        {
          "indexed": false,
          "internalType": "enum ArticleNFT.ArticleStatus",
          "name": "newStatus",
          "type": "uint8"
        }
      ],
      "name": "ArticleUpdated",
      "type": "event"
    },
    {
      "anonymous": false,
      "inputs": [
        {
          "indexed": true,
          "internalType": "address",
          "name": "previousOwner",
          "type": "address"
        },
        {
          "indexed": true,
          "internalType": "address",
          "name": "newOwner",
          "type": "address"
        }
      ],
      "name": "OwnershipTransferred",
      "type": "event"
    },
    {
      "anonymous": false,
      "inputs": [
        {
          "indexed": true,
          "internalType": "uint256",
          "name": "tokenId",
          "type": "uint256"
        },
        {
          "indexed": false,
          "internalType": "uint256",
          "name": "salePrice",
          "type": "uint256"
        },
        {
          "indexed": false,
          "internalType": "uint256",
          "name": "platformFee",
          "type": "uint256"
        },
        {
          "indexed": false,
          "internalType": "uint256",
          "name": "authorRoyalty",
          "type": "uint256"
        }
      ],
      "name": "RoyaltiesDistributed",
      "type": "event"
    },
    {
      "anonymous": false,
      "inputs": [
        {
          "indexed": true,
          "internalType": "uint256",
          "name": "tokenId",
          "type": "uint256"
        },
        {
          "indexed": false,
          "internalType": "uint256",
          "name": "views",
          "type": "uint256"
        },
        {
          "indexed": false,
          "internalType": "uint256",
          "name": "likes",
          "type": "uint256"
        }
      ],
      "name": "StatsUpdated",
      "type": "event"
    },
    {
      "anonymous": false,
      "inputs": [
        {
          "indexed": true,
          "internalType": "address",
          "name": "from",
          "type": "address"
        },
        {
          "indexed": true,
          "internalType": "address",
          "name": "to",
          "type": "address"
        },
        {
          "indexed": true,
          "internalType": "uint256",
          "name": "tokenId",
          "type": "uint256"
        }
      ],
      "name": "Transfer",
      "type": "event"
    },
    {
      "inputs": [
        {
          "internalType": "address",
          "name": "to",
          "type": "address"
        },
        {
          "internalType": "uint256",
          "name": "tokenId",
          "type": "uint256"
        }
      ],
      "name": "approve",
      "outputs": [],
      "stateMutability": "nonpayable",
      "type": "function"
    },
    {
      "inputs": [
        {
          "internalType": "uint256",
          "name": "",
          "type": "uint256"
        }
      ],
      "name": "articles",
      "outputs": [
        {
          "internalType": "uint256",
          "name": "tokenId",
          "type": "uint256"
        },
        {
          "internalType": "string",
          "name": "title",
          "type": "string"
        },
        {
          "internalType": "string",
          "name": "ipfsHash",
          "type": "string"
        },
        {
          "internalType": "address",
          "name": "author",
          "type": "address"
        },
        {
          "internalType": "uint256",
          "name": "publishedAt",
          "type": "uint256"
        },
        {
          "internalType": "uint256",
          "name": "views",
          "type": "uint256"
        },
        {
          "internalType": "uint256",
          "name": "likes",
          "type": "uint256"
        },
        {
          "internalType": "enum ArticleNFT.ArticleStatus",
          "name": "status",
          "type": "uint8"
        },
        {
          "internalType": "bool",
          "name": "transferLocked",
          "type": "bool"
        }
      ],
      "stateMutability": "view",
      "type": "function"
    },
    {
      "inputs": [
        {
          "internalType": "address",
          "name": "",
          "type": "address"
        },
        {
          "internalType": "uint256",
          "name": "",
          "type": "uint256"
        }
      ],
      "name": "authorArticles",
      "outputs": [
        {
          "internalType": "uint256",
          "name": "",
          "type": "uint256"
        }
      ],
      "stateMutability": "view",
      "type": "function"
    },
    {
      "inputs": [
        {
          "internalType": "address",
          "name": "owner",
          "type": "address"
        }
      ],
      "name": "balanceOf",
      "outputs": [
        {
          "internalType": "uint256",
          "name": "",
          "type": "uint256"
        }
      ],
      "stateMutability": "view",
      "type": "function"
    },
    {
      "inputs": [
        {
          "internalType": "uint256",
          "name": "tokenId",
          "type": "uint256"
        }
      ],
      "name": "buyArticle",
      "outputs": [],
      "stateMutability": "payable",
      "type": "function"
    },
    {
      "inputs": [
        {
          "internalType": "uint256",
          "name": "tokenId",
          "type": "uint256"
        }
      ],
      "name": "cancelSale",
      "outputs": [],
      "stateMutability": "nonpayable",
      "type": "function"
    },
    {
      "inputs": [],
      "name": "defaultRoyaltyPercent",
      "outputs": [
        {
          "internalType": "uint96",
          "name": "",
          "type": "uint96"
        }
      ],
      "stateMutability": "view",
      "type": "function"
    },
    {
      "inputs": [
        {
          "internalType": "uint256[]",
          "name": "tokenIds",
          "type": "uint256[]"
        }
      ],
      "name": "emergencyLockTransfers",
      "outputs": [],
      "stateMutability": "nonpayable",
      "type": "function"
    },
    {
      "inputs": [
        {
          "internalType": "uint256",
          "name": "tokenId",
          "type": "uint256"
        }
      ],
      "name": "getApproved",
      "outputs": [
        {
          "internalType": "address",
          "name": "",
          "type": "address"
        }
      ],
      "stateMutability": "view",
      "type": "function"
    },
    {
      "inputs": [
        {
          "internalType": "uint256",
          "name": "tokenId",
          "type": "uint256"
        }
      ],
      "name": "getArticleInfo",
      "outputs": [
        {
          "components": [
            {
              "internalType": "uint256",
              "name": "tokenId",
              "type": "uint256"
            },
            {
              "internalType": "string",
              "name": "title",
              "type": "string"
            },
            {
              "internalType": "string",
              "name": "ipfsHash",
              "type": "string"
            },
            {
              "internalType": "address",
              "name": "author",
              "type": "address"
            },
            {
              "internalType": "uint256",
              "name": "publishedAt",
              "type": "uint256"
            },
            {
              "internalType": "uint256",
              "name": "views",
              "type": "uint256"
            },
            {
              "internalType": "uint256",
              "name": "likes",
              "type": "uint256"
            },
            {
              "internalType": "enum ArticleNFT.ArticleStatus",
              "name": "status",
              "type": "uint8"
            },
            {
              "internalType": "bytes32[]",
              "name": "categories",
              "type": "bytes32[]"
            },
            {
              "internalType": "bool",
              "name": "transferLocked",
              "type": "bool"
            }
          ],
          "internalType": "struct ArticleNFT.ArticleMeta",
          "name": "",
          "type": "tuple"
        }
      ],
      "stateMutability": "view",
      "type": "function"
    },
    {
      "inputs": [
        {
          "internalType": "address",
          "name": "author",
          "type": "address"
        }
      ],
      "name": "getAuthorArticles",
      "outputs": [
        {
          "internalType": "uint256[]",
          "name": "",
          "type": "uint256[]"
        }
      ],
      "stateMutability": "view",
      "type": "function"
    },
    {
      "inputs": [
        {
          "internalType": "string",
          "name": "",
          "type": "string"
        }
      ],
      "name": "ipfsHashToToken",
      "outputs": [
        {
          "internalType": "uint256",
          "name": "",
          "type": "uint256"
        }
      ],
      "stateMutability": "view",
      "type": "function"
    },
    {
      "inputs": [
        {
          "internalType": "address",
          "name": "owner",
          "type": "address"
        },
        {
          "internalType": "address",
          "name": "operator",
          "type": "address"
        }
      ],
      "name": "isApprovedForAll",
      "outputs": [
        {
          "internalType": "bool",
          "name": "",
          "type": "bool"
        }
      ],
      "stateMutability": "view",
      "type": "function"
    },
    {
      "inputs": [
        {
          "internalType": "uint256",
          "name": "tokenId",
          "type": "uint256"
        },
        {
          "internalType": "uint256",
          "name": "price",
          "type": "uint256"
        },
        {
          "internalType": "uint256",
          "name": "deadline",
          "type": "uint256"
        }
      ],
      "name": "listForSale",
      "outputs": [],
      "stateMutability": "nonpayable",
      "type": "function"
    },
    {
      "inputs": [
        {
          "internalType": "address",
          "name": "to",
          "type": "address"
        },
        {
          "internalType": "string",
          "name": "title",
          "type": "string"
        },
        {
          "internalType": "string",
          "name": "ipfsHash",
          "type": "string"
        },
        {
          "internalType": "bytes32[]",
          "name": "categories",
          "type": "bytes32[]"
        }
      ],
      "name": "mintArticleNFT",
      "outputs": [
        {
          "internalType": "uint256",
          "name": "",
          "type": "uint256"
        }
      ],
      "stateMutability": "payable",
      "type": "function"
    },
    {
      "inputs": [
        {
          "internalType": "address[]",
          "name": "recipients",
          "type": "address[]"
        },
        {
          "internalType": "string[]",
          "name": "titles",
          "type": "string[]"
        },
        {
          "internalType": "string[]",
          "name": "hashes",
          "type": "string[]"
        },
        {
          "internalType": "bytes32[][]",
          "name": "categoriesArray",
          "type": "bytes32[][]"
        }
      ],
      "name": "mintBatch",
      "outputs": [],
      "stateMutability": "nonpayable",
      "type": "function"
    },
    {
      "inputs": [],
      "name": "mintFee",
      "outputs": [
        {
          "internalType": "uint256",
          "name": "",
          "type": "uint256"
        }
      ],
      "stateMutability": "view",
      "type": "function"
    },
    {
      "inputs": [],
      "name": "name",
      "outputs": [
        {
          "internalType": "string",
          "name": "",
          "type": "string"
        }
      ],
      "stateMutability": "view",
      "type": "function"
    },
    {
      "inputs": [],
      "name": "owner",
      "outputs": [
        {
          "internalType": "address",
          "name": "",
          "type": "address"
        }
      ],
      "stateMutability": "view",
      "type": "function"
    },
    {
      "inputs": [
        {
          "internalType": "uint256",
          "name": "tokenId",
          "type": "uint256"
        }
      ],
      "name": "ownerOf",
      "outputs": [
        {
          "internalType": "address",
          "name": "",
          "type": "address"
        }
      ],
      "stateMutability": "view",
      "type": "function"
    },
    {
      "inputs": [],
      "name": "platformFeePercent",
      "outputs": [
        {
          "internalType": "uint256",
          "name": "",
          "type": "uint256"
        }
      ],
      "stateMutability": "view",
      "type": "function"
    },
    {
      "inputs": [],
      "name": "platformFeeRecipient",
      "outputs": [
        {
          "internalType": "address",
          "name": "",
          "type": "address"
        }
      ],
      "stateMutability": "view",
      "type": "function"
    },
    {
      "inputs": [],
      "name": "publicMintEnabled",
      "outputs": [
        {
          "internalType": "bool",
          "name": "",
          "type": "bool"
        }
      ],
      "stateMutability": "view",
      "type": "function"
    },
    {
      "inputs": [],
      "name": "renounceOwnership",
      "outputs": [],
      "stateMutability": "nonpayable",
      "type": "function"
    },
    {
      "inputs": [
        {
          "internalType": "uint256",
          "name": "tokenId",
          "type": "uint256"
        },
        {
          "internalType": "uint256",
          "name": "salePrice",
          "type": "uint256"
        }
      ],
      "name": "royaltyInfo",
      "outputs": [
        {
          "internalType": "address",
          "name": "receiver",
          "type": "address"
        },
        {
          "internalType": "uint256",
          "name": "amount",
          "type": "uint256"
        }
      ],
      "stateMutability": "view",
      "type": "function"
    },
    {
      "inputs": [
        {
          "internalType": "address",
          "name": "from",
          "type": "address"
        },
        {
          "internalType": "address",
          "name": "to",
          "type": "address"
        },
        {
          "internalType": "uint256",
          "name": "tokenId",
          "type": "uint256"
        }
      ],
      "name": "safeTransferFrom",
      "outputs": [],
      "stateMutability": "nonpayable",
      "type": "function"
    },
    {
      "inputs": [
        {
          "internalType": "address",
          "name": "from",
          "type": "address"
        },
        {
          "internalType": "address",
          "name": "to",
          "type": "address"
        },
        {
          "internalType": "uint256",
          "name": "tokenId",
          "type": "uint256"
        },
        {
          "internalType": "bytes",
          "name": "data",
          "type": "bytes"
        }
      ],
      "name": "safeTransferFrom",
      "outputs": [],
      "stateMutability": "nonpayable",
      "type": "function"
    },
    {
      "inputs": [
        {
          "internalType": "uint256",
          "name": "",
          "type": "uint256"
        }
      ],
      "name": "saleInfo",
      "outputs": [
        {
          "internalType": "uint256",
          "name": "price",
          "type": "uint256"
        },
        {
          "internalType": "bool",
          "name": "isForSale",
          "type": "bool"
        },
        {
          "internalType": "uint256",
          "name": "deadline",
          "type": "uint256"
        }
      ],
      "stateMutability": "view",
      "type": "function"
    },
    {
      "inputs": [
        {
          "internalType": "address",
          "name": "operator",
          "type": "address"
        },
        {
          "internalType": "bool",
          "name": "approved",
          "type": "bool"
        }
      ],
      "name": "setApprovalForAll",
      "outputs": [],
      "stateMutability": "nonpayable",
      "type": "function"
    },
    {
      "inputs": [
        {
          "internalType": "uint256",
          "name": "_mintFee",
          "type": "uint256"
        }
      ],
      "name": "setMintFee",
      "outputs": [],
      "stateMutability": "nonpayable",
      "type": "function"
    },
    {
      "inputs": [
        {
          "internalType": "uint256",
          "name": "_feePercent",
          "type": "uint256"
        }
      ],
      "name": "setPlatformFeePercent",
      "outputs": [],
      "stateMutability": "nonpayable",
      "type": "function"
    },
    {
      "inputs": [
        {
          "internalType": "bool",
          "name": "_enabled",
          "type": "bool"
        }
      ],
      "name": "setPublicMintEnabled",
      "outputs": [],
      "stateMutability": "nonpayable",
      "type": "function"
    },
    {
      "inputs": [
        {
          "internalType": "uint256",
          "name": "tokenId",
          "type": "uint256"
        },
        {
          "internalType": "bool",
          "name": "locked",
          "type": "bool"
        }
      ],
      "name": "setTransferLock",
      "outputs": [],
      "stateMutability": "nonpayable",
      "type": "function"
    },
    {
      "inputs": [
        {
          "internalType": "bytes4",
          "name": "interfaceId",
          "type": "bytes4"
        }
      ],
      "name": "supportsInterface",
      "outputs": [
        {
          "internalType": "bool",
          "name": "",
          "type": "bool"
        }
      ],
      "stateMutability": "view",
      "type": "function"
    },
    {
      "inputs": [],
      "name": "symbol",
      "outputs": [
        {
          "internalType": "string",
          "name": "",
          "type": "string"
        }
      ],
      "stateMutability": "view",
      "type": "function"
    },
    {
      "inputs": [
        {
          "internalType": "uint256",
          "name": "tokenId",
          "type": "uint256"
        }
      ],
      "name": "tokenURI",
      "outputs": [
        {
          "internalType": "string",
          "name": "",
          "type": "string"
        }
      ],
      "stateMutability": "view",
      "type": "function"
    },
    {
      "inputs": [],
      "name": "totalSupply",
      "outputs": [
        {
          "internalType": "uint256",
          "name": "",
          "type": "uint256"
        }
      ],
      "stateMutability": "view",
      "type": "function"
    },
    {
      "inputs": [
        {
          "internalType": "address",
          "name": "from",
          "type": "address"
        },
        {
          "internalType": "address",
          "name": "to",
          "type": "address"
        },
        {
          "internalType": "uint256",
          "name": "tokenId",
          "type": "uint256"
        }
      ],
      "name": "transferFrom",
      "outputs": [],
      "stateMutability": "nonpayable",
      "type": "function"
    },
    {
      "inputs": [
        {
          "internalType": "address",
          "name": "newOwner",
          "type": "address"
        }
      ],
      "name": "transferOwnership",
      "outputs": [],
      "stateMutability": "nonpayable",
      "type": "function"
    },
    {
      "inputs": [
        {
          "internalType": "uint256",
          "name": "tokenId",
          "type": "uint256"
        },
        {
          "internalType": "string",
          "name": "newTitle",
          "type": "string"
        },
        {
          "internalType": "enum ArticleNFT.ArticleStatus",
          "name": "newStatus",
          "type": "uint8"
        }
      ],
      "name": "updateArticle",
      "outputs": [],
      "stateMutability": "nonpayable",
      "type": "function"
    },
    {
      "inputs": [
        {
          "internalType": "uint256",
          "name": "tokenId",
          "type": "uint256"
        },
        {
          "internalType": "uint256",
          "name": "newViews",
          "type": "uint256"
        },
        {
          "internalType": "uint256",
          "name": "newLikes",
          "type": "uint256"
        }
      ],
      "name": "updateArticleStats",
      "outputs": [],
      "stateMutability": "nonpayable",
      "type": "function"
    },
    {
      "inputs": [
        {
          "internalType": "uint256",
          "name": "tokenId",
          "type": "uint256"
        },
        {
          "internalType": "string",
          "name": "ipfsHash",
          "type": "string"
        }
      ],
      "name": "verifyContent",
      "outputs": [
        {
          "internalType": "bool",
          "name": "",
          "type": "bool"
        }
      ],
      "stateMutability": "view",
      "type": "function"
    },
    {
      "inputs": [],
      "name": "withdraw",
      "outputs": [],
      "stateMutability": "nonpayable",
      "type": "function"
    }
  ],
  "bytecode": "0x604060808152346200044e5762003f42803803806200001e8162000453565b9283398101906060818303126200044e5780516001600160401b03908181116200044e57836200005091840162000479565b91602093848201518381116200044e5786916200006f91840162000479565b9101516001600160a01b0380821694909290918590036200044e57815190848211620001fd57600254916001938484811c9416801562000443575b8985101462000355578190601f94858111620003ec575b508990858311600114620003825760009262000376575b5050600019600383901b1c191690841b176002555b805190858211620001fd576003928354918583811c931680156200036b575b8a84101462000355578282859411620002fd575b508991831160011462000296576000926200028a575b505060001982841b1c191690831b1790555b3315620002725760088054336001600160a01b031982168117909255875193167f8be0079c531659141344cd1fd0a4f28419497f9722a3daafe3b4186f6b6457e0600080a38060095560fa600f55662386f26fc1000060115560ff196012541617601255821562000230575061017760a11b928284178060105560a01c9161271080841162000213575085519081870190811182821017620001fd57865283815201521760005551613a569081620004ec8239f35b634e487b7160e01b600052604160045260246000fd5b83604491885191636f483d0960e01b835260048301526024820152fd5b62461bcd60e51b815260048101849052601560248201527f496e76616c69642066656520726563697069656e7400000000000000000000006044820152606490fd5b8551631e4fbdf760e01b815260006004820152602490fd5b01519050388062000136565b90859350601f19831691856000528a6000209260005b8c828210620002e65750508411620002cd575b505050811b01905562000148565b015160001983861b60f8161c19169055388080620002bf565b8385015186558997909501949384019301620002ac565b9091925084600052896000208380860160051c8201928c87106200034b575b91869589929594930160051c01915b8281106200033b57505062000120565b600081558695508891016200032b565b925081926200031c565b634e487b7160e01b600052602260045260246000fd5b92607f16926200010c565b015190503880620000d8565b90869350601f1983169160026000528b6000209260005b8d828210620003d55750508411620003bb575b505050811b01600255620000ed565b015160001960f88460031b161c19169055388080620003ac565b8385015186558a9790950194938401930162000399565b9091506002600052896000208580850160051c8201928c861062000439575b918891869594930160051c01915b82811062000429575050620000c1565b6000815585945088910162000419565b925081926200040b565b93607f1693620000aa565b600080fd5b6040519190601f01601f191682016001600160401b03811183821017620001fd57604052565b919080601f840112156200044e5782516001600160401b038111620001fd57602090620004af601f8201601f1916830162000453565b928184528282870101116200044e5760005b818110620004d757508260009394955001015290565b8581018301518482018401528201620004c156fe6080604052600436101561001257600080fd5b60003560e01c806301ffc9a7146102c757806302eb4b88146102c257806306fdde03146102bd578063081812fc146102b8578063095ea7b3146102b35780630f4161aa146102ae578063101a3cc4146102a957806313966db5146102a457806318160ddd1461029f5780631cc4baa81461029a57806320d4ab5a1461029557806323b872dd146102905780632a55205a1461028b5780633ccfd60b14610286578063427440b81461028157806342842e0e1461027c5780634d30823f146102775780634e42f6ae14610272578063598d79bb1461026d5780636352211e146102685780636f4eb1a8146102635780636fd42f4a1461025e57806370a0823114610259578063715018a614610254578063818668d71461024f57806382a950db1461024a57806385aca317146102455780638c639a85146102405780638da5cb5b1461023b57806395d89b41146102365780639f8643b014610231578063a22cb4651461022c578063b88d4fde14610227578063bd94b00514610222578063c87b56dd1461021d578063cab230d214610218578063e5f4640614610213578063e985e9c51461020e578063eb13554f14610209578063edcfafe614610204578063eddd0d9c146101ff578063ee3c65d5146101fa5763f2fde38b146101f557600080fd5b6120cf565b611fce565b611fad565b611f0f565b611d91565b611d34565b611c92565b611c34565b6118ea565b61187b565b611816565b61175d565b6116d7565b611630565b611607565b6115e9565b6114b1565b61131d565b6112a9565b61124b565b6111f2565b6111af565b61103f565b61100f565b610f34565b610d9e565b610d18565b610cca565b610bcd565b610a2a565b6109a5565b61098e565b6108e0565b61075b565b61073d565b61071f565b6106c7565b610671565b610572565b6104f4565b61040f565b61036b565b6102e3565b6001600160e01b03198116036102de57565b600080fd5b346102de5760203660031901126102de576020600435610302816102cc565b63ffffffff60e01b166380ac58cd60e01b811490811561035a575b811561032f575b506040519015158152f35b63152a902d60e11b811491508115610349575b5038610324565b6301ffc9a760e01b14905038610342565b635b5e139f60e01b8114915061031d565b346102de5760203660031901126102de57600435600052600e60205260606040600020805490600260ff60018301541691015490604051928352151560208301526040820152f35b60005b8381106103c65750506000910152565b81810151838201526020016103b6565b906020916103ef815180928185528580860191016103b3565b601f01601f1916010190565b90602061040c9281815201906103d6565b90565b346102de576000806003193601126104f157604051908060025461043281611dba565b808552916001918083169081156104c7575060011461046c575b6104688561045c81870382610b23565b604051918291826103fb565b0390f35b9250600283527f405787fa12a823e0f2b7631cc41b3ba8828b3321ca811111fa75cd3aa3bb5ace5b8284106104af57505050810160200161045c8261046861044c565b80546020858701810191909152909301928101610494565b8695506104689693506020925061045c94915060ff191682840152151560051b820101929361044c565b80fd5b346102de5760203660031901126102de576004356105118161231b565b506000526006602052602060018060a01b0360406000205416604051908152f35b600435906001600160a01b03821682036102de57565b602435906001600160a01b03821682036102de57565b35906001600160a01b03821682036102de57565b346102de5760403660031901126102de5761058b610532565b602435906105988261231b565b3315158061065e575b80610630575b61061857610616926105f79181906001600160a01b0385811691167f8c5be1e5ebec7d5bd14f71427d1e84f3dd0314c0f7b2291e5b200ac8c7c3b925600080a46000526006602052604060002090565b80546001600160a01b0319166001600160a01b03909216919091179055565b005b60405163a9fbf51f60e01b8152336004820152602490fd5b506001600160a01b038116600090815260076020908152604080832033845290915290205460ff16156105a7565b506001600160a01b0381163314156105a1565b346102de5760003660031901126102de57602060ff601254166040519015158152f35b634e487b7160e01b600052603260045260246000fd5b80548210156106c25760005260206000200190600090565b610694565b346102de5760403660031901126102de576106e0610532565b6001600160a01b03166000908152600c60205260409020805460243591908210156102de57602091610711916106aa565b90546040519160031b1c8152f35b346102de5760003660031901126102de576020601154604051908152f35b346102de5760003660031901126102de576020600a54604051908152f35b60203660031901126102de576004356002600954146108bf576002600955600090808252600460205260018060a01b0361079c816040852054161515612e30565b6107b86107b383600052600e602052604060002090565b612fbc565b6107cd6107c86020830151151590565b612ff9565b6107dd6040820151421115613034565b6107ea815134101561306f565b610843836107f78161231b565b93841693610807853314156130b2565b61083061081e83600052600e602052604060002090565b60026000918281558260018201550155565b61083c81855184613243565b3390613102565b83815180341161088d575b5050516040519081523392907f094e509512ef6fc3047d708be2d3a024fcdd63e1b494c696a8213410ebba249890602090a461088a6001600955565b80f35b818061089a8193346130f5565b8181156108b6575b3390f1156108b157833861084e565b6123c7565b506108fc6108a2565b604051633ee5aeb560e01b8152600490fd5b6024359081151582036102de57565b346102de5760403660031901126102de5760043561088a6108ff6108d1565b6109088361231b565b6001600160a01b03939061091f9085163314612ed1565b61093a60009482865260046020526040862054161515612e30565b8352600b602052600960408420019060ff801983541691151516179055565b60609060031901126102de576001600160a01b039060043582811681036102de579160243590811681036102de579060443590565b346102de5761061661099f36610959565b91612184565b346102de5760403660031901126102de576004356000908152600160205260409020546001600160a01b038082169160a01c908215610a15575b506109f86001600160601b036127109216602435612530565b604080516001600160a01b03949094168452919004602083015290f35b600054908116925060a01c90506109f86109df565b346102de576000806003193601126104f157610a44612158565b478015610a7a576008548291829182918291610a70906001600160a01b03165b6001600160a01b031690565b82f1156108b15780f35b60405162461bcd60e51b81526020600482015260146024820152734e6f2066756e647320746f20776974686472617760601b6044820152606490fd5b634e487b7160e01b600052604160045260246000fd5b61014081019081106001600160401b03821117610ae857604052565b610ab6565b606081019081106001600160401b03821117610ae857604052565b602081019081106001600160401b03821117610ae857604052565b90601f801991011681019081106001600160401b03821117610ae857604052565b60405190610b5182610acc565b565b60405190610b5182610aed565b6001600160401b038111610ae857601f01601f191660200190565b929192610b8782610b60565b91610b956040519384610b23565b8294818452818301116102de578281602093846000960137010152565b9080601f830112156102de5781602061040c93359101610b7b565b346102de5760603660031901126102de576004356024356001600160401b0381116102de57610c00903690600401610bb2565b9060443560048110156102de577f25e180e002263eb2f31d0901ba16efa8fc931d9350555a3b8567e380c9ef1731906000938385526004602052610c8c82600760018060a01b03610c588160408b2054161515612e30565b878952600b602052610c7f60408a2091806003840154163314908115610cb3575b50612e73565b8451610ca1575b01612795565b610c9b60405192839283612eb0565b0390a280f35b610cae85600183016126c7565b610c86565b600854166001600160a01b03169050331438610c79565b346102de57610616610cdb36610959565b9060405192610ce984610b08565b60008452610cf8838383612184565b33612403565b60609060031901126102de57600435906024359060443590565b346102de577f10239bdd5c74b679554af458cf0f10870ab12e158e848cdac9ff21471bd161376040610d4936610cfe565b93919290610d55612158565b6000848152600460205282812054909590610d7a906001600160a01b03161515612e30565b848652600b602052806006848820846005820155015582519182526020820152a280f35b346102de5760003660031901126102de57602060105460a01c604051908152f35b6001600160401b038111610ae85760051b60200190565b9080601f830112156102de57813590610dee82610dbf565b92610dfc6040519485610b23565b828452602092838086019160051b830101928084116102de57848301915b848310610e2a5750505050505090565b82356001600160401b0381116102de578691610e4b84848094890101610bb2565b815201920191610e1a565b81601f820112156102de57803591610e6d83610dbf565b92610e7b6040519485610b23565b808452602092838086019260051b8201019283116102de578301905b828210610ea5575050505090565b81358152908301908301610e97565b9080601f830112156102de57813590610ecc82610dbf565b92610eda6040519485610b23565b828452602092838086019160051b830101928084116102de57848301915b848310610f085750505050505090565b82356001600160401b0381116102de578691610f2984848094890101610e56565b815201920191610ef8565b346102de5760803660031901126102de576001600160401b036004358181116102de57366023820112156102de578060040135610f7081610dbf565b91610f7e6040519384610b23565b81835260209160248385019160051b830101913683116102de57602401905b828210610ff85785856024358281116102de57610fbe903690600401610dd6565b6044358381116102de57610fd6903690600401610dd6565b906064359384116102de57610ff2610616943690600401610eb4565b92612d40565b8380916110048461055e565b815201910190610f9d565b346102de5760203660031901126102de57602061102d60043561231b565b6040516001600160a01b039091168152f35b60803660031901126102de57611053610532565b6001600160401b03906024358281116102de57611074903690600401610bb2565b916044358181116102de5761108d903690600401610bb2565b906064359081116102de576110a6903690600401610e56565b9083518015159081611166575b501561112a578051156110f057610468936110e0936110db6110d484611189565b5415612543565b61294e565b6040519081529081906020820190565b60405162461bcd60e51b815260206004820152601260248201527112541194c81a185cda081c995c5d5a5c995960721b6044820152606490fd5b60405162461bcd60e51b8152602060048201526014602482015273092dcecc2d8d2c840e8d2e8d8ca40d8cadccee8d60631b6044820152606490fd5b60c891501115386110b3565b90611185602092828151948592016103b3565b0190565b60206111a29181604051938285809451938492016103b3565b8101600d81520301902090565b346102de5760203660031901126102de576004356001600160401b0381116102de576111e96111e46020923690600401610bb2565b611189565b54604051908152f35b346102de5760203660031901126102de576001600160a01b03611213610532565b1680156112325760005260056020526020604060002054604051908152f35b6040516322718ad960e21b815260006004820152602490fd5b346102de576000806003193601126104f157611265612158565b600880546001600160a01b0319811690915581906001600160a01b03167f8be0079c531659141344cd1fd0a4f28419497f9722a3daafe3b4186f6b6457e08280a380f35b346102de5760203660031901126102de576004358015158091036102de576112cf612158565b60ff801960125416911617601255600080f35b6020908160408183019282815285518094520193019160005b828110611309575050505090565b8351855293810193928101926001016112fb565b346102de576020806003193601126102de576001600160a01b0361133f610532565b16600052600c8152604060002090604051908181845491828152019360005281600020916000905b82821061138a576104688561137e81890382610b23565b604051918291826112e2565b835486529485019460019384019390910190611367565b600411156113ab57565b634e487b7160e01b600052602160045260246000fd5b9060048210156113ab5752565b90815180825260208080930193019160005b8281106113ee575050505090565b8351855293810193928101926001016113e0565b61040c906020815282516020820152602083015161142e610140918260408501526101608401906103d6565b6114a761144d604087015192601f1993848783030160608801526103d6565b60608701516001600160a01b03166080860152608087015160a086015260a087015160c086015260c087015160e086015260e087015161149361010091828801906113c1565b8701516101209386830301848701526113ce565b9401511515910152565b346102de5760203660031901126102de5761046860043560406115df81516114d881610acc565b6115d76009846000808552606060208601526060828601528060608601528060808601528060a08601528060c08601528060e0860152610100976060898701528161012080970152808252600460205261153e60018060a01b0384842054161515612e30565b8152600b6020522061154e610b44565b968154885261155f60018301611e8a565b602089015261157060028301611e8a565b8789015260038201546001600160a01b0316606089015260048201546080890152600582015460a0890152600682015460c08901526115bf6115b6600784015460ff1690565b60e08a01612667565b6115cb6008830161314d565b90880152015460ff1690565b151590840152565b5191829182611402565b346102de5760003660031901126102de576020600f54604051908152f35b346102de5760003660031901126102de576008546040516001600160a01b039091168152602090f35b346102de576000806003193601126104f157604051908060035461165381611dba565b808552916001918083169081156104c7575060011461167c576104688561045c81870382610b23565b9250600383527fc2575a0e9e593c00f959f8c92f12db2869c3395a3b0502d05e2516446f71f85b5b8284106116bf57505050810160200161045c8261046861044c565b805460208587018101919091529093019281016116a4565b346102de576020806003193601126102de576004356001600160401b0381116102de57366023820112156102de5780600401359061171482610dbf565b916117226040519384610b23565b80835260248484019160051b830101913683116102de57602401905b82821061174e57610616846135ce565b8135815290840190840161173e565b346102de5760403660031901126102de57611776610532565b61177e6108d1565b6001600160a01b0382169182156117fd57816117bc6117cd9233600052600760205260406000209060018060a01b0316600052602052604060002090565b9060ff801983541691151516179055565b60405190151581527f17307eab39ab6107e8899845ad3d59bd9653f200f220920489ca2b5937696c3160203392a3005b604051630b61174360e31b815260048101849052602490fd5b346102de5760803660031901126102de5761182f610532565b611837610548565b90604435606435926001600160401b0384116102de57366023850112156102de5761186f610616943690602481600401359101610b7b565b92610cf8838383612184565b346102de5760203660031901126102de576004356118988161231b565b6001600160a01b0391906118af9083163314612ed1565b6118ca60009282845260046020526040842054161515612e30565b8152600e60205261088a6040822060026000918281558260018201550155565b346102de5760203660031901126102de57600435806000526004602052600160a01b6001900360406000205416151561192290612e30565b61193681600052600b602052604060002090565b61193f9061319c565b60208101519060408101519261195490613695565b606082015190919061196e906001600160a01b031661382f565b608082015161197c90613695565b9060a083015161198b90613695565b9260c0015161199990613695565b604051683d913730b6b2911d1160b91b6020820152968796919591602988016119c191611172565b61088b60f21b81526002017f226465736372697074696f6e223a224d6f76696557726974652041727469636c8152661948139195088b60ca1b60208201526027017f22696d616765223a2268747470733a2f2f676174657761792e70696e6174612e81526a636c6f75642f697066732f60a81b6020820152602b01611a4591611172565b61088b60f21b81526002017f2265787465726e616c5f75726c223a2268747470733a2f2f6d6f76696577726981527174652e78797a2f696e646976696475616c2f60701b6020820152603201611a9a91611172565b61088b60f21b81526002016d2261747472696275746573223a5b60901b8152600e017f7b2274726169745f74797065223a22417574686f72222c2276616c7565223a228152602001611aeb91611172565b62089f4b60ea1b81526003017f7b2274726169745f74797065223a225075626c6973686564222c2276616c7565815262111d1160e91b6020820152602301611b3291611172565b62089f4b60ea1b81526003017f7b2274726169745f74797065223a225669657773222c2276616c7565223a22008152601f01611b6d91611172565b62089f4b60ea1b81526003017f7b2274726169745f74797065223a224c696b6573222c2276616c7565223a22008152601f01611ba891611172565b61227d60f01b8152600201615d7d60f01b81526002010390601f19918281018252611bd39082610b23565b611bdc90613927565b6040517f646174613a6170706c69636174696f6e2f6a736f6e3b6261736536342c000000602082015291908290603d8201611c1691611172565b039081018252611c269082610b23565b6040516104688192826103fb565b346102de5760203660031901126102de57600435611c50612158565b6103e88111611c5e57600f55005b60405162461bcd60e51b815260206004820152600c60248201526b08ccaca40e8dede40d0d2ced60a31b6044820152606490fd5b346102de5760403660031901126102de576024356004356001600160401b0382116102de57611cc8610468923690600401610bb2565b90806000526004602052611cea60018060a01b03604060002054161515612e30565b600052600b602052611d0c611d13600260406000200160405192838092611df4565b0382610b23565b80516020918201208251928201929092206040519214825290918291820190565b346102de5760403660031901126102de57602060ff611d85611d54610532565b611d5c610548565b6001600160a01b0391821660009081526007865260408082209290931681526020919091522090565b54166040519015158152f35b346102de5760003660031901126102de576010546040516001600160a01b039091168152602090f35b90600182811c92168015611dea575b6020831014611dd457565b634e487b7160e01b600052602260045260246000fd5b91607f1691611dc9565b9060009291805491611e0583611dba565b918282526001938481169081600014611e675750600114611e27575b50505050565b90919394506000526020928360002092846000945b838610611e53575050505001019038808080611e21565b805485870183015294019385908201611e3c565b9294505050602093945060ff191683830152151560051b01019038808080611e21565b90610b51611e9e9260405193848092611df4565b0383610b23565b9793999895916101009793611ed1611edf92611f0898948c5260208c61012091829101528c01906103d6565b908a820360408c01526103d6565b6001600160a01b03909a166060890152608088015260a087015260c086015260e08501906113c1565b1515910152565b346102de5760203660031901126102de57600435600052600b6020526040600020805461046860405192611f5184611f4a8160018501611df4565b0385610b23565b60405190611f6682611e9e8160028501611df4565b60018060a01b036003820154166004820154600583015490600684015492611fa06009611f97600788015460ff1690565b96015460ff1690565b95604051998a998a611ea5565b346102de5760203660031901126102de57611fc6612158565b600435601155005b346102de57611fdc36610cfe565b612015611fe88461231b565b6001600160a01b0390611ffe9082163314612ed1565b846000526004602052604060002054161515612e30565b811561208a57610616926120859161202e428211612f0f565b61205e612059612055600961204d86600052600b602052604060002090565b015460ff1690565b1590565b612f4e565b612066610b53565b938452600160208501526040840152600052600e602052604060002090565b612f8c565b60405162461bcd60e51b815260206004820152601c60248201527f5072696365206d7573742062652067726561746572207468616e2030000000006044820152606490fd5b346102de5760203660031901126102de576120e8610532565b6120f0612158565b6001600160a01b0390811690811561213f57600854826001600160601b0360a01b821617600855167f8be0079c531659141344cd1fd0a4f28419497f9722a3daafe3b4186f6b6457e0600080a3005b604051631e4fbdf760e01b815260006004820152602490fd5b6008546001600160a01b0316330361216c57565b60405163118cdaa760e01b8152336004820152602490fd5b906001600160a01b038082169081156122cb5784612231926000948286526004602052836040872054166122ad575b828652600460205260408620547fddf252ad1be2c89b69c2b068fc378daa952ba7f163c4a11628f55a4df523b3ef906001600160a01b0316963361229d575b8588169687938461226f575b6001600160a01b0381166000908152600560205260409020600181540190556105f7876000526004602052604060002090565b80a483160361223f57505050565b6040516364283d7b60e01b81526001600160a01b0392831660048201526024810193909352166044820152606490fd5b612278876122f7565b6001600160a01b038a16600090815260056020526040902080546000190190556121fe565b6122a885338a6134f5565b6121f2565b600b6020526122c660ff60096040892001541615612f4e565b6121b3565b604051633250574960e11b815260006004820152602490fd5b604051906122f182610b08565b60008252565b61230b906000526006602052604060002090565b80546001600160a01b0319169055565b6000818152600460205260409020546001600160a01b031690811561233e575090565b60249060405190637e27328960e01b82526004820152fd5b908160209103126102de575161040c816102cc565b61040c939260809260018060a01b0316825260006020830152604082015281606082015201906103d6565b6001600160a01b03918216815291166020820152604081019190915260806060820181905261040c929101906103d6565b6040513d6000823e3d90fd5b3d156123fe573d906123e482610b60565b916123f26040519384610b23565b82523d6000602084013e565b606090565b92939193843b612415575b5050505050565b6020916124386040519485938493630a85bd0160e11b9889865260048601612396565b038160006001600160a01b0388165af1600091816124cd575b50612490578261245f6123d3565b805191908261248957604051633250574960e11b81526001600160a01b0383166004820152602490fd5b6020915001fd5b6001600160e01b031916036124aa5750388080808061240e565b604051633250574960e11b81526001600160a01b03919091166004820152602490fd5b6124ef91925060203d81116124f6575b6124e78183610b23565b810190612356565b9038612451565b503d6124dd565b634e487b7160e01b600052601160045260246000fd5b600281901b91906001600160fe1b0381160361252b57565b6124fd565b8181029291811591840414171561252b57565b1561254a57565b60405162461bcd60e51b815260206004820152601660248201527510dbdb9d195b9d08185b1c9958591e481b5a5b9d195960521b6044820152606490fd5b1561258f57565b60405162461bcd60e51b8152602060048201526011602482015270125b9d985b1a59081c9958da5c1a595b9d607a1b6044820152606490fd5b156125cf57565b60405162461bcd60e51b815260206004820152601760248201527f5075626c6963206d696e74696e672064697361626c65640000000000000000006044820152606490fd5b1561261b57565b60405162461bcd60e51b8152602060048201526015602482015274496e73756666696369656e74206d696e742066656560581b6044820152606490fd5b600019811461252b5760010190565b60048210156113ab5752565b90601f811161268157505050565b600091825260208220906020601f850160051c830194106126bd575b601f0160051c01915b8281106126b257505050565b8181556001016126a6565b909250829061269d565b91909182516001600160401b038111610ae8576126ee816126e88454611dba565b84612673565b602080601f831160011461272a57508192939460009261271f575b50508160011b916000199060031b1c1916179055565b015190503880612709565b90601f1983169561274085600052602060002090565b926000905b88821061277d57505083600195969710612764575b505050811b019055565b015160001960f88460031b161c1916905538808061275a565b80600185968294968601518155019501930190612745565b9060048110156113ab5760ff80198354169116179055565b8151916001600160401b038311610ae857600160401b8311610ae857815483835580841061280f575b506127eb602080920192600052602060002090565b9060005b8481106127fd575050505050565b835183820155928101926001016127ef565b6000838152846020822092830192015b82811061282d5750506127d6565b81815560010161281f565b60096128e1610120610b5194805185556128596020820151600187016126c7565b61286a6040820151600287016126c7565b60608101516003860180546001600160a01b0319166001600160a01b039092169190911790556080810151600486015560a0810151600586015560c081015160068601556128c860e08201516128bf816113a1565b60078701612795565b6128da610100820151600887016127ad565b0151151590565b91019060ff801983541691151516179055565b8054600160401b811015610ae857612911916001820181556106aa565b819291549060031b91821b91600019901b1916179055565b909161294061040c936040845260408401906103d6565b9160208184039101526103d6565b612a50936001600160a01b03821693909261296a851515612588565b60085461297f906001600160a01b0316610a64565b3303612ae3575b612999612994600a54612658565b600a55565b612a55600a548097856129ad838098612b0a565b6129c36129bc60105460a01c90565b8285612c52565b612a366129ce610b44565b84815260208101879052604081018890526001600160a01b03831660608201524260808201526000998a60a08301528a60c0830152612a1060e0830160019052565b61010082015289610120820152612a3185600052600b602052604060002090565b612838565b6001600160a01b03166000908152600c6020526040902090565b6128f4565b82612a5f83611189565b556011543411612aa3575b7f341868c5c6b3abe842179a7c693272930ba67af870b18099ed7b80df31f1d657929350612a9d60405192839283612929565b0390a390565b915091808080612ac0610a64610a6460105460018060a01b031690565b81903415612ad9575b3491f1156108b157818491612a6a565b6108fc9150612ac9565b612af7612af260125460ff1690565b6125c8565b612b05601154341015612614565b612986565b6040918251612b1881610b08565b600081526001600160a01b0383811691908215612c3a57612b3984866133fa565b16612c2257833b612b4b575050505050565b612b756000926020928798969751948580948193630a85bd0160e11b998a8452336004850161236b565b03925af160009181612c02575b50612bc257505050612b926123d3565b8051929083612bbb578151633250574960e11b81526001600160a01b0384166004820152602490fd5b6020849101fd5b9193916001600160e01b03191603612be0575050388080808061240e565b51633250574960e11b81526001600160a01b0391909116600482015260249150fd5b612c1b91925060203d81116124f6576124e78183610b23565b9038612b82565b84516339e3563760e11b815260006004820152602490fd5b8551633250574960e11b815260006004820152602490fd5b906127106001600160601b038416818111612d1b5750506001600160a01b03811615612cfb576040519160408301918383106001600160401b03841117610ae857610b5194612cb3612cc392612cd395604052869060018060a01b03169052565b6001600160601b03166020850152565b6000526001602052604060002090565b815160209092015160a01b6001600160a01b0319166001600160a01b03909216919091179055565b604051634b4f842960e11b81526004810183905260006024820152604490fd5b60405163dfd1fc1b60e01b815260048101949094526024840152604483015250606490fd5b9392919093612d4d612158565b805185518091149081612e11575b5080612e06575b15612dcf5760005b8151811015612dc75780612dbc612d94612d87612dc29486612e1c565b516001600160a01b031690565b612d9e838a612e1c565b51612da98488612e1c565b5190612db5858a612e1c565b519261294e565b50612658565b612d6a565b505050509050565b60405162461bcd60e51b815260206004820152600f60248201526e098cadccee8d040dad2e6dac2e8c6d608b1b6044820152606490fd5b508151835114612d62565b905082511438612d5b565b80518210156106c25760209160051b010190565b15612e3757565b60405162461bcd60e51b8152602060048201526014602482015273151bdad95b88191bd95cc81b9bdd08195e1a5cdd60621b6044820152606490fd5b15612e7a57565b60405162461bcd60e51b815260206004820152600e60248201526d139bdd08185d5d1a1bdc9a5e995960921b6044820152606490fd5b92916020612ec9610b51936040875260408701906103d6565b9401906113c1565b15612ed857565b60405162461bcd60e51b815260206004820152600f60248201526e2737ba103a37b5b2b71037bbb732b960891b6044820152606490fd5b15612f1657565b60405162461bcd60e51b815260206004820152601060248201526f496e76616c696420646561646c696e6560801b6044820152606490fd5b15612f5557565b60405162461bcd60e51b815260206004820152600f60248201526e151c985b9cd9995c881b1bd8dad959608a1b6044820152606490fd5b90604060029180518455612fb560208201511515600186019060ff801983541691151516179055565b0151910155565b90604051606081018181106001600160401b03821117610ae8576040526040600282948054845260ff600182015416151560208501520154910152565b1561300057565b60405162461bcd60e51b815260206004820152600c60248201526b4e6f7420666f722073616c6560a01b6044820152606490fd5b1561303b57565b60405162461bcd60e51b815260206004820152600c60248201526b14d85b1948195e1c1a5c995960a21b6044820152606490fd5b1561307657565b60405162461bcd60e51b8152602060048201526014602482015273125b9cdd59999a58da595b9d081c185e5b595b9d60621b6044820152606490fd5b156130b957565b60405162461bcd60e51b815260206004820152601460248201527321b0b73737ba10313abc9037bbb7103a37b5b2b760611b6044820152606490fd5b9190820391821161252b57565b906001600160a01b0390818116156122cb578361311e916133fa565b90808216908161314157604051637e27328960e01b815260048101869052602490fd5b83160361223f57505050565b9060405191828154918282526020928383019160005283600020936000905b82821061318257505050610b5192500383610b23565b85548452600195860195889550938101939091019061316c565b90610b5161323960096131ad610b44565b94805486526131be60018201611e8a565b60208701526131cf60028201611e8a565b604087015260038101546001600160a01b0316606087015260048101546080870152600581015460a0870152600681015460c087015261321f613216600783015460ff1690565b60e08801612667565b61322b6008820161314d565b610100870152015460ff1690565b1515610120840152565b9161326061325b84600052600b602052604060002090565b61319c565b91613278613270600f5483612530565b612710900490565b60609390930180516000949390613297906001600160a01b0316610a64565b6001600160a01b039091169081036133cb575b6132bd856132b886866130f5565b6130f5565b91848015801561338f575b50508580158015613350575b5050508115801561332a575b5050506133257f4e35aa6e33aa135ca4f8d8472f2ec43cbdaa410ce540b0d5522fa4edf8ff250193604051938493846040919493926060820195825260208201520152565b0390a2565b60008093819382938390613347575bf1156108b1573880806132e0565b506108fc613339565b91516000928392839283929061337090610a64906001600160a01b031681565b908390613386575bf1156108b1573885816132d4565b506108fc613378565b600080809381936133ad610a64610a6460105460018060a01b031690565b9083906133c2575bf1156108b15784386132c8565b506108fc6133b5565b93506133f46132706133ee6133e260105460a01c90565b6001600160601b031690565b84612530565b936132aa565b600082815260046020526040812054909291906001600160a01b039081166134d7575b828452600460205260408420547fddf252ad1be2c89b69c2b068fc378daa952ba7f163c4a11628f55a4df523b3ef906001600160a01b03169461348083871693846134a9575b85169485613485575b6105f7876000526004602052604060002090565b80a490565b6001600160a01b03811660009081526005602052604090206001815401905561346c565b6134b2876122f7565b6001600160a01b03881660009081526005602052604090208054600019019055613463565b600b6020526134f060ff60096040872001541615612f4e565b61341d565b6001600160a01b03908282168015159081613560575b50156135175750505050565b1661353557604051637e27328960e01b815260048101839052602490fd5b60405163177e802f60e01b81526001600160a01b039190911660048201526024810191909152604490fd5b82841680821492508215613598575b50811561357e575b503861350b565b905084600052600660205282604060002054161438613577565b909150600052600760205260ff6135c58560406000209060018060a01b0316600052602052604060002090565b5416903861356f565b6135d6612158565b60005b815181101561364457806135f06136159284612e1c565b51600052602060048152604060018060a01b0381600020541661361a575b5050612658565b6135d9565b600b6009926136298588612e1c565b516000525260002001600160ff19825416179055388061360e565b5050565b6040519061365582610aed565b602a82526040366020840137565b9061366d82610b60565b61367a6040519182610b23565b828152809261368b601f1991610b60565b0190602036910137565b806000917a184f03e93ff9f4daa797ed6e38ed64bf6a1f010000000000000000808210156137ca575b506d04ee2d6d415b85acef8100000000808310156137bb575b50662386f26fc10000808310156137ac575b506305f5e1008083101561379d575b506127108083101561378e575b50606482101561377e575b600a80921015613774575b60019081602161372c828701613663565b95860101905b61373e575b5050505090565b600019019083906f181899199a1a9b1b9c1cb0b131b232b360811b8282061a83530491821561376f57919082613732565b613737565b916001019161371b565b9190606460029104910191613710565b60049193920491019138613705565b600891939204910191386136f8565b601091939204910191386136e9565b602091939204910191386136d7565b6040935081049150386136be565b906002820180921161252b57565b906020820180921161252b57565b8051156106c25760200190565b8051600110156106c25760210190565b9081518110156106c2570160200190565b801561252b576000190190565b80613838613648565b916030613844846137f4565b53607861385084613801565b5360295b600181116138865750613865575090565b60405163e22e27eb60e01b8152600481019190915260146024820152604490fd5b90600f81169060108210156106c2576138c3916f181899199a1a9b1b9c1cb0b131b232b360811b901a6138b98487613811565b5360041c91613822565b613854565b604051906138d582610aed565b604082527f6768696a6b6c6d6e6f707172737475767778797a303132333435363738392b2f6040837f4142434445464748494a4b4c4d4e4f505152535455565758595a61626364656660208201520152565b805115613a17576139366138c8565b61395261394d61394684516137d8565b6003900490565b612513565b9161396461395f846137e6565b613663565b60009490602081015b83518710156139cf576004600391888601516001603f9080828460121c168b010151918a60ff9384848488600c1c1684010151168585600894868a60061c160101511691831b01821b01901b93168a010151160160e01b81520196019561396d565b92909493506003919550510680600114613a03576002146139f1575b50815290565b603d60f81b60001990910152386139eb565b50613d3d60f01b60011990910152386139eb565b5061040c6122e456fea2646970667358221220232fbe2d0c6d06317a32e21f70707065dbce74d704f67a9b7cfd3f54f2e58a6c64736f6c63430008140033",
  "linkReferences": {},
  "deployedLinkReferences": {}
}